{
    "contractName": "DaiMigrator",
    "abi": [
        {
            "constant": false,
            "inputs": [],
            "name": "renounceOwnership",
            "outputs": [],
            "payable": false,
            "stateMutability": "nonpayable",
            "type": "function"
        },
        {
            "constant": true,
            "inputs": [],
            "name": "owner",
            "outputs": [
                {
                    "name": "",
                    "type": "address"
                }
            ],
            "payable": false,
            "stateMutability": "view",
            "type": "function"
        },
        {
            "constant": true,
            "inputs": [],
            "name": "isOwner",
            "outputs": [
                {
                    "name": "",
                    "type": "bool"
                }
            ],
            "payable": false,
            "stateMutability": "view",
            "type": "function"
        },
        {
            "constant": true,
            "inputs": [
                {
                    "name": "",
                    "type": "address"
                }
            ],
            "name": "g_migrators",
            "outputs": [
                {
                    "name": "",
                    "type": "bool"
                }
            ],
            "payable": false,
            "stateMutability": "view",
            "type": "function"
        },
        {
            "constant": false,
            "inputs": [
                {
                    "name": "newOwner",
                    "type": "address"
                }
            ],
            "name": "transferOwnership",
            "outputs": [],
            "payable": false,
            "stateMutability": "nonpayable",
            "type": "function"
        },
        {
            "inputs": [
                {
                    "name": "migrators",
                    "type": "address[]"
                }
            ],
            "payable": false,
            "stateMutability": "nonpayable",
            "type": "constructor"
        },
        {
            "anonymous": false,
            "inputs": [
                {
                    "indexed": false,
                    "name": "migrator",
                    "type": "address"
                }
            ],
            "name": "LogMigratorAdded",
            "type": "event"
        },
        {
            "anonymous": false,
            "inputs": [
                {
                    "indexed": false,
                    "name": "migrator",
                    "type": "address"
                }
            ],
            "name": "LogMigratorRemoved",
            "type": "event"
        },
        {
            "anonymous": false,
            "inputs": [
                {
                    "indexed": true,
                    "name": "previousOwner",
                    "type": "address"
                },
                {
                    "indexed": true,
                    "name": "newOwner",
                    "type": "address"
                }
            ],
            "name": "OwnershipTransferred",
            "type": "event"
        },
        {
            "constant": false,
            "inputs": [
                {
                    "name": "migrator",
                    "type": "address"
                }
            ],
            "name": "addMigrator",
            "outputs": [],
            "payable": false,
            "stateMutability": "nonpayable",
            "type": "function"
        },
        {
            "constant": false,
            "inputs": [
                {
                    "name": "migrator",
                    "type": "address"
                }
            ],
            "name": "removeMigrator",
            "outputs": [],
            "payable": false,
            "stateMutability": "nonpayable",
            "type": "function"
        },
        {
            "constant": false,
            "inputs": [
                {
                    "name": "inputMarketId",
                    "type": "uint256"
                },
                {
                    "name": "outputMarketId",
                    "type": "uint256"
                },
                {
                    "components": [
                        {
                            "name": "owner",
                            "type": "address"
                        },
                        {
                            "name": "number",
                            "type": "uint256"
                        }
                    ],
                    "name": "",
                    "type": "tuple"
                },
                {
                    "components": [
                        {
                            "name": "owner",
                            "type": "address"
                        },
                        {
                            "name": "number",
                            "type": "uint256"
                        }
                    ],
                    "name": "takerAccount",
                    "type": "tuple"
                },
                {
                    "components": [
                        {
                            "name": "sign",
                            "type": "bool"
                        },
                        {
                            "name": "value",
                            "type": "uint128"
                        }
                    ],
                    "name": "oldInputPar",
                    "type": "tuple"
                },
                {
                    "components": [
                        {
                            "name": "sign",
                            "type": "bool"
                        },
                        {
                            "name": "value",
                            "type": "uint128"
                        }
                    ],
                    "name": "newInputPar",
                    "type": "tuple"
                },
                {
                    "components": [
                        {
                            "name": "sign",
                            "type": "bool"
                        },
                        {
                            "name": "value",
                            "type": "uint256"
                        }
                    ],
                    "name": "inputWei",
                    "type": "tuple"
                },
                {
                    "name": "",
                    "type": "bytes"
                }
            ],
            "name": "getTradeCost",
            "outputs": [
                {
                    "components": [
                        {
                            "name": "sign",
                            "type": "bool"
                        },
                        {
                            "name": "denomination",
                            "type": "uint8"
                        },
                        {
                            "name": "ref",
                            "type": "uint8"
                        },
                        {
                            "name": "value",
                            "type": "uint256"
                        }
                    ],
                    "name": "",
                    "type": "tuple"
                }
            ],
            "payable": false,
            "stateMutability": "nonpayable",
            "type": "function"
        }
    ],
    "bytecode": "0x60806040523480156200001157600080fd5b506040516200142c3803806200142c833981018060405262000037919081019062000180565b60008054600160a060020a0319163317808255604051600160a060020a039190911691907f8be0079c531659141344cd1fd0a4f28419497f9722a3daafe3b4186f6b6457e0908290a360005b8151811015620000da5760018060008484815181106200009f57fe5b602090810291909101810151600160a060020a03168252810191909152604001600020805460ff191691151591909117905560010162000083565b505062000227565b6000620000f0825162000208565b9392505050565b600082601f8301126200010957600080fd5b8151620001206200011a82620001e7565b620001c0565b915081818352602084019350602081019050838560208402820111156200014657600080fd5b60005b838110156200017657816200015f8882620000e2565b845250602092830192919091019060010162000149565b5050505092915050565b6000602082840312156200019357600080fd5b81516001604060020a03811115620001aa57600080fd5b620001b884828501620000f7565b949350505050565b6040518181016001604060020a0381118282101715620001df57600080fd5b604052919050565b60006001604060020a03821115620001fe57600080fd5b5060209081020190565b600062000215826200021b565b92915050565b600160a060020a031690565b6111f580620002376000396000f3fe608060405234801561001057600080fd5b50600436106100a5576000357c0100000000000000000000000000000000000000000000000000000000900480638f32d59b116100785780638f32d59b146101055780639c5303eb1461011a578063df1a65ce1461012d578063f2fde38b14610140576100a5565b80631b3e870a146100aa578063448f7065146100bf578063715018a6146100e85780638da5cb5b146100f0575b600080fd5b6100bd6100b8366004610d66565b610153565b005b6100d26100cd366004610d8c565b6101e7565b6040516100df919061102d565b60405180910390f35b6100bd6104c6565b6100f8610546565b6040516100df9190610ffa565b61010d610562565b6040516100df919061100e565b6100bd610128366004610d66565b610580565b61010d61013b366004610d66565b61061a565b6100bd61014e366004610d66565b61062f565b61015b610562565b61016457600080fd5b7fcb8173b42caf2720edf2cd77d971469c0b3773c3a763173d13352341563f6d16816040516101939190610ffa565b60405180910390a173ffffffffffffffffffffffffffffffffffffffff16600090815260016020526040902080547fffffffffffffffffffffffffffffffffffffffffffffffffffffffffffffff00169055565b6101ef610c06565b855173ffffffffffffffffffffffffffffffffffffffff1660009081526001602052604090205486516102699160ff16907f4461694d69677261746f72000000000000000000000000000000000000000000907f4d69677261746f72206e6f7420617070726f76656400000000000000000000009061064c565b6102c360018a14801561027c5750600389145b7f4461694d69677261746f720000000000000000000000000000000000000000007f496e76616c6964206d61726b6574730000000000000000000000000000000000610751565b6102cc856107a0565b1561037d576103246102dd846107cf565b7f4461694d69677261746f720000000000000000000000000000000000000000007f696e707574576569206d757374206265206e6567617469766500000000000000610751565b610378610330856107e6565b157f4461694d69677261746f720000000000000000000000000000000000000000007f6e6577496e7075745061722063616e6e6f74206265206e656761746976650000610751565b610495565b610386856107e6565b15610432576103de6103978461080f565b7f4461694d69677261746f720000000000000000000000000000000000000000007f696e707574576569206d75737420626520706f73697469766500000000000000610751565b6103786103ea856107a0565b157f4461694d69677261746f720000000000000000000000000000000000000000007f6e6577496e7075745061722063616e6e6f7420626520706f7369746976650000610751565b61049561043e84610825565b801561044e575061044e8561082d565b7f4461694d69677261746f720000000000000000000000000000000000000000007f696e707574576569206d757374206265207a65726f0000000000000000000000610751565b5050604080516080810182528251158152600060208083018290529282015291015160608201529695505050505050565b6104ce610562565b6104d757600080fd5b6000805460405173ffffffffffffffffffffffffffffffffffffffff909116907f8be0079c531659141344cd1fd0a4f28419497f9722a3daafe3b4186f6b6457e0908390a3600080547fffffffffffffffffffffffff0000000000000000000000000000000000000000169055565b60005473ffffffffffffffffffffffffffffffffffffffff1690565b60005473ffffffffffffffffffffffffffffffffffffffff16331490565b610588610562565b61059157600080fd5b7fe52e740a95b46589ca1d8afd55af070881296f3051ed12d6b7f5e080a9dadc71816040516105c09190610ffa565b60405180910390a173ffffffffffffffffffffffffffffffffffffffff16600090815260016020819052604090912080547fffffffffffffffffffffffffffffffffffffffffffffffffffffffffffffff00169091179055565b60016020526000908152604090205460ff1681565b610637610562565b61064057600080fd5b61064981610847565b50565b8361074b5761065a836108f4565b7f3a20000000000000000000000000000000000000000000000000000000000000610684846108f4565b7f203c0000000000000000000000000000000000000000000000000000000000006106ae856109f3565b6040516106e49594939291907f3e0000000000000000000000000000000000000000000000000000000000000090602001610f9c565b604080517fffffffffffffffffffffffffffffffffffffffffffffffffffffffffffffffe0818403018152908290527f08c379a00000000000000000000000000000000000000000000000000000000082526107429160040161101c565b60405180910390fd5b50505050565b8261079b5761075f826108f4565b7f3a20000000000000000000000000000000000000000000000000000000000000610789836108f4565b6040516020016106e493929190610f6b565b505050565b805160009080156107c75750600082602001516fffffffffffffffffffffffffffffffff16115b90505b919050565b80516000901580156107c757505060200151151590565b80516000901580156107c7575050602001516fffffffffffffffffffffffffffffffff16151590565b805160009080156107c757505060200151151590565b602001511590565b602001516fffffffffffffffffffffffffffffffff161590565b73ffffffffffffffffffffffffffffffffffffffff811661086757600080fd5b6000805460405173ffffffffffffffffffffffffffffffffffffffff808516939216917f8be0079c531659141344cd1fd0a4f28419497f9722a3daafe3b4186f6b6457e091a3600080547fffffffffffffffffffffffff00000000000000000000000000000000000000001673ffffffffffffffffffffffffffffffffffffffff92909216919091179055565b606080826040516020016109089190610f56565b604080517fffffffffffffffffffffffffffffffffffffffffffffffffffffffffffffffe0818403018152919052905060205b80156109d85781517fffffffffffffffffffffffffffffffffffffffffffffffffffffffffffffffff9091019082908290811061097457fe5b6020910101517f010000000000000000000000000000000000000000000000000000000000000090819004027fff0000000000000000000000000000000000000000000000000000000000000016156109d357600101815290506107ca565b61093b565b5060408051600080825260208201909252905b509392505050565b60408051602a808252606082810190935273ffffffffffffffffffffffffffffffffffffffff841691839160208201818038833901905050905060307f01000000000000000000000000000000000000000000000000000000000000000281600081518110610a5e57fe5b60200101907effffffffffffffffffffffffffffffffffffffffffffffffffffffffffffff1916908160001a90535060787f01000000000000000000000000000000000000000000000000000000000000000281600181518110610abe57fe5b60200101907effffffffffffffffffffffffffffffffffffffffffffffffffffffffffffff1916908160001a90535060005b60148110156109eb5760028102610b09600f8516610ba6565b838260290381518110610b1857fe5b60200101907effffffffffffffffffffffffffffffffffffffffffffffffffffffffffffff1916908160001a905350601090930492610b59600f8516610ba6565b838260280381518110610b6857fe5b60200101907effffffffffffffffffffffffffffffffffffffffffffffffffffffffffffff1916908160001a90535050601090920491600101610af0565b6000600a821015610bdd57507f010000000000000000000000000000000000000000000000000000000000000060308201026107ca565b506057017f01000000000000000000000000000000000000000000000000000000000000000290565b604080516080810190915260008082526020820190815260200160008152602001600081525090565b6000610c3b82356110b5565b9392505050565b6000610c3b82356110c0565b600082601f830112610c5f57600080fd5b8135610c72610c6d82611062565b61103b565b91508082526020830160208301858383011115610c8e57600080fd5b610c9983828461115b565b50505092915050565b600060408284031215610cb457600080fd5b610cbe604061103b565b90506000610ccc8484610c2f565b8252506020610cdd84848301610d5a565b60208301525092915050565b600060408284031215610cfb57600080fd5b610d05604061103b565b90506000610d138484610c42565b8252506020610cdd84848301610d4e565b600060408284031215610d3657600080fd5b610d40604061103b565b90506000610ccc8484610c42565b6000610c3b823561113b565b6000610c3b823561110f565b600060208284031215610d7857600080fd5b6000610d848484610c2f565b949350505050565b6000806000806000806000806101a0898b031215610da957600080fd5b6000610db58b8b610d5a565b9850506020610dc68b828c01610d5a565b9750506040610dd78b828c01610ca2565b9650506080610de88b828c01610ca2565b95505060c0610df98b828c01610ce9565b945050610100610e0b8b828c01610ce9565b935050610140610e1d8b828c01610d24565b92505061018089013567ffffffffffffffff811115610e3b57600080fd5b610e478b828c01610c4e565b9150509295985092959890939650565b610e60816110b5565b82525050565b610e60816110c0565b610e60610e7b826110c5565b61110f565b610e60610e7b826110ea565b610e60610e7b8261110f565b6000610ea3826110a8565b610ead81856107ca565b9350610ebd818560208601611167565b9290920192915050565b610e6081611150565b6000610edb826110a8565b610ee581856110ac565b9350610ef5818560208601611167565b610efe81611193565b9093019392505050565b80516080830190610f198482610e66565b506020820151610f2c6020850182610ec7565b506040820151610f3f6040850182610ec7565b50606082015161074b6060850182610e608161110f565b6000610f628284610e8c565b50602001919050565b6000610f778286610e98565b9150610f838285610e80565b600282019150610f938284610e98565b95945050505050565b6000610fa88289610e98565b9150610fb48288610e80565b600282019150610fc48287610e98565b9150610fd08286610e80565b600282019150610fe08285610e98565b9150610fec8284610e6f565b506001019695505050505050565b602081016110088284610e57565b92915050565b602081016110088284610e66565b60208082528101610c3b8184610ed0565b608081016110088284610f08565b60405181810167ffffffffffffffff8111828210171561105a57600080fd5b604052919050565b600067ffffffffffffffff82111561107957600080fd5b506020601f919091017fffffffffffffffffffffffffffffffffffffffffffffffffffffffffffffffe0160190565b5190565b90815260200190565b60006107c782611122565b151590565b7fff000000000000000000000000000000000000000000000000000000000000001690565b7fffff0000000000000000000000000000000000000000000000000000000000001690565b90565b60006002821061111e57fe5b5090565b73ffffffffffffffffffffffffffffffffffffffff1690565b6fffffffffffffffffffffffffffffffff1690565b60006107c782611112565b82818337506000910152565b60005b8381101561118257818101518382015260200161116a565b8381111561074b5750506000910152565b601f017fffffffffffffffffffffffffffffffffffffffffffffffffffffffffffffffe0169056fea265627a7a72305820d12c8720ec817224657cbbac1790cf4a81130758cbf15aae2e1afefdd45533976c6578706572696d656e74616cf50037",
    "source": "/*\n\n    Copyright 2019 dYdX Trading Inc.\n\n    Licensed under the Apache License, Version 2.0 (the \"License\");\n    you may not use this file except in compliance with the License.\n    You may obtain a copy of the License at\n\n    http://www.apache.org/licenses/LICENSE-2.0\n\n    Unless required by applicable law or agreed to in writing, software\n    distributed under the License is distributed on an \"AS IS\" BASIS,\n    WITHOUT WARRANTIES OR CONDITIONS OF ANY KIND, either express or implied.\n    See the License for the specific language governing permissions and\n    limitations under the License.\n\n*/\n\npragma solidity 0.5.7;\npragma experimental ABIEncoderV2;\n\nimport { Ownable } from \"openzeppelin-solidity/contracts/ownership/Ownable.sol\";\nimport { IAutoTrader } from \"../../protocol/interfaces/IAutoTrader.sol\";\nimport { Account } from \"../../protocol/lib/Account.sol\";\nimport { Require } from \"../../protocol/lib/Require.sol\";\nimport { Types } from \"../../protocol/lib/Types.sol\";\n\n\n/**\n * @title DaiMigrator\n * @author dYdX\n *\n * Allows for moving SAI positions to DAI positions.\n */\ncontract DaiMigrator is\n    Ownable,\n    IAutoTrader\n{\n    using Types for Types.Wei;\n    using Types for Types.Par;\n\n    // ============ Constants ============\n\n    bytes32 constant FILE = \"DaiMigrator\";\n\n    uint256 constant SAI_MARKET = 1;\n\n    uint256 constant DAI_MARKET = 3;\n\n    // ============ Events ============\n\n    event LogMigratorAdded(\n        address migrator\n    );\n\n    event LogMigratorRemoved(\n        address migrator\n    );\n\n    // ============ Storage ============\n\n    // the addresses that are able to migrate positions\n    mapping (address => bool) public g_migrators;\n\n    // ============ Constructor ============\n\n    constructor (\n        address[] memory migrators\n    )\n        public\n    {\n        for (uint256 i = 0; i < migrators.length; i++) {\n            g_migrators[migrators[i]] = true;\n        }\n    }\n\n    // ============ Admin Functions ============\n\n    function addMigrator(\n        address migrator\n    )\n        external\n        onlyOwner\n    {\n        emit LogMigratorAdded(migrator);\n        g_migrators[migrator] = true;\n    }\n\n    function removeMigrator(\n        address migrator\n    )\n        external\n        onlyOwner\n    {\n        emit LogMigratorRemoved(migrator);\n        g_migrators[migrator] = false;\n    }\n\n    // ============ Only-Solo Functions ============\n\n    function getTradeCost(\n        uint256 inputMarketId,\n        uint256 outputMarketId,\n        Account.Info memory /* makerAccount */,\n        Account.Info memory takerAccount,\n        Types.Par memory oldInputPar,\n        Types.Par memory newInputPar,\n        Types.Wei memory inputWei,\n        bytes memory /* data */\n    )\n        public\n        /* view */\n        returns (Types.AssetAmount memory)\n    {\n        Require.that(\n            g_migrators[takerAccount.owner],\n            FILE,\n            \"Migrator not approved\",\n            takerAccount.owner\n        );\n\n        Require.that(\n            inputMarketId == SAI_MARKET && outputMarketId == DAI_MARKET,\n            FILE,\n            \"Invalid markets\"\n        );\n\n        // require that SAI amount is getting smaller (closer to zero)\n        if (oldInputPar.isPositive()) {\n            Require.that(\n                inputWei.isNegative(),\n                FILE,\n                \"inputWei must be negative\"\n            );\n            Require.that(\n                !newInputPar.isNegative(),\n                FILE,\n                \"newInputPar cannot be negative\"\n            );\n        } else if (oldInputPar.isNegative()) {\n            Require.that(\n                inputWei.isPositive(),\n                FILE,\n                \"inputWei must be positive\"\n            );\n            Require.that(\n                !newInputPar.isPositive(),\n                FILE,\n                \"newInputPar cannot be positive\"\n            );\n        } else {\n            Require.that(\n                inputWei.isZero() && newInputPar.isZero(),\n                FILE,\n                \"inputWei must be zero\"\n            );\n        }\n\n        /* return the exact opposite amount of SAI in DAI */\n        return Types.AssetAmount ({\n            sign: !inputWei.sign,\n            denomination: Types.AssetDenomination.Wei,\n            ref: Types.AssetReference.Delta,\n            value: inputWei.value\n        });\n    }\n}\n",
    "sourcePath": "/home/dydx/app/contracts/external/traders/DaiMigrator.sol",
    "compiler": {
        "name": "solc",
        "version": "0.5.7+commit.6da8b019.Emscripten.clang"
    },
    "schemaVersion": "3.0.23",
    "updatedAt": "2022-11-11T03:47:08.254Z",
    "networkType": "ethereum",
    "devdoc": {
        "author": "dYdX * Allows for moving SAI positions to DAI positions.",
        "methods": {
            "isOwner()": {
                "return": "true if `msg.sender` is the owner of the contract."
            },
            "owner()": {
                "return": "the address of the owner."
            },
            "renounceOwnership()": {
                "details": "Allows the current owner to relinquish control of the contract."
            },
            "transferOwnership(address)": {
                "details": "Allows the current owner to transfer control of the contract to a newOwner.",
                "params": {
                    "newOwner": "The address to transfer ownership to."
                }
            }
        },
        "title": "DaiMigrator"
    },
    "userdoc": {
        "methods": {
            "renounceOwnership()": {
                "notice": "Renouncing to ownership will leave the contract without an owner. It will not be possible to call the functions with the `onlyOwner` modifier anymore."
            }
        }
    }
}