{
    "contractName": "DaiPriceOracle",
    "abi": [
        {
            "constant": true,
            "inputs": [],
            "name": "DEVIATION_PARAMS",
            "outputs": [
                {
                    "name": "denominator",
                    "type": "uint64"
                },
                {
                    "name": "maximumPerSecond",
                    "type": "uint64"
                },
                {
                    "name": "maximumAbsolute",
                    "type": "uint64"
                }
            ],
            "payable": false,
            "stateMutability": "view",
            "type": "function"
        },
        {
            "constant": true,
            "inputs": [],
            "name": "UNISWAP_USDC_ETH",
            "outputs": [
                {
                    "name": "",
                    "type": "address"
                }
            ],
            "payable": false,
            "stateMutability": "view",
            "type": "function"
        },
        {
            "constant": true,
            "inputs": [],
            "name": "UNISWAP_DAI_ETH",
            "outputs": [
                {
                    "name": "",
                    "type": "address"
                }
            ],
            "payable": false,
            "stateMutability": "view",
            "type": "function"
        },
        {
            "constant": true,
            "inputs": [],
            "name": "CURVE",
            "outputs": [
                {
                    "name": "",
                    "type": "address"
                }
            ],
            "payable": false,
            "stateMutability": "view",
            "type": "function"
        },
        {
            "constant": true,
            "inputs": [],
            "name": "ONE_DOLLAR",
            "outputs": [
                {
                    "name": "",
                    "type": "uint256"
                }
            ],
            "payable": false,
            "stateMutability": "view",
            "type": "function"
        },
        {
            "constant": false,
            "inputs": [],
            "name": "renounceOwnership",
            "outputs": [],
            "payable": false,
            "stateMutability": "nonpayable",
            "type": "function"
        },
        {
            "constant": true,
            "inputs": [],
            "name": "g_poker",
            "outputs": [
                {
                    "name": "",
                    "type": "address"
                }
            ],
            "payable": false,
            "stateMutability": "view",
            "type": "function"
        },
        {
            "constant": true,
            "inputs": [],
            "name": "owner",
            "outputs": [
                {
                    "name": "",
                    "type": "address"
                }
            ],
            "payable": false,
            "stateMutability": "view",
            "type": "function"
        },
        {
            "constant": true,
            "inputs": [],
            "name": "isOwner",
            "outputs": [
                {
                    "name": "",
                    "type": "bool"
                }
            ],
            "payable": false,
            "stateMutability": "view",
            "type": "function"
        },
        {
            "constant": true,
            "inputs": [],
            "name": "WETH",
            "outputs": [
                {
                    "name": "",
                    "type": "address"
                }
            ],
            "payable": false,
            "stateMutability": "view",
            "type": "function"
        },
        {
            "constant": true,
            "inputs": [],
            "name": "g_priceInfo",
            "outputs": [
                {
                    "name": "price",
                    "type": "uint128"
                },
                {
                    "name": "lastUpdate",
                    "type": "uint32"
                }
            ],
            "payable": false,
            "stateMutability": "view",
            "type": "function"
        },
        {
            "constant": true,
            "inputs": [],
            "name": "DAI",
            "outputs": [
                {
                    "name": "",
                    "type": "address"
                }
            ],
            "payable": false,
            "stateMutability": "view",
            "type": "function"
        },
        {
            "constant": false,
            "inputs": [
                {
                    "name": "newOwner",
                    "type": "address"
                }
            ],
            "name": "transferOwnership",
            "outputs": [],
            "payable": false,
            "stateMutability": "nonpayable",
            "type": "function"
        },
        {
            "inputs": [
                {
                    "name": "poker",
                    "type": "address"
                },
                {
                    "name": "weth",
                    "type": "address"
                },
                {
                    "name": "dai",
                    "type": "address"
                },
                {
                    "name": "curve",
                    "type": "address"
                },
                {
                    "name": "uniswapDaiEth",
                    "type": "address"
                },
                {
                    "name": "uniswapUsdcEth",
                    "type": "address"
                },
                {
                    "components": [
                        {
                            "name": "denominator",
                            "type": "uint64"
                        },
                        {
                            "name": "maximumPerSecond",
                            "type": "uint64"
                        },
                        {
                            "name": "maximumAbsolute",
                            "type": "uint64"
                        }
                    ],
                    "name": "deviationParams",
                    "type": "tuple"
                }
            ],
            "payable": false,
            "stateMutability": "nonpayable",
            "type": "constructor"
        },
        {
            "anonymous": false,
            "inputs": [
                {
                    "components": [
                        {
                            "name": "price",
                            "type": "uint128"
                        },
                        {
                            "name": "lastUpdate",
                            "type": "uint32"
                        }
                    ],
                    "indexed": false,
                    "name": "newPriceInfo",
                    "type": "tuple"
                }
            ],
            "name": "PriceSet",
            "type": "event"
        },
        {
            "anonymous": false,
            "inputs": [
                {
                    "indexed": true,
                    "name": "previousOwner",
                    "type": "address"
                },
                {
                    "indexed": true,
                    "name": "newOwner",
                    "type": "address"
                }
            ],
            "name": "OwnershipTransferred",
            "type": "event"
        },
        {
            "constant": false,
            "inputs": [
                {
                    "name": "newPoker",
                    "type": "address"
                }
            ],
            "name": "ownerSetPokerAddress",
            "outputs": [],
            "payable": false,
            "stateMutability": "nonpayable",
            "type": "function"
        },
        {
            "constant": false,
            "inputs": [
                {
                    "components": [
                        {
                            "name": "value",
                            "type": "uint256"
                        }
                    ],
                    "name": "minimum",
                    "type": "tuple"
                },
                {
                    "components": [
                        {
                            "name": "value",
                            "type": "uint256"
                        }
                    ],
                    "name": "maximum",
                    "type": "tuple"
                }
            ],
            "name": "updatePrice",
            "outputs": [
                {
                    "components": [
                        {
                            "name": "price",
                            "type": "uint128"
                        },
                        {
                            "name": "lastUpdate",
                            "type": "uint32"
                        }
                    ],
                    "name": "",
                    "type": "tuple"
                }
            ],
            "payable": false,
            "stateMutability": "nonpayable",
            "type": "function"
        },
        {
            "constant": true,
            "inputs": [
                {
                    "name": "",
                    "type": "address"
                }
            ],
            "name": "getPrice",
            "outputs": [
                {
                    "components": [
                        {
                            "name": "value",
                            "type": "uint256"
                        }
                    ],
                    "name": "",
                    "type": "tuple"
                }
            ],
            "payable": false,
            "stateMutability": "view",
            "type": "function"
        },
        {
            "constant": true,
            "inputs": [],
            "name": "getBoundedTargetPrice",
            "outputs": [
                {
                    "components": [
                        {
                            "name": "value",
                            "type": "uint256"
                        }
                    ],
                    "name": "",
                    "type": "tuple"
                }
            ],
            "payable": false,
            "stateMutability": "view",
            "type": "function"
        },
        {
            "constant": true,
            "inputs": [],
            "name": "getTargetPrice",
            "outputs": [
                {
                    "components": [
                        {
                            "name": "value",
                            "type": "uint256"
                        }
                    ],
                    "name": "",
                    "type": "tuple"
                }
            ],
            "payable": false,
            "stateMutability": "view",
            "type": "function"
        },
        {
            "constant": true,
            "inputs": [],
            "name": "getCurvePrice",
            "outputs": [
                {
                    "name": "",
                    "type": "uint256"
                }
            ],
            "payable": false,
            "stateMutability": "view",
            "type": "function"
        },
        {
            "constant": true,
            "inputs": [],
            "name": "getUniswapPrice",
            "outputs": [
                {
                    "name": "",
                    "type": "uint256"
                }
            ],
            "payable": false,
            "stateMutability": "view",
            "type": "function"
        }
    ],
    "bytecode": "0x60806040523480156200001157600080fd5b50604051610120806200202683398101806040526200003491908101906200023c565b60008054600160a060020a0319163317808255604051600160a060020a039190911691907f8be0079c531659141344cd1fd0a4f28419497f9722a3daafe3b4186f6b6457e0908290a360028054600160a060020a0319908116600160a060020a03998a161790915560048054821697891697909717909655600580548716958816959095179094556006805486169387169390931790925560078054851691861691909117905560088054909316931692909217905580516003805460208085015160409586015167ffffffffffffffff199093166001604060020a0395861617604060020a608060020a031916680100000000000000009186169190910217608060020a60c060020a031916700100000000000000000000000000000000949092168402919091179091558251808401909352670de0b6b3a764000080845263ffffffff4216939091018390526001805493909202608060020a63ffffffff02196001608060020a0319909416909117929092169190911790556200033a565b6000620001c382516200030f565b9392505050565b600060608284031215620001dd57600080fd5b620001e96060620002e8565b90506000620001f984846200022e565b82525060206200020c848483016200022e565b602083015250604062000222848285016200022e565b60408301525092915050565b6000620001c382516200032e565b6000806000806000806000610120888a0312156200025957600080fd5b6000620002678a8a620001b5565b97505060206200027a8a828b01620001b5565b96505060406200028d8a828b01620001b5565b9550506060620002a08a828b01620001b5565b9450506080620002b38a828b01620001b5565b93505060a0620002c68a828b01620001b5565b92505060c0620002d98a828b01620001ca565b91505092959891949750929550565b6040518181016001604060020a03811182821017156200030757600080fd5b604052919050565b60006200031c8262000322565b92915050565b600160a060020a031690565b6001604060020a031690565b611cdc806200034a6000396000f3fe608060405234801561001057600080fd5b5060043610610188576000357c010000000000000000000000000000000000000000000000000000000090048063715018a6116100ea578063ad5c46481161009e578063bd01bb3211610083578063bd01bb32146102ac578063e0bab4c4146102b4578063f2fde38b146102bc57610188565b8063ad5c46481461028e578063afb1f8d61461029657610188565b80638da5cb5b116100cf5780638da5cb5b146102515780638f32d59b14610259578063a90005661461026e57610188565b8063715018a614610234578063748635c71461023c57610188565b80632b6e19231161014157806341976e091161012657806341976e0914610211578063572ca9e71461022457806363f416241461022c57610188565b80632b6e1923146101f45780633a3c3b871461020957610188565b806325878e0d1161017257806325878e0d146101c05780632756f026146101d75780632a2ef404146101ec57610188565b8062a341c81461018d57806303ad0d63146101a2575b600080fd5b6101a061019b366004611700565b6102cf565b005b6101aa610327565b6040516101b79190611aae565b60405180910390f35b6101c8610403565b6040516101b793929190611ae5565b6101df61043b565b6040516101b79190611a4b565b6101df610457565b6101fc610473565b6040516101b79190611ad7565b6101df610678565b6101aa61021f366004611700565b610694565b6101fc6106c5565b6101fc6106d8565b6101a0610876565b6102446108f6565b6040516101b79190611a2f565b610244610912565b61026161092e565b6040516101b79190611a3d565b61028161027c366004611726565b61094c565b6040516101b79190611a92565b6101df610bc7565b61029e610be3565b6040516101b7929190611abc565b6101aa610c17565b6101df610c56565b6101a06102ca366004611700565b610c72565b6102d761092e565b6102e057600080fd5b600280547fffffffffffffffffffffffff00000000000000000000000000000000000000001673ffffffffffffffffffffffffffffffffffffffff92909216919091179055565b61032f611647565b610337611647565b61033f610c17565b905061034961165a565b50604080518082019091526001546fffffffffffffffffffffffffffffffff81168252700100000000000000000000000000000000900463ffffffff16602082018190526000906103b09061039c610c8f565b63ffffffff16610c9f90919063ffffffff16565b90506000806103d584600001516fffffffffffffffffffffffffffffffff1684610cb4565b9150915060006103ea86600001518484610d72565b6040805160208101909152908152965050505050505090565b60035467ffffffffffffffff808216916801000000000000000081048216917001000000000000000000000000000000009091041683565b60085473ffffffffffffffffffffffffffffffffffffffff1681565b60075473ffffffffffffffffffffffffffffffffffffffff1681565b6000806000600760009054906101000a900473ffffffffffffffffffffffffffffffffffffffff1673ffffffffffffffffffffffffffffffffffffffff16630902f1ac6040518163ffffffff167c010000000000000000000000000000000000000000000000000000000002815260040160606040518083038186803b1580156104fc57600080fd5b505afa158015610510573d6000803e3d6000fd5b505050506040513d601f19601f820116820180604052506105349190810190611760565b506dffffffffffffffffffffffffffff1691506dffffffffffffffffffffffffffff169150600080600860009054906101000a900473ffffffffffffffffffffffffffffffffffffffff1673ffffffffffffffffffffffffffffffffffffffff16630902f1ac6040518163ffffffff167c010000000000000000000000000000000000000000000000000000000002815260040160606040518083038186803b1580156105e057600080fd5b505afa1580156105f4573d6000803e3d6000fd5b505050506040513d601f19601f820116820180604052506106189190810190611760565b506dffffffffffffffffffffffffffff918216935016905061066f846106638381876106576c0c9f2c9cd04674edea400000008963ffffffff610d9b16565b9063ffffffff610d9b16565b9063ffffffff610dc216565b94505050505090565b60065473ffffffffffffffffffffffffffffffffffffffff1681565b61069c611647565b5060408051602081019091526001546fffffffffffffffffffffffffffffffff1681525b919050565b6ec097ce7bc90715b34b9f100000000081565b6006546040517f5e0d443f00000000000000000000000000000000000000000000000000000000815260009173ffffffffffffffffffffffffffffffffffffffff169082908290635e0d443f906107389060019085908290600401611a59565b60206040518083038186803b15801561075057600080fd5b505afa158015610764573d6000803e3d6000fd5b505050506040513d601f19601f8201168201806040525061078891908101906117ad565b905060008273ffffffffffffffffffffffffffffffffffffffff1663ddca3f436040518163ffffffff167c010000000000000000000000000000000000000000000000000000000002815260040160206040518083038186803b1580156107ee57600080fd5b505afa158015610802573d6000803e3d6000fd5b505050506040513d601f19601f8201168201806040525061082691908101906117ad565b905060006108576108426402540be4008463ffffffff610c9f16565b610663856402540be40063ffffffff610d9b16565b905061066f6c0c9f2c9cd04674edea400000008263ffffffff610dc216565b61087e61092e565b61088757600080fd5b6000805460405173ffffffffffffffffffffffffffffffffffffffff909116907f8be0079c531659141344cd1fd0a4f28419497f9722a3daafe3b4186f6b6457e0908390a3600080547fffffffffffffffffffffffff0000000000000000000000000000000000000000169055565b60025473ffffffffffffffffffffffffffffffffffffffff1681565b60005473ffffffffffffffffffffffffffffffffffffffff1690565b60005473ffffffffffffffffffffffffffffffffffffffff16331490565b61095461165a565b6002546109bf9073ffffffffffffffffffffffffffffffffffffffff1633908114907f44616950726963654f7261636c65000000000000000000000000000000000000907f4f6e6c7920706f6b65722063616e2063616c6c2075706461746550726963650090610de4565b6109c7611647565b6109cf610327565b84518151919250610a289181811015917f44616950726963654f7261636c65000000000000000000000000000000000000917f6e657750726963652062656c6f77206d696e696d756d0000000000000000000091610ee9565b82518151610a7f9180821115917f44616950726963654f7261636c65000000000000000000000000000000000000917f6e657750726963652061626f7665206d6178696d756d000000000000000000009190610ee9565b6040518060400160405280610a978360000151610fb4565b6fffffffffffffffffffffffffffffffff168152602001610ab6610c8f565b63ffffffff908116909152815160018054602090940151909216700100000000000000000000000000000000027fffffffffffffffffffffffff00000000ffffffffffffffffffffffffffffffff6fffffffffffffffffffffffffffffffff9092167fffffffffffffffffffffffffffffffff0000000000000000000000000000000090941693909317169190911781556040517fe98273326f8618f83229329c983e5dfeafe5dd27b8d4bdf152fb230a73f112d491610b7591611aa0565b60405180910390a15050604080518082019091526001546fffffffffffffffffffffffffffffffff81168252700100000000000000000000000000000000900463ffffffff1660208201525b92915050565b60045473ffffffffffffffffffffffffffffffffffffffff1681565b6001546fffffffffffffffffffffffffffffffff811690700100000000000000000000000000000000900463ffffffff1682565b610c1f611647565b6000610c42670de0b6b3a7640000610c356106d8565b610c3d610473565b611016565b604080516020810190915290815291505090565b60055473ffffffffffffffffffffffffffffffffffffffff1681565b610c7a61092e565b610c8357600080fd5b610c8c81611068565b50565b6000610c9a42611115565b905090565b600082821115610cae57600080fd5b50900390565b600080610cbf611671565b506040805160608101825260035467ffffffffffffffff8082168352680100000000000000008204811660208401819052700100000000000000000000000000000000909204169282018390529091600091610d43918891610d329190610d2d908a9063ffffffff610d9b16565b61116b565b845167ffffffffffffffff16611181565b9050610d55868263ffffffff610c9f16565b610d65878363ffffffff61119716565b9350935050509250929050565b600081831115610d7e57fe5b610d9183610d8c848761116b565b6111a9565b90505b9392505050565b600082610daa57506000610bc1565b82820282848281610db757fe5b0414610d9457600080fd5b6000808211610dd057600080fd5b6000828481610ddb57fe5b04949350505050565b83610ee357610df2836111b8565b7f3a20000000000000000000000000000000000000000000000000000000000000610e1c846111b8565b7f203c000000000000000000000000000000000000000000000000000000000000610e46856112b7565b604051610e7c9594939291907f3e0000000000000000000000000000000000000000000000000000000000000090602001611955565b604080517fffffffffffffffffffffffffffffffffffffffffffffffffffffffffffffffe0818403018152908290527f08c379a0000000000000000000000000000000000000000000000000000000008252610eda91600401611a81565b60405180910390fd5b50505050565b84610fad57610ef7846111b8565b7f3a20000000000000000000000000000000000000000000000000000000000000610f21856111b8565b7f203c000000000000000000000000000000000000000000000000000000000000610f4b8661146a565b7f2c20000000000000000000000000000000000000000000000000000000000000610f758761146a565b604051610e7c97969594939291907f3e00000000000000000000000000000000000000000000000000000000000000906020016119b3565b5050505050565b600081610bc16fffffffffffffffffffffffffffffffff821682147f4d617468000000000000000000000000000000000000000000000000000000007f556e73616665206361737420746f2075696e7431323800000000000000000000611598565b60008061102785610d8c86866111a9565b9050848114156110435761103b84846111a9565b915050610d94565b838114156110555761103b85846111a9565b61105f85856111a9565b95945050505050565b73ffffffffffffffffffffffffffffffffffffffff811661108857600080fd5b6000805460405173ffffffffffffffffffffffffffffffffffffffff808516939216917f8be0079c531659141344cd1fd0a4f28419497f9722a3daafe3b4186f6b6457e091a3600080547fffffffffffffffffffffffff00000000000000000000000000000000000000001673ffffffffffffffffffffffffffffffffffffffff92909216919091179055565b600081610bc163ffffffff821682147f4d617468000000000000000000000000000000000000000000000000000000007f556e73616665206361737420746f2075696e7433320000000000000000000000611598565b600081831061117a5781610d94565b5090919050565b6000610d9182610663868663ffffffff610d9b16565b600082820183811015610d9457600080fd5b600081831161117a5781610d94565b606080826040516020016111cc9190611918565b604080517fffffffffffffffffffffffffffffffffffffffffffffffffffffffffffffffe0818403018152919052905060205b801561129c5781517fffffffffffffffffffffffffffffffffffffffffffffffffffffffffffffffff9091019082908290811061123857fe5b6020910101517f010000000000000000000000000000000000000000000000000000000000000090819004027fff00000000000000000000000000000000000000000000000000000000000000161561129757600101815290506106c0565b6111ff565b5060408051600080825260208201909252905b509392505050565b60408051602a808252606082810190935273ffffffffffffffffffffffffffffffffffffffff841691839160208201818038833901905050905060307f0100000000000000000000000000000000000000000000000000000000000000028160008151811061132257fe5b60200101907effffffffffffffffffffffffffffffffffffffffffffffffffffffffffffff1916908160001a90535060787f0100000000000000000000000000000000000000000000000000000000000000028160018151811061138257fe5b60200101907effffffffffffffffffffffffffffffffffffffffffffffffffffffffffffff1916908160001a90535060005b60148110156112af57600281026113cd600f85166115e7565b8382602903815181106113dc57fe5b60200101907effffffffffffffffffffffffffffffffffffffffffffffffffffffffffffff1916908160001a90535060109093049261141d600f85166115e7565b83826028038151811061142c57fe5b60200101907effffffffffffffffffffffffffffffffffffffffffffffffffffffffffffff1916908160001a905350506010909204916001016113b4565b6060816114ab575060408051808201909152600181527f300000000000000000000000000000000000000000000000000000000000000060208201526106c0565b8160005b81156114c357600101600a820491506114af565b6060816040519080825280601f01601f1916602001820160405280156114f0576020820181803883390190505b508593509050815b801561158f577fffffffffffffffffffffffffffffffffffffffffffffffffffffffffffffffff01600a84066030017f01000000000000000000000000000000000000000000000000000000000000000282828151811061155557fe5b60200101907effffffffffffffffffffffffffffffffffffffffffffffffffffffffffffff1916908160001a905350600a840493506114f8565b50949350505050565b826115e2576115a6826111b8565b7f3a200000000000000000000000000000000000000000000000000000000000006115d0836111b8565b604051602001610e7c9392919061192d565b505050565b6000600a82101561161e57507f010000000000000000000000000000000000000000000000000000000000000060308201026106c0565b506057017f01000000000000000000000000000000000000000000000000000000000000000290565b6040518060200160405280600081525090565b604080518082019091526000808252602082015290565b604080516060810182526000808252602082018190529181019190915290565b6000610d948235611b41565b6000602082840312156116af57600080fd5b6116b96020611b0d565b905060006116c784846116dc565b82525092915050565b6000610d948251611be8565b6000610d948235611b9b565b6000610d948251611b9b565b6000610d948251611bd2565b60006020828403121561171257600080fd5b600061171e8484611691565b949350505050565b6000806040838503121561173957600080fd5b6000611745858561169d565b92505060206117568582860161169d565b9150509250929050565b60008060006060848603121561177557600080fd5b600061178186866116d0565b9350506020611792868287016116d0565b92505060406117a3868287016116f4565b9150509250925092565b6000602082840312156117bf57600080fd5b600061171e84846116e8565b6117d481611b41565b82525050565b6117d481611b4c565b6117d46117ef82611b51565b611b9b565b6117d46117ef82611b76565b6117d46117ef82611b9b565b600061181782611b34565b61182181856106c0565b9350611831818560208601611c11565b9290920192915050565b6117d481611bfb565b6117d481611b9e565b6117d481611c06565b600061186182611b34565b61186b8185611b38565b935061187b818560208601611c11565b61188481611c63565b9093019392505050565b8051604083019061189f84826118f4565b506020820151610ee36020850182611906565b805460408301906118c281611c3d565b6118cc85826118f4565b506118d681611c50565b610fad6020860182611906565b80516020830190610ee384826118fd565b6117d481611ba4565b6117d481611b9b565b6117d481611bd2565b6117d481611bdb565b60006119248284611800565b50602001919050565b6000611939828661180c565b915061194582856117f4565b60028201915061105f828461180c565b6000611961828961180c565b915061196d82886117f4565b60028201915061197d828761180c565b915061198982866117f4565b600282019150611999828561180c565b91506119a582846117e3565b506001019695505050505050565b60006119bf828b61180c565b91506119cb828a6117f4565b6002820191506119db828961180c565b91506119e782886117f4565b6002820191506119f7828761180c565b9150611a0382866117f4565b600282019150611a13828561180c565b9150611a1f82846117e3565b5060010198975050505050505050565b60208101610bc182846117cb565b60208101610bc182846117da565b60208101610bc1828461183b565b60608101611a678286611844565b611a746020830185611844565b61171e604083018461184d565b60208082528101610d948184611856565b60408101610bc1828461188e565b60408101610bc182846118b2565b60208101610bc182846118e3565b60408101611aca82856118f4565b610d946020830184611906565b60208101610bc182846118fd565b60608101611af3828661190f565b611b00602083018561190f565b61171e604083018461190f565b60405181810167ffffffffffffffff81118282101715611b2c57600080fd5b604052919050565b5190565b90815260200190565b6000610bc182611bb9565b151590565b7fff000000000000000000000000000000000000000000000000000000000000001690565b7fffff0000000000000000000000000000000000000000000000000000000000001690565b90565b600f0b90565b6fffffffffffffffffffffffffffffffff1690565b73ffffffffffffffffffffffffffffffffffffffff1690565b63ffffffff1690565b67ffffffffffffffff1690565b6dffffffffffffffffffffffffffff1690565b6000610bc182611b41565b6000610bc182611b9b565b60005b83811015611c2c578181015183820152602001611c14565b83811115610ee35750506000910152565b6000610bc1611c4b83611b9b565b611ba4565b6000610bc1611c5e83611c8b565b611bd2565b601f017fffffffffffffffffffffffffffffffffffffffffffffffffffffffffffffffe01690565b70010000000000000000000000000000000090049056fea265627a7a72305820a8917f61558305a1afa286f77e34c63fc0e32cbbe4d308d75cd0008ff9244f8d6c6578706572696d656e74616cf50037",
    "source": "/*\n\n    Copyright 2019 dYdX Trading Inc.\n\n    Licensed under the Apache License, Version 2.0 (the \"License\");\n    you may not use this file except in compliance with the License.\n    You may obtain a copy of the License at\n\n    http://www.apache.org/licenses/LICENSE-2.0\n\n    Unless required by applicable law or agreed to in writing, software\n    distributed under the License is distributed on an \"AS IS\" BASIS,\n    WITHOUT WARRANTIES OR CONDITIONS OF ANY KIND, either express or implied.\n    See the License for the specific language governing permissions and\n    limitations under the License.\n\n*/\n\npragma solidity 0.5.7;\npragma experimental ABIEncoderV2;\n\nimport { SafeMath } from \"openzeppelin-solidity/contracts/math/SafeMath.sol\";\nimport { Ownable } from \"openzeppelin-solidity/contracts/ownership/Ownable.sol\";\nimport { IErc20 } from \"../../protocol/interfaces/IErc20.sol\";\nimport { IPriceOracle } from \"../../protocol/interfaces/IPriceOracle.sol\";\nimport { Math } from \"../../protocol/lib/Math.sol\";\nimport { Monetary } from \"../../protocol/lib/Monetary.sol\";\nimport { Require } from \"../../protocol/lib/Require.sol\";\nimport { Time } from \"../../protocol/lib/Time.sol\";\nimport { ICurve } from \"../interfaces/ICurve.sol\";\nimport { IUniswapV2Pair } from \"../interfaces/IUniswapV2Pair.sol\";\n\n\n/**\n * @title DaiPriceOracle\n * @author dYdX\n *\n * PriceOracle that gives the price of Dai in USDC.\n */\ncontract DaiPriceOracle is\n    Ownable,\n    IPriceOracle\n{\n    using SafeMath for uint256;\n\n    // ============ Constants ============\n\n    bytes32 constant FILE = \"DaiPriceOracle\";\n\n    // DAI decimals and expected price.\n    uint256 constant DECIMALS = 18;\n    uint256 constant EXPECTED_PRICE = ONE_DOLLAR / (10 ** DECIMALS);\n\n    // Parameters used when getting the DAI-USDC price from Curve.\n    int128 constant CURVE_DAI_ID = 0;\n    int128 constant CURVE_USDC_ID = 1;\n    uint256 constant CURVE_FEE_DENOMINATOR = 10 ** 10;\n    uint256 constant CURVE_DECIMALS_BASE = 10 ** 30;\n\n    // Parameters used when getting the DAI-USDC price from Uniswap.\n    uint256 constant UNISWAP_DECIMALS_BASE = 10 ** 30;\n\n    // ============ Structs ============\n\n    struct PriceInfo {\n        uint128 price;\n        uint32 lastUpdate;\n    }\n\n    struct DeviationParams {\n        uint64 denominator;\n        uint64 maximumPerSecond;\n        uint64 maximumAbsolute;\n    }\n\n    // ============ Events ============\n\n    event PriceSet(\n        PriceInfo newPriceInfo\n    );\n\n    // ============ Storage ============\n\n    PriceInfo public g_priceInfo;\n\n    address public g_poker;\n\n    DeviationParams public DEVIATION_PARAMS;\n\n    IErc20 public WETH;\n\n    IErc20 public DAI;\n\n    ICurve public CURVE;\n\n    IUniswapV2Pair public UNISWAP_DAI_ETH;\n\n    IUniswapV2Pair public UNISWAP_USDC_ETH;\n\n    // ============ Constructor =============\n\n    constructor(\n        address poker,\n        address weth,\n        address dai,\n        address curve,\n        address uniswapDaiEth,\n        address uniswapUsdcEth,\n        DeviationParams memory deviationParams\n    )\n        public\n    {\n        g_poker = poker;\n        WETH = IErc20(weth);\n        DAI = IErc20(dai);\n        CURVE = ICurve(curve);\n        UNISWAP_DAI_ETH = IUniswapV2Pair(uniswapDaiEth);\n        UNISWAP_USDC_ETH = IUniswapV2Pair(uniswapUsdcEth);\n        DEVIATION_PARAMS = deviationParams;\n        g_priceInfo = PriceInfo({\n            lastUpdate: uint32(block.timestamp),\n            price: uint128(EXPECTED_PRICE)\n        });\n    }\n\n    // ============ Admin Functions ============\n\n    function ownerSetPokerAddress(\n        address newPoker\n    )\n        external\n        onlyOwner\n    {\n        g_poker = newPoker;\n    }\n\n    // ============ Public Functions ============\n\n    function updatePrice(\n        Monetary.Price memory minimum,\n        Monetary.Price memory maximum\n    )\n        public\n        returns (PriceInfo memory)\n    {\n        Require.that(\n            msg.sender == g_poker,\n            FILE,\n            \"Only poker can call updatePrice\",\n            msg.sender\n        );\n\n        Monetary.Price memory newPrice = getBoundedTargetPrice();\n\n        Require.that(\n            newPrice.value >= minimum.value,\n            FILE,\n            \"newPrice below minimum\",\n            newPrice.value,\n            minimum.value\n        );\n\n        Require.that(\n            newPrice.value <= maximum.value,\n            FILE,\n            \"newPrice above maximum\",\n            newPrice.value,\n            maximum.value\n        );\n\n        g_priceInfo = PriceInfo({\n            price: Math.to128(newPrice.value),\n            lastUpdate: Time.currentTime()\n        });\n\n        emit PriceSet(g_priceInfo);\n        return g_priceInfo;\n    }\n\n    // ============ IPriceOracle Functions ============\n\n    function getPrice(\n        address /* token */\n    )\n        public\n        view\n        returns (Monetary.Price memory)\n    {\n        return Monetary.Price({\n            value: g_priceInfo.price\n        });\n    }\n\n    // ============ Price-Query Functions ============\n\n    /**\n     * Get the new price that would be stored if updated right now.\n     */\n    function getBoundedTargetPrice()\n        public\n        view\n        returns (Monetary.Price memory)\n    {\n        Monetary.Price memory targetPrice = getTargetPrice();\n\n        PriceInfo memory oldInfo = g_priceInfo;\n        uint256 timeDelta = uint256(Time.currentTime()).sub(oldInfo.lastUpdate);\n        (uint256 minPrice, uint256 maxPrice) = getPriceBounds(oldInfo.price, timeDelta);\n        uint256 boundedTargetPrice = boundValue(targetPrice.value, minPrice, maxPrice);\n\n        return Monetary.Price({\n            value: boundedTargetPrice\n        });\n    }\n\n    /**\n     * Get the DAI-USDC price that this contract will move towards when updated. This price is\n     * not bounded by the variables governing the maximum deviation from the old price.\n     */\n    function getTargetPrice()\n        public\n        view\n        returns (Monetary.Price memory)\n    {\n        uint256 targetPrice = getMidValue(\n            EXPECTED_PRICE,\n            getCurvePrice(),\n            getUniswapPrice()\n        );\n\n        return Monetary.Price({\n            value: targetPrice\n        });\n    }\n\n    /**\n     * Get the DAI-USDC price according to Curve.\n     *\n     * @return  The DAI-USDC price in natural units as a fixed-point number with 18 decimals.\n     */\n    function getCurvePrice()\n        public\n        view\n        returns (uint256)\n    {\n        ICurve curve = CURVE;\n\n        // Get dy when dx = 1, i.e. the number of DAI base units we can buy for 1 USDC base unit.\n        //\n        // After accounting for the fee, this is a very good estimate of the spot price.\n        uint256 dyWithFee = curve.get_dy(CURVE_USDC_ID, CURVE_DAI_ID, 1);\n        uint256 fee = curve.fee();\n        uint256 dyWithoutFee = dyWithFee.mul(CURVE_FEE_DENOMINATOR).div(\n            CURVE_FEE_DENOMINATOR.sub(fee)\n        );\n\n        // Note that dy is on the order of 10^12 due to the difference in DAI and USDC base units.\n        // We divide 10^30 by dy to get the price of DAI in USDC with 18 decimals of precision.\n        return CURVE_DECIMALS_BASE.div(dyWithoutFee);\n    }\n\n    /**\n     * Get the DAI-USDC price according to Uniswap.\n     *\n     * @return  The DAI-USDC price in natural units as a fixed-point number with 18 decimals.\n     */\n    function getUniswapPrice()\n        public\n        view\n        returns (uint256)\n    {\n        // Note: Depending on the pool used, ETH may be the first asset or the second asset.\n        (uint256 daiAmt, uint256 poolOneEthAmt, ) = UNISWAP_DAI_ETH.getReserves();\n        (uint256 usdcAmt, uint256 poolTwoEthAmt, ) = UNISWAP_USDC_ETH.getReserves();\n\n        // Get the price of DAI in USDC. Multiply by 10^30 to account for the difference in decimals\n        // between DAI and USDC, and get a result with 18 decimals of precision.\n        //\n        // Note: There is a risk for overflow depending on the assets used and size of the pools.\n        return UNISWAP_DECIMALS_BASE\n            .mul(usdcAmt)\n            .mul(poolOneEthAmt)\n            .div(poolTwoEthAmt)\n            .div(daiAmt);\n    }\n\n    // ============ Helper Functions ============\n\n    function getPriceBounds(\n        uint256 oldPrice,\n        uint256 timeDelta\n    )\n        private\n        view\n        returns (uint256, uint256)\n    {\n        DeviationParams memory deviation = DEVIATION_PARAMS;\n\n        uint256 maxDeviation = Math.getPartial(\n            oldPrice,\n            Math.min(deviation.maximumAbsolute, timeDelta.mul(deviation.maximumPerSecond)),\n            deviation.denominator\n        );\n\n        return (\n            oldPrice.sub(maxDeviation),\n            oldPrice.add(maxDeviation)\n        );\n    }\n\n    function getMidValue(\n        uint256 valueA,\n        uint256 valueB,\n        uint256 valueC\n    )\n        private\n        pure\n        returns (uint256)\n    {\n        uint256 maximum = Math.max(valueA, Math.max(valueB, valueC));\n        if (maximum == valueA) {\n            return Math.max(valueB, valueC);\n        }\n        if (maximum == valueB) {\n            return Math.max(valueA, valueC);\n        }\n        return Math.max(valueA, valueB);\n    }\n\n    function boundValue(\n        uint256 value,\n        uint256 minimum,\n        uint256 maximum\n    )\n        private\n        pure\n        returns (uint256)\n    {\n        assert(minimum <= maximum);\n        return Math.max(minimum, Math.min(maximum, value));\n    }\n}\n",
    "sourcePath": "/home/dydx/app/contracts/external/oracles/DaiPriceOracle.sol",
    "compiler": {
        "name": "solc",
        "version": "0.5.7+commit.6da8b019.Emscripten.clang"
    },
    "schemaVersion": "3.0.23",
    "updatedAt": "2022-11-11T03:47:08.264Z",
    "networkType": "ethereum",
    "devdoc": {
        "author": "dYdX * PriceOracle that gives the price of Dai in USDC.",
        "methods": {
            "getCurvePrice()": {
                "return": "The DAI-USDC price in natural units as a fixed-point number with 18 decimals."
            },
            "getUniswapPrice()": {
                "return": "The DAI-USDC price in natural units as a fixed-point number with 18 decimals."
            },
            "isOwner()": {
                "return": "true if `msg.sender` is the owner of the contract."
            },
            "owner()": {
                "return": "the address of the owner."
            },
            "renounceOwnership()": {
                "details": "Allows the current owner to relinquish control of the contract."
            },
            "transferOwnership(address)": {
                "details": "Allows the current owner to transfer control of the contract to a newOwner.",
                "params": {
                    "newOwner": "The address to transfer ownership to."
                }
            }
        },
        "title": "DaiPriceOracle"
    },
    "userdoc": {
        "methods": {
            "getBoundedTargetPrice()": {
                "notice": "Get the new price that would be stored if updated right now."
            },
            "getCurvePrice()": {
                "notice": "Get the DAI-USDC price according to Curve."
            },
            "getTargetPrice()": {
                "notice": "Get the DAI-USDC price that this contract will move towards when updated. This price is not bounded by the variables governing the maximum deviation from the old price."
            },
            "getUniswapPrice()": {
                "notice": "Get the DAI-USDC price according to Uniswap."
            },
            "renounceOwnership()": {
                "notice": "Renouncing to ownership will leave the contract without an owner. It will not be possible to call the functions with the `onlyOwner` modifier anymore."
            }
        }
    }
}