{
    "contractName": "FinalSettlement",
    "abi": [
        {
            "constant": true,
            "inputs": [],
            "name": "SOLO_MARGIN",
            "outputs": [
                {
                    "name": "",
                    "type": "address"
                }
            ],
            "payable": false,
            "stateMutability": "view",
            "type": "function"
        },
        {
            "constant": true,
            "inputs": [],
            "name": "g_spreadRampTime",
            "outputs": [
                {
                    "name": "",
                    "type": "uint256"
                }
            ],
            "payable": false,
            "stateMutability": "view",
            "type": "function"
        },
        {
            "constant": true,
            "inputs": [],
            "name": "g_startTime",
            "outputs": [
                {
                    "name": "",
                    "type": "uint32"
                }
            ],
            "payable": false,
            "stateMutability": "view",
            "type": "function"
        },
        {
            "inputs": [
                {
                    "name": "soloMargin",
                    "type": "address"
                },
                {
                    "name": "rampTime",
                    "type": "uint256"
                }
            ],
            "payable": false,
            "stateMutability": "nonpayable",
            "type": "constructor"
        },
        {
            "anonymous": false,
            "inputs": [
                {
                    "indexed": false,
                    "name": "time",
                    "type": "uint32"
                }
            ],
            "name": "Initialized",
            "type": "event"
        },
        {
            "anonymous": false,
            "inputs": [
                {
                    "indexed": true,
                    "name": "makerAddress",
                    "type": "address"
                },
                {
                    "indexed": true,
                    "name": "takerAddress",
                    "type": "address"
                },
                {
                    "indexed": false,
                    "name": "heldMarketId",
                    "type": "uint256"
                },
                {
                    "indexed": false,
                    "name": "owedMarketId",
                    "type": "uint256"
                },
                {
                    "indexed": false,
                    "name": "heldWei",
                    "type": "uint256"
                },
                {
                    "indexed": false,
                    "name": "owedWei",
                    "type": "uint256"
                }
            ],
            "name": "Settlement",
            "type": "event"
        },
        {
            "constant": false,
            "inputs": [],
            "name": "initialize",
            "outputs": [],
            "payable": false,
            "stateMutability": "nonpayable",
            "type": "function"
        },
        {
            "constant": true,
            "inputs": [
                {
                    "name": "heldMarketId",
                    "type": "uint256"
                },
                {
                    "name": "owedMarketId",
                    "type": "uint256"
                },
                {
                    "name": "timestamp",
                    "type": "uint32"
                }
            ],
            "name": "getSpreadAdjustedPrices",
            "outputs": [
                {
                    "components": [
                        {
                            "name": "value",
                            "type": "uint256"
                        }
                    ],
                    "name": "",
                    "type": "tuple"
                },
                {
                    "components": [
                        {
                            "name": "value",
                            "type": "uint256"
                        }
                    ],
                    "name": "",
                    "type": "tuple"
                }
            ],
            "payable": false,
            "stateMutability": "view",
            "type": "function"
        },
        {
            "constant": false,
            "inputs": [
                {
                    "name": "inputMarketId",
                    "type": "uint256"
                },
                {
                    "name": "outputMarketId",
                    "type": "uint256"
                },
                {
                    "components": [
                        {
                            "name": "owner",
                            "type": "address"
                        },
                        {
                            "name": "number",
                            "type": "uint256"
                        }
                    ],
                    "name": "makerAccount",
                    "type": "tuple"
                },
                {
                    "components": [
                        {
                            "name": "owner",
                            "type": "address"
                        },
                        {
                            "name": "number",
                            "type": "uint256"
                        }
                    ],
                    "name": "takerAccount",
                    "type": "tuple"
                },
                {
                    "components": [
                        {
                            "name": "sign",
                            "type": "bool"
                        },
                        {
                            "name": "value",
                            "type": "uint128"
                        }
                    ],
                    "name": "oldInputPar",
                    "type": "tuple"
                },
                {
                    "components": [
                        {
                            "name": "sign",
                            "type": "bool"
                        },
                        {
                            "name": "value",
                            "type": "uint128"
                        }
                    ],
                    "name": "newInputPar",
                    "type": "tuple"
                },
                {
                    "components": [
                        {
                            "name": "sign",
                            "type": "bool"
                        },
                        {
                            "name": "value",
                            "type": "uint256"
                        }
                    ],
                    "name": "inputWei",
                    "type": "tuple"
                },
                {
                    "name": "data",
                    "type": "bytes"
                }
            ],
            "name": "getTradeCost",
            "outputs": [
                {
                    "components": [
                        {
                            "name": "sign",
                            "type": "bool"
                        },
                        {
                            "name": "denomination",
                            "type": "uint8"
                        },
                        {
                            "name": "ref",
                            "type": "uint8"
                        },
                        {
                            "name": "value",
                            "type": "uint256"
                        }
                    ],
                    "name": "",
                    "type": "tuple"
                }
            ],
            "payable": false,
            "stateMutability": "nonpayable",
            "type": "function"
        }
    ],
    "bytecode": "0x60806040526002805463ffffffff191690553480156200001e57600080fd5b5060405160408062001ef983398101806040526200004091908101906200008d565b60008054600160a060020a031916600160a060020a039390931692909217909155600155620000ee565b6000620000788251620000cc565b9392505050565b6000620000788251620000eb565b60008060408385031215620000a157600080fd5b6000620000af85856200006a565b9250506020620000c2858286016200007f565b9150509250929050565b6000620000d982620000df565b92915050565b600160a060020a031690565b90565b611dfb80620000fe6000396000f3fe608060405234801561001057600080fd5b506004361061008f576000357c0100000000000000000000000000000000000000000000000000000000900480638129fc1c1161006d5780638129fc1c146100e7578063b1396542146100f1578063bfb51006146101125761008f565b80631b1fe68a146100945780633e3eeb88146100b2578063448f7065146100c7575b600080fd5b61009c610127565b6040516100a99190611b5e565b60405180910390f35b6100ba610143565b6040516100a99190611bc1565b6100da6100d53660046117d1565b610149565b6040516100a99190611b7d565b6100ef61034d565b005b6101046100ff36600461189c565b610506565b6040516100a9929190611ba6565b61011a6107ea565b6040516100a99190611c1f565b60005473ffffffffffffffffffffffffffffffffffffffff1681565b60015481565b610151611544565b60005433906101ba9073ffffffffffffffffffffffffffffffffffffffff1682147f4f6e6c79536f6c6f0000000000000000000000000000000000000000000000007f4f6e6c7920536f6c6f2063616e2063616c6c2066756e6374696f6e0000000000846107f6565b6002546102109063ffffffff1615157f46696e616c536574746c656d656e7400000000000000000000000000000000007f436f6e7472616374206d75737420626520696e697469616c697a6564000000006108fb565b6102198461094a565b1561024b5760408051608081019091526001808252602082019081526020016000815260200160008152509150610340565b60008380602001905161026191908101906117b3565b905061026b611544565b61027a8c8c8c8b8b8b88610956565b905060008c831461028b578c61028d565b8b5b905060008d84146102a25787602001516102a8565b82606001515b905060008e85146102bd5783606001516102c3565b88602001515b90508b6000015173ffffffffffffffffffffffffffffffffffffffff168d6000015173ffffffffffffffffffffffffffffffffffffffff167f57b9845b11f42e8ae0f11065042c2e1e2828130aba27be36df825554222df7c9858886866040516103309493929190611bea565b60405180910390a3509194505050505b5098975050505050505050565b6002546103a29063ffffffff16157f46696e616c536574746c656d656e7400000000000000000000000000000000007f416c726561647920696e697469616c697a6564000000000000000000000000006108fb565b6000546040517f052f72d70000000000000000000000000000000000000000000000000000000081526104919173ffffffffffffffffffffffffffffffffffffffff169063052f72d7906103fa903090600401611b50565b60206040518083038186803b15801561041257600080fd5b505afa158015610426573d6000803e3d6000fd5b505050506040513d601f19601f8201168201806040525061044a9190810190611759565b7f46696e616c536574746c656d656e7400000000000000000000000000000000007f4e6f74206120676c6f62616c206f70657261746f7200000000000000000000006108fb565b610499610cf5565b600280547fffffffffffffffffffffffffffffffffffffffffffffffffffffffff000000001663ffffffff92831617908190556040517fe9c9b456cb2994b80aeef036cf59d26e9617df80f816a6ee5a5b4166e07e2f5c926104fc921690611c1f565b60405180910390a1565b61050e61156d565b61051661156d565b60025461056c9063ffffffff1615157f46696e616c536574746c656d656e7400000000000000000000000000000000007f4e6f7420696e697469616c697a656400000000000000000000000000000000006108fb565b6002546000906105949061058c9063ffffffff87811691811690610d0516565b600154610d1f565b905061059e61156d565b6000546040517fd24c48bc00000000000000000000000000000000000000000000000000000000815273ffffffffffffffffffffffffffffffffffffffff9091169063d24c48bc906105f6908a908a90600401611bcf565b60206040518083038186803b15801561060e57600080fd5b505afa158015610622573d6000803e3d6000fd5b505050506040513d601f19601f820116820180604052506106469190810190611777565b9050610659816000015183600154610d37565b815261066361156d565b6000546040517f8928378e00000000000000000000000000000000000000000000000000000000815273ffffffffffffffffffffffffffffffffffffffff90911690638928378e906106b9908b90600401611bc1565b60206040518083038186803b1580156106d157600080fd5b505afa1580156106e5573d6000803e3d6000fd5b505050506040513d601f19601f820116820180604052506107099190810190611777565b905061071361156d565b6000546040517f8928378e00000000000000000000000000000000000000000000000000000000815273ffffffffffffffffffffffffffffffffffffffff90911690638928378e90610769908b90600401611bc1565b60206040518083038186803b15801561078157600080fd5b505afa158015610795573d6000803e3d6000fd5b505050506040513d601f19601f820116820180604052506107b99190810190611777565b90506107da6107cc826000015185610d61565b82519063ffffffff610d7a16565b8152909890975095505050505050565b60025463ffffffff1681565b836108f55761080483610d8c565b7f3a2000000000000000000000000000000000000000000000000000000000000061082e84610d8c565b7f203c00000000000000000000000000000000000000000000000000000000000061085885610e8b565b60405161088e9594939291907f3e0000000000000000000000000000000000000000000000000000000000000090602001611a76565b604080517fffffffffffffffffffffffffffffffffffffffffffffffffffffffffffffffe0818403018152908290527f08c379a00000000000000000000000000000000000000000000000000000000082526108ec91600401611b6c565b60405180910390fd5b50505050565b826109455761090982610d8c565b7f3a2000000000000000000000000000000000000000000000000000000000000061093383610d8c565b60405160200161088e93929190611a45565b505050565b6020810151155b919050565b61095e611544565b610966611544565b61096e611580565b6000546040517fc190c2ec00000000000000000000000000000000000000000000000000000000815273ffffffffffffffffffffffffffffffffffffffff9091169063c190c2ec906109c6908b908d90600401611b8b565b604080518083038186803b1580156109dd57600080fd5b505afa1580156109f1573d6000803e3d6000fd5b505050506040513d601f19601f82011682018060405250610a159190810190611795565b9050610a208561103e565b15610b5857610a73848b147f46696e616c536574746c656d656e7400000000000000000000000000000000007f696e7075744d61726b6574206d69736d617463680000000000000000000000008d611054565b610ade610a7f876110b6565b157f46696e616c536574746c656d656e7400000000000000000000000000000000007f426f72726f77732063616e6e6f74206265206f7665727061696400000000000089602001516fffffffffffffffffffffffffffffffff16611054565b610ae7876110de565b610aed57fe5b610b46610af98261103e565b7f46696e616c536574746c656d656e7400000000000000000000000000000000007f436f6c6c61746572616c206d75737420626520706f73697469766500000000008c8560200151611107565b610b51858a8c6111d2565b9150610c87565b610ba6848a147f46696e616c536574746c656d656e7400000000000000000000000000000000007f6f75747075744d61726b6574206d69736d6174636800000000000000000000008c611054565b610c11610bb2876110de565b157f46696e616c536574746c656d656e7400000000000000000000000000000000007f436f6c6c61746572616c2063616e6e6f74206265206f7665727573656400000089602001516fffffffffffffffffffffffffffffffff16611054565b610c1a876110b6565b610c2057fe5b610c79610c2c82611248565b7f46696e616c536574746c656d656e7400000000000000000000000000000000007f426f72726f7773206d757374206265206e6567617469766500000000000000008c8560200151611107565b610c84858b8b61125f565b91505b60208101516060830151610ce49180821115917f46696e616c536574746c656d656e740000000000000000000000000000000000917f6f75747075744d61726b657420746f6f20736d616c6c000000000000000000009190611107565b805182511515901515141561034057fe5b6000610d00426112be565b905090565b600082821115610d1457600080fd5b508082035b92915050565b6000818310610d2e5781610d30565b825b9392505050565b6000610d5982610d4d868663ffffffff61131416565b9063ffffffff61133b16565b949350505050565b6000610d30838360000151670de0b6b3a7640000610d37565b600082820183811015610d3057600080fd5b60608082604051602001610da09190611a30565b604080517fffffffffffffffffffffffffffffffffffffffffffffffffffffffffffffffe0818403018152919052905060205b8015610e705781517fffffffffffffffffffffffffffffffffffffffffffffffffffffffffffffffff90910190829082908110610e0c57fe5b6020910101517f010000000000000000000000000000000000000000000000000000000000000090819004027fff000000000000000000000000000000000000000000000000000000000000001615610e6b5760010181529050610951565b610dd3565b5060408051600080825260208201909252905b509392505050565b60408051602a808252606082810190935273ffffffffffffffffffffffffffffffffffffffff841691839160208201818038833901905050905060307f01000000000000000000000000000000000000000000000000000000000000000281600081518110610ef657fe5b60200101907effffffffffffffffffffffffffffffffffffffffffffffffffffffffffffff1916908160001a90535060787f01000000000000000000000000000000000000000000000000000000000000000281600181518110610f5657fe5b60200101907effffffffffffffffffffffffffffffffffffffffffffffffffffffffffffff1916908160001a90535060005b6014811015610e835760028102610fa1600f851661135d565b838260290381518110610fb057fe5b60200101907effffffffffffffffffffffffffffffffffffffffffffffffffffffffffffff1916908160001a905350601090930492610ff1600f851661135d565b83826028038151811061100057fe5b60200101907effffffffffffffffffffffffffffffffffffffffffffffffffffffffffffff1916908160001a90535050601090920491600101610f88565b80516000908015610d1957505060200151151590565b836108f55761106283610d8c565b7f3a2000000000000000000000000000000000000000000000000000000000000061108c84610d8c565b7f203c000000000000000000000000000000000000000000000000000000000000610858856113bd565b80516000908015610d19575050602001516fffffffffffffffffffffffffffffffff16151590565b8051600090158015610d19575050602001516fffffffffffffffffffffffffffffffff16151590565b846111cb5761111584610d8c565b7f3a2000000000000000000000000000000000000000000000000000000000000061113f85610d8c565b7f203c000000000000000000000000000000000000000000000000000000000000611169866113bd565b7f2c20000000000000000000000000000000000000000000000000000000000000611193876113bd565b60405161088e97969594939291907f3e0000000000000000000000000000000000000000000000000000000000000090602001611ad4565b5050505050565b6111da611544565b6111e261156d565b6111ea61156d565b6111f785856100ff610cf5565b915091506000611214876020015183600001518560000151610d37565b604080516080810190915260008082529192509060208201905b815260200160008152602001919091529695505050505050565b8051600090158015610d1957505060200151151590565b611267611544565b61126f61156d565b61127761156d565b61128485856100ff610cf5565b9150915060006112a18760200151846000015184600001516114eb565b60408051608081019091526001815290915060208101600061122e565b600081610d1963ffffffff821682147f4d617468000000000000000000000000000000000000000000000000000000007f556e73616665206361737420746f2075696e74333200000000000000000000006108fb565b60008261132357506000610d19565b8282028284828161133057fe5b0414610d3057600080fd5b600080821161134957600080fd5b600082848161135457fe5b04949350505050565b6000600a82101561139457507f01000000000000000000000000000000000000000000000000000000000000006030820102610951565b506057017f01000000000000000000000000000000000000000000000000000000000000000290565b6060816113fe575060408051808201909152600181527f30000000000000000000000000000000000000000000000000000000000000006020820152610951565b8160005b811561141657600101600a82049150611402565b6060816040519080825280601f01601f191660200182016040528015611443576020820181803883390190505b508593509050815b80156114e2577fffffffffffffffffffffffffffffffffffffffffffffffffffffffffffffffff01600a84066030017f0100000000000000000000000000000000000000000000000000000000000000028282815181106114a857fe5b60200101907effffffffffffffffffffffffffffffffffffffffffffffffffffffffffffff1916908160001a905350600a8404935061144b565b50949350505050565b60008315806114f8575082155b1561150f5761150860008361133b565b9050610d30565b610d59600161153884610d4d8361152c8a8a63ffffffff61131416565b9063ffffffff610d0516565b9063ffffffff610d7a16565b604080516080810190915260008082526020820190815260200160008152602001600081525090565b6040518060200160405280600081525090565b604080518082019091526000808252602082015290565b6000610d308235611ca7565b6000610d308235611cb2565b6000610d308251611cb2565b600082601f8301126115cc57600080fd5b81356115df6115da82611c54565b611c2d565b915080825260208301602083018583830111156115fb57600080fd5b611606838284611d61565b50505092915050565b60006020828403121561162157600080fd5b61162b6020611c2d565b905060006116398484611741565b82525092915050565b60006040828403121561165457600080fd5b61165e6040611c2d565b9050600061166c8484611597565b825250602061167d84848301611735565b60208301525092915050565b60006040828403121561169b57600080fd5b6116a56040611c2d565b905060006116b384846115a3565b825250602061167d84848301611729565b6000604082840312156116d657600080fd5b6116e06040611c2d565b9050600061166c84846115a3565b60006040828403121561170057600080fd5b61170a6040611c2d565b9050600061171884846115af565b825250602061167d84848301611741565b6000610d308235611d36565b6000610d308235611d01565b6000610d308251611d01565b6000610d308235611d2d565b60006020828403121561176b57600080fd5b6000610d5984846115af565b60006020828403121561178957600080fd5b6000610d59848461160f565b6000604082840312156117a757600080fd5b6000610d5984846116ee565b6000602082840312156117c557600080fd5b6000610d598484611741565b6000806000806000806000806101a0898b0312156117ee57600080fd5b60006117fa8b8b611735565b985050602061180b8b828c01611735565b975050604061181c8b828c01611642565b965050608061182d8b828c01611642565b95505060c061183e8b828c01611689565b9450506101006118508b828c01611689565b9350506101406118628b828c016116c4565b92505061018089013567ffffffffffffffff81111561188057600080fd5b61188c8b828c016115bb565b9150509295985092959890939650565b6000806000606084860312156118b157600080fd5b60006118bd8686611735565b93505060206118ce86828701611735565b92505060406118df8682870161174d565b9150509250925092565b6118f281611ca7565b82525050565b6118f281611cb2565b6118f261190d82611cb7565b611d01565b6118f261190d82611cdc565b6118f261190d82611d01565b600061193582611c9a565b61193f8185610951565b935061194f818560208601611d6d565b9290920192915050565b6118f281611d4b565b6118f281611d56565b600061197682611c9a565b6119808185611c9e565b9350611990818560208601611d6d565b61199981611d99565b9093019392505050565b805160808301906119b484826118f8565b5060208201516119c76020850182611962565b5060408201516119da6040850182611962565b5060608201516108f56060850182611a1e565b805160408301906119fe84826118e9565b5060208201516108f56020850182611a1e565b805160208301906108f584825b6118f281611d01565b6118f281611d2d565b6000611a3c828461191e565b50602001919050565b6000611a51828661192a565b9150611a5d8285611912565b600282019150611a6d828461192a565b95945050505050565b6000611a82828961192a565b9150611a8e8288611912565b600282019150611a9e828761192a565b9150611aaa8286611912565b600282019150611aba828561192a565b9150611ac68284611901565b506001019695505050505050565b6000611ae0828b61192a565b9150611aec828a611912565b600282019150611afc828961192a565b9150611b088288611912565b600282019150611b18828761192a565b9150611b248286611912565b600282019150611b34828561192a565b9150611b408284611901565b5060010198975050505050505050565b60208101610d1982846118e9565b60208101610d198284611959565b60208082528101610d30818461196b565b60808101610d1982846119a3565b60608101611b9982856119ed565b610d306040830184611a1e565b60408101611bb48285611a11565b610d306020830184611a11565b60208101610d198284611a1e565b60408101611bdd8285611a1e565b610d306020830184611a1e565b60808101611bf88287611a1e565b611c056020830186611a1e565b611c126040830185611a1e565b611a6d6060830184611a1e565b60208101610d198284611a27565b60405181810167ffffffffffffffff81118282101715611c4c57600080fd5b604052919050565b600067ffffffffffffffff821115611c6b57600080fd5b506020601f919091017fffffffffffffffffffffffffffffffffffffffffffffffffffffffffffffffe0160190565b5190565b90815260200190565b6000610d1982611d14565b151590565b7fff000000000000000000000000000000000000000000000000000000000000001690565b7fffff0000000000000000000000000000000000000000000000000000000000001690565b90565b600060028210611d1057fe5b5090565b73ffffffffffffffffffffffffffffffffffffffff1690565b63ffffffff1690565b6fffffffffffffffffffffffffffffffff1690565b6000610d1982611ca7565b6000610d1982611d04565b82818337506000910152565b60005b83811015611d88578181015183820152602001611d70565b838111156108f55750506000910152565b601f017fffffffffffffffffffffffffffffffffffffffffffffffffffffffffffffffe0169056fea265627a7a72305820baf3e0e82eb3b11019c22621548580930f0571e548f860085d2698fff15dea276c6578706572696d656e74616cf50037",
    "source": "/*\n\n    Copyright 2019 dYdX Trading Inc.\n\n    Licensed under the Apache License, Version 2.0 (the \"License\");\n    you may not use this file except in compliance with the License.\n    You may obtain a copy of the License at\n\n    http://www.apache.org/licenses/LICENSE-2.0\n\n    Unless required by applicable law or agreed to in writing, software\n    distributed under the License is distributed on an \"AS IS\" BASIS,\n    WITHOUT WARRANTIES OR CONDITIONS OF ANY KIND, either express or implied.\n    See the License for the specific language governing permissions and\n    limitations under the License.\n\n*/\n\npragma solidity 0.5.7;\npragma experimental ABIEncoderV2;\n\nimport { SafeMath } from \"openzeppelin-solidity/contracts/math/SafeMath.sol\";\nimport { IAutoTrader } from \"../../protocol/interfaces/IAutoTrader.sol\";\nimport { Account } from \"../../protocol/lib/Account.sol\";\nimport { Decimal } from \"../../protocol/lib/Decimal.sol\";\nimport { Math } from \"../../protocol/lib/Math.sol\";\nimport { Monetary } from \"../../protocol/lib/Monetary.sol\";\nimport { Require } from \"../../protocol/lib/Require.sol\";\nimport { Time } from \"../../protocol/lib/Time.sol\";\nimport { Types } from \"../../protocol/lib/Types.sol\";\nimport { OnlySolo } from \"../helpers/OnlySolo.sol\";\n\n\n/**\n * @title FinalSettlement\n * @author dYdX\n *\n * FinalSettlement contract that allows closing of all positions on Solo.\n */\ncontract FinalSettlement is\n    OnlySolo,\n    IAutoTrader\n{\n    using Math for uint256;\n    using SafeMath for uint32;\n    using SafeMath for uint256;\n    using Types for Types.Par;\n    using Types for Types.Wei;\n\n    // ============ Constants ============\n\n    bytes32 constant FILE = \"FinalSettlement\";\n\n    // ============ Events ============\n\n    event Initialized(\n        uint32 time\n    );\n\n    event Settlement(\n        address indexed makerAddress,\n        address indexed takerAddress,\n        uint256 heldMarketId,\n        uint256 owedMarketId,\n        uint256 heldWei,\n        uint256 owedWei\n    );\n\n    // ============ Storage ============\n\n    // Time over which the liquidation spread goes from zero to maximum.\n    uint256 public g_spreadRampTime;\n\n    // Time at which the contract was initialized. Zero if uninitialized.\n    uint32 public g_startTime = 0;\n\n    // ============ Constructor ============\n\n    constructor (\n        address soloMargin,\n        uint256 rampTime\n    )\n        public\n        OnlySolo(soloMargin)\n    {\n        g_spreadRampTime = rampTime;\n    }\n\n    // ============ External Functions ============\n\n    function initialize()\n        external\n    {\n        Require.that(\n            g_startTime == 0,\n            FILE,\n            \"Already initialized\"\n        );\n        Require.that(\n            SOLO_MARGIN.getIsGlobalOperator(address(this)),\n            FILE,\n            \"Not a global operator\"\n        );\n\n        g_startTime = Time.currentTime();\n\n        emit Initialized(\n            g_startTime\n        );\n    }\n\n    // ============ Getters ============\n\n    function getSpreadAdjustedPrices(\n        uint256 heldMarketId,\n        uint256 owedMarketId,\n        uint32 timestamp\n    )\n        public\n        view\n        returns (\n            Monetary.Price memory,\n            Monetary.Price memory\n        )\n    {\n        // Require timestamp to be at-or-after initialization\n        Require.that(\n            g_startTime != 0,\n            FILE,\n            \"Not initialized\"\n        );\n\n        // Get the amount of time passed since deployment, bounded by the maximum ramp time.\n        uint256 rampedTime = Math.min(\n            timestamp.sub(g_startTime),\n            g_spreadRampTime\n        );\n\n        // Get the liquidation spread prorated by the ramp time.\n        Decimal.D256 memory spread = SOLO_MARGIN.getLiquidationSpreadForPair(\n            heldMarketId,\n            owedMarketId\n        );\n        spread.value = Math.getPartial(spread.value, rampedTime, g_spreadRampTime);\n\n        Monetary.Price memory heldPrice = SOLO_MARGIN.getMarketPrice(heldMarketId);\n        Monetary.Price memory owedPrice = SOLO_MARGIN.getMarketPrice(owedMarketId);\n        owedPrice.value = owedPrice.value.add(Decimal.mul(owedPrice.value, spread));\n\n        return (heldPrice, owedPrice);\n    }\n\n    // ============ Only-Solo Functions ============\n\n    function getTradeCost(\n        uint256 inputMarketId,\n        uint256 outputMarketId,\n        Account.Info memory makerAccount,\n        Account.Info memory takerAccount,\n        Types.Par memory oldInputPar,\n        Types.Par memory newInputPar,\n        Types.Wei memory inputWei,\n        bytes memory data\n    )\n        public\n        onlySolo(msg.sender)\n        returns (Types.AssetAmount memory)\n    {\n        // require contract to be initialized\n        Require.that(\n            g_startTime != 0,\n            FILE,\n            \"Contract must be initialized\"\n        );\n\n        // return zero if input amount is zero\n        if (inputWei.isZero()) {\n            return Types.AssetAmount({\n                sign: true,\n                denomination: Types.AssetDenomination.Par,\n                ref: Types.AssetReference.Delta,\n                value: 0\n            });\n        }\n\n        (uint256 owedMarketId) = abi.decode(data, (uint256));\n\n        Types.AssetAmount memory result = getTradeCostInternal(\n            inputMarketId,\n            outputMarketId,\n            makerAccount,\n            oldInputPar,\n            newInputPar,\n            inputWei,\n            owedMarketId\n        );\n\n        uint256 heldMarketId = (owedMarketId == inputMarketId)\n            ? outputMarketId\n            : inputMarketId;\n        uint256 heldWei = (owedMarketId == inputMarketId)\n            ? result.value\n            : inputWei.value;\n        uint256 owedWei = (owedMarketId == inputMarketId)\n            ? inputWei.value\n            : result.value;\n        emit Settlement(\n            makerAccount.owner,\n            takerAccount.owner,\n            heldMarketId,\n            owedMarketId,\n            heldWei,\n            owedWei\n        );\n\n        return result;\n    }\n\n    // ============ Helper Functions ============\n\n    function getTradeCostInternal(\n        uint256 inputMarketId,\n        uint256 outputMarketId,\n        Account.Info memory makerAccount,\n        Types.Par memory oldInputPar,\n        Types.Par memory newInputPar,\n        Types.Wei memory inputWei,\n        uint256 owedMarketId\n    )\n        private\n        view\n        returns (Types.AssetAmount memory)\n    {\n        Types.AssetAmount memory output;\n        Types.Wei memory maxOutputWei = SOLO_MARGIN.getAccountWei(makerAccount, outputMarketId);\n\n        if (inputWei.isPositive()) {\n            Require.that(\n                inputMarketId == owedMarketId,\n                FILE,\n                \"inputMarket mismatch\",\n                inputMarketId\n            );\n            Require.that(\n                !newInputPar.isPositive(),\n                FILE,\n                \"Borrows cannot be overpaid\",\n                newInputPar.value\n            );\n            assert(oldInputPar.isNegative());\n            Require.that(\n                maxOutputWei.isPositive(),\n                FILE,\n                \"Collateral must be positive\",\n                outputMarketId,\n                maxOutputWei.value\n            );\n            output = owedWeiToHeldWei(\n                inputWei,\n                outputMarketId,\n                inputMarketId\n            );\n        } else {\n            Require.that(\n                outputMarketId == owedMarketId,\n                FILE,\n                \"outputMarket mismatch\",\n                outputMarketId\n            );\n            Require.that(\n                !newInputPar.isNegative(),\n                FILE,\n                \"Collateral cannot be overused\",\n                newInputPar.value\n            );\n            assert(oldInputPar.isPositive());\n            Require.that(\n                maxOutputWei.isNegative(),\n                FILE,\n                \"Borrows must be negative\",\n                outputMarketId,\n                maxOutputWei.value\n            );\n            output = heldWeiToOwedWei(\n                inputWei,\n                inputMarketId,\n                outputMarketId\n            );\n        }\n\n        Require.that(\n            output.value <= maxOutputWei.value,\n            FILE,\n            \"outputMarket too small\",\n            output.value,\n            maxOutputWei.value\n        );\n        assert(output.sign != maxOutputWei.sign);\n\n        return output;\n    }\n\n    function heldWeiToOwedWei(\n        Types.Wei memory heldWei,\n        uint256 heldMarketId,\n        uint256 owedMarketId\n    )\n        private\n        view\n        returns (Types.AssetAmount memory)\n    {\n        (\n            Monetary.Price memory heldPrice,\n            Monetary.Price memory owedPrice\n        ) = getSpreadAdjustedPrices(\n            heldMarketId,\n            owedMarketId,\n            Time.currentTime()\n        );\n\n        uint256 owedAmount = Math.getPartialRoundUp(\n            heldWei.value,\n            heldPrice.value,\n            owedPrice.value\n        );\n\n        return Types.AssetAmount({\n            sign: true,\n            denomination: Types.AssetDenomination.Wei,\n            ref: Types.AssetReference.Delta,\n            value: owedAmount\n        });\n    }\n\n    function owedWeiToHeldWei(\n        Types.Wei memory owedWei,\n        uint256 heldMarketId,\n        uint256 owedMarketId\n    )\n        private\n        view\n        returns (Types.AssetAmount memory)\n    {\n        (\n            Monetary.Price memory heldPrice,\n            Monetary.Price memory owedPrice\n        ) = getSpreadAdjustedPrices(\n            heldMarketId,\n            owedMarketId,\n            Time.currentTime()\n        );\n\n        uint256 heldAmount = Math.getPartial(\n            owedWei.value,\n            owedPrice.value,\n            heldPrice.value\n        );\n\n        return Types.AssetAmount({\n            sign: false,\n            denomination: Types.AssetDenomination.Wei,\n            ref: Types.AssetReference.Delta,\n            value: heldAmount\n        });\n    }\n}\n",
    "sourcePath": "/home/dydx/app/contracts/external/traders/FinalSettlement.sol",
    "compiler": {
        "name": "solc",
        "version": "0.5.7+commit.6da8b019.Emscripten.clang"
    },
    "schemaVersion": "3.0.23",
    "updatedAt": "2022-11-11T03:47:01.692Z",
    "networkType": "ethereum",
    "devdoc": {
        "author": "dYdX * FinalSettlement contract that allows closing of all positions on Solo.",
        "methods": {},
        "title": "FinalSettlement"
    },
    "userdoc": {
        "methods": {}
    }
}