{
    "contractName": "LiquidatorProxyV1ForSoloMargin",
    "abi": [
        {
            "constant": true,
            "inputs": [],
            "name": "SOLO_MARGIN",
            "outputs": [
                {
                    "name": "",
                    "type": "address"
                }
            ],
            "payable": false,
            "stateMutability": "view",
            "type": "function"
        },
        {
            "inputs": [
                {
                    "name": "soloMargin",
                    "type": "address"
                }
            ],
            "payable": false,
            "stateMutability": "nonpayable",
            "type": "constructor"
        },
        {
            "constant": false,
            "inputs": [
                {
                    "components": [
                        {
                            "name": "owner",
                            "type": "address"
                        },
                        {
                            "name": "number",
                            "type": "uint256"
                        }
                    ],
                    "name": "fromAccount",
                    "type": "tuple"
                },
                {
                    "components": [
                        {
                            "name": "owner",
                            "type": "address"
                        },
                        {
                            "name": "number",
                            "type": "uint256"
                        }
                    ],
                    "name": "liquidAccount",
                    "type": "tuple"
                },
                {
                    "components": [
                        {
                            "name": "value",
                            "type": "uint256"
                        }
                    ],
                    "name": "minLiquidatorRatio",
                    "type": "tuple"
                },
                {
                    "name": "minValueLiquidated",
                    "type": "uint256"
                },
                {
                    "name": "owedPreferences",
                    "type": "uint256[]"
                },
                {
                    "name": "heldPreferences",
                    "type": "uint256[]"
                }
            ],
            "name": "liquidate",
            "outputs": [],
            "payable": false,
            "stateMutability": "nonpayable",
            "type": "function"
        }
    ],
    "bytecode": "0x60806040523480156200001157600080fd5b5060405160208062002b2f833981018060405262000033919081019062000072565b60008054600160a060020a031916600160a060020a039290921691909117905560018055620000ba565b60006200006b82516200009b565b9392505050565b6000602082840312156200008557600080fd5b60006200009384846200005d565b949350505050565b6000620000a882620000ae565b92915050565b600160a060020a031690565b612a6580620000ca6000396000f3fe608060405234801561001057600080fd5b5060043610610052577c010000000000000000000000000000000000000000000000000000000060003504631b1fe68a8114610057578063c29a4b7114610075575b600080fd5b61005f61008a565b60405161006c9190612813565b60405180910390f35b6100886100833660046122ff565b6100a6565b005b60005473ffffffffffffffffffffffffffffffffffffffff1681565b600180548101908190556100b8611ed6565b60405180608001604052808981526020018881526020018781526020016100dd61046f565b905290506100ea816106e4565b6000805b855181101561040557600086828151811061010557fe5b6020026020010151905060008090505b86518110156103fb57600087828151811061012c57fe5b602002602001015190508281141561014457506103f3565b6102136000809054906101000a900473ffffffffffffffffffffffffffffffffffffffff1673ffffffffffffffffffffffffffffffffffffffff166347d1b53c8e866040518363ffffffff167c01000000000000000000000000000000000000000000000000000000000281526004016101bf929190612840565b604080518083038186803b1580156101d657600080fd5b505afa1580156101ea573d6000803e3d6000fd5b505050506040513d601f19601f8201168201806040525061020e91908101906123b7565b610a33565b61021d57506103fb565b6102ec6000809054906101000a900473ffffffffffffffffffffffffffffffffffffffff1673ffffffffffffffffffffffffffffffffffffffff166347d1b53c8e846040518363ffffffff167c0100000000000000000000000000000000000000000000000000000000028152600401610298929190612840565b604080518083038186803b1580156102af57600080fd5b505afa1580156102c3573d6000803e3d6000fd5b505050506040513d601f19601f820116820180604052506102e791908101906123b7565b610a63565b6102f657506103f3565b6102fe611f10565b610309878386610a8b565b905061031481610daa565b61031e8782610f35565b805161032b5750506103f3565b60005473ffffffffffffffffffffffffffffffffffffffff1663a67a6a4561035289611052565b61035b846110c8565b6040518363ffffffff167c01000000000000000000000000000000000000000000000000000000000281526004016103949291906127ee565b600060405180830381600087803b1580156103ae57600080fd5b505af11580156103c2573d6000803e3d6000fd5b50505061012082015182516103ee92506103e19163ffffffff61118116565b879063ffffffff6111b116565b955050505b600101610115565b50506001016100ee565b50610456868210157f4c697175696461746f7250726f78795631466f72536f6c6f4d617267696e00007f4e6f7420656e6f756768206c6971756964617461626c652076616c7565000000848a6111c3565b5050600154811461046657600080fd5b50505050505050565b60008054604080517f295c39a500000000000000000000000000000000000000000000000000000000815290516060939273ffffffffffffffffffffffffffffffffffffffff169163295c39a5916004808301926020929190829003018186803b1580156104dc57600080fd5b505afa1580156104f0573d6000803e3d6000fd5b505050506040513d601f19601f8201168201806040525061051491908101906123d5565b905060608160405190808252806020026020018201604052801561055257816020015b61053f611f7c565b8152602001906001900390816105375790505b50905060005b828110156106dd5760408051808201918290526000547f8928378e0000000000000000000000000000000000000000000000000000000090925290819073ffffffffffffffffffffffffffffffffffffffff16638928378e6105bd856044850161285b565b60206040518083038186803b1580156105d557600080fd5b505afa1580156105e9573d6000803e3d6000fd5b505050506040513d601f19601f8201168201806040525061060d91908101906122c3565b81526000546040517f56ea84b200000000000000000000000000000000000000000000000000000000815260209092019173ffffffffffffffffffffffffffffffffffffffff909116906356ea84b29061066b90869060040161285b565b60606040518083038186803b15801561068357600080fd5b505afa158015610697573d6000803e3d6000fd5b505050506040513d601f19601f820116820180604052506106bb91908101906122e1565b8152508282815181106106ca57fe5b6020908102919091010152600101610558565b5091505090565b8051516107fe9073ffffffffffffffffffffffffffffffffffffffff163314806107b257506000548251516040517f3a031bf000000000000000000000000000000000000000000000000000000000815273ffffffffffffffffffffffffffffffffffffffff90921691633a031bf0916107629133906004016127d3565b60206040518083038186803b15801561077a57600080fd5b505afa15801561078e573d6000803e3d6000fd5b505050506040513d601f19601f820116820180604052506107b29190810190612287565b8251517f4c697175696461746f7250726f78795631466f72536f6c6f4d617267696e0000907f53656e646572206e6f74206f70657261746f7200000000000000000000000000906112ee565b610806611fa1565b61080e611fa1565b61081c838460200151611386565b815191935091506108709015157f4c697175696461746f7250726f78795631466f72536f6c6f4d617267696e00007f4c6971756964206163636f756e74206e6f20737570706c79000000000000000061151c565b610a2e600160005460208601516040517fe51bfcb400000000000000000000000000000000000000000000000000000000815273ffffffffffffffffffffffffffffffffffffffff9092169163e51bfcb4916108ce91600401612832565b60206040518083038186803b1580156108e657600080fd5b505afa1580156108fa573d6000803e3d6000fd5b505050506040513d601f19601f8201168201806040525061091e91908101906122a5565b600281111561092957fe5b14806109e1575082518251600054604080517f4f3c154200000000000000000000000000000000000000000000000000000000815290516109df94939273ffffffffffffffffffffffffffffffffffffffff1691634f3c1542916004808301926020929190829003018186803b1580156109a257600080fd5b505afa1580156109b6573d6000803e3d6000fd5b505050506040513d601f19601f820116820180604052506109da91908101906122c3565b611566565b155b835183517f4c697175696461746f7250726f78795631466f72536f6c6f4d617267696e0000917f4c6971756964206163636f756e74206e6f74206c6971756964617461626c6500916111c3565b505050565b8051600090158015610a5b5750600082602001516fffffffffffffffffffffffffffffffff16115b90505b919050565b80516000908015610a5b575050602001516fffffffffffffffffffffffffffffffff16151590565b610a93611f10565b610a9b611fa1565b610aa3611fa1565b610ab1868760000151611386565b91509150600086606001518681518110610ac757fe5b602002602001015160000151600001519050600087606001518681518110610aeb57fe5b602002602001015160000151600001519050610b05611fa1565b6000546040517fd24c48bc00000000000000000000000000000000000000000000000000000000815273ffffffffffffffffffffffffffffffffffffffff9091169063d24c48bc90610b5d908b908b90600401612869565b60206040518083038186803b158015610b7557600080fd5b505afa158015610b89573d6000803e3d6000fd5b505050506040513d601f19601f82011682018060405250610bad91908101906122c3565b60408051610160810182526000808252548c5192517f47d1b53c00000000000000000000000000000000000000000000000000000000815293945090926020840192610c8e9273ffffffffffffffffffffffffffffffffffffffff16916347d1b53c91610c1e918f90600401612840565b604080518083038186803b158015610c3557600080fd5b505afa158015610c49573d6000803e3d6000fd5b505050506040513d601f19601f82011682018060405250610c6d91908101906123b7565b8c606001518c81518110610c7d57fe5b602002602001015160200151611591565b81526000548b516040517f47d1b53c000000000000000000000000000000000000000000000000000000008152602090930192610d509273ffffffffffffffffffffffffffffffffffffffff16916347d1b53c91610cf191908e90600401612840565b604080518083038186803b158015610d0857600080fd5b505afa158015610d1c573d6000803e3d6000fd5b505050506040513d601f19601f82011682018060405250610d4091908101906123b7565b8c606001518b81518110610c7d57fe5b81526020018660000151815260200185600001518152602001828152602001898152602001888152602001848152602001838152602001610d9984610d9485611642565b611679565b9052955050505050505b9392505050565b6000610db98260400151611692565b1590506000610dcb83602001516116a8565b159050818015610dd85750805b15610de4575050610f32565b60008215610df457506000610e41565b8115610e0257506001610e41565b6101008401516020808601510151610e1f9163ffffffff61118116565b610140850151604086015160200151610e3d9163ffffffff61118116565b1190505b8015610ebd57610e4f611fb4565b60408051808201825290860180515115158252610140870151610100880151915160209081015190840192610e8a929063ffffffff6116bf16565b8152509050610eb785610eaa8388602001516116e990919063ffffffff16565b610eb261177b565b61179b565b50610f2e565b610ec5611fb4565b604051806040016040528086602001516000015115158152602001610f078761010001518861014001518960200151602001516116bf9092919063ffffffff16565b90529050610f2c85610f1761177b565b6040880151610eb2908563ffffffff6116e916565b505b5050505b50565b610f4281602001516116a8565b15610f4957fe5b610f568160400151611692565b15610f5d57fe5b6000610f76826060015183608001518560400151611566565b905080610f8757506000815261104e565b6000610f9b83608001518560400151611679565b90506000610fb68285608001516111b190919063ffffffff16565b90506000610fd182866060015161199290919063ffffffff16565b9050610fdb611fa1565b6040805160208101825260a0880151519189015151909182916110039163ffffffff61199216565b90529050600061101383836119a7565b9050600061102f886101200151836119c090919063ffffffff16565b8851909150611044908263ffffffff6111b116565b8852505050505050505b5050565b6040805160028082526060828101909352829190816020015b611073611fb4565b81526020019060019003908161106b57905050905082600001518160008151811061109a57fe5b60200260200101819052508260200151816001815181106110b757fe5b602090810291909101015292915050565b604080516001808252818301909252606091829190816020015b6110ea611fcb565b8152602001906001900390816110e25750506040805161010081018252600681526000602080830182905283516080810185526001815294955091939284019291820190815260006020808301829052885160409384015292845260e08801518484015260c0880151848301526060840181905260016080850152815181815292830190915260a09092015282518391906110b757fe5b600082611190575060006111ab565b8282028284828161119d57fe5b04146111a857600080fd5b90505b92915050565b6000828201838110156111a857600080fd5b84610f2c576111d1846119e2565b7f3a200000000000000000000000000000000000000000000000000000000000006111fb856119e2565b7f203c00000000000000000000000000000000000000000000000000000000000061122586611ae1565b7f2c2000000000000000000000000000000000000000000000000000000000000061124f87611ae1565b60405161128797969594939291907f3e0000000000000000000000000000000000000000000000000000000000000090602001612757565b604080517fffffffffffffffffffffffffffffffffffffffffffffffffffffffffffffffe0818403018152908290527f08c379a00000000000000000000000000000000000000000000000000000000082526112e591600401612821565b60405180910390fd5b83610f2e576112fc836119e2565b7f3a20000000000000000000000000000000000000000000000000000000000000611326846119e2565b7f203c00000000000000000000000000000000000000000000000000000000000061135085611c0f565b6040516112879594939291907f3e00000000000000000000000000000000000000000000000000000000000000906020016126f9565b61138e611fa1565b611396611fa1565b61139e611fa1565b6113a6611fa1565b60005b866060015151811015611510576113be611fb4565b6000546040517f47d1b53c00000000000000000000000000000000000000000000000000000000815273ffffffffffffffffffffffffffffffffffffffff909116906347d1b53c90611416908a908690600401612840565b604080518083038186803b15801561142d57600080fd5b505afa158015611441573d6000803e3d6000fd5b505050506040513d601f19601f8201168201806040525061146591908101906123b7565b905061147081611dc2565b1561147b5750611508565b611483611fb4565b611497828a606001518581518110610c7d57fe5b905060006114cc8a6060015185815181106114ae57fe5b6020908102919091018101515151908401519063ffffffff61118116565b8251909150156114ef5785516114e8908263ffffffff6111b116565b8652611504565b8451611501908263ffffffff6111b116565b85525b5050505b6001016113a9565b50909590945092505050565b82610a2e5761152a826119e2565b7f3a20000000000000000000000000000000000000000000000000000000000000611554836119e2565b604051602001611287939291906126d1565b6000806115738484611679565b9050611585848263ffffffff6111b116565b90941015949350505050565b611599611fb4565b602083015183516fffffffffffffffffffffffffffffffff9091169015611605576040805180820190915260018152602084810151908201906115fa9084906bffffffffffffffffffffffff16670de0b6b3a764000063ffffffff6116bf16565b8152509150506111ab565b6040805180820190915260008152835160208201906115fa9084906bffffffffffffffffffffffff16670de0b6b3a764000063ffffffff611ddc16565b61164a611fa1565b60408051602081019091528251819061167190670de0b6b3a764000063ffffffff6111b116565b905292915050565b60006111a8838360000151670de0b6b3a76400006116bf565b80516000908015610a5b57505060200151151590565b8051600090158015610a5b57505060200151151590565b60006116e1826116d5868663ffffffff61118116565b9063ffffffff6119c016565b949350505050565b6116f1611fb4565b6116f9611fb4565b825184511515901515141561172c578351151581526020808501519084015161172291906111b1565b60208201526111a8565b826020015184602001511061175557835115158152602080850151908401516117229190611992565b8251151581526020808401519085015161176f9190611992565b60208201529392505050565b611783611fb4565b50604080518082019091526000808252602082015290565b60006117bd84610100015185602001516020015161118190919063ffffffff16565b602085015151909150156117ea5760608401516117e0908263ffffffff61199216565b6060850152611805565b60808401516117ff908263ffffffff61199216565b60808501525b6000611823856101000151856020015161118190919063ffffffff16565b84519091501561184c576060850151611842908263ffffffff6111b116565b6060860152611867565b6080850151611861908263ffffffff6111b116565b60808601525b600061188986610120015187604001516020015161118190919063ffffffff16565b604087015151909150156118b65760608601516118ac908263ffffffff61199216565b60608701526118d1565b60808601516118cb908263ffffffff61199216565b60808701525b60006118ef876101200151866020015161118190919063ffffffff16565b85519091501561191857606087015161190e908263ffffffff6111b116565b6060880152611933565b608087015161192d908263ffffffff6111b116565b60808801525b61193b611fb4565b6040880151611950908763ffffffff611e3516565b905061195b816116a8565b1561196257fe5b602081015188516119789163ffffffff6111b116565b885250505050602084019290925260409092019190915250565b6000828211156119a157600080fd5b50900390565b60006111a883670de0b6b3a764000084600001516116bf565b60008082116119ce57600080fd5b60008284816119d957fe5b04949350505050565b606080826040516020016119f691906126bc565b604080517fffffffffffffffffffffffffffffffffffffffffffffffffffffffffffffffe0818403018152919052905060205b8015611ac65781517fffffffffffffffffffffffffffffffffffffffffffffffffffffffffffffffff90910190829082908110611a6257fe5b6020910101517f010000000000000000000000000000000000000000000000000000000000000090819004027fff000000000000000000000000000000000000000000000000000000000000001615611ac15760010181529050610a5e565b611a29565b5060408051600080825260208201909252905b509392505050565b606081611b22575060408051808201909152600181527f30000000000000000000000000000000000000000000000000000000000000006020820152610a5e565b8160005b8115611b3a57600101600a82049150611b26565b6060816040519080825280601f01601f191660200182016040528015611b67576020820181803883390190505b508593509050815b8015611c06577fffffffffffffffffffffffffffffffffffffffffffffffffffffffffffffffff01600a84066030017f010000000000000000000000000000000000000000000000000000000000000002828281518110611bcc57fe5b60200101907effffffffffffffffffffffffffffffffffffffffffffffffffffffffffffff1916908160001a905350600a84049350611b6f565b50949350505050565b60408051602a808252606082810190935273ffffffffffffffffffffffffffffffffffffffff841691839160208201818038833901905050905060307f01000000000000000000000000000000000000000000000000000000000000000281600081518110611c7a57fe5b60200101907effffffffffffffffffffffffffffffffffffffffffffffffffffffffffffff1916908160001a90535060787f01000000000000000000000000000000000000000000000000000000000000000281600181518110611cda57fe5b60200101907effffffffffffffffffffffffffffffffffffffffffffffffffffffffffffff1916908160001a90535060005b6014811015611ad95760028102611d25600f8516611e4f565b838260290381518110611d3457fe5b60200101907effffffffffffffffffffffffffffffffffffffffffffffffffffffffffffff1916908160001a905350601090930492611d75600f8516611e4f565b838260280381518110611d8457fe5b60200101907effffffffffffffffffffffffffffffffffffffffffffffffffffffffffffff1916908160001a90535050601090920491600101611d0c565b602001516fffffffffffffffffffffffffffffffff161590565b6000831580611de9575082155b15611e0057611df96000836119c0565b9050610da3565b6116e16001611e29846116d583611e1d8a8a63ffffffff61118116565b9063ffffffff61199216565b9063ffffffff6111b116565b611e3d611fb4565b6111a883611e4a84611eaf565b6116e9565b6000600a821015611e8657507f01000000000000000000000000000000000000000000000000000000000000006030820102610a5e565b506057017f01000000000000000000000000000000000000000000000000000000000000000290565b611eb7611fb4565b5060408051808201909152815115815260208083015190820152919050565b6040518060c00160405280611ee9611fb4565b8152602001611ef6611fb4565b8152602001611f03611fa1565b8152602001606081525090565b604051806101a0016040528060008152602001611f2b611fb4565b8152602001611f38611fb4565b81526020016000815260200160008152602001611f53611fa1565b815260200160008152602001600081526020016000815260200160008152602001600081525090565b6040518060800160405280611f8f611fa1565b8152602001611f9c61202a565b905290565b6040518060200160405280600081525090565b604080518082019091526000808252602082015290565b604080516101608101825260008082526020820152908101611feb61204a565b81526020016000815260200160008152602001600073ffffffffffffffffffffffffffffffffffffffff16815260200160008152602001606081525090565b604080516060810182526000808252602082018190529181019190915290565b604080516080810190915260008082526020820190815260200160008152602001600081525090565b60006111a882356128df565b600082601f83011261209057600080fd5b81356120a361209e826128ab565b612884565b915081818352602084019350602081019050838560208402820111156120c857600080fd5b60005b838110156120f457816120de8882612257565b84525060209283019291909101906001016120cb565b5050505092915050565b60006111a882516128ea565b60006111a88251612971565b60006020828403121561212857600080fd5b6121326020612884565b905060006121408484612257565b82525092915050565b60006020828403121561215b57600080fd5b6121656020612884565b905060006121408484612263565b60006060828403121561218557600080fd5b61218f6060612884565b9050600061219d848461227b565b82525060206121ae8484830161227b565b60208301525060406121c28482850161226f565b60408301525092915050565b6000604082840312156121e057600080fd5b6121ea6040612884565b905060006121f88484612073565b825250602061220984848301612257565b60208301525092915050565b60006040828403121561222757600080fd5b6122316040612884565b9050600061223f84846120fe565b82525060206122098484830160006111a88251612980565b60006111a88235612939565b60006111a88251612939565b60006111a88251612995565b60006111a8825161299e565b60006020828403121561229957600080fd5b60006116e184846120fe565b6000602082840312156122b757600080fd5b60006116e1848461210a565b6000602082840312156122d557600080fd5b60006116e18484612149565b6000606082840312156122f357600080fd5b60006116e18484612173565b600080600080600080610100878903121561231957600080fd5b600061232589896121ce565b965050604061233689828a016121ce565b955050608061234789828a01612116565b94505060a061235889828a01612257565b93505060c087013567ffffffffffffffff81111561237557600080fd5b61238189828a0161207f565b92505060e087013567ffffffffffffffff81111561239e57600080fd5b6123aa89828a0161207f565b9150509295509295509295565b6000604082840312156123c957600080fd5b60006116e18484612215565b6000602082840312156123e757600080fd5b60006116e18484612263565b60006111a8838361259e565b600061240b8383612693565b505060400190565b61241c816129af565b82525050565b61241c816128df565b6000612436826128d2565b61244081856128d6565b935083602082028501612452856128cc565b60005b8481101561248957838303885261246d8383516123f3565b9250612478826128cc565b602098909801979150600101612455565b50909695505050505050565b60006124a0826128d2565b6124aa81856128d6565b93506124b5836128cc565b60005b828110156124e0576124cb8683516123ff565b95506124d6826128cc565b91506001016124b8565b5093949350505050565b61241c816128ea565b61241c6124ff826128ef565b612939565b61241c6124ff82612914565b61241c6124ff82612939565b6000612527826128d2565b6125318185610a5e565b93506125418185602086016129d7565b9290920192915050565b6000612556826128d2565b61256081856128d6565b93506125708185602086016129d7565b61257981612a03565b9093019392505050565b61241c816129b6565b61241c816129c1565b61241c816129cc565b80516000906101608401906125b3858261258c565b5060208301516125c660208601826126b3565b5060408301516125d96040860182612649565b5060608301516125ec60c08601826126b3565b5060808301516125ff60e08601826126b3565b5060a0830151612613610100860182612422565b5060c08301516126276101208601826126b3565b5060e0830151848203610140860152612640828261254b565b95945050505050565b8051608083019061265a84826124ea565b50602082015161266d6020850182612595565b5060408201516126806040850182612595565b506060820151610f2e60608501826126b3565b805160408301906126a48482612422565b506020820151610f2e60208501825b61241c81612939565b60006126c88284612510565b50602001919050565b60006126dd828661251c565b91506126e98285612504565b600282019150612640828461251c565b6000612705828961251c565b91506127118288612504565b600282019150612721828761251c565b915061272d8286612504565b60028201915061273d828561251c565b915061274982846124f3565b506001019695505050505050565b6000612763828b61251c565b915061276f828a612504565b60028201915061277f828961251c565b915061278b8288612504565b60028201915061279b828761251c565b91506127a78286612504565b6002820191506127b7828561251c565b91506127c382846124f3565b5060010198975050505050505050565b604081016127e18285612422565b610da36020830184612413565b604080825281016127ff8185612495565b905081810360208301526116e1818461242b565b602081016111ab8284612583565b602080825281016111a8818461254b565b604081016111ab8284612693565b6060810161284e8285612693565b610da360408301846126b3565b602081016111ab82846126b3565b6040810161287782856126b3565b610da360208301846126b3565b60405181810167ffffffffffffffff811182821017156128a357600080fd5b604052919050565b600067ffffffffffffffff8211156128c257600080fd5b5060209081020190565b60200190565b5190565b90815260200190565b6000610a5b82612958565b151590565b7fff000000000000000000000000000000000000000000000000000000000000001690565b7fffff0000000000000000000000000000000000000000000000000000000000001690565b90565b60006009821061294857fe5b5090565b60006002821061294857fe5b73ffffffffffffffffffffffffffffffffffffffff1690565b60006003821061294857600080fd5b6fffffffffffffffffffffffffffffffff1690565b63ffffffff1690565b6bffffffffffffffffffffffff1690565b6000610a5b825b6000610a5b826128df565b6000610a5b8261293c565b6000610a5b8261294c565b60005b838110156129f25781810151838201526020016129da565b83811115610f2e5750506000910152565b601f017fffffffffffffffffffffffffffffffffffffffffffffffffffffffffffffffe0169056fea265627a7a72305820188aba424a708aaaa2de9f76361e0c7818e08cf3965572af532c9b68545c552f6c6578706572696d656e74616cf50037",
    "source": "/*\n\n    Copyright 2019 dYdX Trading Inc.\n\n    Licensed under the Apache License, Version 2.0 (the \"License\");\n    you may not use this file except in compliance with the License.\n    You may obtain a copy of the License at\n\n    http://www.apache.org/licenses/LICENSE-2.0\n\n    Unless required by applicable law or agreed to in writing, software\n    distributed under the License is distributed on an \"AS IS\" BASIS,\n    WITHOUT WARRANTIES OR CONDITIONS OF ANY KIND, either express or implied.\n    See the License for the specific language governing permissions and\n    limitations under the License.\n\n*/\n\npragma solidity 0.5.7;\npragma experimental ABIEncoderV2;\n\nimport { SafeMath } from \"openzeppelin-solidity/contracts/math/SafeMath.sol\";\nimport { ReentrancyGuard } from \"openzeppelin-solidity/contracts/utils/ReentrancyGuard.sol\";\nimport { SoloMargin } from \"../../protocol/SoloMargin.sol\";\nimport { Account } from \"../../protocol/lib/Account.sol\";\nimport { Actions } from \"../../protocol/lib/Actions.sol\";\nimport { Decimal } from \"../../protocol/lib/Decimal.sol\";\nimport { Interest } from \"../../protocol/lib/Interest.sol\";\nimport { Math } from \"../../protocol/lib/Math.sol\";\nimport { Monetary } from \"../../protocol/lib/Monetary.sol\";\nimport { Require } from \"../../protocol/lib/Require.sol\";\nimport { Types } from \"../../protocol/lib/Types.sol\";\nimport { OnlySolo } from \"../helpers/OnlySolo.sol\";\n\n\n/**\n * @title LiquidatorProxyV1ForSoloMargin\n * @author dYdX\n *\n * Contract for liquidating other accounts in Solo. Does not take marginPremium into account.\n */\ncontract LiquidatorProxyV1ForSoloMargin is\n    OnlySolo,\n    ReentrancyGuard\n{\n    using Math for uint256;\n    using SafeMath for uint256;\n    using Types for Types.Par;\n    using Types for Types.Wei;\n\n    // ============ Constants ============\n\n    bytes32 constant FILE = \"LiquidatorProxyV1ForSoloMargin\";\n\n    // ============ Structs ============\n\n    struct Constants {\n        Account.Info fromAccount;\n        Account.Info liquidAccount;\n        Decimal.D256 minLiquidatorRatio;\n        MarketInfo[] markets;\n    }\n\n    struct MarketInfo {\n        Monetary.Price price;\n        Interest.Index index;\n    }\n\n    struct Cache {\n        // mutable\n        uint256 toLiquidate;\n        Types.Wei heldWei;\n        Types.Wei owedWei;\n        uint256 supplyValue;\n        uint256 borrowValue;\n\n        // immutable\n        Decimal.D256 spread;\n        uint256 heldMarket;\n        uint256 owedMarket;\n        uint256 heldPrice;\n        uint256 owedPrice;\n        uint256 owedPriceAdj;\n    }\n\n    // ============ Constructor ============\n\n    constructor (\n        address soloMargin\n    )\n        public\n        OnlySolo(soloMargin)\n    {} /* solium-disable-line no-empty-blocks */\n\n    // ============ Public Functions ============\n\n    /**\n     * Liquidate liquidAccount using fromAccount. This contract and the msg.sender to this contract\n     * must both be operators for the fromAccount.\n     *\n     * @param  fromAccount         The account that will do the liquidating\n     * @param  liquidAccount       The account that will be liquidated\n     * @param  minLiquidatorRatio  The minimum collateralization ratio to leave the fromAccount at\n     * @param  owedPreferences     Ordered list of markets to repay first\n     * @param  heldPreferences     Ordered list of markets to recieve payout for first\n     */\n    function liquidate(\n        Account.Info memory fromAccount,\n        Account.Info memory liquidAccount,\n        Decimal.D256 memory minLiquidatorRatio,\n        uint256 minValueLiquidated,\n        uint256[] memory owedPreferences,\n        uint256[] memory heldPreferences\n    )\n        public\n        nonReentrant\n    {\n        // put all values that will not change into a single struct\n        Constants memory constants = Constants({\n            fromAccount: fromAccount,\n            liquidAccount: liquidAccount,\n            minLiquidatorRatio: minLiquidatorRatio,\n            markets: getMarketsInfo()\n        });\n\n        // validate the msg.sender and that the liquidAccount can be liquidated\n        checkRequirements(constants);\n\n        // keep a running tally of how much value will be attempted to be liquidated\n        uint256 totalValueLiquidated = 0;\n\n        // for each owedMarket\n        for (uint256 owedIndex = 0; owedIndex < owedPreferences.length; owedIndex++) {\n            uint256 owedMarket = owedPreferences[owedIndex];\n\n            // for each heldMarket\n            for (uint256 heldIndex = 0; heldIndex < heldPreferences.length; heldIndex++) {\n                uint256 heldMarket = heldPreferences[heldIndex];\n\n                // cannot use the same market\n                if (heldMarket == owedMarket) {\n                    continue;\n                }\n\n                // cannot liquidate non-negative markets\n                if (!SOLO_MARGIN.getAccountPar(liquidAccount, owedMarket).isNegative()) {\n                    break;\n                }\n\n                // cannot use non-positive markets as collateral\n                if (!SOLO_MARGIN.getAccountPar(liquidAccount, heldMarket).isPositive()) {\n                    continue;\n                }\n\n                // get all relevant values\n                Cache memory cache = initializeCache(\n                    constants,\n                    heldMarket,\n                    owedMarket\n                );\n\n                // get the liquidation amount (before liquidator decreases in collateralization)\n                calculateSafeLiquidationAmount(cache);\n\n                // get the max liquidation amount (before liquidator reaches minLiquidatorRatio)\n                calculateMaxLiquidationAmount(constants, cache);\n\n                // if nothing to liquidate, do nothing\n                if (cache.toLiquidate == 0) {\n                    continue;\n                }\n\n                // execute the liquidations\n                SOLO_MARGIN.operate(\n                    constructAccountsArray(constants),\n                    constructActionsArray(cache)\n                );\n\n                // increment the total value liquidated\n                totalValueLiquidated =\n                    totalValueLiquidated.add(cache.toLiquidate.mul(cache.owedPrice));\n            }\n        }\n\n        // revert if liquidator account does not have a lot of overhead to liquidate these pairs\n        Require.that(\n            totalValueLiquidated >= minValueLiquidated,\n            FILE,\n            \"Not enough liquidatable value\",\n            totalValueLiquidated,\n            minValueLiquidated\n        );\n    }\n\n    // ============ Calculation Functions ============\n\n    /**\n     * Calculate the owedAmount that can be liquidated until the liquidator account will be left\n     * with BOTH a non-negative balance of heldMarket AND a non-positive balance of owedMarket.\n     * This is the amount that can be liquidated until the collateralization of the liquidator\n     * account will begin to decrease.\n     */\n    function calculateSafeLiquidationAmount(\n        Cache memory cache\n    )\n        private\n        pure\n    {\n        bool negOwed = !cache.owedWei.isPositive();\n        bool posHeld = !cache.heldWei.isNegative();\n\n        // owedWei is already negative and heldWei is already positive\n        if (negOwed && posHeld) {\n            return;\n        }\n\n        // true if it takes longer for the liquidator owed balance to become negative than it takes\n        // the liquidator held balance to become positive.\n        bool owedGoesToZeroLast;\n        if (negOwed) {\n            owedGoesToZeroLast = false;\n        } else if (posHeld) {\n            owedGoesToZeroLast = true;\n        } else {\n            // owed is still positive and held is still negative\n            owedGoesToZeroLast =\n                cache.owedWei.value.mul(cache.owedPriceAdj) >\n                cache.heldWei.value.mul(cache.heldPrice);\n        }\n\n        if (owedGoesToZeroLast) {\n            // calculate the change in heldWei to get owedWei to zero\n            Types.Wei memory heldWeiDelta = Types.Wei({\n                sign: cache.owedWei.sign,\n                value: cache.owedWei.value.getPartial(cache.owedPriceAdj, cache.heldPrice)\n            });\n            setCacheWeiValues(\n                cache,\n                cache.heldWei.add(heldWeiDelta),\n                Types.zeroWei()\n            );\n        } else {\n            // calculate the change in owedWei to get heldWei to zero\n            Types.Wei memory owedWeiDelta = Types.Wei({\n                sign: cache.heldWei.sign,\n                value: cache.heldWei.value.getPartial(cache.heldPrice, cache.owedPriceAdj)\n            });\n            setCacheWeiValues(\n                cache,\n                Types.zeroWei(),\n                cache.owedWei.add(owedWeiDelta)\n            );\n        }\n    }\n\n    /**\n     * Calculate the additional owedAmount that can be liquidated until the collateralization of the\n     * liquidator account reaches the minLiquidatorRatio. By this point, the cache will be set such\n     * that the amount of owedMarket is non-positive and the amount of heldMarket is non-negative.\n     */\n    function calculateMaxLiquidationAmount(\n        Constants memory constants,\n        Cache memory cache\n    )\n        private\n        pure\n    {\n        assert(!cache.heldWei.isNegative());\n        assert(!cache.owedWei.isPositive());\n\n        // if the liquidator account is already not above the collateralization requirement, return\n        bool liquidatorAboveCollateralization = isCollateralized(\n            cache.supplyValue,\n            cache.borrowValue,\n            constants.minLiquidatorRatio\n        );\n        if (!liquidatorAboveCollateralization) {\n            cache.toLiquidate = 0;\n            return;\n        }\n\n        // find the value difference between the current margin and the margin at minLiquidatorRatio\n        uint256 requiredOverhead = Decimal.mul(cache.borrowValue, constants.minLiquidatorRatio);\n        uint256 requiredSupplyValue = cache.borrowValue.add(requiredOverhead);\n        uint256 remainingValueBuffer = cache.supplyValue.sub(requiredSupplyValue);\n\n        // get the absolute difference between the minLiquidatorRatio and the liquidation spread\n        Decimal.D256 memory spreadMarginDiff = Decimal.D256({\n            value: constants.minLiquidatorRatio.value.sub(cache.spread.value)\n        });\n\n        // get the additional value of owedToken I can borrow to liquidate this position\n        uint256 owedValueToTakeOn = Decimal.div(remainingValueBuffer, spreadMarginDiff);\n\n        // get the additional amount of owedWei to liquidate\n        uint256 owedWeiToLiquidate = owedValueToTakeOn.div(cache.owedPrice);\n\n        // store the additional amount in the cache\n        cache.toLiquidate = cache.toLiquidate.add(owedWeiToLiquidate);\n    }\n\n    // ============ Helper Functions ============\n\n    /**\n     * Make some basic checks before attempting to liquidate an account.\n     *  - Require that the msg.sender is permissioned to use the liquidator account\n     *  - Require that the liquid account is liquidatable\n     */\n    function checkRequirements(\n        Constants memory constants\n    )\n        private\n        view\n    {\n        // check credentials for msg.sender\n        Require.that(\n            constants.fromAccount.owner == msg.sender\n            || SOLO_MARGIN.getIsLocalOperator(constants.fromAccount.owner, msg.sender),\n            FILE,\n            \"Sender not operator\",\n            constants.fromAccount.owner\n        );\n\n        // require that the liquidAccount is liquidatable\n        (\n            Monetary.Value memory liquidSupplyValue,\n            Monetary.Value memory liquidBorrowValue\n        ) = getCurrentAccountValues(constants, constants.liquidAccount);\n        Require.that(\n            liquidSupplyValue.value != 0,\n            FILE,\n            \"Liquid account no supply\"\n        );\n        Require.that(\n            SOLO_MARGIN.getAccountStatus(constants.liquidAccount) == Account.Status.Liquid\n            || !isCollateralized(\n                liquidSupplyValue.value,\n                liquidBorrowValue.value,\n                SOLO_MARGIN.getMarginRatio()\n            ),\n            FILE,\n            \"Liquid account not liquidatable\",\n            liquidSupplyValue.value,\n            liquidBorrowValue.value\n        );\n    }\n\n    /**\n     * Changes the cache values to reflect changing the heldWei and owedWei of the liquidator\n     * account. Changes toLiquidate, heldWei, owedWei, supplyValue, and borrowValue.\n     */\n    function setCacheWeiValues(\n        Cache memory cache,\n        Types.Wei memory newHeldWei,\n        Types.Wei memory newOwedWei\n    )\n        private\n        pure\n    {\n        // roll-back the old held value\n        uint256 oldHeldValue = cache.heldWei.value.mul(cache.heldPrice);\n        if (cache.heldWei.sign) {\n            cache.supplyValue = cache.supplyValue.sub(oldHeldValue);\n        } else {\n            cache.borrowValue = cache.borrowValue.sub(oldHeldValue);\n        }\n\n        // add the new held value\n        uint256 newHeldValue = newHeldWei.value.mul(cache.heldPrice);\n        if (newHeldWei.sign) {\n            cache.supplyValue = cache.supplyValue.add(newHeldValue);\n        } else {\n            cache.borrowValue = cache.borrowValue.add(newHeldValue);\n        }\n\n        // roll-back the old owed value\n        uint256 oldOwedValue = cache.owedWei.value.mul(cache.owedPrice);\n        if (cache.owedWei.sign) {\n            cache.supplyValue = cache.supplyValue.sub(oldOwedValue);\n        } else {\n            cache.borrowValue = cache.borrowValue.sub(oldOwedValue);\n        }\n\n        // add the new owed value\n        uint256 newOwedValue = newOwedWei.value.mul(cache.owedPrice);\n        if (newOwedWei.sign) {\n            cache.supplyValue = cache.supplyValue.add(newOwedValue);\n        } else {\n            cache.borrowValue = cache.borrowValue.add(newOwedValue);\n        }\n\n        // update toLiquidate, heldWei, and owedWei\n        Types.Wei memory delta = cache.owedWei.sub(newOwedWei);\n        assert(!delta.isNegative());\n        cache.toLiquidate = cache.toLiquidate.add(delta.value);\n        cache.heldWei = newHeldWei;\n        cache.owedWei = newOwedWei;\n    }\n\n    /**\n     * Returns true if the supplyValue over-collateralizes the borrowValue by the ratio.\n     */\n    function isCollateralized(\n        uint256 supplyValue,\n        uint256 borrowValue,\n        Decimal.D256 memory ratio\n    )\n        private\n        pure\n        returns(bool)\n    {\n        uint256 requiredMargin = Decimal.mul(borrowValue, ratio);\n        return supplyValue >= borrowValue.add(requiredMargin);\n    }\n\n    // ============ Getter Functions ============\n\n    /**\n     * Gets the current total supplyValue and borrowValue for some account. Takes into account what\n     * the current index will be once updated.\n     */\n    function getCurrentAccountValues(\n        Constants memory constants,\n        Account.Info memory account\n    )\n        private\n        view\n        returns (\n            Monetary.Value memory,\n            Monetary.Value memory\n        )\n    {\n        Monetary.Value memory supplyValue;\n        Monetary.Value memory borrowValue;\n\n        for (uint256 m = 0; m < constants.markets.length; m++) {\n            Types.Par memory par = SOLO_MARGIN.getAccountPar(account, m);\n            if (par.isZero()) {\n                continue;\n            }\n            Types.Wei memory userWei = Interest.parToWei(par, constants.markets[m].index);\n            uint256 assetValue = userWei.value.mul(constants.markets[m].price.value);\n            if (userWei.sign) {\n                supplyValue.value = supplyValue.value.add(assetValue);\n            } else {\n                borrowValue.value = borrowValue.value.add(assetValue);\n            }\n        }\n\n        return (supplyValue, borrowValue);\n    }\n\n    /**\n     * Get the updated index and price for every market.\n     */\n    function getMarketsInfo()\n        private\n        view\n        returns (MarketInfo[] memory)\n    {\n        uint256 numMarkets = SOLO_MARGIN.getNumMarkets();\n        MarketInfo[] memory markets = new MarketInfo[](numMarkets);\n        for (uint256 m = 0; m < numMarkets; m++) {\n            markets[m] = MarketInfo({\n                price: SOLO_MARGIN.getMarketPrice(m),\n                index: SOLO_MARGIN.getMarketCurrentIndex(m)\n            });\n        }\n        return markets;\n    }\n\n    /**\n     * Pre-populates cache values for some pair of markets.\n     */\n    function initializeCache(\n        Constants memory constants,\n        uint256 heldMarket,\n        uint256 owedMarket\n    )\n        private\n        view\n        returns (Cache memory)\n    {\n        (\n            Monetary.Value memory supplyValue,\n            Monetary.Value memory borrowValue\n        ) = getCurrentAccountValues(constants, constants.fromAccount);\n\n        uint256 heldPrice = constants.markets[heldMarket].price.value;\n        uint256 owedPrice = constants.markets[owedMarket].price.value;\n        Decimal.D256 memory spread =\n            SOLO_MARGIN.getLiquidationSpreadForPair(heldMarket, owedMarket);\n\n        return Cache({\n            heldWei: Interest.parToWei(\n                SOLO_MARGIN.getAccountPar(constants.fromAccount, heldMarket),\n                constants.markets[heldMarket].index\n            ),\n            owedWei: Interest.parToWei(\n                SOLO_MARGIN.getAccountPar(constants.fromAccount, owedMarket),\n                constants.markets[owedMarket].index\n            ),\n            toLiquidate: 0,\n            supplyValue: supplyValue.value,\n            borrowValue: borrowValue.value,\n            heldMarket: heldMarket,\n            owedMarket: owedMarket,\n            spread: spread,\n            heldPrice: heldPrice,\n            owedPrice: owedPrice,\n            owedPriceAdj: Decimal.mul(owedPrice, Decimal.onePlus(spread))\n        });\n    }\n\n    // ============ Operation-Construction Functions ============\n\n    function constructAccountsArray(\n        Constants memory constants\n    )\n        private\n        pure\n        returns (Account.Info[] memory)\n    {\n        Account.Info[] memory accounts = new Account.Info[](2);\n        accounts[0] = constants.fromAccount;\n        accounts[1] = constants.liquidAccount;\n        return accounts;\n    }\n\n    function constructActionsArray(\n        Cache memory cache\n    )\n        private\n        pure\n        returns (Actions.ActionArgs[] memory)\n    {\n        Actions.ActionArgs[] memory actions = new Actions.ActionArgs[](1);\n        actions[0] = Actions.ActionArgs({\n            actionType: Actions.ActionType.Liquidate,\n            accountId: 0,\n            amount: Types.AssetAmount({\n                sign: true,\n                denomination: Types.AssetDenomination.Wei,\n                ref: Types.AssetReference.Delta,\n                value: cache.toLiquidate\n            }),\n            primaryMarketId: cache.owedMarket,\n            secondaryMarketId: cache.heldMarket,\n            otherAddress: address(0),\n            otherAccountId: 1,\n            data: new bytes(0)\n        });\n        return actions;\n    }\n}\n",
    "sourcePath": "/home/dydx/app/contracts/external/proxies/LiquidatorProxyV1ForSoloMargin.sol",
    "compiler": {
        "name": "solc",
        "version": "0.5.7+commit.6da8b019.Emscripten.clang"
    },
    "schemaVersion": "3.0.23",
    "updatedAt": "2022-11-11T03:47:01.724Z",
    "networkType": "ethereum",
    "devdoc": {
        "author": "dYdX * Contract for liquidating other accounts in Solo. Does not take marginPremium into account.",
        "methods": {
            "liquidate((address,uint256),(address,uint256),(uint256),uint256,uint256[],uint256[])": {
                "params": {
                    "fromAccount": "The account that will do the liquidating",
                    "heldPreferences": "Ordered list of markets to recieve payout for first",
                    "liquidAccount": "The account that will be liquidated",
                    "minLiquidatorRatio": "The minimum collateralization ratio to leave the fromAccount at",
                    "owedPreferences": "Ordered list of markets to repay first"
                }
            }
        },
        "title": "LiquidatorProxyV1ForSoloMargin"
    },
    "userdoc": {
        "methods": {
            "liquidate((address,uint256),(address,uint256),(uint256),uint256,uint256[],uint256[])": {
                "notice": "Liquidate liquidAccount using fromAccount. This contract and the msg.sender to this contract must both be operators for the fromAccount."
            }
        }
    }
}