{
    "contractName": "OmiseToken",
    "abi": [
        {
            "anonymous": false,
            "inputs": [
                {
                    "indexed": false,
                    "name": "token",
                    "type": "address"
                },
                {
                    "indexed": false,
                    "name": "from",
                    "type": "address"
                },
                {
                    "indexed": false,
                    "name": "to",
                    "type": "address"
                },
                {
                    "indexed": false,
                    "name": "value",
                    "type": "uint256"
                }
            ],
            "name": "Transfer",
            "type": "event"
        },
        {
            "anonymous": false,
            "inputs": [
                {
                    "indexed": false,
                    "name": "token",
                    "type": "address"
                },
                {
                    "indexed": false,
                    "name": "owner",
                    "type": "address"
                },
                {
                    "indexed": false,
                    "name": "spender",
                    "type": "address"
                },
                {
                    "indexed": false,
                    "name": "value",
                    "type": "uint256"
                }
            ],
            "name": "Approval",
            "type": "event"
        },
        {
            "anonymous": false,
            "inputs": [
                {
                    "indexed": false,
                    "name": "token",
                    "type": "address"
                },
                {
                    "indexed": false,
                    "name": "owner",
                    "type": "address"
                },
                {
                    "indexed": false,
                    "name": "value",
                    "type": "uint256"
                }
            ],
            "name": "Issue",
            "type": "event"
        },
        {
            "constant": false,
            "inputs": [
                {
                    "name": "amount",
                    "type": "uint256"
                }
            ],
            "name": "issue",
            "outputs": [],
            "payable": false,
            "stateMutability": "nonpayable",
            "type": "function"
        },
        {
            "constant": false,
            "inputs": [
                {
                    "name": "who",
                    "type": "address"
                },
                {
                    "name": "amount",
                    "type": "uint256"
                }
            ],
            "name": "issueTo",
            "outputs": [],
            "payable": false,
            "stateMutability": "nonpayable",
            "type": "function"
        },
        {
            "constant": true,
            "inputs": [],
            "name": "totalSupply",
            "outputs": [
                {
                    "name": "",
                    "type": "uint256"
                }
            ],
            "payable": false,
            "stateMutability": "view",
            "type": "function"
        },
        {
            "constant": true,
            "inputs": [
                {
                    "name": "who",
                    "type": "address"
                }
            ],
            "name": "balanceOf",
            "outputs": [
                {
                    "name": "",
                    "type": "uint256"
                }
            ],
            "payable": false,
            "stateMutability": "view",
            "type": "function"
        },
        {
            "constant": true,
            "inputs": [
                {
                    "name": "owner",
                    "type": "address"
                },
                {
                    "name": "spender",
                    "type": "address"
                }
            ],
            "name": "allowance",
            "outputs": [
                {
                    "name": "",
                    "type": "uint256"
                }
            ],
            "payable": false,
            "stateMutability": "view",
            "type": "function"
        },
        {
            "constant": true,
            "inputs": [],
            "name": "symbol",
            "outputs": [
                {
                    "name": "",
                    "type": "string"
                }
            ],
            "payable": false,
            "stateMutability": "pure",
            "type": "function"
        },
        {
            "constant": true,
            "inputs": [],
            "name": "name",
            "outputs": [
                {
                    "name": "",
                    "type": "string"
                }
            ],
            "payable": false,
            "stateMutability": "pure",
            "type": "function"
        },
        {
            "constant": true,
            "inputs": [],
            "name": "decimals",
            "outputs": [
                {
                    "name": "",
                    "type": "uint8"
                }
            ],
            "payable": false,
            "stateMutability": "pure",
            "type": "function"
        },
        {
            "constant": false,
            "inputs": [
                {
                    "name": "to",
                    "type": "address"
                },
                {
                    "name": "value",
                    "type": "uint256"
                }
            ],
            "name": "transfer",
            "outputs": [],
            "payable": false,
            "stateMutability": "nonpayable",
            "type": "function"
        },
        {
            "constant": false,
            "inputs": [
                {
                    "name": "from",
                    "type": "address"
                },
                {
                    "name": "to",
                    "type": "address"
                },
                {
                    "name": "value",
                    "type": "uint256"
                }
            ],
            "name": "transferFrom",
            "outputs": [],
            "payable": false,
            "stateMutability": "nonpayable",
            "type": "function"
        },
        {
            "constant": false,
            "inputs": [
                {
                    "name": "spender",
                    "type": "address"
                },
                {
                    "name": "value",
                    "type": "uint256"
                }
            ],
            "name": "approve",
            "outputs": [],
            "payable": false,
            "stateMutability": "nonpayable",
            "type": "function"
        }
    ],
    "bytecode": "0x608060405234801561001057600080fd5b50610953806100206000396000f3fe608060405234801561001057600080fd5b50600436106100e6576000357c010000000000000000000000000000000000000000000000000000000090048063313ce5671161009e578063a9059cbb11610078578063a9059cbb14610189578063cc872b661461019c578063dd62ed3e146101af576100e6565b8063313ce5671461015957806370a082311461016e57806395d89b4114610181576100e6565b80631207f0c1116100cf5780631207f0c11461011e57806318160ddd1461013157806323b872dd14610146576100e6565b806306fdde03146100eb578063095ea7b314610109575b600080fd5b6100f36101c2565b604051610100919061084f565b60405180910390f35b61011c61011736600461071e565b6101f9565b005b61011c61012c36600461071e565b61026d565b610139610315565b6040516101009190610860565b61011c6101543660046106d1565b61031b565b6101616104c2565b604051610100919061086e565b61013961017c366004610671565b6104c7565b6100f36104ef565b61011c61019736600461071e565b610526565b61011c6101aa36600461074e565b6105e4565b6101396101bd366004610697565b6105f1565b60408051808201909152600a81527f54657374204f6d69736500000000000000000000000000000000000000000000602082015290565b33600081815260026020908152604080832073ffffffffffffffffffffffffffffffffffffffff8716845290915290819020839055517fa0175360a15bca328baf7ea85c7b784d58b222a50d0ce760b10dba336d226a619161026191309190869086906107ce565b60405180910390a15050565b600054610280908263ffffffff61062b16565b600090815573ffffffffffffffffffffffffffffffffffffffff83168152600160205260409020546102b8908263ffffffff61062b16565b73ffffffffffffffffffffffffffffffffffffffff83166000908152600160205260409081902091909155517f4b2682685b046a3dae8e75ff49b82fa703e366056a43c6a791411011134f4f5d9061026190309085908590610827565b60005490565b73ffffffffffffffffffffffffffffffffffffffff83166000908152600160205260409020548111801590610380575073ffffffffffffffffffffffffffffffffffffffff831660009081526002602090815260408083203384529091529020548111155b61038957600080fd5b73ffffffffffffffffffffffffffffffffffffffff82166000908152600160205260409020546103bf908263ffffffff61062b16565b73ffffffffffffffffffffffffffffffffffffffff8084166000908152600160205260408082209390935590851681522054610401908263ffffffff61064416565b73ffffffffffffffffffffffffffffffffffffffff8416600090815260016020908152604080832093909355600281528282203383529052205461044b908263ffffffff61064416565b73ffffffffffffffffffffffffffffffffffffffff841660009081526002602090815260408083203384529091529081902091909155517fd1398bee19313d6bf672ccb116e51f4a1a947e91c757907f51fbb5b5e56c698f906104b590309086908690869061080c565b60405180910390a1505050565b601290565b73ffffffffffffffffffffffffffffffffffffffff1660009081526001602052604090205490565b60408051808201909152600481527f544f4d4700000000000000000000000000000000000000000000000000000000602082015290565b3360009081526001602052604090205481111561054257600080fd5b336000908152600160205260408082208054849003905573ffffffffffffffffffffffffffffffffffffffff84168252902054610585908263ffffffff61062b16565b73ffffffffffffffffffffffffffffffffffffffff83166000908152600160205260409081902091909155517fd1398bee19313d6bf672ccb116e51f4a1a947e91c757907f51fbb5b5e56c698f906102619030903390869086906107ce565b6105ee338261026d565b50565b73ffffffffffffffffffffffffffffffffffffffff8083166000908152600260209081526040808320938516835292905220545b92915050565b60008282018381101561063d57600080fd5b9392505050565b60008282111561065357600080fd5b50900390565b600061063d8235610889565b600061063d82356108a7565b60006020828403121561068357600080fd5b600061068f8484610659565b949350505050565b600080604083850312156106aa57600080fd5b60006106b68585610659565b92505060206106c785828601610659565b9150509250929050565b6000806000606084860312156106e657600080fd5b60006106f28686610659565b935050602061070386828701610659565b925050604061071486828701610665565b9150509250925092565b6000806040838503121561073157600080fd5b600061073d8585610659565b92505060206106c785828601610665565b60006020828403121561076057600080fd5b600061068f8484610665565b610775816108b0565b82525050565b61077581610889565b600061078f8261087c565b6107998185610880565b93506107a98185602086016108c1565b6107b2816108f1565b9093019392505050565b610775816108a7565b610775816108aa565b608081016107dc828761077b565b6107e9602083018661076c565b6107f6604083018561077b565b61080360608301846107bc565b95945050505050565b6080810161081a828761077b565b6107e9602083018661077b565b60608101610835828661077b565b610842602083018561077b565b61068f60408301846107bc565b6020808252810161063d8184610784565b6020810161062582846107bc565b6020810161062582846107c5565b5190565b90815260200190565b600073ffffffffffffffffffffffffffffffffffffffff8216610625565b90565b60ff1690565b600061062582600061062582610889565b60005b838110156108dc5781810151838201526020016108c4565b838111156108eb576000848401525b50505050565b601f017fffffffffffffffffffffffffffffffffffffffffffffffffffffffffffffffe0169056fea265627a7a72305820f879b5dfca33d4a108fdafcd11c313c96bf47f61cf3bcb1a1d31ada91eb401906c6578706572696d656e74616cf50037",
    "source": "/*\n\n    Copyright 2019 dYdX Trading Inc.\n\n    Licensed under the Apache License, Version 2.0 (the \"License\");\n    you may not use this file except in compliance with the License.\n    You may obtain a copy of the License at\n\n    http://www.apache.org/licenses/LICENSE-2.0\n\n    Unless required by applicable law or agreed to in writing, software\n    distributed under the License is distributed on an \"AS IS\" BASIS,\n    WITHOUT WARRANTIES OR CONDITIONS OF ANY KIND, either express or implied.\n    See the License for the specific language governing permissions and\n    limitations under the License.\n\n*/\n\npragma solidity 0.5.7;\npragma experimental ABIEncoderV2;\n\nimport { SafeMath } from \"openzeppelin-solidity/contracts/math/SafeMath.sol\";\n\n\ncontract OmiseToken {\n    using SafeMath for uint256;\n\n    uint256 supply;\n    mapping (address => uint256) balances;\n    mapping (address => mapping (address => uint256)) allowed;\n\n    event Transfer(address token, address from, address to, uint256 value);\n    event Approval(address token, address owner, address spender, uint256 value);\n    event Issue(address token, address owner, uint256 value);\n\n    // Allow anyone to get new token\n    function issue(uint256 amount) public {\n        issueTo(msg.sender, amount);\n    }\n\n    function issueTo(address who, uint256 amount) public {\n        supply = supply.add(amount);\n        balances[who] = balances[who].add(amount);\n        emit Issue(address(this), who, amount);\n    }\n\n    function totalSupply() public view returns (uint256) {\n        return supply;\n    }\n\n    function balanceOf(address who) public view returns (uint256) {\n        return balances[who];\n    }\n\n    function allowance(address owner, address spender) public view returns (uint256) {\n        return allowed[owner][spender];\n    }\n\n    function symbol() public pure returns (string memory) {\n        return \"TOMG\";\n    }\n\n    function name() public pure returns (string memory) {\n        return \"Test Omise\";\n    }\n\n    function decimals() public pure returns (uint8) {\n        return 18;\n    }\n\n    function transfer(address to, uint256 value) public {\n        require(balances[msg.sender] >= value);\n\n        balances[msg.sender] -= value;\n        balances[to] = balances[to].add(value);\n        emit Transfer(\n            address(this),\n            msg.sender,\n            to,\n            value\n        );\n    }\n\n    function transferFrom(address from, address to, uint256 value) public {\n        require(balances[from] >= value && allowed[from][msg.sender] >= value);\n\n        balances[to] = balances[to].add(value);\n        balances[from] = balances[from].sub(value);\n        allowed[from][msg.sender] = allowed[from][msg.sender].sub(value);\n        emit Transfer(\n            address(this),\n            from,\n            to,\n            value\n        );\n    }\n\n    function approve(address spender, uint256 value) public {\n        allowed[msg.sender][spender] = value;\n        emit Approval(\n            address(this),\n            msg.sender,\n            spender,\n            value\n        );\n    }\n}\n",
    "sourcePath": "/home/dydx/app/contracts/testing/OmiseToken.sol",
    "compiler": {
        "name": "solc",
        "version": "0.5.7+commit.6da8b019.Emscripten.clang"
    },
    "schemaVersion": "3.0.23",
    "updatedAt": "2022-11-11T03:47:01.574Z",
    "networkType": "ethereum",
    "devdoc": {
        "methods": {}
    },
    "userdoc": {
        "methods": {}
    }
}