{
    "contractName": "PartiallyDelayedMultiSig",
    "abi": [
        {
            "constant": true,
            "inputs": [
                {
                    "name": "",
                    "type": "uint256"
                }
            ],
            "name": "owners",
            "outputs": [
                {
                    "name": "",
                    "type": "address"
                }
            ],
            "payable": false,
            "stateMutability": "view",
            "type": "function"
        },
        {
            "constant": false,
            "inputs": [
                {
                    "name": "owner",
                    "type": "address"
                }
            ],
            "name": "removeOwner",
            "outputs": [],
            "payable": false,
            "stateMutability": "nonpayable",
            "type": "function"
        },
        {
            "constant": false,
            "inputs": [
                {
                    "name": "transactionId",
                    "type": "uint256"
                }
            ],
            "name": "revokeConfirmation",
            "outputs": [],
            "payable": false,
            "stateMutability": "nonpayable",
            "type": "function"
        },
        {
            "constant": true,
            "inputs": [
                {
                    "name": "",
                    "type": "address"
                }
            ],
            "name": "isOwner",
            "outputs": [
                {
                    "name": "",
                    "type": "bool"
                }
            ],
            "payable": false,
            "stateMutability": "view",
            "type": "function"
        },
        {
            "constant": true,
            "inputs": [
                {
                    "name": "",
                    "type": "uint256"
                },
                {
                    "name": "",
                    "type": "address"
                }
            ],
            "name": "confirmations",
            "outputs": [
                {
                    "name": "",
                    "type": "bool"
                }
            ],
            "payable": false,
            "stateMutability": "view",
            "type": "function"
        },
        {
            "constant": true,
            "inputs": [],
            "name": "secondsTimeLocked",
            "outputs": [
                {
                    "name": "",
                    "type": "uint32"
                }
            ],
            "payable": false,
            "stateMutability": "view",
            "type": "function"
        },
        {
            "constant": true,
            "inputs": [
                {
                    "name": "",
                    "type": "address"
                },
                {
                    "name": "",
                    "type": "bytes4"
                }
            ],
            "name": "instantData",
            "outputs": [
                {
                    "name": "",
                    "type": "bool"
                }
            ],
            "payable": false,
            "stateMutability": "view",
            "type": "function"
        },
        {
            "constant": true,
            "inputs": [
                {
                    "name": "pending",
                    "type": "bool"
                },
                {
                    "name": "executed",
                    "type": "bool"
                }
            ],
            "name": "getTransactionCount",
            "outputs": [
                {
                    "name": "",
                    "type": "uint256"
                }
            ],
            "payable": false,
            "stateMutability": "view",
            "type": "function"
        },
        {
            "constant": false,
            "inputs": [
                {
                    "name": "owner",
                    "type": "address"
                }
            ],
            "name": "addOwner",
            "outputs": [],
            "payable": false,
            "stateMutability": "nonpayable",
            "type": "function"
        },
        {
            "constant": true,
            "inputs": [
                {
                    "name": "transactionId",
                    "type": "uint256"
                }
            ],
            "name": "isConfirmed",
            "outputs": [
                {
                    "name": "",
                    "type": "bool"
                }
            ],
            "payable": false,
            "stateMutability": "view",
            "type": "function"
        },
        {
            "constant": false,
            "inputs": [
                {
                    "name": "transactionIds",
                    "type": "uint256[]"
                }
            ],
            "name": "executeMultipleTransactions",
            "outputs": [],
            "payable": false,
            "stateMutability": "nonpayable",
            "type": "function"
        },
        {
            "constant": true,
            "inputs": [
                {
                    "name": "transactionId",
                    "type": "uint256"
                }
            ],
            "name": "getConfirmationCount",
            "outputs": [
                {
                    "name": "",
                    "type": "uint256"
                }
            ],
            "payable": false,
            "stateMutability": "view",
            "type": "function"
        },
        {
            "constant": true,
            "inputs": [
                {
                    "name": "",
                    "type": "uint256"
                }
            ],
            "name": "transactions",
            "outputs": [
                {
                    "name": "destination",
                    "type": "address"
                },
                {
                    "name": "value",
                    "type": "uint256"
                },
                {
                    "name": "data",
                    "type": "bytes"
                },
                {
                    "name": "executed",
                    "type": "bool"
                }
            ],
            "payable": false,
            "stateMutability": "view",
            "type": "function"
        },
        {
            "constant": false,
            "inputs": [
                {
                    "name": "_secondsTimeLocked",
                    "type": "uint32"
                }
            ],
            "name": "changeTimeLock",
            "outputs": [],
            "payable": false,
            "stateMutability": "nonpayable",
            "type": "function"
        },
        {
            "constant": true,
            "inputs": [],
            "name": "getOwners",
            "outputs": [
                {
                    "name": "",
                    "type": "address[]"
                }
            ],
            "payable": false,
            "stateMutability": "view",
            "type": "function"
        },
        {
            "constant": true,
            "inputs": [
                {
                    "name": "from",
                    "type": "uint256"
                },
                {
                    "name": "to",
                    "type": "uint256"
                },
                {
                    "name": "pending",
                    "type": "bool"
                },
                {
                    "name": "executed",
                    "type": "bool"
                }
            ],
            "name": "getTransactionIds",
            "outputs": [
                {
                    "name": "",
                    "type": "uint256[]"
                }
            ],
            "payable": false,
            "stateMutability": "view",
            "type": "function"
        },
        {
            "constant": true,
            "inputs": [
                {
                    "name": "transactionId",
                    "type": "uint256"
                }
            ],
            "name": "getConfirmations",
            "outputs": [
                {
                    "name": "",
                    "type": "address[]"
                }
            ],
            "payable": false,
            "stateMutability": "view",
            "type": "function"
        },
        {
            "constant": true,
            "inputs": [],
            "name": "transactionCount",
            "outputs": [
                {
                    "name": "",
                    "type": "uint256"
                }
            ],
            "payable": false,
            "stateMutability": "view",
            "type": "function"
        },
        {
            "constant": false,
            "inputs": [
                {
                    "name": "_required",
                    "type": "uint256"
                }
            ],
            "name": "changeRequirement",
            "outputs": [],
            "payable": false,
            "stateMutability": "nonpayable",
            "type": "function"
        },
        {
            "constant": false,
            "inputs": [
                {
                    "name": "transactionId",
                    "type": "uint256"
                }
            ],
            "name": "confirmTransaction",
            "outputs": [],
            "payable": false,
            "stateMutability": "nonpayable",
            "type": "function"
        },
        {
            "constant": false,
            "inputs": [
                {
                    "name": "destination",
                    "type": "address"
                },
                {
                    "name": "value",
                    "type": "uint256"
                },
                {
                    "name": "data",
                    "type": "bytes"
                }
            ],
            "name": "submitTransaction",
            "outputs": [
                {
                    "name": "",
                    "type": "uint256"
                }
            ],
            "payable": false,
            "stateMutability": "nonpayable",
            "type": "function"
        },
        {
            "constant": true,
            "inputs": [
                {
                    "name": "",
                    "type": "uint256"
                }
            ],
            "name": "confirmationTimes",
            "outputs": [
                {
                    "name": "",
                    "type": "uint256"
                }
            ],
            "payable": false,
            "stateMutability": "view",
            "type": "function"
        },
        {
            "constant": true,
            "inputs": [],
            "name": "MAX_OWNER_COUNT",
            "outputs": [
                {
                    "name": "",
                    "type": "uint256"
                }
            ],
            "payable": false,
            "stateMutability": "view",
            "type": "function"
        },
        {
            "constant": true,
            "inputs": [],
            "name": "required",
            "outputs": [
                {
                    "name": "",
                    "type": "uint256"
                }
            ],
            "payable": false,
            "stateMutability": "view",
            "type": "function"
        },
        {
            "constant": false,
            "inputs": [
                {
                    "name": "owner",
                    "type": "address"
                },
                {
                    "name": "newOwner",
                    "type": "address"
                }
            ],
            "name": "replaceOwner",
            "outputs": [],
            "payable": false,
            "stateMutability": "nonpayable",
            "type": "function"
        },
        {
            "constant": false,
            "inputs": [
                {
                    "name": "transactionId",
                    "type": "uint256"
                }
            ],
            "name": "executeTransaction",
            "outputs": [],
            "payable": false,
            "stateMutability": "nonpayable",
            "type": "function"
        },
        {
            "inputs": [
                {
                    "name": "_owners",
                    "type": "address[]"
                },
                {
                    "name": "_required",
                    "type": "uint256"
                },
                {
                    "name": "_secondsTimeLocked",
                    "type": "uint32"
                },
                {
                    "name": "_noDelayDestinations",
                    "type": "address[]"
                },
                {
                    "name": "_noDelaySelectors",
                    "type": "bytes4[]"
                }
            ],
            "payable": false,
            "stateMutability": "nonpayable",
            "type": "constructor"
        },
        {
            "anonymous": false,
            "inputs": [
                {
                    "indexed": false,
                    "name": "destination",
                    "type": "address"
                },
                {
                    "indexed": false,
                    "name": "selector",
                    "type": "bytes4"
                },
                {
                    "indexed": false,
                    "name": "approved",
                    "type": "bool"
                }
            ],
            "name": "SelectorSet",
            "type": "event"
        },
        {
            "anonymous": false,
            "inputs": [
                {
                    "indexed": true,
                    "name": "transactionId",
                    "type": "uint256"
                },
                {
                    "indexed": false,
                    "name": "confirmationTime",
                    "type": "uint256"
                }
            ],
            "name": "ConfirmationTimeSet",
            "type": "event"
        },
        {
            "anonymous": false,
            "inputs": [
                {
                    "indexed": false,
                    "name": "secondsTimeLocked",
                    "type": "uint32"
                }
            ],
            "name": "TimeLockChange",
            "type": "event"
        },
        {
            "anonymous": false,
            "inputs": [
                {
                    "indexed": true,
                    "name": "sender",
                    "type": "address"
                },
                {
                    "indexed": true,
                    "name": "transactionId",
                    "type": "uint256"
                }
            ],
            "name": "Confirmation",
            "type": "event"
        },
        {
            "anonymous": false,
            "inputs": [
                {
                    "indexed": true,
                    "name": "sender",
                    "type": "address"
                },
                {
                    "indexed": true,
                    "name": "transactionId",
                    "type": "uint256"
                }
            ],
            "name": "Revocation",
            "type": "event"
        },
        {
            "anonymous": false,
            "inputs": [
                {
                    "indexed": true,
                    "name": "transactionId",
                    "type": "uint256"
                }
            ],
            "name": "Submission",
            "type": "event"
        },
        {
            "anonymous": false,
            "inputs": [
                {
                    "indexed": true,
                    "name": "transactionId",
                    "type": "uint256"
                }
            ],
            "name": "Execution",
            "type": "event"
        },
        {
            "anonymous": false,
            "inputs": [
                {
                    "indexed": true,
                    "name": "transactionId",
                    "type": "uint256"
                }
            ],
            "name": "ExecutionFailure",
            "type": "event"
        },
        {
            "anonymous": false,
            "inputs": [
                {
                    "indexed": true,
                    "name": "owner",
                    "type": "address"
                }
            ],
            "name": "OwnerAddition",
            "type": "event"
        },
        {
            "anonymous": false,
            "inputs": [
                {
                    "indexed": true,
                    "name": "owner",
                    "type": "address"
                }
            ],
            "name": "OwnerRemoval",
            "type": "event"
        },
        {
            "anonymous": false,
            "inputs": [
                {
                    "indexed": false,
                    "name": "required",
                    "type": "uint256"
                }
            ],
            "name": "RequirementChange",
            "type": "event"
        },
        {
            "constant": false,
            "inputs": [
                {
                    "name": "destination",
                    "type": "address"
                },
                {
                    "name": "selector",
                    "type": "bytes4"
                },
                {
                    "name": "approved",
                    "type": "bool"
                }
            ],
            "name": "setSelector",
            "outputs": [],
            "payable": false,
            "stateMutability": "nonpayable",
            "type": "function"
        }
    ],
    "bytecode": "0x60806040523480156200001157600080fd5b50604051620028ca380380620028ca833981018060405262000037919081019062000481565b848484828281518160328211158015620000515750818111155b80156200005d57508015155b80156200006957508115155b6200007357600080fd5b60005b84518110156200014557600260008683815181106200009157fe5b602090810291909101810151600160a060020a031682528101919091526040016000205460ff16158015620000ed57506000600160a060020a0316858281518110620000d957fe5b6020026020010151600160a060020a031614155b620000f757600080fd5b6001600260008784815181106200010a57fe5b602090810291909101810151600160a060020a03168252810191909152604001600020805460ff191691151591909117905560010162000076565b5083516200015b906003906020870190620002ac565b505050600455506006805463ffffffff191663ffffffff9290921691909117905550508051825114620001c5576040517f08c379a0000000000000000000000000000000000000000000000000000000008152600401620001bc90620005e0565b60405180910390fd5b60005b8151811015620002a0576000838281518110620001e157fe5b602002602001015190506000838381518110620001fa57fe5b602090810291909101810151600160a060020a03841660009081526008835260408082207fffffffff0000000000000000000000000000000000000000000000000000000084168352909352829020805460ff1916600190811790915591519092507f167b34692fcade222029b0e3d79a409a03911f7f8006adc78a23f48e1fb177ff916200028d9185918591620005aa565b60405180910390a15050600101620001c8565b50505050505062000695565b82805482825590600052602060002090810192821562000304579160200282015b82811115620003045782518254600160a060020a031916600160a060020a03909116178255602090920191600190910190620002cd565b506200031292915062000316565b5090565b6200033d91905b8082111562000312578054600160a060020a03191681556001016200031d565b90565b60006200034e825162000649565b9392505050565b600082601f8301126200036757600080fd5b81516200037e62000378826200061f565b620005f8565b91508181835260208401935060208101905083856020840282011115620003a457600080fd5b60005b83811015620003d45781620003bd888262000340565b8452506020928301929190910190600101620003a7565b5050505092915050565b600082601f830112620003f057600080fd5b81516200040162000378826200061f565b915081818352602084019350602081019050838560208402820111156200042757600080fd5b60005b83811015620003d4578162000440888262000457565b84525060209283019291909101906001016200042a565b60006200034e82516200065b565b60006200034e82516200033d565b60006200034e82516200068c565b600080600080600060a086880312156200049a57600080fd5b85516001604060020a03811115620004b157600080fd5b620004bf8882890162000355565b9550506020620004d28882890162000465565b9450506040620004e58882890162000473565b93505060608601516001604060020a038111156200050257600080fd5b620005108882890162000355565b92505060808601516001604060020a038111156200052d57600080fd5b6200053b88828901620003de565b9150509295509295909350565b620005538162000649565b82525050565b620005538162000656565b62000553816200065b565b60006200057e601d8362000640565b7f414444524553535f414e445f53454c4543544f525f4d49534d41544348000000815260200192915050565b60608101620005ba828662000548565b620005c9602083018562000564565b620005d8604083018462000559565b949350505050565b60208082528101620005f2816200056f565b92915050565b6040518181016001604060020a03811182821017156200061757600080fd5b604052919050565b60006001604060020a038211156200063657600080fd5b5060209081020190565b90815260200190565b6000620005f28262000680565b151590565b7fffffffff000000000000000000000000000000000000000000000000000000001690565b600160a060020a031690565b63ffffffff1690565b61222580620006a56000396000f3fe608060405234801561001057600080fd5b50600436106101d6576000357c010000000000000000000000000000000000000000000000000000000090048063a029b36b11610116578063c6427474116100b4578063dc8452cd1161008e578063dc8452cd146103cd578063e20056e6146103d5578063ee22610b146103e8578063f83f4432146103fb576101d6565b8063c64274741461039f578063d38f2d82146103b2578063d74f8edd146103c5576101d6565b8063b5dc40c3116100f0578063b5dc40c31461035e578063b77bf60014610371578063ba51a6df14610379578063c01a8c841461038c576101d6565b8063a029b36b14610316578063a0e67e2b14610329578063a8abe69a1461033e576101d6565b80634bde5e0a11610183578063784547a71161015d578063784547a7146102ba57806380bc148f146102cd5780638b51d13f146102e05780639ace38c2146102f3576101d6565b80634bde5e0a1461027457806354741525146102875780637065cb48146102a7576101d6565b80632f54bf6e116101b45780632f54bf6e1461022c5780633411c81c1461024c57806337bd78a01461025f576101d6565b8063025e7c27146101db578063173825d91461020457806320ea8d8614610219575b600080fd5b6101ee6101e9366004611cc6565b61040e565b6040516101fb9190611f91565b60405180910390f35b610217610212366004611b31565b610442565b005b610217610227366004611cc6565b610616565b61023f61023a366004611b31565b6106cc565b6040516101fb9190612025565b61023f61025a366004611ce4565b6106e1565b610267610701565b6040516101fb9190612081565b61023f610282366004611b89565b61070d565b61029a610295366004611c96565b61072d565b6040516101fb9190612073565b6102176102b5366004611b31565b61079d565b61023f6102c8366004611cc6565b6108f0565b6102176102db366004611c61565b610984565b61029a6102ee366004611cc6565b6109d5565b610306610301366004611cc6565b610a53565b6040516101fb9493929190611fc7565b610217610324366004611d64565b610b1e565b610331610b95565b6040516101fb9190612003565b61035161034c366004611d03565b610c05565b6040516101fb9190612014565b61033161036c366004611cc6565b610d38565b61029a610ef6565b610217610387366004611cc6565b610efc565b61021761039a366004611cc6565b610f7e565b61029a6103ad366004611c06565b6110ac565b61029a6103c0366004611cc6565b6110c5565b61029a6110d7565b61029a6110dc565b6102176103e3366004611b4f565b6110e2565b6102176103f6366004611cc6565b6112e9565b610217610409366004611bb9565b61150f565b6003818154811061041b57fe5b60009182526020909120015473ffffffffffffffffffffffffffffffffffffffff16905081565b33301461044e57600080fd5b73ffffffffffffffffffffffffffffffffffffffff8116600090815260026020526040902054819060ff1661048257600080fd5b73ffffffffffffffffffffffffffffffffffffffff82166000908152600260205260408120805460ff191690555b600354600019018110156105a4578273ffffffffffffffffffffffffffffffffffffffff16600382815481106104e257fe5b60009182526020909120015473ffffffffffffffffffffffffffffffffffffffff16141561059c5760038054600019810190811061051c57fe5b6000918252602090912001546003805473ffffffffffffffffffffffffffffffffffffffff909216918390811061054f57fe5b9060005260206000200160006101000a81548173ffffffffffffffffffffffffffffffffffffffff021916908373ffffffffffffffffffffffffffffffffffffffff1602179055506105a4565b6001016104b0565b506003805460001901906105b8908261192b565b5060035460045411156105d1576003546105d190610efc565b60405173ffffffffffffffffffffffffffffffffffffffff8316907f8001553a916ef2f495d26a907cc54d96ed840d7bda71e73194bf5a9df7a76b9090600090a25050565b3360008181526002602052604090205460ff1661063257600080fd5b60008281526001602090815260408083203380855292529091205483919060ff1661065c57600080fd5b600084815260208190526040902060030154849060ff161561067d57600080fd5b6000858152600160209081526040808320338085529252808320805460ff191690555187927ff6a317157440607f36269043eb55f1287a5a19ba2216afeab88cd46cbcfb88e991a35050505050565b60026020526000908152604090205460ff1681565b600160209081526000928352604080842090915290825290205460ff1681565b60065463ffffffff1681565b600860209081526000928352604080842090915290825290205460ff1681565b600080805b6005548110156107935784801561075b575060008181526020819052604090206003015460ff16155b8061077f575083801561077f575060008181526020819052604090206003015460ff165b1561078b576001820191505b600101610732565b5090505b92915050565b3330146107a957600080fd5b73ffffffffffffffffffffffffffffffffffffffff8116600090815260026020526040902054819060ff16156107de57600080fd5b8173ffffffffffffffffffffffffffffffffffffffff81166107ff57600080fd5b6003805490506001016004546032821115801561081c5750818111155b801561082757508015155b801561083257508115155b61083b57600080fd5b73ffffffffffffffffffffffffffffffffffffffff8516600081815260026020526040808220805460ff1916600190811790915560038054918201815583527fc2575a0e9e593c00f959f8c92f12db2869c3395a3b0502d05e2516446f71f85b0180547fffffffffffffffffffffffff00000000000000000000000000000000000000001684179055517ff39e6e1eb0edcf53c221607b54b00cd28f3196fed0a24994dc308b8f611b682d9190a25050505050565b600080805b60035481101561097c576000848152600160205260408120600380549192918490811061091e57fe5b600091825260208083209091015473ffffffffffffffffffffffffffffffffffffffff16835282019290925260400190205460ff161561095f576001820191505b6004548214156109745760019250505061097f565b6001016108f5565b50505b919050565b3360008181526002602052604090205460ff166109a057600080fd5b60005b82518110156109d0576109c88382815181106109bb57fe5b60200260200101516112e9565b6001016109a3565b505050565b600080805b600354811015610a4c5760008481526001602052604081206003805491929184908110610a0357fe5b600091825260208083209091015473ffffffffffffffffffffffffffffffffffffffff16835282019290925260400190205460ff1615610a44576001820191505b6001016109da565b5092915050565b6000602081815291815260409081902080546001808301546002808501805487516101009582161595909502600019011691909104601f810188900488028401880190965285835273ffffffffffffffffffffffffffffffffffffffff90931695909491929190830182828015610b0b5780601f10610ae057610100808354040283529160200191610b0b565b820191906000526020600020905b815481529060010190602001808311610aee57829003601f168201915b5050506003909301549192505060ff1684565b333014610b2a57600080fd5b600680547fffffffffffffffffffffffffffffffffffffffffffffffffffffffff000000001663ffffffff83161790556040517f8b01775fda0a3eb53a1e7b3a734cd346761d446aeb72745e17951c0f0ec2b16490610b8a908390612081565b60405180910390a150565b60606003805480602002602001604051908101604052809291908181526020018280548015610bfa57602002820191906000526020600020905b815473ffffffffffffffffffffffffffffffffffffffff168152600190910190602001808311610bcf575b505050505090505b90565b606080600554604051908082528060200260200182016040528015610c34578160200160208202803883390190505b5090506000805b600554811015610cb557858015610c64575060008181526020819052604090206003015460ff16155b80610c885750848015610c88575060008181526020819052604090206003015460ff165b15610cad5780838381518110610c9a57fe5b6020026020010181815250506001820191505b600101610c3b565b6060888803604051908082528060200260200182016040528015610ce3578160200160208202803883390190505b5090508891505b87821015610d2a57838281518110610cfe57fe5b6020026020010151818a840381518110610d1457fe5b6020908102919091010152600190910190610cea565b93505050505b949350505050565b606080600380549050604051908082528060200260200182016040528015610d6a578160200160208202803883390190505b5090506000805b600354811015610e615760008581526001602052604081206003805491929184908110610d9a57fe5b600091825260208083209091015473ffffffffffffffffffffffffffffffffffffffff16835282019290925260400190205460ff1615610e595760038181548110610de157fe5b9060005260206000200160009054906101000a900473ffffffffffffffffffffffffffffffffffffffff16838381518110610e1857fe5b602002602001019073ffffffffffffffffffffffffffffffffffffffff16908173ffffffffffffffffffffffffffffffffffffffff16815250506001820191505b600101610d71565b606082604051908082528060200260200182016040528015610e8d578160200160208202803883390190505b509050600091505b82821015610eed57838281518110610ea957fe5b6020026020010151818381518110610ebd57fe5b73ffffffffffffffffffffffffffffffffffffffff90921660209283029190910190910152600190910190610e95565b95945050505050565b60055481565b333014610f0857600080fd5b6003548160328211801590610f1d5750818111155b8015610f2857508015155b8015610f3357508115155b610f3c57600080fd5b60048390556040517fa3f1ee9126a074d9326c682f561767f710e927faa811f7a99829d49dc421797a90610f71908590612073565b60405180910390a1505050565b3360008181526002602052604090205460ff16610f9a57600080fd5b600082815260208190526040902054829073ffffffffffffffffffffffffffffffffffffffff16610fca57600080fd5b60008381526001602090815260408083203380855292529091205484919060ff1615610ff557600080fd5b84610fff816108f0565b1561103f576040517f08c379a000000000000000000000000000000000000000000000000000000000815260040161103690612063565b60405180910390fd5b6000868152600160208181526040808420338086529252808420805460ff1916909317909255905188927f4a504a94899432a9846e1aa406dceb1bcfd538bb839071d49d1e5e23f5be30ef91a3611095866108f0565b156110a4576110a486426115ad565b505050505050565b6000806110ba8585856115fc565b9050610d3081610f7e565b60076020526000908152604090205481565b603281565b60045481565b3330146110ee57600080fd5b73ffffffffffffffffffffffffffffffffffffffff8216600090815260026020526040902054829060ff1661112257600080fd5b73ffffffffffffffffffffffffffffffffffffffff8216600090815260026020526040902054829060ff161561115757600080fd5b8273ffffffffffffffffffffffffffffffffffffffff811661117857600080fd5b60005b600354811015611234578573ffffffffffffffffffffffffffffffffffffffff16600382815481106111a957fe5b60009182526020909120015473ffffffffffffffffffffffffffffffffffffffff16141561122c5784600382815481106111df57fe5b9060005260206000200160006101000a81548173ffffffffffffffffffffffffffffffffffffffff021916908373ffffffffffffffffffffffffffffffffffffffff160217905550611234565b60010161117b565b5073ffffffffffffffffffffffffffffffffffffffff808616600081815260026020526040808220805460ff1990811690915593881682528082208054909416600117909355915190917f8001553a916ef2f495d26a907cc54d96ed840d7bda71e73194bf5a9df7a76b9091a260405173ffffffffffffffffffffffffffffffffffffffff8516907ff39e6e1eb0edcf53c221607b54b00cd28f3196fed0a24994dc308b8f611b682d90600090a25050505050565b3360008181526002602052604090205460ff1661130557600080fd5b600082815260208190526040902060030154829060ff161561132657600080fd5b82611330816108f0565b611366576040517f08c379a000000000000000000000000000000000000000000000000000000000815260040161103690612043565b600654600085815260076020526040902054859163ffffffff16014210158061139357506113938161170c565b6113c9576040517f08c379a000000000000000000000000000000000000000000000000000000000815260040161103690612053565b600085815260208181526040808320600381018054600160ff1990911681179091558154818301546002808501805487516101009682161596909602600019011691909104601f81018890048802850188019096528584529396956114a29573ffffffffffffffffffffffffffffffffffffffff909316949193919083908301828280156114985780601f1061146d57610100808354040283529160200191611498565b820191906000526020600020905b81548152906001019060200180831161147b57829003601f168201915b5050505050611850565b9050806114db576040517f08c379a000000000000000000000000000000000000000000000000000000000815260040161103690612033565b60405187907f33e13ecb54c3076d8e8bb8c2881800a4d972b792045ffae98fdf46df365fed7590600090a250505050505050565b33301461151b57600080fd5b73ffffffffffffffffffffffffffffffffffffffff831660009081526008602090815260408083207fffffffff000000000000000000000000000000000000000000000000000000008616845290915290819020805460ff1916831515179055517f167b34692fcade222029b0e3d79a409a03911f7f8006adc78a23f48e1fb177ff90610f7190859085908590611f9f565b600082815260076020526040908190208290555182907f0b237afe65f1514fd7ea3f923ea4fe792bdd07000a912b6cd1602a8e7f573c8d906115f0908490612073565b60405180910390a25050565b60008373ffffffffffffffffffffffffffffffffffffffff811661161f57600080fd5b6005546040805160808101825273ffffffffffffffffffffffffffffffffffffffff8881168252602080830189815283850189815260006060860181905287815280845295909520845181547fffffffffffffffffffffffff000000000000000000000000000000000000000016941693909317835551600183015592518051929391926116b3926002850192019061194f565b50606091909101516003909101805460ff191691151591909117905560058054600101905560405181907fc0ba8fe4b176c1714197d43b9cc6bcf797a4a7461c5fe8d0ef6e184ae7601e5190600090a295945050505050565b60006117166119cd565b600083815260208181526040918290208251608081018452815473ffffffffffffffffffffffffffffffffffffffff168152600180830154828501526002808401805487516101009482161594909402600019011691909104601f810186900486028301860187528083529295939493860193919290918301828280156117de5780601f106117b3576101008083540402835291602001916117de565b820191906000526020600020905b8154815290600101906020018083116117c157829003601f168201915b50505091835250506003919091015460ff161515602090910152805160408201518051929350909161181f57611815826000611873565b935050505061097f565b600481511015611835576000935050505061097f565b6020810151806118458482611873565b979650505050505050565b6000806040516020840160008287838a8c6187965a03f198975050505050505050565b73ffffffffffffffffffffffffffffffffffffffff821660009081526008602090815260408083207fffffffff000000000000000000000000000000000000000000000000000000008516845290915281205460ff168061192457507fffffffff00000000000000000000000000000000000000000000000000000000821660009081527f5eff886ea0ce6ca488a3d6e336d6c0f75f46d19b42c06ce5ee98e42c96d256c7602052604090205460ff165b9392505050565b8154818355818111156109d0576000838152602090206109d0918101908301611a0d565b828054600181600116156101000203166002900490600052602060002090601f016020900481019282601f1061199057805160ff19168380011785556119bd565b828001600101855582156119bd579182015b828111156119bd5782518255916020019190600101906119a2565b506119c9929150611a0d565b5090565b6040518060800160405280600073ffffffffffffffffffffffffffffffffffffffff16815260200160008152602001606081526020016000151581525090565b610c0291905b808211156119c95760008155600101611a13565b60006119248235612130565b600082601f830112611a4457600080fd5b8135611a57611a52826120b6565b61208f565b91508181835260208401935060208101905083856020840282011115611a7c57600080fd5b60005b83811015611aa85781611a928882611b19565b8452506020928301929190910190600101611a7f565b5050505092915050565b6000611924823561213b565b60006119248235612140565b600082601f830112611adb57600080fd5b8135611ae9611a52826120d7565b91508082526020830160208301858383011115611b0557600080fd5b611b10838284612187565b50505092915050565b60006119248235610c02565b6000611924823561217e565b600060208284031215611b4357600080fd5b6000610d308484611a27565b60008060408385031215611b6257600080fd5b6000611b6e8585611a27565b9250506020611b7f85828601611a27565b9150509250929050565b60008060408385031215611b9c57600080fd5b6000611ba88585611a27565b9250506020611b7f85828601611abe565b600080600060608486031215611bce57600080fd5b6000611bda8686611a27565b9350506020611beb86828701611abe565b9250506040611bfc86828701611ab2565b9150509250925092565b600080600060608486031215611c1b57600080fd5b6000611c278686611a27565b9350506020611c3886828701611b19565b925050604084013567ffffffffffffffff811115611c5557600080fd5b611bfc86828701611aca565b600060208284031215611c7357600080fd5b813567ffffffffffffffff811115611c8a57600080fd5b610d3084828501611a33565b60008060408385031215611ca957600080fd5b6000611cb58585611ab2565b9250506020611b7f85828601611ab2565b600060208284031215611cd857600080fd5b6000610d308484611b19565b60008060408385031215611cf757600080fd5b6000611b6e8585611b19565b60008060008060808587031215611d1957600080fd5b6000611d258787611b19565b9450506020611d3687828801611b19565b9350506040611d4787828801611ab2565b9250506060611d5887828801611ab2565b91505092959194509250565b600060208284031215611d7657600080fd5b6000610d308484611b25565b6000611d8e8383611da2565b505060200190565b6000611d8e8383611f7f565b611dab81612130565b82525050565b6000611dbc82612123565b611dc68185612127565b9350611dd18361211d565b60005b82811015611dfc57611de7868351611d82565b9550611df28261211d565b9150600101611dd4565b5093949350505050565b6000611e1182612123565b611e1b8185612127565b9350611e268361211d565b60005b82811015611dfc57611e3c868351611d96565b9550611e478261211d565b9150600101611e29565b611dab8161213b565b611dab81612140565b6000611e6e82612123565b611e788185612127565b9350611e88818560208601612193565b611e91816121c3565b9093019392505050565b6000611ea8600b83612127565b7f54585f5245564552544544000000000000000000000000000000000000000000815260200192915050565b6000611ee1601683612127565b7f54585f4e4f545f46554c4c595f434f4e4649524d454400000000000000000000815260200192915050565b6000611f1a601483612127565b7f54494d455f4c4f434b5f494e434f4d504c455445000000000000000000000000815260200192915050565b6000611f53601283612127565b7f54585f46554c4c595f434f4e4649524d45440000000000000000000000000000815260200192915050565b611dab81610c02565b611dab8161217e565b602081016107978284611da2565b60608101611fad8286611da2565b611fba6020830185611e5a565b610d306040830184611e51565b60808101611fd58287611da2565b611fe26020830186611f7f565b8181036040830152611ff48185611e63565b9050610eed6060830184611e51565b602080825281016119248184611db1565b602080825281016119248184611e06565b602081016107978284611e51565b6020808252810161079781611e9b565b6020808252810161079781611ed4565b6020808252810161079781611f0d565b6020808252810161079781611f46565b602081016107978284611f7f565b602081016107978284611f88565b60405181810167ffffffffffffffff811182821017156120ae57600080fd5b604052919050565b600067ffffffffffffffff8211156120cd57600080fd5b5060209081020190565b600067ffffffffffffffff8211156120ee57600080fd5b506020601f919091017fffffffffffffffffffffffffffffffffffffffffffffffffffffffffffffffe0160190565b60200190565b5190565b90815260200190565b600061079782612165565b151590565b7fffffffff000000000000000000000000000000000000000000000000000000001690565b73ffffffffffffffffffffffffffffffffffffffff1690565b63ffffffff1690565b82818337506000910152565b60005b838110156121ae578181015183820152602001612196565b838111156121bd576000848401525b50505050565b601f017fffffffffffffffffffffffffffffffffffffffffffffffffffffffffffffffe0169056fea265627a7a7230582017b6e57b1e52519f400cc163ccde4be1aed1d93934186a9c3b76a27b0a3452e66c6578706572696d656e74616cf50037",
    "source": "/*\n\n    Copyright 2019 dYdX Trading Inc.\n\n    Licensed under the Apache License, Version 2.0 (the \"License\");\n    you may not use this file except in compliance with the License.\n    You may obtain a copy of the License at\n\n    http://www.apache.org/licenses/LICENSE-2.0\n\n    Unless required by applicable law or agreed to in writing, software\n    distributed under the License is distributed on an \"AS IS\" BASIS,\n    WITHOUT WARRANTIES OR CONDITIONS OF ANY KIND, either express or implied.\n    See the License for the specific language governing permissions and\n    limitations under the License.\n\n*/\n\npragma solidity 0.5.7;\npragma experimental ABIEncoderV2;\n\nimport { DelayedMultiSig } from \"./DelayedMultiSig.sol\";\n\n\n/**\n * @title PartiallyDelayedMultiSig\n * @author dYdX\n *\n * Multi-Signature Wallet with delay in execution except for some function selectors.\n */\ncontract PartiallyDelayedMultiSig is\n    DelayedMultiSig\n{\n    // ============ Events ============\n\n    event SelectorSet(address destination, bytes4 selector, bool approved);\n\n    // ============ Constants ============\n\n    bytes4 constant internal BYTES_ZERO = bytes4(0x0);\n\n    // ============ Storage ============\n\n    // destination => function selector => can bypass timelock\n    mapping (address => mapping (bytes4 => bool)) public instantData;\n\n    // ============ Modifiers ============\n\n    // Overrides old modifier that requires a timelock for every transaction\n    modifier pastTimeLock(\n        uint256 transactionId\n    ) {\n        // if the function selector is not exempt from timelock, then require timelock\n        require(\n            block.timestamp >= confirmationTimes[transactionId] + secondsTimeLocked\n            || txCanBeExecutedInstantly(transactionId),\n            \"TIME_LOCK_INCOMPLETE\"\n        );\n        _;\n    }\n\n    // ============ Constructor ============\n\n    /**\n     * Contract constructor sets initial owners, required number of confirmations, and time lock.\n     *\n     * @param  _owners               List of initial owners.\n     * @param  _required             Number of required confirmations.\n     * @param  _secondsTimeLocked    Duration needed after a transaction is confirmed and before it\n     *                               becomes executable, in seconds.\n     * @param  _noDelayDestinations  List of destinations that correspond with the selectors.\n     *                               Zero address allows the function selector to be used with any\n     *                               address.\n     * @param  _noDelaySelectors     All function selectors that do not require a delay to execute.\n     *                               Fallback function is 0x00000000.\n     */\n    constructor (\n        address[] memory _owners,\n        uint256 _required,\n        uint32 _secondsTimeLocked,\n        address[] memory _noDelayDestinations,\n        bytes4[] memory _noDelaySelectors\n    )\n        public\n        DelayedMultiSig(_owners, _required, _secondsTimeLocked)\n    {\n        require(\n            _noDelayDestinations.length == _noDelaySelectors.length,\n            \"ADDRESS_AND_SELECTOR_MISMATCH\"\n        );\n\n        for (uint256 i = 0; i < _noDelaySelectors.length; i++) {\n            address destination = _noDelayDestinations[i];\n            bytes4 selector = _noDelaySelectors[i];\n            instantData[destination][selector] = true;\n            emit SelectorSet(destination, selector, true);\n        }\n    }\n\n    // ============ Wallet-Only Functions ============\n\n    /**\n     * Adds or removes functions that can be executed instantly. Transaction must be sent by wallet.\n     *\n     * @param  destination  Destination address of function. Zero address allows the function to be\n     *                      sent to any address.\n     * @param  selector     4-byte selector of the function. Fallback function is 0x00000000.\n     * @param  approved     True if adding approval, false if removing approval.\n     */\n    function setSelector(\n        address destination,\n        bytes4 selector,\n        bool approved\n    )\n        public\n        onlyWallet\n    {\n        instantData[destination][selector] = approved;\n        emit SelectorSet(destination, selector, approved);\n    }\n\n    // ============ Helper Functions ============\n\n    /**\n     * Returns true if transaction can be executed instantly (without timelock).\n     */\n    function txCanBeExecutedInstantly(\n        uint256 transactionId\n    )\n        internal\n        view\n        returns (bool)\n    {\n        // get transaction from storage\n        Transaction memory txn = transactions[transactionId];\n        address dest = txn.destination;\n        bytes memory data = txn.data;\n\n        // fallback function\n        if (data.length == 0) {\n            return selectorCanBeExecutedInstantly(dest, BYTES_ZERO);\n        }\n\n        // invalid function selector\n        if (data.length < 4) {\n            return false;\n        }\n\n        // check first four bytes (function selector)\n        bytes32 rawData;\n        /* solium-disable-next-line security/no-inline-assembly */\n        assembly {\n            rawData := mload(add(data, 32))\n        }\n        bytes4 selector = bytes4(rawData);\n\n        return selectorCanBeExecutedInstantly(dest, selector);\n    }\n\n    /**\n     * Function selector is in instantData for address dest (or for address zero).\n     */\n    function selectorCanBeExecutedInstantly(\n        address destination,\n        bytes4 selector\n    )\n        internal\n        view\n        returns (bool)\n    {\n        return instantData[destination][selector]\n            || instantData[ADDRESS_ZERO][selector];\n    }\n}\n",
    "sourcePath": "/home/dydx/app/contracts/external/multisig/PartiallyDelayedMultiSig.sol",
    "compiler": {
        "name": "solc",
        "version": "0.5.7+commit.6da8b019.Emscripten.clang"
    },
    "schemaVersion": "3.0.23",
    "updatedAt": "2022-11-11T03:37:19.408Z",
    "devdoc": {
        "author": "dYdX * Multi-Signature Wallet with delay in execution except for some function selectors.",
        "methods": {
            "addOwner(address)": {
                "params": {
                    "owner": "Address of new owner."
                }
            },
            "changeRequirement(uint256)": {
                "params": {
                    "_required": "Number of required confirmations."
                }
            },
            "changeTimeLock(uint32)": {
                "params": {
                    "_secondsTimeLocked": "Duration needed after a transaction is confirmed and before it                            becomes executable, in seconds."
                }
            },
            "confirmTransaction(uint256)": {
                "params": {
                    "transactionId": "Transaction ID."
                }
            },
            "constructor": {
                "params": {
                    "_noDelayDestinations": "List of destinations that correspond with the selectors.                              Zero address allows the function selector to be used with any                              address.",
                    "_noDelaySelectors": "All function selectors that do not require a delay to execute.                              Fallback function is 0x00000000.",
                    "_owners": "List of initial owners.",
                    "_required": "Number of required confirmations.",
                    "_secondsTimeLocked": "Duration needed after a transaction is confirmed and before it                              becomes executable, in seconds."
                }
            },
            "executeMultipleTransactions(uint256[])": {
                "params": {
                    "transactionIds": "List of transaction IDs."
                }
            },
            "executeTransaction(uint256)": {
                "params": {
                    "transactionId": "Transaction ID."
                }
            },
            "getConfirmationCount(uint256)": {
                "params": {
                    "transactionId": "Transaction ID."
                },
                "return": "Number of confirmations."
            },
            "getConfirmations(uint256)": {
                "params": {
                    "transactionId": "Transaction ID."
                },
                "return": "Array of owner addresses."
            },
            "getOwners()": {
                "return": "Array of owner addresses."
            },
            "getTransactionCount(bool,bool)": {
                "params": {
                    "executed": "Include executed transactions.",
                    "pending": "Include pending transactions."
                },
                "return": "Total number of transactions after filters are applied."
            },
            "getTransactionIds(uint256,uint256,bool,bool)": {
                "params": {
                    "executed": "Include executed transactions.",
                    "from": "Index start position of transaction array.",
                    "pending": "Include pending transactions.",
                    "to": "Index end position of transaction array."
                },
                "return": "Array of transaction IDs."
            },
            "isConfirmed(uint256)": {
                "params": {
                    "transactionId": "Transaction ID."
                },
                "return": "Confirmation status."
            },
            "removeOwner(address)": {
                "params": {
                    "owner": "Address of owner."
                }
            },
            "replaceOwner(address,address)": {
                "params": {
                    "newOwner": "Address of new owner.",
                    "owner": "Address of owner to be replaced."
                }
            },
            "revokeConfirmation(uint256)": {
                "params": {
                    "transactionId": "Transaction ID."
                }
            },
            "setSelector(address,bytes4,bool)": {
                "params": {
                    "approved": "True if adding approval, false if removing approval.",
                    "destination": "Destination address of function. Zero address allows the function to be                     sent to any address.",
                    "selector": "4-byte selector of the function. Fallback function is 0x00000000."
                }
            },
            "submitTransaction(address,uint256,bytes)": {
                "params": {
                    "data": "Transaction data payload.",
                    "destination": "Transaction target address.",
                    "value": "Transaction ether value."
                },
                "return": "Transaction ID."
            }
        },
        "title": "PartiallyDelayedMultiSig"
    },
    "userdoc": {
        "methods": {
            "addOwner(address)": {
                "notice": "Allows to add a new owner. Transaction has to be sent by wallet."
            },
            "changeRequirement(uint256)": {
                "notice": "Allows to change the number of required confirmations. Transaction has to be sent by wallet."
            },
            "changeTimeLock(uint32)": {
                "notice": "Changes the duration of the time lock for transactions."
            },
            "confirmTransaction(uint256)": {
                "notice": "Allows an owner to confirm a transaction. Overrides the function in MultiSig."
            },
            "constructor": "Contract constructor sets initial owners, required number of confirmations, and time lock.",
            "executeMultipleTransactions(uint256[])": {
                "notice": "Allows an owner to execute multiple confirmed transactions."
            },
            "executeTransaction(uint256)": {
                "notice": "Allows an owner to execute a confirmed transaction. Overrides the function in MultiSig."
            },
            "getConfirmationCount(uint256)": {
                "notice": "Returns number of confirmations of a transaction."
            },
            "getConfirmations(uint256)": {
                "notice": "Returns array with owner addresses, which confirmed transaction."
            },
            "getOwners()": {
                "notice": "Returns array of owners."
            },
            "getTransactionCount(bool,bool)": {
                "notice": "Returns total number of transactions after filers are applied."
            },
            "getTransactionIds(uint256,uint256,bool,bool)": {
                "notice": "Returns list of transaction IDs in defined range."
            },
            "isConfirmed(uint256)": {
                "notice": "Returns the confirmation status of a transaction."
            },
            "removeOwner(address)": {
                "notice": "Allows to remove an owner. Transaction has to be sent by wallet."
            },
            "replaceOwner(address,address)": {
                "notice": "Allows to replace an owner with a new owner. Transaction has to be sent by wallet."
            },
            "revokeConfirmation(uint256)": {
                "notice": "Allows an owner to revoke a confirmation for a transaction."
            },
            "setSelector(address,bytes4,bool)": {
                "notice": "Adds or removes functions that can be executed instantly. Transaction must be sent by wallet."
            },
            "submitTransaction(address,uint256,bytes)": {
                "notice": "Allows an owner to submit and confirm a transaction."
            }
        }
    }
}