{
    "contractName": "PayableProxyForSoloMargin",
    "abi": [
        {
            "constant": true,
            "inputs": [],
            "name": "SOLO_MARGIN",
            "outputs": [
                {
                    "name": "",
                    "type": "address"
                }
            ],
            "payable": false,
            "stateMutability": "view",
            "type": "function"
        },
        {
            "constant": true,
            "inputs": [],
            "name": "WETH",
            "outputs": [
                {
                    "name": "",
                    "type": "address"
                }
            ],
            "payable": false,
            "stateMutability": "view",
            "type": "function"
        },
        {
            "inputs": [
                {
                    "name": "soloMargin",
                    "type": "address"
                },
                {
                    "name": "weth",
                    "type": "address"
                }
            ],
            "payable": false,
            "stateMutability": "nonpayable",
            "type": "constructor"
        },
        {
            "payable": true,
            "stateMutability": "payable",
            "type": "fallback"
        },
        {
            "constant": false,
            "inputs": [
                {
                    "components": [
                        {
                            "name": "owner",
                            "type": "address"
                        },
                        {
                            "name": "number",
                            "type": "uint256"
                        }
                    ],
                    "name": "accounts",
                    "type": "tuple[]"
                },
                {
                    "components": [
                        {
                            "name": "actionType",
                            "type": "uint8"
                        },
                        {
                            "name": "accountId",
                            "type": "uint256"
                        },
                        {
                            "components": [
                                {
                                    "name": "sign",
                                    "type": "bool"
                                },
                                {
                                    "name": "denomination",
                                    "type": "uint8"
                                },
                                {
                                    "name": "ref",
                                    "type": "uint8"
                                },
                                {
                                    "name": "value",
                                    "type": "uint256"
                                }
                            ],
                            "name": "amount",
                            "type": "tuple"
                        },
                        {
                            "name": "primaryMarketId",
                            "type": "uint256"
                        },
                        {
                            "name": "secondaryMarketId",
                            "type": "uint256"
                        },
                        {
                            "name": "otherAddress",
                            "type": "address"
                        },
                        {
                            "name": "otherAccountId",
                            "type": "uint256"
                        },
                        {
                            "name": "data",
                            "type": "bytes"
                        }
                    ],
                    "name": "actions",
                    "type": "tuple[]"
                },
                {
                    "name": "sendEthTo",
                    "type": "address"
                }
            ],
            "name": "operate",
            "outputs": [],
            "payable": true,
            "stateMutability": "payable",
            "type": "function"
        }
    ],
    "bytecode": "0x60806040523480156200001157600080fd5b506040516040806200169483398101806040526200003391908101906200012c565b60008054600160a060020a03808516600160a060020a0319928316179092556001805560028054848416921691909117908190556040517f095ea7b300000000000000000000000000000000000000000000000000000000815291169063095ea7b390620000aa90859060001990600401620001b0565b602060405180830381600087803b158015620000c557600080fd5b505af1158015620000da573d6000803e3d6000fd5b505050506040513d601f19601f820116820180604052506200010091908101906200016b565b505050620001f6565b6000620001178251620001cf565b9392505050565b6000620001178251620001f1565b600080604083850312156200014057600080fd5b60006200014e858562000109565b9250506020620001618582860162000109565b9150509250929050565b6000602082840312156200017e57600080fd5b60006200018c84846200011e565b949350505050565b6200019f81620001cf565b82525050565b6200019f81620001ee565b60408101620001c0828562000194565b620001176020830184620001a5565b6000620001dc82620001e2565b92915050565b600160a060020a031690565b90565b151590565b61148e80620002066000396000f3fe608060405260043610610050577c010000000000000000000000000000000000000000000000000000000060003504631b1fe68a81146100ac578063ad5c4648146100d7578063f319142a146100ec575b60025473ffffffffffffffffffffffffffffffffffffffff1633146100aa576040517f08c379a00000000000000000000000000000000000000000000000000000000081526004016100a19061125d565b60405180910390fd5b005b3480156100b857600080fd5b506100c16100ff565b6040516100ce919061123e565b60405180910390f35b3480156100e357600080fd5b506100c161011b565b6100aa6100fa366004610dc6565b610137565b60005473ffffffffffffffffffffffffffffffffffffffff1681565b60025473ffffffffffffffffffffffffffffffffffffffff1681565b6001805481019081905560025473ffffffffffffffffffffffffffffffffffffffff1634156101de578073ffffffffffffffffffffffffffffffffffffffff1663d0e30db0346040518263ffffffff167c01000000000000000000000000000000000000000000000000000000000281526004016000604051808303818588803b1580156101c457600080fd5b505af11580156101d8573d6000803e3d6000fd5b50505050505b60005b845181101561035d576101f2610a30565b8582815181106101fe57fe5b6020026020010151905060008782602001518151811061021a57fe5b60200260200101516000015190506102a23373ffffffffffffffffffffffffffffffffffffffff168273ffffffffffffffffffffffffffffffffffffffff16147f50617961626c6550726f7879466f72536f6c6f4d617267696e000000000000007f53656e646572206d757374206265207072696d617279206163636f756e740000846105d7565b6002825160088111156102b157fe5b1415610353576000888360c00151815181106102c957fe5b60200260200101516000015190506103513373ffffffffffffffffffffffffffffffffffffffff168273ffffffffffffffffffffffffffffffffffffffff16147f50617961626c6550726f7879466f72536f6c6f4d617267696e000000000000007f53656e646572206d757374206265207365636f6e64617279206163636f756e74846105d7565b505b50506001016101e1565b506000546040517fa67a6a4500000000000000000000000000000000000000000000000000000000815273ffffffffffffffffffffffffffffffffffffffff9091169063a67a6a45906103b69088908890600401611219565b600060405180830381600087803b1580156103d057600080fd5b505af11580156103e4573d6000803e3d6000fd5b50506040517f70a082310000000000000000000000000000000000000000000000000000000081526000925073ffffffffffffffffffffffffffffffffffffffff841691506370a082319061043d903090600401611205565b60206040518083038186803b15801561045557600080fd5b505afa158015610469573d6000803e3d6000fd5b505050506040513d601f19601f8201168201806040525061048d9190810190610e42565b905080156105c1576104f873ffffffffffffffffffffffffffffffffffffffff851615157f50617961626c6550726f7879466f72536f6c6f4d617267696e000000000000007f4d757374207365742073656e64457468546f00000000000000000000000000006106cd565b6040517f2e1a7d4d00000000000000000000000000000000000000000000000000000000815273ffffffffffffffffffffffffffffffffffffffff831690632e1a7d4d9061054a90849060040161126d565b600060405180830381600087803b15801561056457600080fd5b505af1158015610578573d6000803e3d6000fd5b505060405173ffffffffffffffffffffffffffffffffffffffff8716925083156108fc02915083906000818181858888f193505050501580156105bf573d6000803e3d6000fd5b505b505060015481146105d157600080fd5b50505050565b836105d1576105e58361071c565b7f3a2000000000000000000000000000000000000000000000000000000000000061060f8461071c565b7f203c0000000000000000000000000000000000000000000000000000000000006106398561081d565b60405161066f9594939291907f3e00000000000000000000000000000000000000000000000000000000000000906020016111a7565b604080517fffffffffffffffffffffffffffffffffffffffffffffffffffffffffffffffe0818403018152908290527f08c379a00000000000000000000000000000000000000000000000000000000082526100a19160040161124c565b82610717576106db8261071c565b7f3a200000000000000000000000000000000000000000000000000000000000006107058361071c565b60405160200161066f9392919061117f565b505050565b60608082604051602001610730919061116a565b604080517fffffffffffffffffffffffffffffffffffffffffffffffffffffffffffffffe0818403018152919052905060205b80156108005781517fffffffffffffffffffffffffffffffffffffffffffffffffffffffffffffffff9091019082908290811061079c57fe5b6020910101517f010000000000000000000000000000000000000000000000000000000000000090819004027fff0000000000000000000000000000000000000000000000000000000000000016156107fb5760010181529050610818565b610763565b5060408051600080825260208201909252905b509150505b919050565b60408051602a808252606082810190935273ffffffffffffffffffffffffffffffffffffffff841691839160208201818038833901905050905060307f0100000000000000000000000000000000000000000000000000000000000000028160008151811061088857fe5b60200101907effffffffffffffffffffffffffffffffffffffffffffffffffffffffffffff1916908160001a90535060787f010000000000000000000000000000000000000000000000000000000000000002816001815181106108e857fe5b60200101907effffffffffffffffffffffffffffffffffffffffffffffffffffffffffffff1916908160001a90535060005b60148110156108135760028102610933600f85166109d0565b83826029038151811061094257fe5b60200101907effffffffffffffffffffffffffffffffffffffffffffffffffffffffffffff1916908160001a905350601090930492610983600f85166109d0565b83826028038151811061099257fe5b60200101907effffffffffffffffffffffffffffffffffffffffffffffffffffffffffffff1916908160001a9053505060109092049160010161091a565b6000600a821015610a0757507f01000000000000000000000000000000000000000000000000000000000000006030820102610818565b506057017f01000000000000000000000000000000000000000000000000000000000000000290565b604080516101608101825260008082526020820152908101610a50610a8f565b81526020016000815260200160008152602001600073ffffffffffffffffffffffffffffffffffffffff16815260200160008152602001606081525090565b604080516080810190915260008082526020820190815260200160008152602001600081525090565b6000610ac4823561131c565b9392505050565b600082601f830112610adc57600080fd5b8135610aef610aea826112a2565b61127b565b81815260209384019390925082018360005b83811015610b2d5781358601610b178882610c1c565b8452506020928301929190910190600101610b01565b5050505092915050565b600082601f830112610b4857600080fd5b8135610b56610aea826112a2565b91508181835260208401935060208101905083856040840282011115610b7b57600080fd5b60005b83811015610b2d5781610b918882610d67565b84525060209092019160409190910190600101610b7e565b6000610ac48235611327565b600082601f830112610bc657600080fd5b8135610bd4610aea826112c3565b91508082526020830160208301858383011115610bf057600080fd5b610bfb8382846113f4565b50505092915050565b6000610ac482356113ae565b6000610ac482356113bd565b60006101608284031215610c2f57600080fd5b610c3a61010061127b565b90506000610c488484610c04565b8252506020610c5984848301610dae565b6020830152506040610c6d84828501610cf8565b60408301525060c0610c8184828501610dae565b60608301525060e0610c9584828501610dae565b608083015250610100610caa84828501610ab8565b60a083015250610120610cbf84828501610dae565b60c08301525061014082013567ffffffffffffffff811115610ce057600080fd5b610cec84828501610bb5565b60e08301525092915050565b600060808284031215610d0a57600080fd5b610d14608061127b565b90506000610d228484610ba9565b8252506020610d3384848301610c10565b6020830152506040610d4784828501610c10565b6040830152506060610d5b84828501610dae565b60608301525092915050565b600060408284031215610d7957600080fd5b610d83604061127b565b90506000610d918484610ab8565b8252506020610da284848301610dae565b60208301525092915050565b6000610ac48235611376565b6000610ac48251611376565b600080600060608486031215610ddb57600080fd5b833567ffffffffffffffff811115610df257600080fd5b610dfe86828701610b37565b935050602084013567ffffffffffffffff811115610e1b57600080fd5b610e2786828701610acb565b9250506040610e3886828701610ab8565b9150509250925092565b600060208284031215610e5457600080fd5b6000610e608484610dba565b949350505050565b6000610ac4838361104c565b6000610e808383611141565b505060400190565b610e91816113cc565b82525050565b610e918161131c565b6000610eab8261130f565b610eb58185611313565b935083602082028501610ec785611309565b60005b84811015610efe578383038852610ee2838351610e68565b9250610eed82611309565b602098909801979150600101610eca565b50909695505050505050565b6000610f158261130f565b610f1f8185611313565b9350610f2a83611309565b60005b82811015610f5557610f40868351610e74565b9550610f4b82611309565b9150600101610f2d565b5093949350505050565b610e9181611327565b610e91610f748261132c565b611376565b610e91610f7482611351565b610e91610f7482611376565b6000610f9c8261130f565b610fa68185610818565b9350610fb6818560208601611400565b9290920192915050565b6000610fcb8261130f565b610fd58185611313565b9350610fe5818560208601611400565b610fee8161142c565b9093019392505050565b610e91816113d3565b610e91816113de565b610e91816113e9565b6000611020601283611313565b7f43616e6e6f742072656365697665204554480000000000000000000000000000815260200192915050565b80516000906101608401906110618582611001565b5060208301516110746020860182611161565b50604083015161108760408601826110f7565b50606083015161109a60c0860182611161565b5060808301516110ad60e0860182611161565b5060a08301516110c1610100860182610e97565b5060c08301516110d5610120860182611161565b5060e08301518482036101408601526110ee8282610fc0565b95945050505050565b805160808301906111088482610f5f565b50602082015161111b602085018261100a565b50604082015161112e604085018261100a565b5060608201516105d16060850182611161565b805160408301906111528482610e97565b5060208201516105d160208501825b610e9181611376565b60006111768284610f85565b50602001919050565b600061118b8286610f91565b91506111978285610f79565b6002820191506110ee8284610f91565b60006111b38289610f91565b91506111bf8288610f79565b6002820191506111cf8287610f91565b91506111db8286610f79565b6002820191506111eb8285610f91565b91506111f78284610f68565b506001019695505050505050565b602081016112138284610e88565b92915050565b6040808252810161122a8185610f0a565b90508181036020830152610e608184610ea0565b602081016112138284610ff8565b60208082528101610ac48184610fc0565b6020808252810161121381611013565b602081016112138284611161565b60405181810167ffffffffffffffff8111828210171561129a57600080fd5b604052919050565b600067ffffffffffffffff8211156112b957600080fd5b5060209081020190565b600067ffffffffffffffff8211156112da57600080fd5b506020601f919091017fffffffffffffffffffffffffffffffffffffffffffffffffffffffffffffffe0160190565b60200190565b5190565b90815260200190565b600061121382611395565b151590565b7fff000000000000000000000000000000000000000000000000000000000000001690565b7fffff0000000000000000000000000000000000000000000000000000000000001690565b90565b60006009821061138557fe5b5090565b60006002821061138557fe5b73ffffffffffffffffffffffffffffffffffffffff1690565b60006009821061138557600080fd5b60006002821061138557600080fd5b6000611213825b60006112138261131c565b600061121382611379565b600061121382611389565b82818337506000910152565b60005b8381101561141b578181015183820152602001611403565b838111156105d15750506000910152565b601f017fffffffffffffffffffffffffffffffffffffffffffffffffffffffffffffffe0169056fea265627a7a72305820640b220b5df6a51561e7ff9356ee1461641be8ca6b1271babddfa0a4bc322b486c6578706572696d656e74616cf50037",
    "source": "/*\n\n    Copyright 2019 dYdX Trading Inc.\n\n    Licensed under the Apache License, Version 2.0 (the \"License\");\n    you may not use this file except in compliance with the License.\n    You may obtain a copy of the License at\n\n    http://www.apache.org/licenses/LICENSE-2.0\n\n    Unless required by applicable law or agreed to in writing, software\n    distributed under the License is distributed on an \"AS IS\" BASIS,\n    WITHOUT WARRANTIES OR CONDITIONS OF ANY KIND, either express or implied.\n    See the License for the specific language governing permissions and\n    limitations under the License.\n\n*/\n\npragma solidity 0.5.7;\npragma experimental ABIEncoderV2;\n\nimport { WETH9 } from \"canonical-weth/contracts/WETH9.sol\";\nimport { ReentrancyGuard } from \"openzeppelin-solidity/contracts/utils/ReentrancyGuard.sol\";\nimport { SoloMargin } from \"../../protocol/SoloMargin.sol\";\nimport { Account } from \"../../protocol/lib/Account.sol\";\nimport { Actions } from \"../../protocol/lib/Actions.sol\";\nimport { Require } from \"../../protocol/lib/Require.sol\";\nimport { OnlySolo } from \"../helpers/OnlySolo.sol\";\n\n\n/**\n * @title PayableProxyForSoloMargin\n * @author dYdX\n *\n * Contract for wrapping/unwrapping ETH before/after interacting with Solo\n */\ncontract PayableProxyForSoloMargin is\n    OnlySolo,\n    ReentrancyGuard\n{\n    // ============ Constants ============\n\n    bytes32 constant FILE = \"PayableProxyForSoloMargin\";\n\n    // ============ Storage ============\n\n    WETH9 public WETH;\n\n    // ============ Constructor ============\n\n    constructor (\n        address soloMargin,\n        address payable weth\n    )\n        public\n        OnlySolo(soloMargin)\n    {\n        WETH = WETH9(weth);\n        WETH.approve(soloMargin, uint256(-1));\n    }\n\n    // ============ Public Functions ============\n\n    /**\n     * Fallback function. Disallows ether to be sent to this contract without data except when\n     * unwrapping WETH.\n     */\n    function ()\n        external\n        payable\n    {\n        require( // coverage-disable-line\n            msg.sender == address(WETH),\n            \"Cannot receive ETH\"\n        );\n    }\n\n    function operate(\n        Account.Info[] memory accounts,\n        Actions.ActionArgs[] memory actions,\n        address payable sendEthTo\n    )\n        public\n        payable\n        nonReentrant\n    {\n        WETH9 weth = WETH;\n\n        // create WETH from ETH\n        if (msg.value != 0) {\n            weth.deposit.value(msg.value)();\n        }\n\n        // validate the input\n        for (uint256 i = 0; i < actions.length; i++) {\n            Actions.ActionArgs memory action = actions[i];\n\n            // Can only operate on accounts owned by msg.sender\n            address owner1 = accounts[action.accountId].owner;\n            Require.that(\n                owner1 == msg.sender,\n                FILE,\n                \"Sender must be primary account\",\n                owner1\n            );\n\n            // For a transfer both accounts must be owned by msg.sender\n            if (action.actionType == Actions.ActionType.Transfer) {\n                address owner2 = accounts[action.otherAccountId].owner;\n                Require.that(\n                    owner2 == msg.sender,\n                    FILE,\n                    \"Sender must be secondary account\",\n                    owner2\n                );\n            }\n        }\n\n        SOLO_MARGIN.operate(accounts, actions);\n\n        // return all remaining WETH to the sendEthTo as ETH\n        uint256 remainingWeth = weth.balanceOf(address(this));\n        if (remainingWeth != 0) {\n            Require.that(\n                sendEthTo != address(0),\n                FILE,\n                \"Must set sendEthTo\"\n            );\n\n            weth.withdraw(remainingWeth);\n            sendEthTo.transfer(remainingWeth);\n        }\n    }\n}\n",
    "sourcePath": "/home/dydx/app/contracts/external/proxies/PayableProxyForSoloMargin.sol",
    "compiler": {
        "name": "solc",
        "version": "0.5.7+commit.6da8b019.Emscripten.clang"
    },
    "schemaVersion": "3.0.23",
    "updatedAt": "2022-11-11T03:47:01.640Z",
    "networkType": "ethereum",
    "devdoc": {
        "author": "dYdX * Contract for wrapping/unwrapping ETH before/after interacting with Solo",
        "methods": {},
        "title": "PayableProxyForSoloMargin"
    },
    "userdoc": {
        "methods": {}
    }
}