{
    "contractName": "Permission",
    "abi": [
        {
            "anonymous": false,
            "inputs": [
                {
                    "indexed": true,
                    "name": "owner",
                    "type": "address"
                },
                {
                    "indexed": false,
                    "name": "operator",
                    "type": "address"
                },
                {
                    "indexed": false,
                    "name": "trusted",
                    "type": "bool"
                }
            ],
            "name": "LogOperatorSet",
            "type": "event"
        },
        {
            "constant": false,
            "inputs": [
                {
                    "components": [
                        {
                            "name": "operator",
                            "type": "address"
                        },
                        {
                            "name": "trusted",
                            "type": "bool"
                        }
                    ],
                    "name": "args",
                    "type": "tuple[]"
                }
            ],
            "name": "setOperators",
            "outputs": [],
            "payable": false,
            "stateMutability": "nonpayable",
            "type": "function"
        }
    ],
    "bytecode": "0x608060405234801561001057600080fd5b50610350806100206000396000f3fe608060405234801561001057600080fd5b5060043610610047577c0100000000000000000000000000000000000000000000000000000000600035046385b53fc8811461004c575b600080fd5b61005f61005a36600461022f565b610061565b005b60005b815181101561014457600082828151811061007b57fe5b6020026020010151600001519050600083838151811061009757fe5b60209081029190910181015181015133600081815260038452604080822073ffffffffffffffffffffffffffffffffffffffff8816835290945283902080547fffffffffffffffffffffffffffffffffffffffffffffffffffffffffffffff001683151517905591519092507f4d7f317d2088d039c2a95a09fcbf9cc9191fad5905f883c937cc3d317c4a6327906101329085908590610284565b60405180910390a25050600101610064565b5050565b600061015482356102e7565b9392505050565b600082601f83011261016c57600080fd5b813561017f61017a826102c6565b61029f565b915081818352602084019350602081019050838560408402820111156101a457600080fd5b60005b838110156101d257816101ba88826101e8565b845250602090920191604091909101906001016101a7565b5050505092915050565b600061015482356102f8565b6000604082840312156101fa57600080fd5b610204604061029f565b905060006102128484610148565b8252506020610223848483016101dc565b60208301525092915050565b60006020828403121561024157600080fd5b813567ffffffffffffffff81111561025857600080fd5b6102648482850161015b565b949350505050565b610275816102e7565b82525050565b610275816102f8565b60408101610292828561026c565b610154602083018461027b565b60405181810167ffffffffffffffff811182821017156102be57600080fd5b604052919050565b600067ffffffffffffffff8211156102dd57600080fd5b5060209081020190565b60006102f2826102fd565b92915050565b151590565b73ffffffffffffffffffffffffffffffffffffffff169056fea265627a7a7230582098696f39617085f4866fd4bac69a6d3e847a66363b934d70bd916575844152356c6578706572696d656e74616cf50037",
    "source": "/*\n\n    Copyright 2019 dYdX Trading Inc.\n\n    Licensed under the Apache License, Version 2.0 (the \"License\");\n    you may not use this file except in compliance with the License.\n    You may obtain a copy of the License at\n\n    http://www.apache.org/licenses/LICENSE-2.0\n\n    Unless required by applicable law or agreed to in writing, software\n    distributed under the License is distributed on an \"AS IS\" BASIS,\n    WITHOUT WARRANTIES OR CONDITIONS OF ANY KIND, either express or implied.\n    See the License for the specific language governing permissions and\n    limitations under the License.\n\n*/\n\npragma solidity 0.5.7;\npragma experimental ABIEncoderV2;\n\nimport { State } from \"./State.sol\";\n\n\n/**\n * @title Permission\n * @author dYdX\n *\n * Public function that allows other addresses to manage accounts\n */\ncontract Permission is\n    State\n{\n    // ============ Events ============\n\n    event LogOperatorSet(\n        address indexed owner,\n        address operator,\n        bool trusted\n    );\n\n    // ============ Structs ============\n\n    struct OperatorArg {\n        address operator;\n        bool trusted;\n    }\n\n    // ============ Public Functions ============\n\n    /**\n     * Approves/disapproves any number of operators. An operator is an external address that has the\n     * same permissions to manipulate an account as the owner of the account. Operators are simply\n     * addresses and therefore may either be externally-owned Ethereum accounts OR smart contracts.\n     *\n     * Operators are also able to act as AutoTrader contracts on behalf of the account owner if the\n     * operator is a smart contract and implements the IAutoTrader interface.\n     *\n     * @param  args  A list of OperatorArgs which have an address and a boolean. The boolean value\n     *               denotes whether to approve (true) or revoke approval (false) for that address.\n     */\n    function setOperators(\n        OperatorArg[] memory args\n    )\n        public\n    {\n        for (uint256 i = 0; i < args.length; i++) {\n            address operator = args[i].operator;\n            bool trusted = args[i].trusted;\n            g_state.operators[msg.sender][operator] = trusted;\n            emit LogOperatorSet(msg.sender, operator, trusted);\n        }\n    }\n}\n",
    "sourcePath": "/home/dydx/app/contracts/protocol/Permission.sol",
    "compiler": {
        "name": "solc",
        "version": "0.5.7+commit.6da8b019.Emscripten.clang"
    },
    "schemaVersion": "3.0.23",
    "updatedAt": "2022-11-11T03:37:21.599Z",
    "devdoc": {
        "author": "dYdX * Public function that allows other addresses to manage accounts",
        "methods": {
            "setOperators((address,bool)[])": {
                "params": {
                    "args": "A list of OperatorArgs which have an address and a boolean. The boolean value              denotes whether to approve (true) or revoke approval (false) for that address."
                }
            }
        },
        "title": "Permission"
    },
    "userdoc": {
        "methods": {
            "setOperators((address,bool)[])": {
                "notice": "Approves/disapproves any number of operators. An operator is an external address that has the same permissions to manipulate an account as the owner of the account. Operators are simply addresses and therefore may either be externally-owned Ethereum accounts OR smart contracts.     * Operators are also able to act as AutoTrader contracts on behalf of the account owner if the operator is a smart contract and implements the IAutoTrader interface."
            }
        }
    }
}