{
    "contractName": "Refunder",
    "abi": [
        {
            "constant": true,
            "inputs": [
                {
                    "name": "",
                    "type": "address"
                }
            ],
            "name": "g_givers",
            "outputs": [
                {
                    "name": "",
                    "type": "bool"
                }
            ],
            "payable": false,
            "stateMutability": "view",
            "type": "function"
        },
        {
            "constant": true,
            "inputs": [],
            "name": "SOLO_MARGIN",
            "outputs": [
                {
                    "name": "",
                    "type": "address"
                }
            ],
            "payable": false,
            "stateMutability": "view",
            "type": "function"
        },
        {
            "constant": false,
            "inputs": [],
            "name": "renounceOwnership",
            "outputs": [],
            "payable": false,
            "stateMutability": "nonpayable",
            "type": "function"
        },
        {
            "constant": true,
            "inputs": [],
            "name": "owner",
            "outputs": [
                {
                    "name": "",
                    "type": "address"
                }
            ],
            "payable": false,
            "stateMutability": "view",
            "type": "function"
        },
        {
            "constant": true,
            "inputs": [],
            "name": "isOwner",
            "outputs": [
                {
                    "name": "",
                    "type": "bool"
                }
            ],
            "payable": false,
            "stateMutability": "view",
            "type": "function"
        },
        {
            "constant": false,
            "inputs": [
                {
                    "name": "newOwner",
                    "type": "address"
                }
            ],
            "name": "transferOwnership",
            "outputs": [],
            "payable": false,
            "stateMutability": "nonpayable",
            "type": "function"
        },
        {
            "inputs": [
                {
                    "name": "soloMargin",
                    "type": "address"
                },
                {
                    "name": "givers",
                    "type": "address[]"
                }
            ],
            "payable": false,
            "stateMutability": "nonpayable",
            "type": "constructor"
        },
        {
            "anonymous": false,
            "inputs": [
                {
                    "indexed": false,
                    "name": "giver",
                    "type": "address"
                }
            ],
            "name": "LogGiverAdded",
            "type": "event"
        },
        {
            "anonymous": false,
            "inputs": [
                {
                    "indexed": false,
                    "name": "giver",
                    "type": "address"
                }
            ],
            "name": "LogGiverRemoved",
            "type": "event"
        },
        {
            "anonymous": false,
            "inputs": [
                {
                    "components": [
                        {
                            "name": "owner",
                            "type": "address"
                        },
                        {
                            "name": "number",
                            "type": "uint256"
                        }
                    ],
                    "indexed": false,
                    "name": "account",
                    "type": "tuple"
                },
                {
                    "indexed": false,
                    "name": "marketId",
                    "type": "uint256"
                },
                {
                    "indexed": false,
                    "name": "amount",
                    "type": "uint256"
                }
            ],
            "name": "LogRefund",
            "type": "event"
        },
        {
            "anonymous": false,
            "inputs": [
                {
                    "indexed": true,
                    "name": "previousOwner",
                    "type": "address"
                },
                {
                    "indexed": true,
                    "name": "newOwner",
                    "type": "address"
                }
            ],
            "name": "OwnershipTransferred",
            "type": "event"
        },
        {
            "constant": false,
            "inputs": [
                {
                    "name": "giver",
                    "type": "address"
                }
            ],
            "name": "addGiver",
            "outputs": [],
            "payable": false,
            "stateMutability": "nonpayable",
            "type": "function"
        },
        {
            "constant": false,
            "inputs": [
                {
                    "name": "giver",
                    "type": "address"
                }
            ],
            "name": "removeGiver",
            "outputs": [],
            "payable": false,
            "stateMutability": "nonpayable",
            "type": "function"
        },
        {
            "constant": false,
            "inputs": [
                {
                    "name": "inputMarketId",
                    "type": "uint256"
                },
                {
                    "name": "",
                    "type": "uint256"
                },
                {
                    "components": [
                        {
                            "name": "owner",
                            "type": "address"
                        },
                        {
                            "name": "number",
                            "type": "uint256"
                        }
                    ],
                    "name": "makerAccount",
                    "type": "tuple"
                },
                {
                    "components": [
                        {
                            "name": "owner",
                            "type": "address"
                        },
                        {
                            "name": "number",
                            "type": "uint256"
                        }
                    ],
                    "name": "takerAccount",
                    "type": "tuple"
                },
                {
                    "components": [
                        {
                            "name": "sign",
                            "type": "bool"
                        },
                        {
                            "name": "value",
                            "type": "uint128"
                        }
                    ],
                    "name": "",
                    "type": "tuple"
                },
                {
                    "components": [
                        {
                            "name": "sign",
                            "type": "bool"
                        },
                        {
                            "name": "value",
                            "type": "uint128"
                        }
                    ],
                    "name": "",
                    "type": "tuple"
                },
                {
                    "components": [
                        {
                            "name": "sign",
                            "type": "bool"
                        },
                        {
                            "name": "value",
                            "type": "uint256"
                        }
                    ],
                    "name": "inputWei",
                    "type": "tuple"
                },
                {
                    "name": "",
                    "type": "bytes"
                }
            ],
            "name": "getTradeCost",
            "outputs": [
                {
                    "components": [
                        {
                            "name": "sign",
                            "type": "bool"
                        },
                        {
                            "name": "denomination",
                            "type": "uint8"
                        },
                        {
                            "name": "ref",
                            "type": "uint8"
                        },
                        {
                            "name": "value",
                            "type": "uint256"
                        }
                    ],
                    "name": "",
                    "type": "tuple"
                }
            ],
            "payable": false,
            "stateMutability": "nonpayable",
            "type": "function"
        }
    ],
    "bytecode": "0x60806040523480156200001157600080fd5b5060405162001367380380620013678339810180604052620000379190810190620001a4565b60008054600160a060020a03191633178082556040518492600160a060020a039290921691907f8be0079c531659141344cd1fd0a4f28419497f9722a3daafe3b4186f6b6457e0908290a360018054600160a060020a031916600160a060020a039290921691909117905560005b8151811015620000fd57600160026000848481518110620000c257fe5b602090810291909101810151600160a060020a03168252810191909152604001600020805460ff1916911515919091179055600101620000a5565b50505062000262565b600062000114825162000243565b9392505050565b600082601f8301126200012d57600080fd5b8151620001446200013e8262000222565b620001fb565b915081818352602084019350602081019050838560208402820111156200016a57600080fd5b60005b838110156200019a578162000183888262000106565b84525060209283019291909101906001016200016d565b5050505092915050565b60008060408385031215620001b857600080fd5b6000620001c6858562000106565b92505060208301516001604060020a03811115620001e357600080fd5b620001f1858286016200011b565b9150509250929050565b6040518181016001604060020a03811182821017156200021a57600080fd5b604052919050565b60006001604060020a038211156200023957600080fd5b5060209081020190565b6000620002508262000256565b92915050565b600160a060020a031690565b6110f580620002726000396000f3fe608060405234801561001057600080fd5b50600436106100c0576000357c010000000000000000000000000000000000000000000000000000000090048063637f63fd116100935780638da5cb5b116100785780638da5cb5b146101535780638f32d59b14610168578063f2fde38b14610170576100c0565b8063637f63fd14610138578063715018a61461014b576100c0565b80630524adbe146100c55780631b1fe68a146100ee578063448f7065146101035780635c564e1514610123575b600080fd5b6100d86100d3366004610bf7565b610183565b6040516100e59190610ecd565b60405180910390f35b6100f6610198565b6040516100e59190610edb565b610116610111366004610c1d565b6101b4565b6040516100e59190610efa565b610136610131366004610bf7565b610365565b005b610136610146366004610bf7565b6103fc565b610136610490565b61015b610510565b6040516100e59190610eb9565b6100d861052c565b61013661017e366004610bf7565b61054a565b60026020526000908152604090205460ff1681565b60015473ffffffffffffffffffffffffffffffffffffffff1681565b6101bc610a97565b60015433906102259073ffffffffffffffffffffffffffffffffffffffff1682147f4f6e6c79536f6c6f0000000000000000000000000000000000000000000000007f4f6e6c7920536f6c6f2063616e2063616c6c2066756e6374696f6e000000000084610567565b865173ffffffffffffffffffffffffffffffffffffffff16600090815260026020526040902054875161029f9160ff16907f526566756e646572000000000000000000000000000000000000000000000000907f4769766572206e6f7420617070726f766564000000000000000000000000000090610567565b6102f26102ab8561066c565b7f526566756e6465720000000000000000000000000000000000000000000000007f526566756e64206d75737420626520706f736974697665000000000000000000610689565b7fa34b09fbf60d42b8025b595993bf96c1560173c63ed262633b58da0fcf05e7c9888b866020015160405161032993929190610f08565b60405180910390a160408051608081019091526000815260208101600181526020016000815260006020909101529a9950505050505050505050565b61036d61052c565b61037657600080fd5b7f181ab0cc6af9ff68d6012bc274a29b2220e331d3f9ce4c94f807a38d1eb744e5816040516103a59190610eb9565b60405180910390a173ffffffffffffffffffffffffffffffffffffffff16600090815260026020526040902080547fffffffffffffffffffffffffffffffffffffffffffffffffffffffffffffff00166001179055565b61040461052c565b61040d57600080fd5b7f71b206d799db49c2e375bf6502c50c61b053e6d7fd47da6ea420ace5bee4481c8160405161043c9190610eb9565b60405180910390a173ffffffffffffffffffffffffffffffffffffffff16600090815260026020526040902080547fffffffffffffffffffffffffffffffffffffffffffffffffffffffffffffff00169055565b61049861052c565b6104a157600080fd5b6000805460405173ffffffffffffffffffffffffffffffffffffffff909116907f8be0079c531659141344cd1fd0a4f28419497f9722a3daafe3b4186f6b6457e0908390a3600080547fffffffffffffffffffffffff0000000000000000000000000000000000000000169055565b60005473ffffffffffffffffffffffffffffffffffffffff1690565b60005473ffffffffffffffffffffffffffffffffffffffff16331490565b61055261052c565b61055b57600080fd5b610564816106d8565b50565b836106665761057583610785565b7f3a2000000000000000000000000000000000000000000000000000000000000061059f84610785565b7f203c0000000000000000000000000000000000000000000000000000000000006105c985610884565b6040516105ff9594939291907f3e0000000000000000000000000000000000000000000000000000000000000090602001610e5b565b604080517fffffffffffffffffffffffffffffffffffffffffffffffffffffffffffffffe0818403018152908290527f08c379a000000000000000000000000000000000000000000000000000000000825261065d91600401610ee9565b60405180910390fd5b50505050565b80516000908015610681575060008260200151115b90505b919050565b826106d35761069782610785565b7f3a200000000000000000000000000000000000000000000000000000000000006106c183610785565b6040516020016105ff93929190610e2a565b505050565b73ffffffffffffffffffffffffffffffffffffffff81166106f857600080fd5b6000805460405173ffffffffffffffffffffffffffffffffffffffff808516939216917f8be0079c531659141344cd1fd0a4f28419497f9722a3daafe3b4186f6b6457e091a3600080547fffffffffffffffffffffffff00000000000000000000000000000000000000001673ffffffffffffffffffffffffffffffffffffffff92909216919091179055565b606080826040516020016107999190610e15565b604080517fffffffffffffffffffffffffffffffffffffffffffffffffffffffffffffffe0818403018152919052905060205b80156108695781517fffffffffffffffffffffffffffffffffffffffffffffffffffffffffffffffff9091019082908290811061080557fe5b6020910101517f010000000000000000000000000000000000000000000000000000000000000090819004027fff0000000000000000000000000000000000000000000000000000000000000016156108645760010181529050610684565b6107cc565b5060408051600080825260208201909252905b509392505050565b60408051602a808252606082810190935273ffffffffffffffffffffffffffffffffffffffff841691839160208201818038833901905050905060307f010000000000000000000000000000000000000000000000000000000000000002816000815181106108ef57fe5b60200101907effffffffffffffffffffffffffffffffffffffffffffffffffffffffffffff1916908160001a90535060787f0100000000000000000000000000000000000000000000000000000000000000028160018151811061094f57fe5b60200101907effffffffffffffffffffffffffffffffffffffffffffffffffffffffffffff1916908160001a90535060005b601481101561087c576002810261099a600f8516610a37565b8382602903815181106109a957fe5b60200101907effffffffffffffffffffffffffffffffffffffffffffffffffffffffffffff1916908160001a9053506010909304926109ea600f8516610a37565b8382602803815181106109f957fe5b60200101907effffffffffffffffffffffffffffffffffffffffffffffffffffffffffffff1916908160001a90535050601090920491600101610981565b6000600a821015610a6e57507f01000000000000000000000000000000000000000000000000000000000000006030820102610684565b506057017f01000000000000000000000000000000000000000000000000000000000000000290565b604080516080810190915260008082526020820190815260200160008152602001600081525090565b6000610acc8235610faa565b9392505050565b6000610acc8235610fb5565b600082601f830112610af057600080fd5b8135610b03610afe82610f57565b610f30565b91508082526020830160208301858383011115610b1f57600080fd5b610b2a83828461105b565b50505092915050565b600060408284031215610b4557600080fd5b610b4f6040610f30565b90506000610b5d8484610ac0565b8252506020610b6e84848301610beb565b60208301525092915050565b600060408284031215610b8c57600080fd5b610b966040610f30565b90506000610ba48484610ad3565b8252506020610b6e84848301610bdf565b600060408284031215610bc757600080fd5b610bd16040610f30565b90506000610b5d8484610ad3565b6000610acc8235611030565b6000610acc8235611004565b600060208284031215610c0957600080fd5b6000610c158484610ac0565b949350505050565b6000806000806000806000806101a0898b031215610c3a57600080fd5b6000610c468b8b610beb565b9850506020610c578b828c01610beb565b9750506040610c688b828c01610b33565b9650506080610c798b828c01610b33565b95505060c0610c8a8b828c01610b7a565b945050610100610c9c8b828c01610b7a565b935050610140610cae8b828c01610bb5565b92505061018089013567ffffffffffffffff811115610ccc57600080fd5b610cd88b828c01610adf565b9150509295985092959890939650565b610cf181610faa565b82525050565b610cf181610fb5565b610cf1610d0c82610fba565b611004565b610cf1610d0c82610fdf565b610cf1610d0c82611004565b6000610d3482610f9d565b610d3e8185610684565b9350610d4e818560208601611067565b9290920192915050565b610cf181611045565b610cf181611050565b6000610d7582610f9d565b610d7f8185610fa1565b9350610d8f818560208601611067565b610d9881611093565b9093019392505050565b80516080830190610db38482610cf7565b506020820151610dc66020850182610d61565b506040820151610dd96040850182610d61565b5060608201516106666060850182610e0c565b80516040830190610dfd8482610ce8565b50602082015161066660208501825b610cf181611004565b6000610e218284610d1d565b50602001919050565b6000610e368286610d29565b9150610e428285610d11565b600282019150610e528284610d29565b95945050505050565b6000610e678289610d29565b9150610e738288610d11565b600282019150610e838287610d29565b9150610e8f8286610d11565b600282019150610e9f8285610d29565b9150610eab8284610d00565b506001019695505050505050565b60208101610ec78284610ce8565b92915050565b60208101610ec78284610cf7565b60208101610ec78284610d58565b60208082528101610acc8184610d6a565b60808101610ec78284610da2565b60808101610f168286610dec565b610f236040830185610e0c565b610c156060830184610e0c565b60405181810167ffffffffffffffff81118282101715610f4f57600080fd5b604052919050565b600067ffffffffffffffff821115610f6e57600080fd5b506020601f919091017fffffffffffffffffffffffffffffffffffffffffffffffffffffffffffffffe0160190565b5190565b90815260200190565b600061068182611017565b151590565b7fff000000000000000000000000000000000000000000000000000000000000001690565b7fffff0000000000000000000000000000000000000000000000000000000000001690565b90565b60006002821061101357fe5b5090565b73ffffffffffffffffffffffffffffffffffffffff1690565b6fffffffffffffffffffffffffffffffff1690565b600061068182610faa565b600061068182611007565b82818337506000910152565b60005b8381101561108257818101518382015260200161106a565b838111156106665750506000910152565b601f017fffffffffffffffffffffffffffffffffffffffffffffffffffffffffffffffe0169056fea265627a7a723058201255e4e588d08ea80301fd1a497f4317b8cebb33e9436771c80c34f4f0fbea486c6578706572696d656e74616cf50037",
    "source": "/*\n\n    Copyright 2019 dYdX Trading Inc.\n\n    Licensed under the Apache License, Version 2.0 (the \"License\");\n    you may not use this file except in compliance with the License.\n    You may obtain a copy of the License at\n\n    http://www.apache.org/licenses/LICENSE-2.0\n\n    Unless required by applicable law or agreed to in writing, software\n    distributed under the License is distributed on an \"AS IS\" BASIS,\n    WITHOUT WARRANTIES OR CONDITIONS OF ANY KIND, either express or implied.\n    See the License for the specific language governing permissions and\n    limitations under the License.\n\n*/\n\npragma solidity 0.5.7;\npragma experimental ABIEncoderV2;\n\nimport { Ownable } from \"openzeppelin-solidity/contracts/ownership/Ownable.sol\";\nimport { IAutoTrader } from \"../../protocol/interfaces/IAutoTrader.sol\";\nimport { Account } from \"../../protocol/lib/Account.sol\";\nimport { Require } from \"../../protocol/lib/Require.sol\";\nimport { Types } from \"../../protocol/lib/Types.sol\";\nimport { OnlySolo } from \"../helpers/OnlySolo.sol\";\n\n\n/**\n * @title Refunder\n * @author dYdX\n *\n * Allows refunding a user for some amount of tokens for some market.\n */\ncontract Refunder is\n    Ownable,\n    OnlySolo,\n    IAutoTrader\n{\n    using Types for Types.Wei;\n\n    // ============ Constants ============\n\n    bytes32 constant FILE = \"Refunder\";\n\n    // ============ Events ============\n\n    event LogGiverAdded(\n        address giver\n    );\n\n    event LogGiverRemoved(\n        address giver\n    );\n\n    event LogRefund(\n        Account.Info account,\n        uint256 marketId,\n        uint256 amount\n    );\n\n    // ============ Storage ============\n\n    // the addresses that are able to give funds\n    mapping (address => bool) public g_givers;\n\n    // ============ Constructor ============\n\n    constructor (\n        address soloMargin,\n        address[] memory givers\n    )\n        public\n        OnlySolo(soloMargin)\n    {\n        for (uint256 i = 0; i < givers.length; i++) {\n            g_givers[givers[i]] = true;\n        }\n    }\n\n    // ============ Admin Functions ============\n\n    function addGiver(\n        address giver\n    )\n        external\n        onlyOwner\n    {\n        emit LogGiverAdded(giver);\n        g_givers[giver] = true;\n    }\n\n    function removeGiver(\n        address giver\n    )\n        external\n        onlyOwner\n    {\n        emit LogGiverRemoved(giver);\n        g_givers[giver] = false;\n    }\n\n    // ============ Only-Solo Functions ============\n\n    function getTradeCost(\n        uint256 inputMarketId,\n        uint256 /* outputMarketId */,\n        Account.Info memory makerAccount,\n        Account.Info memory takerAccount,\n        Types.Par memory /* oldInputPar */,\n        Types.Par memory /* newInputPar */,\n        Types.Wei memory inputWei,\n        bytes memory /* data */\n    )\n        public\n        onlySolo(msg.sender)\n        returns (Types.AssetAmount memory)\n    {\n        Require.that(\n            g_givers[takerAccount.owner],\n            FILE,\n            \"Giver not approved\",\n            takerAccount.owner\n        );\n\n        Require.that(\n            inputWei.isPositive(),\n            FILE,\n            \"Refund must be positive\"\n        );\n\n        emit LogRefund(\n            makerAccount,\n            inputMarketId,\n            inputWei.value\n        );\n\n        return Types.AssetAmount({\n            sign: false,\n            denomination: Types.AssetDenomination.Par,\n            ref: Types.AssetReference.Delta,\n            value: 0\n        });\n    }\n}\n",
    "sourcePath": "/home/dydx/app/contracts/external/traders/Refunder.sol",
    "compiler": {
        "name": "solc",
        "version": "0.5.7+commit.6da8b019.Emscripten.clang"
    },
    "schemaVersion": "3.0.23",
    "updatedAt": "2022-11-11T03:47:08.249Z",
    "networkType": "ethereum",
    "devdoc": {
        "author": "dYdX * Allows refunding a user for some amount of tokens for some market.",
        "methods": {
            "isOwner()": {
                "return": "true if `msg.sender` is the owner of the contract."
            },
            "owner()": {
                "return": "the address of the owner."
            },
            "renounceOwnership()": {
                "details": "Allows the current owner to relinquish control of the contract."
            },
            "transferOwnership(address)": {
                "details": "Allows the current owner to transfer control of the contract to a newOwner.",
                "params": {
                    "newOwner": "The address to transfer ownership to."
                }
            }
        },
        "title": "Refunder"
    },
    "userdoc": {
        "methods": {
            "renounceOwnership()": {
                "notice": "Renouncing to ownership will leave the contract without an owner. It will not be possible to call the functions with the `onlyOwner` modifier anymore."
            }
        }
    }
}