{
    "contractName": "SoloMargin",
    "abi": [
        {
            "constant": false,
            "inputs": [
                {
                    "name": "marketId",
                    "type": "uint256"
                },
                {
                    "components": [
                        {
                            "name": "value",
                            "type": "uint256"
                        }
                    ],
                    "name": "spreadPremium",
                    "type": "tuple"
                }
            ],
            "name": "ownerSetSpreadPremium",
            "outputs": [],
            "payable": false,
            "stateMutability": "nonpayable",
            "type": "function"
        },
        {
            "constant": true,
            "inputs": [
                {
                    "name": "operator",
                    "type": "address"
                }
            ],
            "name": "getIsGlobalOperator",
            "outputs": [
                {
                    "name": "",
                    "type": "bool"
                }
            ],
            "payable": false,
            "stateMutability": "view",
            "type": "function"
        },
        {
            "constant": true,
            "inputs": [
                {
                    "name": "marketId",
                    "type": "uint256"
                }
            ],
            "name": "getMarketTokenAddress",
            "outputs": [
                {
                    "name": "",
                    "type": "address"
                }
            ],
            "payable": false,
            "stateMutability": "view",
            "type": "function"
        },
        {
            "constant": false,
            "inputs": [
                {
                    "name": "marketId",
                    "type": "uint256"
                },
                {
                    "name": "interestSetter",
                    "type": "address"
                }
            ],
            "name": "ownerSetInterestSetter",
            "outputs": [],
            "payable": false,
            "stateMutability": "nonpayable",
            "type": "function"
        },
        {
            "constant": true,
            "inputs": [
                {
                    "components": [
                        {
                            "name": "owner",
                            "type": "address"
                        },
                        {
                            "name": "number",
                            "type": "uint256"
                        }
                    ],
                    "name": "account",
                    "type": "tuple"
                }
            ],
            "name": "getAccountValues",
            "outputs": [
                {
                    "components": [
                        {
                            "name": "value",
                            "type": "uint256"
                        }
                    ],
                    "name": "",
                    "type": "tuple"
                },
                {
                    "components": [
                        {
                            "name": "value",
                            "type": "uint256"
                        }
                    ],
                    "name": "",
                    "type": "tuple"
                }
            ],
            "payable": false,
            "stateMutability": "view",
            "type": "function"
        },
        {
            "constant": true,
            "inputs": [
                {
                    "name": "marketId",
                    "type": "uint256"
                }
            ],
            "name": "getMarketPriceOracle",
            "outputs": [
                {
                    "name": "",
                    "type": "address"
                }
            ],
            "payable": false,
            "stateMutability": "view",
            "type": "function"
        },
        {
            "constant": true,
            "inputs": [
                {
                    "name": "marketId",
                    "type": "uint256"
                }
            ],
            "name": "getMarketInterestSetter",
            "outputs": [
                {
                    "name": "",
                    "type": "address"
                }
            ],
            "payable": false,
            "stateMutability": "view",
            "type": "function"
        },
        {
            "constant": true,
            "inputs": [
                {
                    "name": "marketId",
                    "type": "uint256"
                }
            ],
            "name": "getMarketSpreadPremium",
            "outputs": [
                {
                    "components": [
                        {
                            "name": "value",
                            "type": "uint256"
                        }
                    ],
                    "name": "",
                    "type": "tuple"
                }
            ],
            "payable": false,
            "stateMutability": "view",
            "type": "function"
        },
        {
            "constant": true,
            "inputs": [],
            "name": "getNumMarkets",
            "outputs": [
                {
                    "name": "",
                    "type": "uint256"
                }
            ],
            "payable": false,
            "stateMutability": "view",
            "type": "function"
        },
        {
            "constant": false,
            "inputs": [
                {
                    "name": "token",
                    "type": "address"
                },
                {
                    "name": "recipient",
                    "type": "address"
                }
            ],
            "name": "ownerWithdrawUnsupportedTokens",
            "outputs": [
                {
                    "name": "",
                    "type": "uint256"
                }
            ],
            "payable": false,
            "stateMutability": "nonpayable",
            "type": "function"
        },
        {
            "constant": false,
            "inputs": [
                {
                    "components": [
                        {
                            "name": "value",
                            "type": "uint256"
                        }
                    ],
                    "name": "minBorrowedValue",
                    "type": "tuple"
                }
            ],
            "name": "ownerSetMinBorrowedValue",
            "outputs": [],
            "payable": false,
            "stateMutability": "nonpayable",
            "type": "function"
        },
        {
            "constant": false,
            "inputs": [
                {
                    "components": [
                        {
                            "name": "value",
                            "type": "uint256"
                        }
                    ],
                    "name": "spread",
                    "type": "tuple"
                }
            ],
            "name": "ownerSetLiquidationSpread",
            "outputs": [],
            "payable": false,
            "stateMutability": "nonpayable",
            "type": "function"
        },
        {
            "constant": false,
            "inputs": [
                {
                    "components": [
                        {
                            "name": "value",
                            "type": "uint256"
                        }
                    ],
                    "name": "earningsRate",
                    "type": "tuple"
                }
            ],
            "name": "ownerSetEarningsRate",
            "outputs": [],
            "payable": false,
            "stateMutability": "nonpayable",
            "type": "function"
        },
        {
            "constant": true,
            "inputs": [
                {
                    "name": "owner",
                    "type": "address"
                },
                {
                    "name": "operator",
                    "type": "address"
                }
            ],
            "name": "getIsLocalOperator",
            "outputs": [
                {
                    "name": "",
                    "type": "bool"
                }
            ],
            "payable": false,
            "stateMutability": "view",
            "type": "function"
        },
        {
            "constant": true,
            "inputs": [
                {
                    "components": [
                        {
                            "name": "owner",
                            "type": "address"
                        },
                        {
                            "name": "number",
                            "type": "uint256"
                        }
                    ],
                    "name": "account",
                    "type": "tuple"
                },
                {
                    "name": "marketId",
                    "type": "uint256"
                }
            ],
            "name": "getAccountPar",
            "outputs": [
                {
                    "components": [
                        {
                            "name": "sign",
                            "type": "bool"
                        },
                        {
                            "name": "value",
                            "type": "uint128"
                        }
                    ],
                    "name": "",
                    "type": "tuple"
                }
            ],
            "payable": false,
            "stateMutability": "view",
            "type": "function"
        },
        {
            "constant": false,
            "inputs": [
                {
                    "name": "marketId",
                    "type": "uint256"
                },
                {
                    "components": [
                        {
                            "name": "value",
                            "type": "uint256"
                        }
                    ],
                    "name": "marginPremium",
                    "type": "tuple"
                }
            ],
            "name": "ownerSetMarginPremium",
            "outputs": [],
            "payable": false,
            "stateMutability": "nonpayable",
            "type": "function"
        },
        {
            "constant": true,
            "inputs": [],
            "name": "getMarginRatio",
            "outputs": [
                {
                    "components": [
                        {
                            "name": "value",
                            "type": "uint256"
                        }
                    ],
                    "name": "",
                    "type": "tuple"
                }
            ],
            "payable": false,
            "stateMutability": "view",
            "type": "function"
        },
        {
            "constant": true,
            "inputs": [
                {
                    "name": "marketId",
                    "type": "uint256"
                }
            ],
            "name": "getMarketCurrentIndex",
            "outputs": [
                {
                    "components": [
                        {
                            "name": "borrow",
                            "type": "uint96"
                        },
                        {
                            "name": "supply",
                            "type": "uint96"
                        },
                        {
                            "name": "lastUpdate",
                            "type": "uint32"
                        }
                    ],
                    "name": "",
                    "type": "tuple"
                }
            ],
            "payable": false,
            "stateMutability": "view",
            "type": "function"
        },
        {
            "constant": true,
            "inputs": [
                {
                    "name": "marketId",
                    "type": "uint256"
                }
            ],
            "name": "getMarketIsClosing",
            "outputs": [
                {
                    "name": "",
                    "type": "bool"
                }
            ],
            "payable": false,
            "stateMutability": "view",
            "type": "function"
        },
        {
            "constant": true,
            "inputs": [],
            "name": "getRiskParams",
            "outputs": [
                {
                    "components": [
                        {
                            "components": [
                                {
                                    "name": "value",
                                    "type": "uint256"
                                }
                            ],
                            "name": "marginRatio",
                            "type": "tuple"
                        },
                        {
                            "components": [
                                {
                                    "name": "value",
                                    "type": "uint256"
                                }
                            ],
                            "name": "liquidationSpread",
                            "type": "tuple"
                        },
                        {
                            "components": [
                                {
                                    "name": "value",
                                    "type": "uint256"
                                }
                            ],
                            "name": "earningsRate",
                            "type": "tuple"
                        },
                        {
                            "components": [
                                {
                                    "name": "value",
                                    "type": "uint256"
                                }
                            ],
                            "name": "minBorrowedValue",
                            "type": "tuple"
                        }
                    ],
                    "name": "",
                    "type": "tuple"
                }
            ],
            "payable": false,
            "stateMutability": "view",
            "type": "function"
        },
        {
            "constant": true,
            "inputs": [
                {
                    "components": [
                        {
                            "name": "owner",
                            "type": "address"
                        },
                        {
                            "name": "number",
                            "type": "uint256"
                        }
                    ],
                    "name": "account",
                    "type": "tuple"
                }
            ],
            "name": "getAccountBalances",
            "outputs": [
                {
                    "name": "",
                    "type": "address[]"
                },
                {
                    "components": [
                        {
                            "name": "sign",
                            "type": "bool"
                        },
                        {
                            "name": "value",
                            "type": "uint128"
                        }
                    ],
                    "name": "",
                    "type": "tuple[]"
                },
                {
                    "components": [
                        {
                            "name": "sign",
                            "type": "bool"
                        },
                        {
                            "name": "value",
                            "type": "uint256"
                        }
                    ],
                    "name": "",
                    "type": "tuple[]"
                }
            ],
            "payable": false,
            "stateMutability": "view",
            "type": "function"
        },
        {
            "constant": false,
            "inputs": [],
            "name": "renounceOwnership",
            "outputs": [],
            "payable": false,
            "stateMutability": "nonpayable",
            "type": "function"
        },
        {
            "constant": true,
            "inputs": [],
            "name": "getMinBorrowedValue",
            "outputs": [
                {
                    "components": [
                        {
                            "name": "value",
                            "type": "uint256"
                        }
                    ],
                    "name": "",
                    "type": "tuple"
                }
            ],
            "payable": false,
            "stateMutability": "view",
            "type": "function"
        },
        {
            "constant": false,
            "inputs": [
                {
                    "components": [
                        {
                            "name": "operator",
                            "type": "address"
                        },
                        {
                            "name": "trusted",
                            "type": "bool"
                        }
                    ],
                    "name": "args",
                    "type": "tuple[]"
                }
            ],
            "name": "setOperators",
            "outputs": [],
            "payable": false,
            "stateMutability": "nonpayable",
            "type": "function"
        },
        {
            "constant": true,
            "inputs": [
                {
                    "name": "marketId",
                    "type": "uint256"
                }
            ],
            "name": "getMarketPrice",
            "outputs": [
                {
                    "components": [
                        {
                            "name": "value",
                            "type": "uint256"
                        }
                    ],
                    "name": "",
                    "type": "tuple"
                }
            ],
            "payable": false,
            "stateMutability": "view",
            "type": "function"
        },
        {
            "constant": true,
            "inputs": [],
            "name": "owner",
            "outputs": [
                {
                    "name": "",
                    "type": "address"
                }
            ],
            "payable": false,
            "stateMutability": "view",
            "type": "function"
        },
        {
            "constant": true,
            "inputs": [],
            "name": "isOwner",
            "outputs": [
                {
                    "name": "",
                    "type": "bool"
                }
            ],
            "payable": false,
            "stateMutability": "view",
            "type": "function"
        },
        {
            "constant": false,
            "inputs": [
                {
                    "name": "marketId",
                    "type": "uint256"
                },
                {
                    "name": "recipient",
                    "type": "address"
                }
            ],
            "name": "ownerWithdrawExcessTokens",
            "outputs": [
                {
                    "name": "",
                    "type": "uint256"
                }
            ],
            "payable": false,
            "stateMutability": "nonpayable",
            "type": "function"
        },
        {
            "constant": false,
            "inputs": [
                {
                    "name": "token",
                    "type": "address"
                },
                {
                    "name": "priceOracle",
                    "type": "address"
                },
                {
                    "name": "interestSetter",
                    "type": "address"
                },
                {
                    "components": [
                        {
                            "name": "value",
                            "type": "uint256"
                        }
                    ],
                    "name": "marginPremium",
                    "type": "tuple"
                },
                {
                    "components": [
                        {
                            "name": "value",
                            "type": "uint256"
                        }
                    ],
                    "name": "spreadPremium",
                    "type": "tuple"
                }
            ],
            "name": "ownerAddMarket",
            "outputs": [],
            "payable": false,
            "stateMutability": "nonpayable",
            "type": "function"
        },
        {
            "constant": false,
            "inputs": [
                {
                    "components": [
                        {
                            "name": "owner",
                            "type": "address"
                        },
                        {
                            "name": "number",
                            "type": "uint256"
                        }
                    ],
                    "name": "accounts",
                    "type": "tuple[]"
                },
                {
                    "components": [
                        {
                            "name": "actionType",
                            "type": "uint8"
                        },
                        {
                            "name": "accountId",
                            "type": "uint256"
                        },
                        {
                            "components": [
                                {
                                    "name": "sign",
                                    "type": "bool"
                                },
                                {
                                    "name": "denomination",
                                    "type": "uint8"
                                },
                                {
                                    "name": "ref",
                                    "type": "uint8"
                                },
                                {
                                    "name": "value",
                                    "type": "uint256"
                                }
                            ],
                            "name": "amount",
                            "type": "tuple"
                        },
                        {
                            "name": "primaryMarketId",
                            "type": "uint256"
                        },
                        {
                            "name": "secondaryMarketId",
                            "type": "uint256"
                        },
                        {
                            "name": "otherAddress",
                            "type": "address"
                        },
                        {
                            "name": "otherAccountId",
                            "type": "uint256"
                        },
                        {
                            "name": "data",
                            "type": "bytes"
                        }
                    ],
                    "name": "actions",
                    "type": "tuple[]"
                }
            ],
            "name": "operate",
            "outputs": [],
            "payable": false,
            "stateMutability": "nonpayable",
            "type": "function"
        },
        {
            "constant": true,
            "inputs": [
                {
                    "name": "marketId",
                    "type": "uint256"
                }
            ],
            "name": "getMarketWithInfo",
            "outputs": [
                {
                    "components": [
                        {
                            "name": "token",
                            "type": "address"
                        },
                        {
                            "components": [
                                {
                                    "name": "borrow",
                                    "type": "uint128"
                                },
                                {
                                    "name": "supply",
                                    "type": "uint128"
                                }
                            ],
                            "name": "totalPar",
                            "type": "tuple"
                        },
                        {
                            "components": [
                                {
                                    "name": "borrow",
                                    "type": "uint96"
                                },
                                {
                                    "name": "supply",
                                    "type": "uint96"
                                },
                                {
                                    "name": "lastUpdate",
                                    "type": "uint32"
                                }
                            ],
                            "name": "index",
                            "type": "tuple"
                        },
                        {
                            "name": "priceOracle",
                            "type": "address"
                        },
                        {
                            "name": "interestSetter",
                            "type": "address"
                        },
                        {
                            "components": [
                                {
                                    "name": "value",
                                    "type": "uint256"
                                }
                            ],
                            "name": "marginPremium",
                            "type": "tuple"
                        },
                        {
                            "components": [
                                {
                                    "name": "value",
                                    "type": "uint256"
                                }
                            ],
                            "name": "spreadPremium",
                            "type": "tuple"
                        },
                        {
                            "name": "isClosing",
                            "type": "bool"
                        }
                    ],
                    "name": "",
                    "type": "tuple"
                },
                {
                    "components": [
                        {
                            "name": "borrow",
                            "type": "uint96"
                        },
                        {
                            "name": "supply",
                            "type": "uint96"
                        },
                        {
                            "name": "lastUpdate",
                            "type": "uint32"
                        }
                    ],
                    "name": "",
                    "type": "tuple"
                },
                {
                    "components": [
                        {
                            "name": "value",
                            "type": "uint256"
                        }
                    ],
                    "name": "",
                    "type": "tuple"
                },
                {
                    "components": [
                        {
                            "name": "value",
                            "type": "uint256"
                        }
                    ],
                    "name": "",
                    "type": "tuple"
                }
            ],
            "payable": false,
            "stateMutability": "view",
            "type": "function"
        },
        {
            "constant": false,
            "inputs": [
                {
                    "components": [
                        {
                            "name": "value",
                            "type": "uint256"
                        }
                    ],
                    "name": "ratio",
                    "type": "tuple"
                }
            ],
            "name": "ownerSetMarginRatio",
            "outputs": [],
            "payable": false,
            "stateMutability": "nonpayable",
            "type": "function"
        },
        {
            "constant": true,
            "inputs": [],
            "name": "getLiquidationSpread",
            "outputs": [
                {
                    "components": [
                        {
                            "name": "value",
                            "type": "uint256"
                        }
                    ],
                    "name": "",
                    "type": "tuple"
                }
            ],
            "payable": false,
            "stateMutability": "view",
            "type": "function"
        },
        {
            "constant": true,
            "inputs": [
                {
                    "components": [
                        {
                            "name": "owner",
                            "type": "address"
                        },
                        {
                            "name": "number",
                            "type": "uint256"
                        }
                    ],
                    "name": "account",
                    "type": "tuple"
                },
                {
                    "name": "marketId",
                    "type": "uint256"
                }
            ],
            "name": "getAccountWei",
            "outputs": [
                {
                    "components": [
                        {
                            "name": "sign",
                            "type": "bool"
                        },
                        {
                            "name": "value",
                            "type": "uint256"
                        }
                    ],
                    "name": "",
                    "type": "tuple"
                }
            ],
            "payable": false,
            "stateMutability": "view",
            "type": "function"
        },
        {
            "constant": true,
            "inputs": [
                {
                    "name": "marketId",
                    "type": "uint256"
                }
            ],
            "name": "getMarketTotalPar",
            "outputs": [
                {
                    "components": [
                        {
                            "name": "borrow",
                            "type": "uint128"
                        },
                        {
                            "name": "supply",
                            "type": "uint128"
                        }
                    ],
                    "name": "",
                    "type": "tuple"
                }
            ],
            "payable": false,
            "stateMutability": "view",
            "type": "function"
        },
        {
            "constant": true,
            "inputs": [
                {
                    "name": "heldMarketId",
                    "type": "uint256"
                },
                {
                    "name": "owedMarketId",
                    "type": "uint256"
                }
            ],
            "name": "getLiquidationSpreadForPair",
            "outputs": [
                {
                    "components": [
                        {
                            "name": "value",
                            "type": "uint256"
                        }
                    ],
                    "name": "",
                    "type": "tuple"
                }
            ],
            "payable": false,
            "stateMutability": "view",
            "type": "function"
        },
        {
            "constant": true,
            "inputs": [
                {
                    "name": "marketId",
                    "type": "uint256"
                }
            ],
            "name": "getNumExcessTokens",
            "outputs": [
                {
                    "components": [
                        {
                            "name": "sign",
                            "type": "bool"
                        },
                        {
                            "name": "value",
                            "type": "uint256"
                        }
                    ],
                    "name": "",
                    "type": "tuple"
                }
            ],
            "payable": false,
            "stateMutability": "view",
            "type": "function"
        },
        {
            "constant": true,
            "inputs": [
                {
                    "name": "marketId",
                    "type": "uint256"
                }
            ],
            "name": "getMarketCachedIndex",
            "outputs": [
                {
                    "components": [
                        {
                            "name": "borrow",
                            "type": "uint96"
                        },
                        {
                            "name": "supply",
                            "type": "uint96"
                        },
                        {
                            "name": "lastUpdate",
                            "type": "uint32"
                        }
                    ],
                    "name": "",
                    "type": "tuple"
                }
            ],
            "payable": false,
            "stateMutability": "view",
            "type": "function"
        },
        {
            "constant": true,
            "inputs": [
                {
                    "components": [
                        {
                            "name": "owner",
                            "type": "address"
                        },
                        {
                            "name": "number",
                            "type": "uint256"
                        }
                    ],
                    "name": "account",
                    "type": "tuple"
                }
            ],
            "name": "getAccountStatus",
            "outputs": [
                {
                    "name": "",
                    "type": "uint8"
                }
            ],
            "payable": false,
            "stateMutability": "view",
            "type": "function"
        },
        {
            "constant": true,
            "inputs": [],
            "name": "getEarningsRate",
            "outputs": [
                {
                    "components": [
                        {
                            "name": "value",
                            "type": "uint256"
                        }
                    ],
                    "name": "",
                    "type": "tuple"
                }
            ],
            "payable": false,
            "stateMutability": "view",
            "type": "function"
        },
        {
            "constant": false,
            "inputs": [
                {
                    "name": "marketId",
                    "type": "uint256"
                },
                {
                    "name": "priceOracle",
                    "type": "address"
                }
            ],
            "name": "ownerSetPriceOracle",
            "outputs": [],
            "payable": false,
            "stateMutability": "nonpayable",
            "type": "function"
        },
        {
            "constant": true,
            "inputs": [],
            "name": "getRiskLimits",
            "outputs": [
                {
                    "components": [
                        {
                            "name": "marginRatioMax",
                            "type": "uint64"
                        },
                        {
                            "name": "liquidationSpreadMax",
                            "type": "uint64"
                        },
                        {
                            "name": "earningsRateMax",
                            "type": "uint64"
                        },
                        {
                            "name": "marginPremiumMax",
                            "type": "uint64"
                        },
                        {
                            "name": "spreadPremiumMax",
                            "type": "uint64"
                        },
                        {
                            "name": "minBorrowedValueMax",
                            "type": "uint128"
                        }
                    ],
                    "name": "",
                    "type": "tuple"
                }
            ],
            "payable": false,
            "stateMutability": "view",
            "type": "function"
        },
        {
            "constant": true,
            "inputs": [
                {
                    "name": "marketId",
                    "type": "uint256"
                }
            ],
            "name": "getMarket",
            "outputs": [
                {
                    "components": [
                        {
                            "name": "token",
                            "type": "address"
                        },
                        {
                            "components": [
                                {
                                    "name": "borrow",
                                    "type": "uint128"
                                },
                                {
                                    "name": "supply",
                                    "type": "uint128"
                                }
                            ],
                            "name": "totalPar",
                            "type": "tuple"
                        },
                        {
                            "components": [
                                {
                                    "name": "borrow",
                                    "type": "uint96"
                                },
                                {
                                    "name": "supply",
                                    "type": "uint96"
                                },
                                {
                                    "name": "lastUpdate",
                                    "type": "uint32"
                                }
                            ],
                            "name": "index",
                            "type": "tuple"
                        },
                        {
                            "name": "priceOracle",
                            "type": "address"
                        },
                        {
                            "name": "interestSetter",
                            "type": "address"
                        },
                        {
                            "components": [
                                {
                                    "name": "value",
                                    "type": "uint256"
                                }
                            ],
                            "name": "marginPremium",
                            "type": "tuple"
                        },
                        {
                            "components": [
                                {
                                    "name": "value",
                                    "type": "uint256"
                                }
                            ],
                            "name": "spreadPremium",
                            "type": "tuple"
                        },
                        {
                            "name": "isClosing",
                            "type": "bool"
                        }
                    ],
                    "name": "",
                    "type": "tuple"
                }
            ],
            "payable": false,
            "stateMutability": "view",
            "type": "function"
        },
        {
            "constant": false,
            "inputs": [
                {
                    "name": "marketId",
                    "type": "uint256"
                },
                {
                    "name": "isClosing",
                    "type": "bool"
                }
            ],
            "name": "ownerSetIsClosing",
            "outputs": [],
            "payable": false,
            "stateMutability": "nonpayable",
            "type": "function"
        },
        {
            "constant": false,
            "inputs": [
                {
                    "name": "operator",
                    "type": "address"
                },
                {
                    "name": "approved",
                    "type": "bool"
                }
            ],
            "name": "ownerSetGlobalOperator",
            "outputs": [],
            "payable": false,
            "stateMutability": "nonpayable",
            "type": "function"
        },
        {
            "constant": false,
            "inputs": [
                {
                    "name": "newOwner",
                    "type": "address"
                }
            ],
            "name": "transferOwnership",
            "outputs": [],
            "payable": false,
            "stateMutability": "nonpayable",
            "type": "function"
        },
        {
            "constant": true,
            "inputs": [
                {
                    "components": [
                        {
                            "name": "owner",
                            "type": "address"
                        },
                        {
                            "name": "number",
                            "type": "uint256"
                        }
                    ],
                    "name": "account",
                    "type": "tuple"
                }
            ],
            "name": "getAdjustedAccountValues",
            "outputs": [
                {
                    "components": [
                        {
                            "name": "value",
                            "type": "uint256"
                        }
                    ],
                    "name": "",
                    "type": "tuple"
                },
                {
                    "components": [
                        {
                            "name": "value",
                            "type": "uint256"
                        }
                    ],
                    "name": "",
                    "type": "tuple"
                }
            ],
            "payable": false,
            "stateMutability": "view",
            "type": "function"
        },
        {
            "constant": true,
            "inputs": [
                {
                    "name": "marketId",
                    "type": "uint256"
                }
            ],
            "name": "getMarketMarginPremium",
            "outputs": [
                {
                    "components": [
                        {
                            "name": "value",
                            "type": "uint256"
                        }
                    ],
                    "name": "",
                    "type": "tuple"
                }
            ],
            "payable": false,
            "stateMutability": "view",
            "type": "function"
        },
        {
            "constant": true,
            "inputs": [
                {
                    "name": "marketId",
                    "type": "uint256"
                }
            ],
            "name": "getMarketInterestRate",
            "outputs": [
                {
                    "components": [
                        {
                            "name": "value",
                            "type": "uint256"
                        }
                    ],
                    "name": "",
                    "type": "tuple"
                }
            ],
            "payable": false,
            "stateMutability": "view",
            "type": "function"
        },
        {
            "inputs": [
                {
                    "components": [
                        {
                            "components": [
                                {
                                    "name": "value",
                                    "type": "uint256"
                                }
                            ],
                            "name": "marginRatio",
                            "type": "tuple"
                        },
                        {
                            "components": [
                                {
                                    "name": "value",
                                    "type": "uint256"
                                }
                            ],
                            "name": "liquidationSpread",
                            "type": "tuple"
                        },
                        {
                            "components": [
                                {
                                    "name": "value",
                                    "type": "uint256"
                                }
                            ],
                            "name": "earningsRate",
                            "type": "tuple"
                        },
                        {
                            "components": [
                                {
                                    "name": "value",
                                    "type": "uint256"
                                }
                            ],
                            "name": "minBorrowedValue",
                            "type": "tuple"
                        }
                    ],
                    "name": "riskParams",
                    "type": "tuple"
                },
                {
                    "components": [
                        {
                            "name": "marginRatioMax",
                            "type": "uint64"
                        },
                        {
                            "name": "liquidationSpreadMax",
                            "type": "uint64"
                        },
                        {
                            "name": "earningsRateMax",
                            "type": "uint64"
                        },
                        {
                            "name": "marginPremiumMax",
                            "type": "uint64"
                        },
                        {
                            "name": "spreadPremiumMax",
                            "type": "uint64"
                        },
                        {
                            "name": "minBorrowedValueMax",
                            "type": "uint128"
                        }
                    ],
                    "name": "riskLimits",
                    "type": "tuple"
                }
            ],
            "payable": false,
            "stateMutability": "nonpayable",
            "type": "constructor"
        },
        {
            "anonymous": false,
            "inputs": [
                {
                    "indexed": true,
                    "name": "owner",
                    "type": "address"
                },
                {
                    "indexed": false,
                    "name": "operator",
                    "type": "address"
                },
                {
                    "indexed": false,
                    "name": "trusted",
                    "type": "bool"
                }
            ],
            "name": "LogOperatorSet",
            "type": "event"
        },
        {
            "anonymous": false,
            "inputs": [
                {
                    "indexed": true,
                    "name": "previousOwner",
                    "type": "address"
                },
                {
                    "indexed": true,
                    "name": "newOwner",
                    "type": "address"
                }
            ],
            "name": "OwnershipTransferred",
            "type": "event"
        }
    ],
    "bytecode": "0x60806040527f4765747465727300000000000000000000000000000000000000000000000000600d553480156200003557600080fd5b50604051610140806200459b833981018060405262000058919081019062000336565b600b8054600160a060020a031916331790819055604051600160a060020a0391909116906000907f8be0079c531659141344cd1fd0a4f28419497f9722a3daafe3b4186f6b6457e0908290a36001600c5581515160055560208083015151600655604080840151516007556060938401515160085582516009805493850151928501519585015167ffffffffffffffff199485166001604060020a0393841617604060020a608060020a03191668010000000000000000948416850217608060020a60c060020a0319167001000000000000000000000000000000009784169790970296909617600160c060020a0316780100000000000000000000000000000000000000000000000096831696909602959095179094556080830151600a805460a09095015194909316941693909317604060020a60c060020a0319166001608060020a03909216909202179055620003b8565b600060208284031215620001c057600080fd5b620001cc602062000376565b90506000620001dc84846200031a565b82525092915050565b600060c08284031215620001f857600080fd5b6200020460c062000376565b9050600062000214848462000328565b8252506020620002278484830162000328565b60208301525060406200023d8482850162000328565b6040830152506060620002538482850162000328565b6060830152506080620002698482850162000328565b60808301525060a06200027f8482850162000305565b60a08301525092915050565b6000608082840312156200029e57600080fd5b620002aa608062000376565b90506000620002ba8484620001ad565b8252506020620002cd84848301620001ad565b6020830152506040620002e384828501620001ad565b6040830152506060620002f984828501620001ad565b60608301525092915050565b60006200031382516200039d565b9392505050565b6000620003138251620003a9565b6000620003138251620003ac565b60008061014083850312156200034b57600080fd5b60006200035985856200028b565b92505060806200036c85828601620001e5565b9150509250929050565b6040518181016001604060020a03811182821017156200039557600080fd5b604052919050565b6001608060020a031690565b90565b6001604060020a031690565b6141d380620003c86000396000f3fe608060405234801561001057600080fd5b5060043610610348576000357c0100000000000000000000000000000000000000000000000000000000900480638928378e116101cf578063d5ecf7c511610116578063eb44fdd3116100bf578063f2fde38b11610099578063f2fde38b14610717578063f94160521461072a578063fd04b6061461073d578063fd47eda61461075057610348565b8063eb44fdd3146106d1578063ef6957d0146106f1578063f2901ae21461070457610348565b8063e5520228116100f0578063e5520228146106a1578063e8e72f75146106a9578063eb1c6e6b146106bc57610348565b8063d5ecf7c51461065b578063deec053d1461066e578063e51bfcb41461068157610348565b8063b548b89211610178578063c190c2ec11610152578063c190c2ec14610608578063cb04a34c14610628578063d24c48bc1461064857610348565b8063b548b892146105ca578063c0bb72b7146105ed578063c14609421461060057610348565b80638f6bc659116101a95780638f6bc65914610591578063982f323c146105a4578063a67a6a45146105b757610348565b80638928378e1461056e5780638da5cb5b146105815780638f32d59b1461058957610348565b8063387a498a116102935780635ac7d17c1161023c578063715018a611610216578063715018a61461054b5780637e9eaf411461055357806385b53fc81461055b57610348565b80635ac7d17c1461050157806369794795146105145780636a8194e71461052957610348565b80634be874141161026d5780634be87414146104c65780634f3c1542146104d957806356ea84b2146104e157610348565b8063387a498a146104805780633a031bf01461049357806347d1b53c146104a657610348565b8063197f0f05116102f55780632a560845116102cf5780632a560845146104475780632e822af31461045a5780633063bce21461046d57610348565b8063197f0f05146103ff5780631a7777bb14610412578063295c39a51461043257610348565b8063121fb72f11610326578063121fb72f146103ab578063124f914c146103be57806313368364146103df57610348565b8063042069d61461034d578063052f72d714610362578063062bd3e91461038b575b600080fd5b61036061035b366004613594565b610763565b005b6103756103703660046132cf565b610817565b6040516103829190613cf4565b60405180910390f35b61039e6103993660046134ea565b610831565b6040516103829190613c6a565b6103606103b9366004613564565b61084d565b6103d16103cc36600461347e565b6108be565b604051610382929190613f4a565b6103f26103ed3660046134ea565b6108e2565b6040516103829190613d02565b6103f261040d3660046134ea565b610919565b6104256104203660046134ea565b610950565b6040516103829190613d2f565b61043a610987565b6040516103829190613f66565b61043a6104553660046132ed565b61098d565b610360610468366004613460565b610a67565b61036061047b366004613460565b610b18565b61036061048e366004613460565b610b87565b6103756104a13660046132ed565b610bf6565b6104b96104b436600461349c565b610c12565b6040516103829190613d93565b6103606104d4366004613594565b610c35565b610425610ca6565b6104f46104ef3660046134ea565b610cc2565b6040516103829190613d3d565b61037561050f3660046134ea565b610cf7565b61051c610d1b565b6040516103829190613daf565b61053c61053736600461347e565b610d77565b60405161038293929190613cbb565b610360610ee5565b610425610f65565b61036061056936600461342b565b610f81565b61042561057c3660046134ea565b611064565b61039e611086565b6103756110a2565b61043a61059f366004613526565b6110c0565b6103606105b2366004613357565b611133565b6103606105c53660046133cc565b6111f0565b6105dd6105d83660046134ea565b611250565b6040516103829493929190613d5a565b6103606105fb366004613460565b6112ac565b61042561131b565b61061b61061636600461349c565b611337565b6040516103829190613f58565b61063b6106363660046134ea565b611377565b6040516103829190613f3c565b6104256106563660046135c4565b611399565b61061b6106693660046134ea565b6113c5565b6104f461067c3660046134ea565b6113e7565b61069461068f36600461347e565b611409565b6040516103829190613d10565b61042561141b565b6103606106b7366004613564565b611437565b6106c46114a8565b6040516103829190613da1565b6106e46106df3660046134ea565b61154a565b6040516103829190613d4b565b6103606106ff366004613545565b611689565b610360610712366004613327565b6116fa565b6103606107253660046132cf565b61176b565b6103d161073836600461347e565b611788565b61042561074b3660046134ea565b6117a3565b61042561075e3660046134ea565b6117da565b61076b6110a2565b61077457600080fd5b600c8054600101908190556040517f8854ab3e00000000000000000000000000000000000000000000000000000000815273__AdminImpl_____________________________90638854ab3e906107d49060009087908790600401613f14565b60006040518083038186803b1580156107ec57600080fd5b505af4158015610800573d6000803e3d6000fd5b50505050600c54811461081257600080fd5b505050565b6000610829818363ffffffff61180f16565b90505b919050565b600061083c8261183e565b61082960008363ffffffff61187116565b6108556110a2565b61085e57600080fd5b600c8054600101908190556040517faa92e34800000000000000000000000000000000000000000000000000000000815273__AdminImpl_____________________________9063aa92e348906107d49060009087908790600401613eec565b6108c6612d4f565b6108ce612d4f565b6108d983600061189d565b91509150915091565b60006108ed8261183e565b5060009081526001602052604090206003015473ffffffffffffffffffffffffffffffffffffffff1690565b60006109248261183e565b5060009081526001602052604090206004015473ffffffffffffffffffffffffffffffffffffffff1690565b610958612d4f565b6109618261183e565b506000908152600160209081526040918290208251918201909252600690910154815290565b60005490565b60006109976110a2565b6109a057600080fd5b600c8054600101908190556040517fdd32998a00000000000000000000000000000000000000000000000000000000815273__AdminImpl_____________________________9063dd32998a90610a009060009088908890600401613dbd565b60206040518083038186803b158015610a1857600080fd5b505af4158015610a2c573d6000803e3d6000fd5b505050506040513d601f19601f82011682018060405250610a509190810190613508565b9150600c548114610a6057600080fd5b5092915050565b610a6f6110a2565b610a7857600080fd5b600c8054600101908190556040517ff9cacc4c00000000000000000000000000000000000000000000000000000000815273__AdminImpl_____________________________9063f9cacc4c90610ad6906000908690600401613e9b565b60006040518083038186803b158015610aee57600080fd5b505af4158015610b02573d6000803e3d6000fd5b50505050600c548114610b1457600080fd5b5050565b610b206110a2565b610b2957600080fd5b600c8054600101908190556040517f0f44e6bc00000000000000000000000000000000000000000000000000000000815273__AdminImpl_____________________________90630f44e6bc90610ad6906000908690600401613e9b565b610b8f6110a2565b610b9857600080fd5b600c8054600101908190556040517f311401d000000000000000000000000000000000000000000000000000000000815273__AdminImpl_____________________________9063311401d090610ad6906000908690600401613e9b565b6000610c0981848463ffffffff61192916565b90505b92915050565b610c1a612d62565b610c238261183e565b610c096000848463ffffffff61196916565b610c3d6110a2565b610c4657600080fd5b600c8054600101908190556040517f7335079b00000000000000000000000000000000000000000000000000000000815273__AdminImpl_____________________________90637335079b906107d49060009087908790600401613f14565b610cae612d4f565b506040805160208101909152600554815290565b610cca612d79565b610cd38261183e565b61082982610ce860008263ffffffff6119e516565b6000919063ffffffff611a6916565b6000610d028261183e565b5060009081526001602052604090206007015460ff1690565b610d23612d99565b506040805160a0810182526005546080820190815281528151602081810184526006548252808301919091528251808201845260075481528284015282519081019092526008548252606081019190915290565b6060806060600080600001549050606081604051908082528060200260200182016040528015610db1578160200160208202803883390190505b509050606082604051908082528060200260200182016040528015610df057816020015b610ddd612d62565b815260200190600190039081610dd55790505b509050606083604051908082528060200260200182016040528015610e2f57816020015b610e1c612d62565b815260200190600190039081610e145790505b50905060005b84811015610ed657610e4681610831565b848281518110610e5257fe5b602002602001019073ffffffffffffffffffffffffffffffffffffffff16908173ffffffffffffffffffffffffffffffffffffffff1681525050610e968982610c12565b838281518110610ea257fe5b6020026020010181905250610eb78982611337565b828281518110610ec357fe5b6020908102919091010152600101610e35565b50919790965090945092505050565b610eed6110a2565b610ef657600080fd5b600b5460405160009173ffffffffffffffffffffffffffffffffffffffff16907f8be0079c531659141344cd1fd0a4f28419497f9722a3daafe3b4186f6b6457e0908390a3600b80547fffffffffffffffffffffffff0000000000000000000000000000000000000000169055565b610f6d612d4f565b506040805160208101909152600854815290565b60005b8151811015610b14576000828281518110610f9b57fe5b60200260200101516000015190506000838381518110610fb757fe5b60209081029190910181015181015133600081815260038452604080822073ffffffffffffffffffffffffffffffffffffffff8816835290945283902080547fffffffffffffffffffffffffffffffffffffffffffffffffffffffffffffff001683151517905591519092507f4d7f317d2088d039c2a95a09fcbf9cc9191fad5905f883c937cc3d317c4a6327906110529085908590613c78565b60405180910390a25050600101610f84565b61106c612d4f565b6110758261183e565b61082960008363ffffffff611ac116565b600b5473ffffffffffffffffffffffffffffffffffffffff1690565b600b5473ffffffffffffffffffffffffffffffffffffffff16331490565b60006110ca6110a2565b6110d357600080fd5b600c8054600101908190556040517fb25328e000000000000000000000000000000000000000000000000000000000815273__AdminImpl_____________________________9063b25328e090610a009060009088908890600401613eb6565b61113b6110a2565b61114457600080fd5b600c8054600101908190556040517f48d0648400000000000000000000000000000000000000000000000000000000815273__AdminImpl_____________________________906348d06484906111aa906000908a908a908a908a908a90600401613e0d565b60006040518083038186803b1580156111c257600080fd5b505af41580156111d6573d6000803e3d6000fd5b50505050600c5481146111e857600080fd5b505050505050565b600c8054600101908190556040517fbd76ecfd00000000000000000000000000000000000000000000000000000000815273__OperationImpl_________________________9063bd76ecfd906107d49060009087908790600401613e67565b611258612dd8565b611260612d79565b611268612d4f565b611270612d4f565b6112798561183e565b6112828561154a565b61128b86610cc2565b61129487611064565b61129d886117da565b93509350935093509193509193565b6112b46110a2565b6112bd57600080fd5b600c8054600101908190556040517f54dd351600000000000000000000000000000000000000000000000000000000815273__AdminImpl_____________________________906354dd351690610ad6906000908690600401613e9b565b611323612d4f565b506040805160208101909152600654815290565b61133f612d62565b6113488261183e565b610c0961135d6000858563ffffffff61196916565b61137284610ce860008263ffffffff6119e516565b611c0a565b61137f612d62565b6113888261183e565b61082960008363ffffffff611cbb16565b6113a1612d4f565b6113aa8361183e565b6113b38261183e565b610c096000848463ffffffff611d1b16565b6113cd612d62565b6113d68261183e565b61082960008363ffffffff611db116565b6113ef612d79565b6113f88261183e565b61082960008363ffffffff6119e516565b6000610829818363ffffffff611e7716565b611423612d4f565b506040805160208101909152600754815290565b61143f6110a2565b61144857600080fd5b600c8054600101908190556040517f8c5dabd100000000000000000000000000000000000000000000000000000000815273__AdminImpl_____________________________90638c5dabd1906107d49060009087908790600401613eec565b6114b0612e4b565b506040805160c08101825260095467ffffffffffffffff808216835268010000000000000000808304821660208501527001000000000000000000000000000000008304821694840194909452780100000000000000000000000000000000000000000000000090910481166060830152600a549081166080830152919091046fffffffffffffffffffffffffffffffff1660a082015290565b611552612dd8565b61155b8261183e565b50600090815260016020818152604092839020835161010081018552815473ffffffffffffffffffffffffffffffffffffffff908116825285518087018752948301546fffffffffffffffffffffffffffffffff808216875270010000000000000000000000000000000090910416858501528184019490945284516060808201875260028401546bffffffffffffffffffffffff80821684526c01000000000000000000000000820416838701527801000000000000000000000000000000000000000000000000900463ffffffff168288015282870191909152600383015485169082015260048201549093166080840152835180830185526005820154815260a084015283519182019093526006830154815260c082015260079091015460ff16151560e082015290565b6116916110a2565b61169a57600080fd5b600c8054600101908190556040517f10c87b0600000000000000000000000000000000000000000000000000000000815273__AdminImpl_____________________________906310c87b06906107d49060009087908790600401613ed1565b6117026110a2565b61170b57600080fd5b600c8054600101908190556040517fe80f802400000000000000000000000000000000000000000000000000000000815273__AdminImpl_____________________________9063e80f8024906107d49060009087908790600401613de5565b6117736110a2565b61177c57600080fd5b61178581611eb9565b50565b611790612d4f565b611798612d4f565b6108d983600161189d565b6117ab612d4f565b6117b48261183e565b506000908152600160209081526040918290208251918201909252600590910154815290565b6117e2612d4f565b6117eb8261183e565b6108298261180060008263ffffffff6119e516565b6000919063ffffffff611f6716565b73ffffffffffffffffffffffffffffffffffffffff166000908152600491909101602052604090205460ff1690565b61178560008001548210600d547f4d61726b6574204f4f420000000000000000000000000000000000000000000061208e565b6000908152600191909101602052604090205473ffffffffffffffffffffffffffffffffffffffff1690565b6118a5612d4f565b6118ad612d4f565b6000546118b8612e80565b6118c18261213f565b905060005b82811015611908576118e86118e36000898463ffffffff61196916565b612195565b611900576118fe8260008363ffffffff6121af16565b505b6001016118c6565b5061191c600087838863ffffffff61228916565b9350935050509250929050565b73ffffffffffffffffffffffffffffffffffffffff808316600090815260038501602090815260408083209385168352929052205460ff165b9392505050565b611971612d62565b50815173ffffffffffffffffffffffffffffffffffffffff1660009081526002840160209081526040808320828601518452825280832084845282529182902082518084019093525460ff8116151583526fffffffffffffffffffffffffffffffff61010090910416908201529392505050565b6119ed612d79565b506000908152600191909101602090815260409182902082516060810184526002909101546bffffffffffffffffffffffff80821683526c0100000000000000000000000082041692820192909252780100000000000000000000000000000000000000000000000090910463ffffffff169181019190915290565b611a71612d79565b611a79612d4f565b611a8a85858563ffffffff611f6716565b9050611ab88382611aa1888863ffffffff611cbb16565b604080516020810190915260078a015481526123dc565b95945050505050565b611ac9612d4f565b600082815260018401602052604090206003015473ffffffffffffffffffffffffffffffffffffffff16611afb612d4f565b73ffffffffffffffffffffffffffffffffffffffff82166341976e09611b27878763ffffffff61187116565b6040518263ffffffff167c0100000000000000000000000000000000000000000000000000000000028152600401611b5f9190613c6a565b60206040518083038186803b158015611b7757600080fd5b505afa158015611b8b573d6000803e3d6000fd5b505050506040513d601f19601f82011682018060405250611baf91908101906134cc565b8051909150611c029015157f53746f72616765000000000000000000000000000000000000000000000000007f50726963652063616e6e6f74206265207a65726f00000000000000000000000087612546565b949350505050565b611c12612d62565b602083015183516fffffffffffffffffffffffffffffffff9091169015611c7e57604080518082019091526001815260208481015190820190611c739084906bffffffffffffffffffffffff16670de0b6b3a764000063ffffffff6125e416565b815250915050610c0c565b604080518082019091526000815283516020820190611c739084906bffffffffffffffffffffffff16670de0b6b3a764000063ffffffff61260616565b611cc3612d62565b506000818152600180840160209081526040928390208351808501909452909101546fffffffffffffffffffffffffffffffff8082168452700100000000000000000000000000000000909104169082015292915050565b611d23612d4f565b60068085015460008581526001870160209081526040918290208251918201909252920154825290611d5f908290611d5a90612653565b61268a565b9050611d9a81611d5a876001016000878152602001908152602001600020600601604051806020016040529081600082015481525050612653565b604080516020810190915290815295945050505050565b611db9612d62565b611dc1612d79565b611dd1848463ffffffff6119e516565b9050611ddb612d62565b611deb858563ffffffff611cbb16565b90506000611dff868663ffffffff61187116565b9050611e09612d62565b6040518060400160405280600115158152602001611e2784306126a3565b90529050611e33612d62565b611e3b612d62565b611e458587612748565b9092509050611e6a82611e5e858463ffffffff6127f016565b9063ffffffff6127f016565b9998505050505050505050565b805173ffffffffffffffffffffffffffffffffffffffff1660009081526002929092016020908152604080842092820151845291905290206001015460ff1690565b73ffffffffffffffffffffffffffffffffffffffff8116611ed957600080fd5b600b5460405173ffffffffffffffffffffffffffffffffffffffff8084169216907f8be0079c531659141344cd1fd0a4f28419497f9722a3daafe3b4186f6b6457e090600090a3600b80547fffffffffffffffffffffffff00000000000000000000000000000000000000001673ffffffffffffffffffffffffffffffffffffffff92909216919091179055565b611f6f612d4f565b611f77612d62565b611f87858563ffffffff611cbb16565b9050611f91612d62565b611f99612d62565b611fa38386612748565b91509150611faf612d4f565b600087815260018901602052604090206004015473ffffffffffffffffffffffffffffffffffffffff1663e8177dcf611fee8a8a63ffffffff61187116565b846020015186602001516040518463ffffffff167c010000000000000000000000000000000000000000000000000000000002815260040161203293929190613c93565b60206040518083038186803b15801561204a57600080fd5b505afa15801561205e573d6000803e3d6000fd5b505050506040513d601f19601f8201168201806040525061208291908101906134cc565b98975050505050505050565b826108125761209c8261280a565b7f3a200000000000000000000000000000000000000000000000000000000000006120c68361280a565b6040516020016120d893929190613be4565b604080517fffffffffffffffffffffffffffffffffffffffffffffffffffffffffffffffe0818403018152908290527f08c379a000000000000000000000000000000000000000000000000000000000825261213691600401613d1e565b60405180910390fd5b612147612e80565b60405180602001604052808360405190808252806020026020018201604052801561218c57816020015b612179612e93565b8152602001906001900390816121715790505b50905292915050565b602001516fffffffffffffffffffffffffffffffff161590565b60006121c1848363ffffffff61290516565b156121ce57506000611962565b6121de838363ffffffff611ac116565b84518051849081106121ec57fe5b602090810291909101810151604090810192909252600084815260018601909152206007015460ff161561227f5760018460000151838151811061222c57fe5b6020908102919091010151901515905261224c838363ffffffff611cbb16565b51845180518490811061225b57fe5b6020908102919091018101516fffffffffffffffffffffffffffffffff9092169101525b5060019392505050565b612291612d4f565b612299612d4f565b6122a1612d4f565b6122a9612d4f565b60006122b487612933565b905060005b818110156123cd576122d1888263ffffffff61290516565b6122da576123c5565b6122e2612d62565b6122f38b8b8463ffffffff61293816565b90506122fe816129a7565b1561230957506123c5565b600061233061231e8b8563ffffffff6129af16565b5160208401519063ffffffff6129d916565b905061233a612d4f565b612342612a00565b9050891561237a57600084815260018e0160209081526040918290208251918201909252600590910154815261237790612653565b90505b8251156123a35761239c61238e8383612a22565b88519063ffffffff612a3b16565b87526123c1565b6123be6123b0838361268a565b87519063ffffffff612a3b16565b86525b5050505b6001016122b9565b50919890975095505050505050565b6123e4612d79565b6123ec612d62565b6123f4612d62565b6123fe8588612748565b91509150600061240c612a4d565b905060006124446124368a6040015163ffffffff168463ffffffff16612a5d90919063ffffffff16565b89519063ffffffff6129d916565b90506000612451856129a7565b1561245e57506000612490565b612468828861268a565b90508460200151846020015110156124905761248d81856020015187602001516125e4565b90505b8181111561249a57fe5b60408051606081019091528a5181906124e3906124de906bffffffffffffffffffffffff166124d28188670de0b6b3a76400006125e4565b9063ffffffff612a3b16565b612a72565b6bffffffffffffffffffffffff908116825260208d81015192019161251a916124de91166124d28187670de0b6b3a76400006125e4565b6bffffffffffffffffffffffff1681526020018463ffffffff1681525095505050505050949350505050565b836125de576125548361280a565b7f3a2000000000000000000000000000000000000000000000000000000000000061257e8461280a565b7f203c0000000000000000000000000000000000000000000000000000000000006125a885612ad0565b6040516120d89594939291907f3e0000000000000000000000000000000000000000000000000000000000000090602001613c0c565b50505050565b6000611c02826125fa868663ffffffff6129d916565b9063ffffffff612bfe16565b6000831580612613575082155b1561262a57612623600083612bfe565b9050611962565b611c0260016124d2846125fa836126478a8a63ffffffff6129d916565b9063ffffffff612a5d16565b61265b612d4f565b60408051602081019091528251819061268290670de0b6b3a764000063ffffffff612a3b16565b905292915050565b6000610c09838360000151670de0b6b3a76400006125e4565b6040517f70a0823100000000000000000000000000000000000000000000000000000000815260009073ffffffffffffffffffffffffffffffffffffffff8416906370a08231906126f8908590600401613c6a565b60206040518083038186803b15801561271057600080fd5b505afa158015612724573d6000803e3d6000fd5b505050506040513d601f19601f82011682018060405250610c099190810190613508565b612750612d62565b612758612d62565b612760612d62565b5060408051808201909152600181526020858101516fffffffffffffffffffffffffffffffff1690820152612793612d62565b50604080518082019091526000815285516fffffffffffffffffffffffffffffffff1660208201526127c3612d62565b6127cd8387611c0a565b90506127d7612d62565b6127e18388611c0a565b91989197509095505050505050565b6127f8612d62565b610c098361280584612c20565b612c47565b6060808260405160200161281e9190613bcf565b604080517fffffffffffffffffffffffffffffffffffffffffffffffffffffffffffffffe0818403018152919052905060205b80156128ee5781517fffffffffffffffffffffffffffffffffffffffffffffffffffffffffffffffff9091019082908290811061288a57fe5b6020910101517f010000000000000000000000000000000000000000000000000000000000000090819004027fff0000000000000000000000000000000000000000000000000000000000000016156128e9576001018152905061082c565b612851565b505060408051600081526020810190915292915050565b60008260000151828151811061291757fe5b6020026020010151604001516000015160001415905092915050565b515190565b612940612d62565b612948612d62565b61295985858563ffffffff61196916565b905061296481612195565b1561297957612971612cd9565b915050611962565b612981612d79565b612991868563ffffffff6119e516565b905061299d8282611c0a565b9695505050505050565b602001511590565b6129b7612d4f565b82518051839081106129c557fe5b602002602001015160400151905092915050565b6000826129e857506000610c0c565b828202828482816129f557fe5b0414610c0957600080fd5b612a08612d4f565b506040805160208101909152670de0b6b3a7640000815290565b6000610c0983670de0b6b3a764000084600001516125e4565b600082820183811015610c0957600080fd5b6000612a5842612cf9565b905090565b600082821115612a6c57600080fd5b50900390565b6000816108296bffffffffffffffffffffffff821682147f4d617468000000000000000000000000000000000000000000000000000000007f556e73616665206361737420746f2075696e743936000000000000000000000061208e565b606081612b11575060408051808201909152600181527f3000000000000000000000000000000000000000000000000000000000000000602082015261082c565b8160005b8115612b2957600101600a82049150612b15565b6060816040519080825280601f01601f191660200182016040528015612b56576020820181803883390190505b508593509050815b8015612bf5577fffffffffffffffffffffffffffffffffffffffffffffffffffffffffffffffff01600a84066030017f010000000000000000000000000000000000000000000000000000000000000002828281518110612bbb57fe5b60200101907effffffffffffffffffffffffffffffffffffffffffffffffffffffffffffff1916908160001a905350600a84049350612b5e565b50949350505050565b6000808211612c0c57600080fd5b6000828481612c1757fe5b04949350505050565b612c28612d62565b5060408051808201909152815115815260208083015190820152919050565b612c4f612d62565b612c57612d62565b8251845115159015151415612c8a5783511515815260208085015190840151612c809190612a3b565b6020820152610c09565b8260200151846020015110612cb35783511515815260208085015190840151612c809190612a5d565b82511515815260208084015190850151612ccd9190612a5d565b60208201529392505050565b612ce1612d62565b50604080518082019091526000808252602082015290565b60008161082963ffffffff821682147f4d617468000000000000000000000000000000000000000000000000000000007f556e73616665206361737420746f2075696e743332000000000000000000000061208e565b6040518060200160405280600081525090565b604080518082019091526000808252602082015290565b604080516060810182526000808252602082018190529181019190915290565b6040518060800160405280612dac612d4f565b8152602001612db9612d4f565b8152602001612dc6612d4f565b8152602001612dd3612d4f565b905290565b604051806101600160405280600073ffffffffffffffffffffffffffffffffffffffff168152602001612e09612d62565b8152602001612e16612d79565b81526000602082018190526040820152606001612e31612d4f565b8152602001612e3e612d4f565b8152600060209091015290565b6040805160c081018252600080825260208201819052918101829052606081018290526080810182905260a081019190915290565b6040518060200160405280606081525090565b6040805160608101825260008082526020820152908101612dd3612d4f565b6000610c098235614015565b600082601f830112612ecf57600080fd5b8135612ee2612edd82613f9b565b613f74565b81815260209384019390925082018360005b83811015612f205781358601612f0a888261308d565b8452506020928301929190910190600101612ef4565b5050505092915050565b600082601f830112612f3b57600080fd5b8135612f49612edd82613f9b565b91508181835260208401935060208101905083856040840282011115612f6e57600080fd5b60005b83811015612f205781612f84888261320b565b84525060209092019160409190910190600101612f71565b600082601f830112612fad57600080fd5b8135612fbb612edd82613f9b565b91508181835260208401935060208101905083856040840282011115612fe057600080fd5b60005b83811015612f205781612ff68882613252565b84525060209092019160409190910190600101612fe3565b6000610c098235614020565b600082601f83011261302b57600080fd5b8135613039612edd82613fbc565b9150808252602083016020830185838301111561305557600080fd5b613060838284614139565b50505092915050565b6000610c0982356140ef565b6000610c0982356140fa565b6000610c098235614109565b600061016082840312156130a057600080fd5b6130ab610100613f74565b905060006130b98484613075565b82525060206130ca848483016132b7565b60208301525060406130de84828501613169565b60408301525060c06130f2848285016132b7565b60608301525060e0613106848285016132b7565b60808301525061010061311b84828501612eb2565b60a083015250610120613130848285016132b7565b60c08301525061014082013567ffffffffffffffff81111561315157600080fd5b61315d8482850161301a565b60e08301525092915050565b60006080828403121561317b57600080fd5b6131856080613f74565b90506000613193848461300e565b82525060206131a484848301613081565b60208301525060406131b884828501613081565b60408301525060606131cc848285016132b7565b60608301525092915050565b6000602082840312156131ea57600080fd5b6131f46020613f74565b9050600061320284846132b7565b82525092915050565b60006040828403121561321d57600080fd5b6132276040613f74565b905060006132358484612eb2565b8252506020613246848483016132b7565b60208301525092915050565b60006040828403121561326457600080fd5b61326e6040613f74565b9050600061327c8484612eb2565b82525060206132468484830161300e565b60006020828403121561329f57600080fd5b6132a96020613f74565b9050600061320284846132c3565b6000610c09823561406f565b6000610c09825161406f565b6000602082840312156132e157600080fd5b6000611c028484612eb2565b6000806040838503121561330057600080fd5b600061330c8585612eb2565b925050602061331d85828601612eb2565b9150509250929050565b6000806040838503121561333a57600080fd5b60006133468585612eb2565b925050602061331d8582860161300e565b600080600080600060a0868803121561336f57600080fd5b600061337b8888612eb2565b955050602061338c88828901613069565b945050604061339d88828901613069565b93505060606133ae888289016131d8565b92505060806133bf888289016131d8565b9150509295509295909350565b600080604083850312156133df57600080fd5b823567ffffffffffffffff8111156133f657600080fd5b61340285828601612f2a565b925050602083013567ffffffffffffffff81111561341f57600080fd5b61331d85828601612ebe565b60006020828403121561343d57600080fd5b813567ffffffffffffffff81111561345457600080fd5b611c0284828501612f9c565b60006020828403121561347257600080fd5b6000611c0284846131d8565b60006040828403121561349057600080fd5b6000611c02848461320b565b600080606083850312156134af57600080fd5b60006134bb858561320b565b925050604061331d858286016132b7565b6000602082840312156134de57600080fd5b6000611c02848461328d565b6000602082840312156134fc57600080fd5b6000611c0284846132b7565b60006020828403121561351a57600080fd5b6000611c0284846132c3565b6000806040838503121561353957600080fd5b600061330c85856132b7565b6000806040838503121561355857600080fd5b600061334685856132b7565b6000806040838503121561357757600080fd5b600061358385856132b7565b925050602061331d85828601613069565b600080604083850312156135a757600080fd5b60006135b385856132b7565b925050602061331d858286016131d8565b600080604083850312156135d757600080fd5b60006135e385856132b7565b925050602061331d858286016132b7565b60006136008383613640565b505060200190565b6000610c0983836138ac565b600061362083836139e0565b505060400190565b60006136208383613a9e565b60006136208383613b91565b61364981614015565b82525050565b600061365a82614008565b613664818561400c565b935061366f83614002565b60005b8281101561369a576136858683516135f4565b955061369082614002565b9150600101613672565b5093949350505050565b60006136af82614008565b6136b9818561400c565b9350836020820285016136cb85614002565b60005b848110156137025783830388526136e6838351613608565b92506136f182614002565b6020989098019791506001016136ce565b50909695505050505050565b600061371982614008565b613723818561400c565b935061372e83614002565b60005b8281101561369a57613744868351613614565b955061374f82614002565b9150600101613731565b600061376482614008565b61376e818561400c565b935061377983614002565b60005b8281101561369a5761378f868351613628565b955061379a82614002565b915060010161377c565b60006137af82614008565b6137b9818561400c565b93506137c483614002565b60005b8281101561369a576137da868351613634565b95506137e582614002565b91506001016137c7565b61364981614020565b61364961380482614025565b61406f565b6136496138048261404a565b6136496138048261406f565b600061382c82614008565b613836818561082c565b9350613846818560208601614145565b9290920192915050565b600061385b82614008565b613865818561400c565b9350613875818560208601614145565b61387e81614171565b9093019392505050565b613649816140ef565b61364981614118565b61364981614123565b6136498161412e565b80516000906101608401906138c18582613891565b5060208301516138d46020860182613bab565b5060408301516138e7604086018261394e565b5060608301516138fa60c0860182613bab565b50608083015161390d60e0860182613bab565b5060a0830151613921610100860182613640565b5060c0830151613935610120860182613bab565b5060e0830151848203610140860152611ab88282613850565b8051608083019061395f84826137ef565b506020820151613972602085018261389a565b506040820151613985604085018261389a565b5060608201516125de6060850182613bab565b805160208301906125de8482613bab565b805160608301906139ba8482613bc6565b5060208201516139cd6020850182613bc6565b5060408201516125de6040850182613bb4565b805160408301906139f18482613640565b5060208201516125de6020850182613bab565b8051610160830190613a168482613640565b506020820151613a296020850182613b80565b506040820151613a3c60608501826139a9565b506060820151613a4f60c0850182613888565b506080820151613a6260e0850182613888565b5060a0820151613a76610100850182613998565b5060c0820151613a8a610120850182613998565b5060e08201516125de6101408501826137ef565b80516040830190613aaf84826137ef565b5060208201516125de6020850182613ba2565b805160c0830190613ad38482613bbd565b506020820151613ae66020850182613bbd565b506040820151613af96040850182613bbd565b506060820151613b0c6060850182613bbd565b506080820151613b1f6080850182613bbd565b5060a08201516125de60a0850182613ba2565b80516080830190613b438482613998565b506020820151613b566020850182613998565b506040820151613b696040850182613998565b5060608201516125de6060850182613998565b9052565b80516040830190613aaf8482613ba2565b805160408301906139f184826137ef565b6136498161409a565b6136498161406f565b613649816140c8565b613649816140d1565b613649816140de565b6000613bdb8284613815565b50602001919050565b6000613bf08286613821565b9150613bfc8285613809565b600282019150611ab88284613821565b6000613c188289613821565b9150613c248288613809565b600282019150613c348287613821565b9150613c408286613809565b600282019150613c508285613821565b9150613c5c82846137f8565b506001019695505050505050565b60208101610c0c8284613640565b60408101613c868285613640565b61196260208301846137ef565b60608101613ca18286613640565b613cae6020830185613bab565b611c026040830184613bab565b60608082528101613ccc818661364f565b90508181036020830152613ce08185613759565b90508181036040830152611ab881846137a4565b60208101610c0c82846137ef565b60208101610c0c8284613888565b60208101610c0c82846138a3565b60208082528101610c098184613850565b60208101610c0c8284613998565b60608101610c0c82846139a9565b6101608101610c0c8284613a04565b6102008101613d698287613a04565b613d776101608301866139a9565b613d856101c0830185613998565b611ab86101e0830184613998565b60408101610c0c8284613a9e565b60c08101610c0c8284613ac2565b60808101610c0c8284613b32565b60608101613dcb8286613b7c565b613dd86020830185613640565b611c026040830184613640565b60608101613df38286613b7c565b613e006020830185613640565b611c0260408301846137ef565b60c08101613e1b8289613b7c565b613e286020830188613640565b613e356040830187613888565b613e426060830186613888565b613e4f6080830185613998565b613e5c60a0830184613998565b979650505050505050565b60608101613e758286613b7c565b8181036020830152613e87818561370e565b90508181036040830152611ab881846136a4565b60408101613ea98285613b7c565b6119626020830184613998565b60608101613ec48286613b7c565b613dd86020830185613bab565b60608101613edf8286613b7c565b613e006020830185613bab565b60608101613efa8286613b7c565b613f076020830185613bab565b611c026040830184613888565b60608101613f228286613b7c565b613f2f6020830185613bab565b611c026040830184613998565b60408101610c0c8284613b80565b60408101613ea98285613998565b60408101610c0c8284613b91565b60208101610c0c8284613bab565b60405181810167ffffffffffffffff81118282101715613f9357600080fd5b604052919050565b600067ffffffffffffffff821115613fb257600080fd5b5060209081020190565b600067ffffffffffffffff821115613fd357600080fd5b506020601f919091017fffffffffffffffffffffffffffffffffffffffffffffffffffffffffffffffe0160190565b60200190565b5190565b90815260200190565b6000610829826140af565b151590565b7fff000000000000000000000000000000000000000000000000000000000000001690565b7fffff0000000000000000000000000000000000000000000000000000000000001690565b90565b60006009821061407e57fe5b5090565b60006002821061407e57fe5b60006003821061407e57fe5b6fffffffffffffffffffffffffffffffff1690565b73ffffffffffffffffffffffffffffffffffffffff1690565b63ffffffff1690565b67ffffffffffffffff1690565b6bffffffffffffffffffffffff1690565b600061082982614015565b60006009821061407e57600080fd5b60006002821061407e57600080fd5b600061082982614072565b600061082982614082565b60006108298261408e565b82818337506000910152565b60005b83811015614160578181015183820152602001614148565b838111156125de5750506000910152565b601f017fffffffffffffffffffffffffffffffffffffffffffffffffffffffffffffffe0169056fea265627a7a723058201ea2e9a48ca389d854112f465d6bbc0f7ebe24b83b24e95d32270915a54431106c6578706572696d656e74616cf50037",
    "source": "/*\n\n    Copyright 2019 dYdX Trading Inc.\n\n    Licensed under the Apache License, Version 2.0 (the \"License\");\n    you may not use this file except in compliance with the License.\n    You may obtain a copy of the License at\n\n    http://www.apache.org/licenses/LICENSE-2.0\n\n    Unless required by applicable law or agreed to in writing, software\n    distributed under the License is distributed on an \"AS IS\" BASIS,\n    WITHOUT WARRANTIES OR CONDITIONS OF ANY KIND, either express or implied.\n    See the License for the specific language governing permissions and\n    limitations under the License.\n\n*/\n\npragma solidity 0.5.7;\npragma experimental ABIEncoderV2;\n\nimport { Admin } from \"./Admin.sol\";\nimport { Getters } from \"./Getters.sol\";\nimport { Operation } from \"./Operation.sol\";\nimport { Permission } from \"./Permission.sol\";\nimport { State } from \"./State.sol\";\nimport { Storage } from \"./lib/Storage.sol\";\n\n\n/**\n * @title SoloMargin\n * @author dYdX\n *\n * Main contract that inherits from other contracts\n */\ncontract SoloMargin is\n    State,\n    Admin,\n    Getters,\n    Operation,\n    Permission\n{\n    // ============ Constructor ============\n\n    constructor(\n        Storage.RiskParams memory riskParams,\n        Storage.RiskLimits memory riskLimits\n    )\n        public\n    {\n        g_state.riskParams = riskParams;\n        g_state.riskLimits = riskLimits;\n    }\n}\n",
    "sourcePath": "/home/dydx/app/contracts/protocol/SoloMargin.sol",
    "compiler": {
        "name": "solc",
        "version": "0.5.7+commit.6da8b019.Emscripten.clang"
    },
    "schemaVersion": "3.0.23",
    "updatedAt": "2022-11-11T03:47:08.199Z",
    "networkType": "ethereum",
    "devdoc": {
        "author": "dYdX * Main contract that inherits from other contracts",
        "methods": {
            "getAccountBalances((address,uint256))": {
                "params": {
                    "account": "The account to query"
                },
                "return": "The following values:                  - The ERC20 token address for each market                  - The account's principal value for each market                  - The account's (supplied or borrowed) number of tokens for each market"
            },
            "getAccountPar((address,uint256),uint256)": {
                "params": {
                    "account": "The account to query",
                    "marketId": "The market to query"
                },
                "return": "The principal value"
            },
            "getAccountStatus((address,uint256))": {
                "params": {
                    "account": "The account to query"
                },
                "return": "The account's status"
            },
            "getAccountValues((address,uint256))": {
                "params": {
                    "account": "The account to query"
                },
                "return": "The following values:                  - The supplied value of the account                  - The borrowed value of the account"
            },
            "getAccountWei((address,uint256),uint256)": {
                "params": {
                    "account": "The account to query",
                    "marketId": "The market to query"
                },
                "return": "The token amount"
            },
            "getAdjustedAccountValues((address,uint256))": {
                "params": {
                    "account": "The account to query"
                },
                "return": "The following values:                  - The supplied value of the account (adjusted for marginPremium)                  - The borrowed value of the account (adjusted for marginPremium)"
            },
            "getEarningsRate()": {
                "return": "The global earnings rate"
            },
            "getIsGlobalOperator(address)": {
                "params": {
                    "operator": "The address to query"
                },
                "return": "True if operator is a global operator"
            },
            "getIsLocalOperator(address,address)": {
                "params": {
                    "operator": "The possible operator",
                    "owner": "The owner of the accounts"
                },
                "return": "True if operator is approved for owner's accounts"
            },
            "getLiquidationSpread()": {
                "return": "The global liquidation spread"
            },
            "getLiquidationSpreadForPair(uint256,uint256)": {
                "params": {
                    "heldMarketId": "The market for which the account has collateral",
                    "owedMarketId": "The market for which the account has borrowed tokens"
                },
                "return": "The adjusted liquidation spread"
            },
            "getMarginRatio()": {
                "return": "The global margin-ratio"
            },
            "getMarket(uint256)": {
                "params": {
                    "marketId": "The market to query"
                },
                "return": "A Storage.Market struct with the current state of the market"
            },
            "getMarketCachedIndex(uint256)": {
                "params": {
                    "marketId": "The market to query"
                },
                "return": "The most recent index"
            },
            "getMarketCurrentIndex(uint256)": {
                "params": {
                    "marketId": "The market to query"
                },
                "return": "The estimated current index"
            },
            "getMarketInterestRate(uint256)": {
                "params": {
                    "marketId": "The market to query"
                },
                "return": "The current interest rate"
            },
            "getMarketInterestSetter(uint256)": {
                "params": {
                    "marketId": "The market to query"
                },
                "return": "The interest-setter address"
            },
            "getMarketIsClosing(uint256)": {
                "params": {
                    "marketId": "The market to query"
                },
                "return": "True if the market is closing"
            },
            "getMarketMarginPremium(uint256)": {
                "params": {
                    "marketId": "The market to query"
                },
                "return": "The market's margin premium"
            },
            "getMarketPrice(uint256)": {
                "params": {
                    "marketId": "The market to query"
                },
                "return": "The price of each atomic unit of the token"
            },
            "getMarketPriceOracle(uint256)": {
                "params": {
                    "marketId": "The market to query"
                },
                "return": "The price oracle address"
            },
            "getMarketSpreadPremium(uint256)": {
                "params": {
                    "marketId": "The market to query"
                },
                "return": "The market's spread premium"
            },
            "getMarketTokenAddress(uint256)": {
                "params": {
                    "marketId": "The market to query"
                },
                "return": "The token address"
            },
            "getMarketTotalPar(uint256)": {
                "params": {
                    "marketId": "The market to query"
                },
                "return": "The total principal amounts"
            },
            "getMarketWithInfo(uint256)": {
                "params": {
                    "marketId": "The market to query"
                },
                "return": "A tuple containing the values:                   - A Storage.Market struct with the current state of the market                   - The current estimated interest index                   - The current token price                   - The current market interest rate"
            },
            "getMinBorrowedValue()": {
                "return": "The global minimum borrow value"
            },
            "getNumExcessTokens(uint256)": {
                "params": {
                    "marketId": "The market to query"
                },
                "return": "The number of excess tokens"
            },
            "getNumMarkets()": {
                "return": "The number of markets"
            },
            "getRiskLimits()": {
                "return": "All global risk parameter limnits"
            },
            "getRiskParams()": {
                "return": "All global risk parameters"
            },
            "isOwner()": {
                "return": "true if `msg.sender` is the owner of the contract."
            },
            "operate((address,uint256)[],(uint8,uint256,(bool,uint8,uint8,uint256),uint256,uint256,address,uint256,bytes)[])": {
                "params": {
                    "accounts": "A list of all accounts that will be used in this operation. Cannot contain                  duplicates. In each action, the relevant account will be referred-to by its                  index in the list.",
                    "actions": "An ordered list of all actions that will be taken in this operation. The                  actions will be processed in order."
                }
            },
            "owner()": {
                "return": "the address of the owner."
            },
            "renounceOwnership()": {
                "details": "Allows the current owner to relinquish control of the contract."
            },
            "setOperators((address,bool)[])": {
                "params": {
                    "args": "A list of OperatorArgs which have an address and a boolean. The boolean value              denotes whether to approve (true) or revoke approval (false) for that address."
                }
            },
            "transferOwnership(address)": {
                "details": "Allows the current owner to transfer control of the contract to a newOwner.",
                "params": {
                    "newOwner": "The address to transfer ownership to."
                }
            }
        },
        "title": "SoloMargin"
    },
    "userdoc": {
        "methods": {
            "getAccountBalances((address,uint256))": {
                "notice": "Get an account's summary for each market."
            },
            "getAccountPar((address,uint256),uint256)": {
                "notice": "Get the principal value for a particular account and market."
            },
            "getAccountStatus((address,uint256))": {
                "notice": "Get the status of an account (Normal, Liquidating, or Vaporizing)."
            },
            "getAccountValues((address,uint256))": {
                "notice": "Get the total supplied and total borrowed value of an account."
            },
            "getAccountWei((address,uint256),uint256)": {
                "notice": "Get the token balance for a particular account and market."
            },
            "getAdjustedAccountValues((address,uint256))": {
                "notice": "Get the total supplied and total borrowed values of an account adjusted by the marginPremium of each market. Supplied values are divided by (1 + marginPremium) for each market and borrowed values are multiplied by (1 + marginPremium) for each market. Comparing these adjusted values gives the margin-ratio of the account which will be compared to the global margin-ratio when determining if the account can be liquidated."
            },
            "getEarningsRate()": {
                "notice": "Get the global earnings-rate variable that determines what percentage of the interest paid by borrowers gets passed-on to suppliers."
            },
            "getIsGlobalOperator(address)": {
                "notice": "Return true if a particular address is approved as a global operator. Such an address can act on any account as if it were the operator's own."
            },
            "getIsLocalOperator(address,address)": {
                "notice": "Return true if a particular address is approved as an operator for an owner's accounts. Approved operators can act on the accounts of the owner as if it were the operator's own."
            },
            "getLiquidationSpread()": {
                "notice": "Get the global liquidation spread. This is the spread between oracle prices that incentivizes the liquidation of risky positions."
            },
            "getLiquidationSpreadForPair(uint256,uint256)": {
                "notice": "Get the adjusted liquidation spread for some market pair. This is equal to the global liquidation spread multiplied by (1 + spreadPremium) for each of the two markets."
            },
            "getMarginRatio()": {
                "notice": "Get the global minimum margin-ratio that every position must maintain to prevent being liquidated."
            },
            "getMarket(uint256)": {
                "notice": "Get basic information about a particular market."
            },
            "getMarketCachedIndex(uint256)": {
                "notice": "Get the most recently cached interest index for a market."
            },
            "getMarketCurrentIndex(uint256)": {
                "notice": "Get the interest index for a market if it were to be updated right now."
            },
            "getMarketInterestRate(uint256)": {
                "notice": "Get the current borrower interest rate for a market."
            },
            "getMarketInterestSetter(uint256)": {
                "notice": "Get the interest-setter address for a market."
            },
            "getMarketIsClosing(uint256)": {
                "notice": "Return true if a particular market is in closing mode. Additional borrows cannot be taken from a market that is closing."
            },
            "getMarketMarginPremium(uint256)": {
                "notice": "Get the margin premium for a market. A margin premium makes it so that any positions that include the market require a higher collateralization to avoid being liquidated."
            },
            "getMarketPrice(uint256)": {
                "notice": "Get the price of the token for a market."
            },
            "getMarketPriceOracle(uint256)": {
                "notice": "Get the price oracle address for a market."
            },
            "getMarketSpreadPremium(uint256)": {
                "notice": "Get the spread premium for a market. A spread premium makes it so that any liquidations that include the market have a higher spread than the global default."
            },
            "getMarketTokenAddress(uint256)": {
                "notice": "Get the ERC20 token address for a market."
            },
            "getMarketTotalPar(uint256)": {
                "notice": "Get the total principal amounts (borrowed and supplied) for a market."
            },
            "getMarketWithInfo(uint256)": {
                "notice": "Get comprehensive information about a particular market."
            },
            "getMinBorrowedValue()": {
                "notice": "Get the global minimum-borrow value which is the minimum value of any new borrow on Solo."
            },
            "getNumExcessTokens(uint256)": {
                "notice": "Get the number of excess tokens for a market. The number of excess tokens is calculated by taking the current number of tokens held in Solo, adding the number of tokens owed to Solo by borrowers, and subtracting the number of tokens owed to suppliers by Solo."
            },
            "getNumMarkets()": {
                "notice": "Get the total number of markets."
            },
            "getRiskLimits()": {
                "notice": "Get all risk parameter limits in a single struct. These are the maximum limits at which the risk parameters can be set by the admin of Solo."
            },
            "getRiskParams()": {
                "notice": "Get all risk parameters in a single struct."
            },
            "operate((address,uint256)[],(uint8,uint256,(bool,uint8,uint8,uint256),uint256,uint256,address,uint256,bytes)[])": {
                "notice": "The main entry-point to Solo that allows users and contracts to manage accounts. Take one or more actions on one or more accounts. The msg.sender must be the owner or operator of all accounts except for those being liquidated, vaporized, or traded with. One call to operate() is considered a singular \"operation\". Account collateralization is ensured only after the completion of the entire operation."
            },
            "ownerAddMarket(address,address,address,(uint256),(uint256))": {
                "notice": "Add a new market to Solo. Must be for a previously-unsupported ERC20 token."
            },
            "ownerSetEarningsRate((uint256))": {
                "notice": "Set the global earnings-rate variable that determines what percentage of the interest paid by borrowers gets passed-on to suppliers."
            },
            "ownerSetGlobalOperator(address,bool)": {
                "notice": "Approve (or disapprove) an address that is permissioned to be an operator for all accounts in Solo. Intended only to approve smart-contracts."
            },
            "ownerSetInterestSetter(uint256,address)": {
                "notice": "Set the interest-setter for a market."
            },
            "ownerSetIsClosing(uint256,bool)": {
                "notice": "Set (or unset) the status of a market to \"closing\". The borrowedValue of a market cannot increase while its status is \"closing\"."
            },
            "ownerSetLiquidationSpread((uint256))": {
                "notice": "Set the global liquidation spread. This is the spread between oracle prices that incentivizes the liquidation of risky positions."
            },
            "ownerSetMarginPremium(uint256,(uint256))": {
                "notice": "Set a premium on the minimum margin-ratio for a market. This makes it so that any positions that include this market require a higher collateralization to avoid being liquidated."
            },
            "ownerSetMarginRatio((uint256))": {
                "notice": "Set the global minimum margin-ratio that every position must maintain to prevent being liquidated."
            },
            "ownerSetMinBorrowedValue((uint256))": {
                "notice": "Set the global minimum-borrow value which is the minimum value of any new borrow on Solo."
            },
            "ownerSetPriceOracle(uint256,address)": {
                "notice": "Set the price oracle for a market."
            },
            "ownerSetSpreadPremium(uint256,(uint256))": {
                "notice": "Set a premium on the liquidation spread for a market. This makes it so that any liquidations that include this market have a higher spread than the global default."
            },
            "ownerWithdrawExcessTokens(uint256,address)": {
                "notice": "Withdraw an ERC20 token for which there is an associated market. Only excess tokens can be withdrawn. The number of excess tokens is calculated by taking the current number of tokens held in Solo, adding the number of tokens owed to Solo by borrowers, and subtracting the number of tokens owed to suppliers by Solo."
            },
            "ownerWithdrawUnsupportedTokens(address,address)": {
                "notice": "Withdraw an ERC20 token for which there is no associated market."
            },
            "renounceOwnership()": {
                "notice": "Renouncing to ownership will leave the contract without an owner. It will not be possible to call the functions with the `onlyOwner` modifier anymore."
            },
            "setOperators((address,bool)[])": {
                "notice": "Approves/disapproves any number of operators. An operator is an external address that has the same permissions to manipulate an account as the owner of the account. Operators are simply addresses and therefore may either be externally-owned Ethereum accounts OR smart contracts.     * Operators are also able to act as AutoTrader contracts on behalf of the account owner if the operator is a smart contract and implements the IAutoTrader interface."
            }
        }
    }
}