{
    "contractName": "StopLimitOrders",
    "abi": [
        {
            "constant": true,
            "inputs": [],
            "name": "SOLO_MARGIN",
            "outputs": [
                {
                    "name": "",
                    "type": "address"
                }
            ],
            "payable": false,
            "stateMutability": "view",
            "type": "function"
        },
        {
            "constant": true,
            "inputs": [
                {
                    "name": "",
                    "type": "bytes32"
                }
            ],
            "name": "g_makerFilledAmount",
            "outputs": [
                {
                    "name": "",
                    "type": "uint256"
                }
            ],
            "payable": false,
            "stateMutability": "view",
            "type": "function"
        },
        {
            "constant": false,
            "inputs": [],
            "name": "renounceOwnership",
            "outputs": [],
            "payable": false,
            "stateMutability": "nonpayable",
            "type": "function"
        },
        {
            "constant": true,
            "inputs": [],
            "name": "owner",
            "outputs": [
                {
                    "name": "",
                    "type": "address"
                }
            ],
            "payable": false,
            "stateMutability": "view",
            "type": "function"
        },
        {
            "constant": true,
            "inputs": [],
            "name": "isOwner",
            "outputs": [
                {
                    "name": "",
                    "type": "bool"
                }
            ],
            "payable": false,
            "stateMutability": "view",
            "type": "function"
        },
        {
            "constant": true,
            "inputs": [
                {
                    "name": "",
                    "type": "bytes32"
                }
            ],
            "name": "g_status",
            "outputs": [
                {
                    "name": "",
                    "type": "uint8"
                }
            ],
            "payable": false,
            "stateMutability": "view",
            "type": "function"
        },
        {
            "constant": true,
            "inputs": [],
            "name": "EIP712_DOMAIN_HASH",
            "outputs": [
                {
                    "name": "",
                    "type": "bytes32"
                }
            ],
            "payable": false,
            "stateMutability": "view",
            "type": "function"
        },
        {
            "constant": false,
            "inputs": [
                {
                    "name": "newOwner",
                    "type": "address"
                }
            ],
            "name": "transferOwnership",
            "outputs": [],
            "payable": false,
            "stateMutability": "nonpayable",
            "type": "function"
        },
        {
            "constant": true,
            "inputs": [],
            "name": "g_isOperational",
            "outputs": [
                {
                    "name": "",
                    "type": "bool"
                }
            ],
            "payable": false,
            "stateMutability": "view",
            "type": "function"
        },
        {
            "inputs": [
                {
                    "name": "soloMargin",
                    "type": "address"
                },
                {
                    "name": "chainId",
                    "type": "uint256"
                }
            ],
            "payable": false,
            "stateMutability": "nonpayable",
            "type": "constructor"
        },
        {
            "anonymous": false,
            "inputs": [
                {
                    "indexed": false,
                    "name": "operational",
                    "type": "bool"
                }
            ],
            "name": "ContractStatusSet",
            "type": "event"
        },
        {
            "anonymous": false,
            "inputs": [
                {
                    "indexed": true,
                    "name": "orderHash",
                    "type": "bytes32"
                },
                {
                    "indexed": true,
                    "name": "canceler",
                    "type": "address"
                },
                {
                    "indexed": false,
                    "name": "makerMarket",
                    "type": "uint256"
                },
                {
                    "indexed": false,
                    "name": "takerMarket",
                    "type": "uint256"
                }
            ],
            "name": "LogStopLimitOrderCanceled",
            "type": "event"
        },
        {
            "anonymous": false,
            "inputs": [
                {
                    "indexed": true,
                    "name": "orderHash",
                    "type": "bytes32"
                },
                {
                    "indexed": true,
                    "name": "approver",
                    "type": "address"
                },
                {
                    "indexed": false,
                    "name": "makerMarket",
                    "type": "uint256"
                },
                {
                    "indexed": false,
                    "name": "takerMarket",
                    "type": "uint256"
                }
            ],
            "name": "LogStopLimitOrderApproved",
            "type": "event"
        },
        {
            "anonymous": false,
            "inputs": [
                {
                    "indexed": true,
                    "name": "orderHash",
                    "type": "bytes32"
                },
                {
                    "indexed": true,
                    "name": "orderMaker",
                    "type": "address"
                },
                {
                    "indexed": false,
                    "name": "makerFillAmount",
                    "type": "uint256"
                },
                {
                    "indexed": false,
                    "name": "totalMakerFilledAmount",
                    "type": "uint256"
                }
            ],
            "name": "LogStopLimitOrderFilled",
            "type": "event"
        },
        {
            "anonymous": false,
            "inputs": [
                {
                    "indexed": true,
                    "name": "previousOwner",
                    "type": "address"
                },
                {
                    "indexed": true,
                    "name": "newOwner",
                    "type": "address"
                }
            ],
            "name": "OwnershipTransferred",
            "type": "event"
        },
        {
            "constant": false,
            "inputs": [],
            "name": "shutDown",
            "outputs": [],
            "payable": false,
            "stateMutability": "nonpayable",
            "type": "function"
        },
        {
            "constant": false,
            "inputs": [],
            "name": "startUp",
            "outputs": [],
            "payable": false,
            "stateMutability": "nonpayable",
            "type": "function"
        },
        {
            "constant": false,
            "inputs": [
                {
                    "components": [
                        {
                            "name": "makerMarket",
                            "type": "uint256"
                        },
                        {
                            "name": "takerMarket",
                            "type": "uint256"
                        },
                        {
                            "name": "makerAmount",
                            "type": "uint256"
                        },
                        {
                            "name": "takerAmount",
                            "type": "uint256"
                        },
                        {
                            "name": "makerAccountOwner",
                            "type": "address"
                        },
                        {
                            "name": "makerAccountNumber",
                            "type": "uint256"
                        },
                        {
                            "name": "takerAccountOwner",
                            "type": "address"
                        },
                        {
                            "name": "takerAccountNumber",
                            "type": "uint256"
                        },
                        {
                            "name": "triggerPrice",
                            "type": "uint256"
                        },
                        {
                            "name": "decreaseOnly",
                            "type": "bool"
                        },
                        {
                            "name": "expiration",
                            "type": "uint256"
                        },
                        {
                            "name": "salt",
                            "type": "uint256"
                        }
                    ],
                    "name": "order",
                    "type": "tuple"
                }
            ],
            "name": "cancelOrder",
            "outputs": [],
            "payable": false,
            "stateMutability": "nonpayable",
            "type": "function"
        },
        {
            "constant": false,
            "inputs": [
                {
                    "components": [
                        {
                            "name": "makerMarket",
                            "type": "uint256"
                        },
                        {
                            "name": "takerMarket",
                            "type": "uint256"
                        },
                        {
                            "name": "makerAmount",
                            "type": "uint256"
                        },
                        {
                            "name": "takerAmount",
                            "type": "uint256"
                        },
                        {
                            "name": "makerAccountOwner",
                            "type": "address"
                        },
                        {
                            "name": "makerAccountNumber",
                            "type": "uint256"
                        },
                        {
                            "name": "takerAccountOwner",
                            "type": "address"
                        },
                        {
                            "name": "takerAccountNumber",
                            "type": "uint256"
                        },
                        {
                            "name": "triggerPrice",
                            "type": "uint256"
                        },
                        {
                            "name": "decreaseOnly",
                            "type": "bool"
                        },
                        {
                            "name": "expiration",
                            "type": "uint256"
                        },
                        {
                            "name": "salt",
                            "type": "uint256"
                        }
                    ],
                    "name": "order",
                    "type": "tuple"
                }
            ],
            "name": "approveOrder",
            "outputs": [],
            "payable": false,
            "stateMutability": "nonpayable",
            "type": "function"
        },
        {
            "constant": false,
            "inputs": [
                {
                    "name": "inputMarketId",
                    "type": "uint256"
                },
                {
                    "name": "outputMarketId",
                    "type": "uint256"
                },
                {
                    "components": [
                        {
                            "name": "owner",
                            "type": "address"
                        },
                        {
                            "name": "number",
                            "type": "uint256"
                        }
                    ],
                    "name": "makerAccount",
                    "type": "tuple"
                },
                {
                    "components": [
                        {
                            "name": "owner",
                            "type": "address"
                        },
                        {
                            "name": "number",
                            "type": "uint256"
                        }
                    ],
                    "name": "takerAccount",
                    "type": "tuple"
                },
                {
                    "components": [
                        {
                            "name": "sign",
                            "type": "bool"
                        },
                        {
                            "name": "value",
                            "type": "uint128"
                        }
                    ],
                    "name": "oldInputPar",
                    "type": "tuple"
                },
                {
                    "components": [
                        {
                            "name": "sign",
                            "type": "bool"
                        },
                        {
                            "name": "value",
                            "type": "uint128"
                        }
                    ],
                    "name": "newInputPar",
                    "type": "tuple"
                },
                {
                    "components": [
                        {
                            "name": "sign",
                            "type": "bool"
                        },
                        {
                            "name": "value",
                            "type": "uint256"
                        }
                    ],
                    "name": "inputWei",
                    "type": "tuple"
                },
                {
                    "name": "data",
                    "type": "bytes"
                }
            ],
            "name": "getTradeCost",
            "outputs": [
                {
                    "components": [
                        {
                            "name": "sign",
                            "type": "bool"
                        },
                        {
                            "name": "denomination",
                            "type": "uint8"
                        },
                        {
                            "name": "ref",
                            "type": "uint8"
                        },
                        {
                            "name": "value",
                            "type": "uint256"
                        }
                    ],
                    "name": "",
                    "type": "tuple"
                }
            ],
            "payable": false,
            "stateMutability": "nonpayable",
            "type": "function"
        },
        {
            "constant": false,
            "inputs": [
                {
                    "name": "",
                    "type": "address"
                },
                {
                    "components": [
                        {
                            "name": "owner",
                            "type": "address"
                        },
                        {
                            "name": "number",
                            "type": "uint256"
                        }
                    ],
                    "name": "accountInfo",
                    "type": "tuple"
                },
                {
                    "name": "data",
                    "type": "bytes"
                }
            ],
            "name": "callFunction",
            "outputs": [],
            "payable": false,
            "stateMutability": "nonpayable",
            "type": "function"
        },
        {
            "constant": true,
            "inputs": [
                {
                    "name": "orderHashes",
                    "type": "bytes32[]"
                }
            ],
            "name": "getOrderStates",
            "outputs": [
                {
                    "components": [
                        {
                            "name": "orderStatus",
                            "type": "uint8"
                        },
                        {
                            "name": "orderMakerFilledAmount",
                            "type": "uint256"
                        }
                    ],
                    "name": "",
                    "type": "tuple[]"
                }
            ],
            "payable": false,
            "stateMutability": "view",
            "type": "function"
        }
    ],
    "bytecode": "0x6080604052670de0b6b3a76400006002553480156200001d57600080fd5b5060405160408062003a8183398101806040526200003f9190810190620001df565b60008054600160a060020a03191633178082556040518492600160a060020a039290921691907f8be0079c531659141344cd1fd0a4f28419497f9722a3daafe3b4186f6b6457e0908290a360018054600160a060020a031916600160a060020a03929092169190911781556004805460ff19169091179055604051620000c8906020016200039c565b60408051601f1981840301815282825280516020918201208383018352600f84527f53746f704c696d69744f726465727300000000000000000000000000000000009382019390935281518083018352600381527f312e3100000000000000000000000000000000000000000000000000000000009082015290516200019892917fb7d77dfb503a572fdf941ccfe6bdc8de4689e9cd335f3f8b6dc109e2763387f5917f722c0e0c80487266e8c6a45e3a1a803aab23378a9c32e6ebe029d4fad7bfc965918691309101620003f0565b60405160208183030381529060405280519060200120600381905550505062000467565b6000620001ca82516200044b565b9392505050565b6000620001ca825162000458565b60008060408385031215620001f357600080fd5b6000620002018585620001bc565b92505060206200021485828601620001d1565b9150509250929050565b62000229816200044b565b82525050565b620002298162000458565b600062000249600c8362000446565b7f737472696e67206e616d652c00000000000000000000000000000000000000008152600c0192915050565b60006200028460198362000446565b7f6164647265737320766572696679696e67436f6e747261637400000000000000815260190192915050565b6000620002bf60108362000446565b7f75696e7432353620636861696e49642c00000000000000000000000000000000815260100192915050565b6000620002fa60018362000446565b7f2900000000000000000000000000000000000000000000000000000000000000815260010192915050565b600062000335600f8362000446565b7f737472696e672076657273696f6e2c00000000000000000000000000000000008152600f0192915050565b600062000370600d8362000446565b7f454950373132446f6d61696e28000000000000000000000000000000000000008152600d0192915050565b6000620003a98262000361565b9150620003b6826200023a565b9150620003c38262000326565b9150620003d082620002b0565b9150620003dd8262000275565b9150620003ea82620002eb565b92915050565b60a081016200040082886200022f565b6200040f60208301876200022f565b6200041e60408301866200022f565b6200042d60608301856200022f565b6200043c60808301846200021e565b9695505050505050565b919050565b6000620003ea826200045b565b90565b600160a060020a031690565b61360a80620004776000396000f3fe608060405234801561001057600080fd5b506004361061011d576000357c0100000000000000000000000000000000000000000000000000000000900480638b418713116100b4578063b1da6c5d11610083578063b1da6c5d1461021d578063e306f7791461023d578063f2fde38b14610245578063f72ac9cb146102585761011d565b80638b418713146101c05780638da5cb5b146101d35780638f32d59b146101e8578063ae9c1f3b146101fd5761011d565b8063448f7065116100f0578063448f7065146101655780635f28507a14610185578063715018a6146101a5578063728e96f0146101ad5761011d565b806309d9ece01461012257806310b9e583146101375780631b1fe68a1461013f57806330e4a7841461015d575b600080fd5b6101356101303660046129e1565b610260565b005b61013561026d565b6101476102e1565b6040516101549190613381565b60405180910390f35b6101356102fd565b610178610173366004612a3c565b61036a565b60405161015491906133ae565b610198610193366004612985565b61048c565b6040516101549190613322565b61013561049e565b6101356101bb3660046129e1565b61051e565b6101356101ce3660046128eb565b610528565b6101db61065b565b60405161015491906132f5565b6101f0610677565b6040516101549190613314565b61021061020b366004612950565b610695565b6040516101549190613303565b61023061022b366004612985565b61076d565b604051610154919061338f565b610198610782565b6101356102533660046128c5565b610788565b6101f06107a2565b61026a33826107ab565b50565b610275610677565b61027e57600080fd5b600480547fffffffffffffffffffffffffffffffffffffffffffffffffffffffffffffff001690556040517f800e9acf7ef6d84d7bc26116f2ecb9d8fc6e4a2562cda6d1c411f66ea7205481906102d790600090613314565b60405180910390a1565b60015473ffffffffffffffffffffffffffffffffffffffff1681565b610305610677565b61030e57600080fd5b600480547fffffffffffffffffffffffffffffffffffffffffffffffffffffffffffffff001660019081179091556040517f800e9acf7ef6d84d7bc26116f2ecb9d8fc6e4a2562cda6d1c411f66ea7205481916102d791613314565b6103726122e5565b60015433906103db9073ffffffffffffffffffffffffffffffffffffffff1682147f4f6e6c79536f6c6f0000000000000000000000000000000000000000000000007f4f6e6c7920536f6c6f2063616e2063616c6c2066756e6374696f6e000000000084610937565b60045461042c9060ff167f53746f704c696d69744f726465727300000000000000000000000000000000007f436f6e7472616374206973206e6f74206f7065726174696f6e616c0000000000610a3c565b61043461230f565b61043d84610a8b565b905061044d818a8a8e8e8a610c6b565b6104556122e5565b6104618c8c8885610fd7565b825161012001519091501561047d5761047d8888838d8f611099565b9b9a5050505050505050505050565b60056020526000908152604090205481565b6104a6610677565b6104af57600080fd5b6000805460405173ffffffffffffffffffffffffffffffffffffffff909116907f8be0079c531659141344cd1fd0a4f28419497f9722a3daafe3b4186f6b6457e0908390a3600080547fffffffffffffffffffffffff0000000000000000000000000000000000000000169055565b61026a338261125c565b60015433906105919073ffffffffffffffffffffffffffffffffffffffff1682147f4f6e6c79536f6c6f0000000000000000000000000000000000000000000000007f4f6e6c7920536f6c6f2063616e2063616c6c2066756e6374696f6e000000000084610937565b81516105e2906101a0147f53746f704c696d69744f726465727300000000000000000000000000000000007f43616e6e6f742070617273652043616c6c46756e6374696f6e44617461000000610a3c565b6105ea612330565b828060200190516105fe91908101906129a3565b905060008151600181111561060f57fe5b141561062c57610627846000015182602001516107ab565b610654565b60018151600181111561063b57fe5b1461064257fe5b6106548460000151826020015161125c565b5050505050565b60005473ffffffffffffffffffffffffffffffffffffffff1690565b60005473ffffffffffffffffffffffffffffffffffffffff16331490565b60606000825190506060816040519080825280602002602001820160405280156106d957816020015b6106c6612351565b8152602001906001900390816106be5790505b50905060005b828110156107635760008582815181106106f557fe5b60209081029190910181015160408051808201825260008381526006909452922054909250819060ff16600281111561072a57fe5b8152600083815260056020908152604090912054910152835184908490811061074f57fe5b6020908102919091010152506001016106df565b509150505b919050565b60066020526000908152604090205460ff1681565b60035481565b610790610677565b61079957600080fd5b61026a81611375565b60045460ff1681565b610828816080015173ffffffffffffffffffffffffffffffffffffffff168373ffffffffffffffffffffffffffffffffffffffff16147f53746f704c696d69744f726465727300000000000000000000000000000000007f417070726f766572206d757374206265206d616b657200000000000000000000610a3c565b600061083382611422565b90506108a1600260008381526006602052604090205460ff16600281111561085757fe5b14157f53746f704c696d69744f726465727300000000000000000000000000000000007f43616e6e6f7420617070726f76652063616e63656c6564206f72646572000000846114e5565b60008181526006602090815260409182902080547fffffffffffffffffffffffffffffffffffffffffffffffffffffffffffffff00166001179055835190840151915173ffffffffffffffffffffffffffffffffffffffff86169284927f20988d8087f9fb33c56b9da12d78f8006e61201672db7171ed7ef7b5227dd4e89261092a92906133d7565b60405180910390a3505050565b83610a365761094583611547565b7f3a2000000000000000000000000000000000000000000000000000000000000061096f84611547565b7f203c00000000000000000000000000000000000000000000000000000000000061099985611642565b6040516109cf9594939291907f3e0000000000000000000000000000000000000000000000000000000000000090602001613141565b604080517fffffffffffffffffffffffffffffffffffffffffffffffffffffffffffffffe0818403018152908290527f08c379a0000000000000000000000000000000000000000000000000000000008252610a2d9160040161339d565b60405180910390fd5b50505050565b82610a8657610a4a82611547565b7f3a20000000000000000000000000000000000000000000000000000000000000610a7483611547565b6040516020016109cf93929190613119565b505050565b610a9361230f565b610af061018083511480610aa9575082516101c2145b7f53746f704c696d69744f726465727300000000000000000000000000000000007f43616e6e6f74207061727365206f726465722066726f6d206461746100000000610a3c565b610af861230f565b82806020019051610b0c91908101906129c2565b808252610b1890611422565b6020808301829052600091825260069052604081205460ff1690816002811115610b3e57fe5b1415610bf0576060610b4f856117f5565b90506000610b61846020015183611892565b9050610be98173ffffffffffffffffffffffffffffffffffffffff1685600001516080015173ffffffffffffffffffffffffffffffffffffffff16147f53746f704c696d69744f726465727300000000000000000000000000000000007f4f7264657220696e76616c6964207369676e617475726500000000000000000087602001516114e5565b5050610c64565b610c4f6002826002811115610c0157fe5b14157f53746f704c696d69744f726465727300000000000000000000000000000000007f4f726465722063616e63656c656400000000000000000000000000000000000085602001516114e5565b6001816002811115610c5d57fe5b14610c6457fe5b5092915050565b8551610100015115610ce95785518051602090910151600091610c8d91611ac5565b9050610ce7876000015161010001518210157f53746f704c696d69744f726465727300000000000000000000000000000000007f4f7264657220747269676765725072696365206e6f742074726967676572656484611c57565b505b85516101400151610d52901580610d065750865161014001514211155b7f53746f704c696d69744f726465727300000000000000000000000000000000007f4f7264657220657870697265640000000000000000000000000000000000000089602001516114e5565b8551608001518551610dd99173ffffffffffffffffffffffffffffffffffffffff9182169116148015610d8d5750865160a001516020870151145b7f53746f704c696d69744f726465727300000000000000000000000000000000007f4f72646572206d616b6572206163636f756e74206d69736d617463680000000089602001516114e5565b855160c00151610e929073ffffffffffffffffffffffffffffffffffffffff16158015610e095750865160e00151155b80610e4657508451875160c0015173ffffffffffffffffffffffffffffffffffffffff9081169116148015610e4657506020850151875160e00151145b7f53746f704c696d69744f726465727300000000000000000000000000000000007f4f726465722074616b6572206163636f756e74206d69736d617463680000000089602001516114e5565b855151610f129083148015610eab575086516020015184145b80610ec6575086516020015183148015610ec6575086515184145b7f53746f704c696d69744f726465727300000000000000000000000000000000007f4d61726b6574206d69736d61746368000000000000000000000000000000000089602001516114e5565b610f6b610f1e82611cb9565b157f53746f704c696d69744f726465727300000000000000000000000000000000007f496e707574576569206973207a65726f0000000000000000000000000000000089602001516114e5565b610fcf8387600001516020015114151582600001511515147f53746f704c696d69744f726465727300000000000000000000000000000000007f496e707574576569207369676e206d69736d617463680000000000000000000089602001516114e5565b505050505050565b610fdf6122e5565b60008086846000015160200151141561101f5783516040810151606090910151602087015161101592909163ffffffff611cc116565b915081905061105a565b835160200151861461102d57fe5b83516060810151604090910151602087015161105092909163ffffffff611ce116565b9150846020015190505b6110648482611d3a565b604080516080810190915284516020908101518814825281016000815260200160008152602001929092525095945050505050565b6111346110a585611e3e565b806110ed575085602001516fffffffffffffffffffffffffffffffff1685602001516fffffffffffffffffffffffffffffffff16111580156110ed5750855185511515901515145b7f53746f704c696d69744f726465727300000000000000000000000000000000007f696e7075744d61726b6574206e6f742064656372656173656400000000000000610a3c565b61113c612363565b6001546040517fc190c2ec00000000000000000000000000000000000000000000000000000000815273ffffffffffffffffffffffffffffffffffffffff9091169063c190c2ec9061119490869086906004016133bc565b604080518083038186803b1580156111ab57600080fd5b505afa1580156111bf573d6000803e3d6000fd5b505050506040513d601f19601f820116820180604052506111e39190810190612a1e565b9050610fcf84606001516000148061121557508160200151856060015111158015611215575081518551151590151514155b7f53746f704c696d69744f726465727300000000000000000000000000000000007f6f75747075744d61726b6574206e6f7420646563726561736564000000000000610a3c565b6112d9816080015173ffffffffffffffffffffffffffffffffffffffff168373ffffffffffffffffffffffffffffffffffffffff16147f53746f704c696d69744f726465727300000000000000000000000000000000007f43616e63656c6572206d757374206265206d616b657200000000000000000000610a3c565b60006112e482611422565b600081815260066020526040902080549192506002917fffffffffffffffffffffffffffffffffffffffffffffffffffffffffffffff001660018302179055508273ffffffffffffffffffffffffffffffffffffffff16817fed3b6014ede2188da32dc66dc190093cbd2b70d9afbdc9b9372934fc868258508460000151856020015160405161092a9291906133d7565b73ffffffffffffffffffffffffffffffffffffffff811661139557600080fd5b6000805460405173ffffffffffffffffffffffffffffffffffffffff808516939216917f8be0079c531659141344cd1fd0a4f28419497f9722a3daafe3b4186f6b6457e091a3600080547fffffffffffffffffffffffff00000000000000000000000000000000000000001673ffffffffffffffffffffffffffffffffffffffff92909216919091179055565b6000806040516020016114349061325b565b604051602081830303815290604052805190602001208360405160200161145c929190613330565b604080517fffffffffffffffffffffffffffffffffffffffffffffffffffffffffffffffe08184030181529082905280516020918201206003549093506114c7927f1901000000000000000000000000000000000000000000000000000000000000928591016130cd565b60405160208183030381529060405280519060200120915050919050565b83610a36576114f383611547565b7f3a2000000000000000000000000000000000000000000000000000000000000061151d84611547565b7f203c00000000000000000000000000000000000000000000000000000000000061099985611e58565b6060808260405160200161155b9190613104565b604080517fffffffffffffffffffffffffffffffffffffffffffffffffffffffffffffffe0818403018152919052905060205b801561162b5781517fffffffffffffffffffffffffffffffffffffffffffffffffffffffffffffffff909101908290829081106115c757fe5b6020910101517f010000000000000000000000000000000000000000000000000000000000000090819004027fff0000000000000000000000000000000000000000000000000000000000000016156116265760010181529050610768565b61158e565b505060408051600081526020810190915292915050565b60408051602a808252606082810190935273ffffffffffffffffffffffffffffffffffffffff841691839160208201818038833901905050905060307f010000000000000000000000000000000000000000000000000000000000000002816000815181106116ad57fe5b60200101907effffffffffffffffffffffffffffffffffffffffffffffffffffffffffffff1916908160001a90535060787f0100000000000000000000000000000000000000000000000000000000000000028160018151811061170d57fe5b60200101907effffffffffffffffffffffffffffffffffffffffffffffffffffffffffffff1916908160001a90535060005b60148110156107635760028102611758600f8516611ff7565b83826029038151811061176757fe5b60200101907effffffffffffffffffffffffffffffffffffffffffffffffffffffffffffff1916908160001a9053506010909304926117a8600f8516611ff7565b8382602803815181106117b757fe5b60200101907effffffffffffffffffffffffffffffffffffffffffffffffffffffffffffff1916908160001a9053505060109092049160010161173f565b606061184a6042610180018351147f53746f704c696d69744f726465727300000000000000000000000000000000007f43616e6e6f74207061727365207369676e61747572652066726f6d2064617461610a3c565b604080516042808252608082019092526060916020820181803883395050506101a084015160208201526101c084015160408201526101c29093015160428401525090919050565b60006118e360428351147f54797065645369676e61747572650000000000000000000000000000000000007f496e76616c6964207369676e6174757265206c656e6774680000000000000000610a3c565b602082015160408301516060840151600081901a9060011a611949600382107f54797065645369676e61747572650000000000000000000000000000000000007f496e76616c6964207369676e6174757265207479706500000000000000000000610a3c565b60008160ff16600381111561195a57fe5b905060008082600381111561196b57fe5b1415611978575087611a67565b600182600381111561198657fe5b14156119f1576040518060400160405280601c81526020017f19457468657265756d205369676e6564204d6573736167653a0a333200000000815250896040516020016119d4929190613239565b604051602081830303815290604052805190602001209050611a67565b60028260038111156119ff57fe5b14611a0657fe5b6040518060400160405280601b81526020017f19457468657265756d205369676e6564204d6573736167653a0a20000000000081525089604051602001611a4e929190613239565b6040516020818303038152906040528051906020012090505b60018185888860405160008152602001604052604051611a8a949392919061334c565b6020604051602081039080840390855afa158015611aac573d6000803e3d6000fd5b5050506020604051035196505050505050505b92915050565b6000611acf61237a565b6001546040517f8928378e00000000000000000000000000000000000000000000000000000000815273ffffffffffffffffffffffffffffffffffffffff90911690638928378e90611b25908690600401613322565b60206040518083038186803b158015611b3d57600080fd5b505afa158015611b51573d6000803e3d6000fd5b505050506040513d601f19601f82011682018060405250611b759190810190612a00565b9050611b7f61237a565b6001546040517f8928378e00000000000000000000000000000000000000000000000000000000815273ffffffffffffffffffffffffffffffffffffffff90911690638928378e90611bd5908890600401613322565b60206040518083038186803b158015611bed57600080fd5b505afa158015611c01573d6000803e3d6000fd5b505050506040513d601f19601f82011682018060405250611c259190810190612a00565b80516002548451929350611c4e92611c429163ffffffff61205716565b9063ffffffff61207e16565b95945050505050565b83610a3657611c6583611547565b7f3a20000000000000000000000000000000000000000000000000000000000000611c8f84611547565b7f203c000000000000000000000000000000000000000000000000000000000000610999856120a0565b602001511590565b6000611cd782611c42868663ffffffff61205716565b90505b9392505050565b6000831580611cee575082155b15611d0557611cfe60008361207e565b9050611cda565b611cd76001611d2e84611c4283611d228a8a63ffffffff61205716565b9063ffffffff6121ce16565b9063ffffffff6121e316565b60208083015160009081526005909152604081205490611d60828463ffffffff6121e316565b9050611dbf8460000151604001518211157f53746f704c696d69744f726465727300000000000000000000000000000000007f43616e6e6f74206f76657266696c6c206f726465720000000000000000000000876020015186886121f5565b8060056000866020015181526020019081526020016000208190555083600001516080015173ffffffffffffffffffffffffffffffffffffffff1684602001517ff3cd436b9e60de3cd96a0113129547561163c19b68e7d39e615faf3db50ccd018584604051611e309291906133d7565b60405180910390a350505050565b602001516fffffffffffffffffffffffffffffffff161590565b604080516042808252608082019092526060918391839160208201818038833901905050905060307f01000000000000000000000000000000000000000000000000000000000000000281600081518110611eaf57fe5b60200101907effffffffffffffffffffffffffffffffffffffffffffffffffffffffffffff1916908160001a90535060787f01000000000000000000000000000000000000000000000000000000000000000281600181518110611f0f57fe5b60200101907effffffffffffffffffffffffffffffffffffffffffffffffffffffffffffff1916908160001a90535060005b60208110156107635760028102611f5a600f8516611ff7565b838260410381518110611f6957fe5b60200101907effffffffffffffffffffffffffffffffffffffffffffffffffffffffffffff1916908160001a905350601090930492611faa600f8516611ff7565b838260400381518110611fb957fe5b60200101907effffffffffffffffffffffffffffffffffffffffffffffffffffffffffffff1916908160001a90535050601090920491600101611f41565b6000600a82101561202e57507f01000000000000000000000000000000000000000000000000000000000000006030820102610768565b506057017f01000000000000000000000000000000000000000000000000000000000000000290565b60008261206657506000611abf565b8282028284828161207357fe5b0414611cda57600080fd5b600080821161208c57600080fd5b600082848161209757fe5b04949350505050565b6060816120e1575060408051808201909152600181527f30000000000000000000000000000000000000000000000000000000000000006020820152610768565b8160005b81156120f957600101600a820491506120e5565b6060816040519080825280601f01601f191660200182016040528015612126576020820181803883390190505b508593509050815b80156121c5577fffffffffffffffffffffffffffffffffffffffffffffffffffffffffffffffff01600a84066030017f01000000000000000000000000000000000000000000000000000000000000000282828151811061218b57fe5b60200101907effffffffffffffffffffffffffffffffffffffffffffffffffffffffffffff1916908160001a905350600a8404935061212e565b50949350505050565b6000828211156121dd57600080fd5b50900390565b600082820183811015611cda57600080fd5b85610fcf5761220385611547565b7f3a2000000000000000000000000000000000000000000000000000000000000061222d86611547565b7f203c00000000000000000000000000000000000000000000000000000000000061225787611e58565b7f2c20000000000000000000000000000000000000000000000000000000000000612281886120a0565b7f2c200000000000000000000000000000000000000000000000000000000000006122ab896120a0565b6040516109cf999897969594939291907f3e000000000000000000000000000000000000000000000000000000000000009060200161319f565b604080516080810190915260008082526020820190815260200160005b8152602001600081525090565b604051806101a0016040528061232361238d565b8152600060209091015290565b604080516101a08101909152806000815260200161234c61238d565b905290565b60408051808201909152806000612302565b604080518082019091526000808252602082015290565b6040518060200160405280600081525090565b60405180610180016040528060008152602001600081526020016000815260200160008152602001600073ffffffffffffffffffffffffffffffffffffffff16815260200160008152602001600073ffffffffffffffffffffffffffffffffffffffff168152602001600081526020016000815260200160001515815260200160008152602001600081525090565b6000611cda8235613493565b6000611cda8251613493565b600082601f83011261244557600080fd5b813561245861245382613419565b6133f2565b9150818183526020840193506020810190508385602084028201111561247d57600080fd5b60005b838110156124a9578161249388826124cb565b8452506020928301929190910190600101612480565b5050505092915050565b6000611cda823561349e565b6000611cda825161349e565b6000611cda82356134ed565b600082601f8301126124e857600080fd5b81356124f66124538261343a565b9150808252602083016020830185838301111561251257600080fd5b61251d838284613570565b50505092915050565b6000611cda825161352b565b60006101a0828403121561254557600080fd5b61254f60406133f2565b9050600061255d8484612526565b825250602061256e848483016125b5565b60208301525092915050565b60006040828403121561258c57600080fd5b61259660406133f2565b905060006125a4848461241c565b825250602061256e848483016124cb565b600061018082840312156125c857600080fd5b6125d36101806133f2565b905060006125e184846128b9565b82525060206125f2848483016128b9565b6020830152506040612606848285016128b9565b604083015250606061261a848285016128b9565b606083015250608061262e84828501612428565b60808301525060a0612642848285016128b9565b60a08301525060c061265684828501612428565b60c08301525060e061266a848285016128b9565b60e08301525061010061267f848285016128b9565b61010083015250610120612695848285016124bf565b610120830152506101406126ab848285016128b9565b610140830152506101606126c1848285016128b9565b6101608301525092915050565b600061018082840312156126e157600080fd5b6126ec6101806133f2565b905060006126fa84846124cb565b825250602061270b848483016124cb565b602083015250604061271f848285016124cb565b6040830152506060612733848285016124cb565b60608301525060806127478482850161241c565b60808301525060a061275b848285016124cb565b60a08301525060c061276f8482850161241c565b60c08301525060e0612783848285016124cb565b60e083015250610100612798848285016124cb565b610100830152506101206127ae848285016124b3565b610120830152506101406127c4848285016124cb565b610140830152506101606126c1848285016124cb565b6000604082840312156127ec57600080fd5b6127f660406133f2565b9050600061280484846124b3565b825250602061256e848483016128ad565b60006020828403121561282757600080fd5b61283160206133f2565b9050600061283f84846128b9565b82525092915050565b60006040828403121561285a57600080fd5b61286460406133f2565b905060006125a484846124b3565b60006040828403121561288457600080fd5b61288e60406133f2565b9050600061289c84846124bf565b825250602061256e848483016128b9565b6000611cda823561353a565b6000611cda82516134ed565b6000602082840312156128d757600080fd5b60006128e3848461241c565b949350505050565b60008060006080848603121561290057600080fd5b600061290c868661241c565b935050602061291d8682870161257a565b925050606084013567ffffffffffffffff81111561293a57600080fd5b612946868287016124d7565b9150509250925092565b60006020828403121561296257600080fd5b813567ffffffffffffffff81111561297957600080fd5b6128e384828501612434565b60006020828403121561299757600080fd5b60006128e384846124cb565b60006101a082840312156129b657600080fd5b60006128e38484612532565b600061018082840312156129d557600080fd5b60006128e384846125b5565b600061018082840312156129f457600080fd5b60006128e384846126ce565b600060208284031215612a1257600080fd5b60006128e38484612815565b600060408284031215612a3057600080fd5b60006128e38484612872565b6000806000806000806000806101a0898b031215612a5957600080fd5b6000612a658b8b6124cb565b9850506020612a768b828c016124cb565b9750506040612a878b828c0161257a565b9650506080612a988b828c0161257a565b95505060c0612aa98b828c016127da565b945050610100612abb8b828c016127da565b935050610140612acd8b828c01612848565b92505061018089013567ffffffffffffffff811115612aeb57600080fd5b612af78b828c016124d7565b9150509295985092959890939650565b6000612b138383612fc8565b505060400190565b612b2481613493565b82525050565b6000612b3582613486565b612b3f818561348a565b9350612b4a83613480565b60005b82811015612b7557612b60868351612b07565b9550612b6b82613480565b9150600101612b4d565b5093949350505050565b612b248161349e565b612b24612b94826134a3565b6134ed565b612b24612b94826134c8565b612b24816134ed565b612b24612b94826134ed565b6000612bc582613486565b612bcf8185610768565b9350612bdf81856020860161357c565b9290920192915050565b612b248161354f565b612b248161355a565b612b2481613565565b6000612c0f82613486565b612c19818561348a565b9350612c2981856020860161357c565b612c32816135a8565b9093019392505050565b6000612c49601b83610768565b7f75696e743235362074616b65724163636f756e744e756d6265722c00000000008152601b0192915050565b6000612c82601b83610768565b7f75696e74323536206d616b65724163636f756e744e756d6265722c00000000008152601b0192915050565b6000612cbb601583610768565b7f75696e74323536207472696767657250726963652c0000000000000000000000815260150192915050565b6000612cf4601a83610768565b7f61646472657373206d616b65724163636f756e744f776e65722c0000000000008152601a0192915050565b6000612d2d600183610768565b7f2900000000000000000000000000000000000000000000000000000000000000815260010192915050565b6000612d66601283610768565b7f626f6f6c2064656372656173654f6e6c792c0000000000000000000000000000815260120192915050565b6000612d9f601a83610768565b7f616464726573732074616b65724163636f756e744f776e65722c0000000000008152601a0192915050565b6000612dd8601483610768565b7f75696e74323536206d616b65724d61726b65742c000000000000000000000000815260140192915050565b6000612e11601383610768565b7f75696e743235362065787069726174696f6e2c00000000000000000000000000815260130192915050565b6000612e4a600f83610768565b7f53746f704c696d69744f726465722800000000000000000000000000000000008152600f0192915050565b6000612e83601483610768565b7f75696e74323536206d616b6572416d6f756e742c000000000000000000000000815260140192915050565b6000612ebc600c83610768565b7f75696e743235362073616c7400000000000000000000000000000000000000008152600c0192915050565b6000612ef5601483610768565b7f75696e743235362074616b65724d61726b65742c000000000000000000000000815260140192915050565b6000612f2e601483610768565b7f75696e743235362074616b6572416d6f756e742c000000000000000000000000815260140192915050565b80516080830190612f6b8482612b7f565b506020820151612f7e6020850182612bf2565b506040820151612f916040850182612bf2565b506060820151610a366060850182612ba5565b80516040830190612fb58482612b1b565b506020820151610a366020850182612ba5565b80516040830190612fb58482612bfb565b8051610180830190612feb8482612ba5565b506020820151612ffe6020850182612ba5565b5060408201516130116040850182612ba5565b5060608201516130246060850182612ba5565b5060808201516130376080850182612b1b565b5060a082015161304a60a0850182612ba5565b5060c082015161305d60c0850182612b1b565b5060e082015161307060e0850182612ba5565b50610100820151613085610100850182612ba5565b5061012082015161309a610120850182612b7f565b506101408201516130af610140850182612ba5565b50610160820151610a36610160850182612ba5565b612b2481613525565b60006130d98286612b99565b6002820191506130e98285612bae565b6020820191506130f98284612bae565b506020019392505050565b60006131108284612bae565b50602001919050565b60006131258286612bba565b91506131318285612b99565b600282019150611c4e8284612bba565b600061314d8289612bba565b91506131598288612b99565b6002820191506131698287612bba565b91506131758286612b99565b6002820191506131858285612bba565b91506131918284612b88565b506001019695505050505050565b60006131ab828d612bba565b91506131b7828c612b99565b6002820191506131c7828b612bba565b91506131d3828a612b99565b6002820191506131e38289612bba565b91506131ef8288612b99565b6002820191506131ff8287612bba565b915061320b8286612b99565b60028201915061321b8285612bba565b91506132278284612b88565b506001019a9950505050505050505050565b60006132458285612bba565b91506132518284612bae565b5060200192915050565b600061326682612e3d565b915061327182612dcb565b915061327c82612ee8565b915061328782612e76565b915061329282612f21565b915061329d82612ce7565b91506132a882612c75565b91506132b382612d92565b91506132be82612c3c565b91506132c982612cae565b91506132d482612d59565b91506132df82612e04565b91506132ea82612eaf565b9150611abf82612d20565b60208101611abf8284612b1b565b60208082528101611cda8184612b2a565b60208101611abf8284612b7f565b60208101611abf8284612ba5565b6101a0810161333f8285612ba5565b611cda6020830184612fd9565b6080810161335a8287612ba5565b61336760208301866130c4565b6133746040830185612ba5565b611c4e6060830184612ba5565b60208101611abf8284612be9565b60208101611abf8284612bfb565b60208082528101611cda8184612c04565b60808101611abf8284612f5a565b606081016133ca8285612fa4565b611cda6040830184612ba5565b604081016133e58285612ba5565b611cda6020830184612ba5565b60405181810167ffffffffffffffff8111828210171561341157600080fd5b604052919050565b600067ffffffffffffffff82111561343057600080fd5b5060209081020190565b600067ffffffffffffffff82111561345157600080fd5b506020601f919091017fffffffffffffffffffffffffffffffffffffffffffffffffffffffffffffffe0160190565b60200190565b5190565b90815260200190565b6000611abf8261350c565b151590565b7fff000000000000000000000000000000000000000000000000000000000000001690565b7fffff0000000000000000000000000000000000000000000000000000000000001690565b90565b6000600282106134fc57fe5b5090565b6000600382106134fc57fe5b73ffffffffffffffffffffffffffffffffffffffff1690565b60ff1690565b6000600282106134fc57600080fd5b6fffffffffffffffffffffffffffffffff1690565b6000611abf82613493565b6000611abf826134f0565b6000611abf82613500565b82818337506000910152565b60005b8381101561359757818101518382015260200161357f565b83811115610a365750506000910152565b601f017fffffffffffffffffffffffffffffffffffffffffffffffffffffffffffffffe0169056fea265627a7a723058204b04adbbc6fd0961e0c6baafce974335c442d27c7afe8636131d84a3bb27d4b96c6578706572696d656e74616cf50037",
    "source": "/*\n\n    Copyright 2019 dYdX Trading Inc.\n\n    Licensed under the Apache License, Version 2.0 (the \"License\");\n    you may not use this file except in compliance with the License.\n    You may obtain a copy of the License at\n\n    http://www.apache.org/licenses/LICENSE-2.0\n\n    Unless required by applicable law or agreed to in writing, software\n    distributed under the License is distributed on an \"AS IS\" BASIS,\n    WITHOUT WARRANTIES OR CONDITIONS OF ANY KIND, either express or implied.\n    See the License for the specific language governing permissions and\n    limitations under the License.\n\n*/\n\npragma solidity 0.5.7;\npragma experimental ABIEncoderV2;\n\nimport { SafeMath } from \"openzeppelin-solidity/contracts/math/SafeMath.sol\";\nimport { Ownable } from \"openzeppelin-solidity/contracts/ownership/Ownable.sol\";\nimport { IAutoTrader } from \"../../protocol/interfaces/IAutoTrader.sol\";\nimport { ICallee } from \"../../protocol/interfaces/ICallee.sol\";\nimport { Account } from \"../../protocol/lib/Account.sol\";\nimport { Math } from \"../../protocol/lib/Math.sol\";\nimport { Monetary } from \"../../protocol/lib/Monetary.sol\";\nimport { Require } from \"../../protocol/lib/Require.sol\";\nimport { Types } from \"../../protocol/lib/Types.sol\";\nimport { OnlySolo } from \"../helpers/OnlySolo.sol\";\nimport { TypedSignature } from \"../lib/TypedSignature.sol\";\n\n\n/**\n * @title StopLimitOrders\n * @author dYdX\n *\n * Allows for Stop-Limit Orders to be used with dYdX\n */\ncontract StopLimitOrders is\n    Ownable,\n    OnlySolo,\n    IAutoTrader,\n    ICallee\n{\n    using Math for uint256;\n    using SafeMath for uint256;\n    using Types for Types.Par;\n    using Types for Types.Wei;\n\n    // ============ Constants ============\n\n    bytes32 constant private FILE = \"StopLimitOrders\";\n\n    // EIP191 header for EIP712 prefix\n    bytes2 constant private EIP191_HEADER = 0x1901;\n\n    // EIP712 Domain Name value\n    string constant private EIP712_DOMAIN_NAME = \"StopLimitOrders\";\n\n    // EIP712 Domain Version value\n    string constant private EIP712_DOMAIN_VERSION = \"1.1\";\n\n    // Hash of the EIP712 Domain Separator Schema\n    /* solium-disable-next-line indentation */\n    bytes32 constant private EIP712_DOMAIN_SEPARATOR_SCHEMA_HASH = keccak256(abi.encodePacked(\n        \"EIP712Domain(\",\n        \"string name,\",\n        \"string version,\",\n        \"uint256 chainId,\",\n        \"address verifyingContract\",\n        \")\"\n    ));\n\n    // Hash of the EIP712 StopLimitOrder struct\n    /* solium-disable-next-line indentation */\n    bytes32 constant private EIP712_ORDER_STRUCT_SCHEMA_HASH = keccak256(abi.encodePacked(\n        \"StopLimitOrder(\",\n        \"uint256 makerMarket,\",\n        \"uint256 takerMarket,\",\n        \"uint256 makerAmount,\",\n        \"uint256 takerAmount,\",\n        \"address makerAccountOwner,\",\n        \"uint256 makerAccountNumber,\",\n        \"address takerAccountOwner,\",\n        \"uint256 takerAccountNumber,\",\n        \"uint256 triggerPrice,\",\n        \"bool decreaseOnly,\",\n        \"uint256 expiration,\",\n        \"uint256 salt\",\n        \")\"\n    ));\n\n    // Number of bytes in an Order struct\n    uint256 constant private NUM_ORDER_BYTES = 384;\n\n    // Number of bytes in a typed signature\n    uint256 constant private NUM_SIGNATURE_BYTES = 66;\n\n    // Number of bytes in a CallFunctionData struct\n    uint256 constant private NUM_CALLFUNCTIONDATA_BYTES = 32 + NUM_ORDER_BYTES;\n\n    // The number of decimal places of precision in the price ratio of a triggerPrice\n    uint256 PRICE_BASE = 10 ** 18;\n\n    // ============ Enums ============\n\n    enum OrderStatus {\n        Null,\n        Approved,\n        Canceled\n    }\n\n    enum CallFunctionType {\n        Approve,\n        Cancel\n    }\n\n    // ============ Structs ============\n\n    struct Order {\n        uint256 makerMarket;\n        uint256 takerMarket;\n        uint256 makerAmount;\n        uint256 takerAmount;\n        address makerAccountOwner;\n        uint256 makerAccountNumber;\n        address takerAccountOwner;\n        uint256 takerAccountNumber;\n        uint256 triggerPrice;\n        bool decreaseOnly;\n        uint256 expiration;\n        uint256 salt;\n    }\n\n    struct OrderInfo {\n        Order order;\n        bytes32 orderHash;\n    }\n\n    struct CallFunctionData {\n        CallFunctionType callType;\n        Order order;\n    }\n\n    struct OrderQueryOutput {\n        OrderStatus orderStatus;\n        uint256 orderMakerFilledAmount;\n    }\n\n    // ============ Events ============\n\n    event ContractStatusSet(\n        bool operational\n    );\n\n    event LogStopLimitOrderCanceled(\n        bytes32 indexed orderHash,\n        address indexed canceler,\n        uint256 makerMarket,\n        uint256 takerMarket\n    );\n\n    event LogStopLimitOrderApproved(\n        bytes32 indexed orderHash,\n        address indexed approver,\n        uint256 makerMarket,\n        uint256 takerMarket\n    );\n\n    event LogStopLimitOrderFilled(\n        bytes32 indexed orderHash,\n        address indexed orderMaker,\n        uint256 makerFillAmount,\n        uint256 totalMakerFilledAmount\n    );\n\n    // ============ Immutable Storage ============\n\n    // Hash of the EIP712 Domain Separator data\n    bytes32 public EIP712_DOMAIN_HASH;\n\n    // ============ Mutable Storage ============\n\n    // true if this contract can process orders\n    bool public g_isOperational;\n\n    // order hash => filled amount (in makerAmount)\n    mapping (bytes32 => uint256) public g_makerFilledAmount;\n\n    // order hash => status\n    mapping (bytes32 => OrderStatus) public g_status;\n\n    // ============ Constructor ============\n\n    constructor (\n        address soloMargin,\n        uint256 chainId\n    )\n        public\n        OnlySolo(soloMargin)\n    {\n        g_isOperational = true;\n\n        /* solium-disable-next-line indentation */\n        EIP712_DOMAIN_HASH = keccak256(abi.encode(\n            EIP712_DOMAIN_SEPARATOR_SCHEMA_HASH,\n            keccak256(bytes(EIP712_DOMAIN_NAME)),\n            keccak256(bytes(EIP712_DOMAIN_VERSION)),\n            chainId,\n            address(this)\n        ));\n    }\n\n    // ============ Admin Functions ============\n\n    /**\n     * The owner can shut down the exchange.\n     */\n    function shutDown()\n        external\n        onlyOwner\n    {\n        g_isOperational = false;\n        emit ContractStatusSet(false);\n    }\n\n    /**\n     * The owner can start back up the exchange.\n     */\n    function startUp()\n        external\n        onlyOwner\n    {\n        g_isOperational = true;\n        emit ContractStatusSet(true);\n    }\n\n    // ============ External Functions ============\n\n    /**\n     * Cancels an order. Cannot already be canceled.\n     *\n     * @param  order  The order to cancel\n     */\n    function cancelOrder(\n        Order memory order\n    )\n        public\n    {\n        cancelOrderInternal(msg.sender, order);\n    }\n\n    /**\n     * Approves an order. Cannot already be approved or canceled.\n     *\n     * @param  order  The order to approve\n     */\n    function approveOrder(\n        Order memory order\n    )\n        public\n    {\n        approveOrderInternal(msg.sender, order);\n    }\n\n    // ============ Only-Solo Functions ============\n\n    /**\n     * Allows traders to make trades approved by this smart contract. The active trader's account is\n     * the takerAccount and the passive account (for which this contract approves trades\n     * on-behalf-of) is the makerAccount.\n     *\n     * @param  inputMarketId   The market for which the trader specified the original amount\n     * @param  outputMarketId  The market for which the trader wants the resulting amount specified\n     * @param  makerAccount    The account for which this contract is making trades\n     * @param  takerAccount    The account requesting the trade\n     * @param  oldInputPar     The par balance of the makerAccount for inputMarketId pre-trade\n     * @param  newInputPar     The par balance of the makerAccount for inputMarketId post-trade\n     * @param  inputWei        The change in token amount for the makerAccount for the inputMarketId\n     * @param  data            Arbitrary data passed in by the trader\n     * @return                 The AssetAmount for the makerAccount for the outputMarketId\n     */\n    function getTradeCost(\n        uint256 inputMarketId,\n        uint256 outputMarketId,\n        Account.Info memory makerAccount,\n        Account.Info memory takerAccount,\n        Types.Par memory oldInputPar,\n        Types.Par memory newInputPar,\n        Types.Wei memory inputWei,\n        bytes memory data\n    )\n        public\n        onlySolo(msg.sender)\n        returns (Types.AssetAmount memory)\n    {\n        Require.that(\n            g_isOperational,\n            FILE,\n            \"Contract is not operational\"\n        );\n\n        OrderInfo memory orderInfo = getOrderAndValidateSignature(data);\n\n        verifyOrderAndAccountsAndMarkets(\n            orderInfo,\n            makerAccount,\n            takerAccount,\n            inputMarketId,\n            outputMarketId,\n            inputWei\n        );\n\n        Types.AssetAmount memory assetAmount = getOutputAssetAmount(\n            inputMarketId,\n            outputMarketId,\n            inputWei,\n            orderInfo\n        );\n\n        if (orderInfo.order.decreaseOnly) {\n            verifyDecreaseOnly(\n                oldInputPar,\n                newInputPar,\n                assetAmount,\n                makerAccount,\n                outputMarketId\n            );\n        }\n\n        return assetAmount;\n    }\n\n    /**\n     * Allows users to send this contract arbitrary data.\n     *\n     *  param  sender       (unused)\n     * @param  accountInfo  The account from which the data is being sent\n     * @param  data         Arbitrary data given by the sender\n     */\n    function callFunction(\n        address /* sender */,\n        Account.Info memory accountInfo,\n        bytes memory data\n    )\n        public\n        onlySolo(msg.sender)\n    {\n        Require.that(\n            data.length == NUM_CALLFUNCTIONDATA_BYTES,\n            FILE,\n            \"Cannot parse CallFunctionData\"\n        );\n\n        CallFunctionData memory cfd = abi.decode(data, (CallFunctionData));\n\n        if (cfd.callType == CallFunctionType.Approve) {\n            approveOrderInternal(accountInfo.owner, cfd.order);\n        } else {\n            assert(cfd.callType == CallFunctionType.Cancel);\n            cancelOrderInternal(accountInfo.owner, cfd.order);\n        }\n    }\n\n    // ============ Getters ============\n\n    /**\n     * Returns the status and the filled amount (in makerAmount) of several orders.\n     */\n    function getOrderStates(\n        bytes32[] memory orderHashes\n    )\n        public\n        view\n        returns(OrderQueryOutput[] memory)\n    {\n        uint256 numOrders = orderHashes.length;\n        OrderQueryOutput[] memory output = new OrderQueryOutput[](numOrders);\n\n        // for each order\n        for (uint256 i = 0; i < numOrders; i++) {\n            bytes32 orderHash = orderHashes[i];\n            output[i] = OrderQueryOutput({\n                orderStatus: g_status[orderHash],\n                orderMakerFilledAmount: g_makerFilledAmount[orderHash]\n            });\n        }\n        return output;\n    }\n\n    // ============ Private Storage Functions ============\n\n    /**\n     * Cancels an order as long as it is not already canceled.\n     */\n    function cancelOrderInternal(\n        address canceler,\n        Order memory order\n    )\n        private\n    {\n        Require.that(\n            canceler == order.makerAccountOwner,\n            FILE,\n            \"Canceler must be maker\"\n        );\n        bytes32 orderHash = getOrderHash(order);\n        g_status[orderHash] = OrderStatus.Canceled;\n        emit LogStopLimitOrderCanceled(\n            orderHash,\n            canceler,\n            order.makerMarket,\n            order.takerMarket\n        );\n    }\n\n    /**\n     * Approves an order as long as it is not already approved or canceled.\n     */\n    function approveOrderInternal(\n        address approver,\n        Order memory order\n    )\n        private\n    {\n        Require.that(\n            approver == order.makerAccountOwner,\n            FILE,\n            \"Approver must be maker\"\n        );\n        bytes32 orderHash = getOrderHash(order);\n        Require.that(\n            g_status[orderHash] != OrderStatus.Canceled,\n            FILE,\n            \"Cannot approve canceled order\",\n            orderHash\n        );\n        g_status[orderHash] = OrderStatus.Approved;\n        emit LogStopLimitOrderApproved(\n            orderHash,\n            approver,\n            order.makerMarket,\n            order.takerMarket\n        );\n    }\n\n    // ============ Private Helper Functions ============\n\n    /**\n     * Verifies that the order is still fillable for the particular accounts and markets specified.\n     */\n    function verifyOrderAndAccountsAndMarkets(\n        OrderInfo memory orderInfo,\n        Account.Info memory makerAccount,\n        Account.Info memory takerAccount,\n        uint256 inputMarketId,\n        uint256 outputMarketId,\n        Types.Wei memory inputWei\n    )\n        private\n        view\n    {\n        // verify triggerPrice\n        if (orderInfo.order.triggerPrice > 0) {\n            uint256 currentPrice = getCurrentPrice(\n                orderInfo.order.makerMarket,\n                orderInfo.order.takerMarket\n            );\n            Require.that(\n                currentPrice >= orderInfo.order.triggerPrice,\n                FILE,\n                \"Order triggerPrice not triggered\",\n                currentPrice\n            );\n        }\n\n        // verify expriy\n        Require.that(\n            orderInfo.order.expiration == 0 || orderInfo.order.expiration >= block.timestamp,\n            FILE,\n            \"Order expired\",\n            orderInfo.orderHash\n        );\n\n        // verify maker\n        Require.that(\n            makerAccount.owner == orderInfo.order.makerAccountOwner &&\n            makerAccount.number == orderInfo.order.makerAccountNumber,\n            FILE,\n            \"Order maker account mismatch\",\n            orderInfo.orderHash\n        );\n\n        // verify taker\n        Require.that(\n            (\n                orderInfo.order.takerAccountOwner == address(0) &&\n                orderInfo.order.takerAccountNumber == 0\n            ) || (\n                orderInfo.order.takerAccountOwner == takerAccount.owner &&\n                orderInfo.order.takerAccountNumber == takerAccount.number\n            ),\n            FILE,\n            \"Order taker account mismatch\",\n            orderInfo.orderHash\n        );\n\n        // verify markets\n        Require.that(\n            (\n                orderInfo.order.makerMarket == outputMarketId &&\n                orderInfo.order.takerMarket == inputMarketId\n            ) || (\n                orderInfo.order.takerMarket == outputMarketId &&\n                orderInfo.order.makerMarket == inputMarketId\n            ),\n            FILE,\n            \"Market mismatch\",\n            orderInfo.orderHash\n        );\n\n        // verify inputWei\n        Require.that(\n            !inputWei.isZero(),\n            FILE,\n            \"InputWei is zero\",\n            orderInfo.orderHash\n        );\n        Require.that(\n            inputWei.sign == (orderInfo.order.takerMarket == inputMarketId),\n            FILE,\n            \"InputWei sign mismatch\",\n            orderInfo.orderHash\n        );\n    }\n\n    /**\n     * Verifies that the order is decreasing the size of the maker's position.\n     */\n    function verifyDecreaseOnly(\n        Types.Par memory oldInputPar,\n        Types.Par memory newInputPar,\n        Types.AssetAmount memory assetAmount,\n        Account.Info memory makerAccount,\n        uint256 outputMarketId\n    )\n        private\n        view\n    {\n        // verify that the balance of inputMarketId is not increased\n        Require.that(\n            newInputPar.isZero()\n            || (newInputPar.value <= oldInputPar.value && newInputPar.sign == oldInputPar.sign),\n            FILE,\n            \"inputMarket not decreased\"\n        );\n\n        // verify that the balance of outputMarketId is not increased\n        Types.Wei memory oldOutputWei = SOLO_MARGIN.getAccountWei(makerAccount, outputMarketId);\n        Require.that(\n            assetAmount.value == 0\n            || (assetAmount.value <= oldOutputWei.value && assetAmount.sign != oldOutputWei.sign),\n            FILE,\n            \"outputMarket not decreased\"\n        );\n    }\n\n    /**\n     * Returns the AssetAmount for the outputMarketId given the order and the inputs. Updates the\n     * filled amount of the order in storage.\n     */\n    function getOutputAssetAmount(\n        uint256 inputMarketId,\n        uint256 outputMarketId,\n        Types.Wei memory inputWei,\n        OrderInfo memory orderInfo\n    )\n        private\n        returns (Types.AssetAmount memory)\n    {\n        uint256 outputAmount;\n        uint256 makerFillAmount;\n\n        if (orderInfo.order.takerMarket == inputMarketId) {\n            outputAmount = inputWei.value.getPartial(\n                orderInfo.order.makerAmount,\n                orderInfo.order.takerAmount\n            );\n            makerFillAmount = outputAmount;\n        } else {\n            assert(orderInfo.order.takerMarket == outputMarketId);\n            outputAmount = inputWei.value.getPartialRoundUp(\n                orderInfo.order.takerAmount,\n                orderInfo.order.makerAmount\n            );\n            makerFillAmount = inputWei.value;\n        }\n\n        updateMakerFilledAmount(orderInfo, makerFillAmount);\n\n        return Types.AssetAmount({\n            sign: orderInfo.order.takerMarket == outputMarketId,\n            denomination: Types.AssetDenomination.Wei,\n            ref: Types.AssetReference.Delta,\n            value: outputAmount\n        });\n    }\n\n    /**\n     * Increases the stored filled amount (in makerAmount) of the order by makerFillAmount.\n     * Returns the new total filled amount (in makerAmount).\n     */\n    function updateMakerFilledAmount(\n        OrderInfo memory orderInfo,\n        uint256 makerFillAmount\n    )\n        private\n    {\n        uint256 oldMakerFilledAmount = g_makerFilledAmount[orderInfo.orderHash];\n        uint256 totalMakerFilledAmount = oldMakerFilledAmount.add(makerFillAmount);\n        Require.that(\n            totalMakerFilledAmount <= orderInfo.order.makerAmount,\n            FILE,\n            \"Cannot overfill order\",\n            orderInfo.orderHash,\n            oldMakerFilledAmount,\n            makerFillAmount\n        );\n\n        g_makerFilledAmount[orderInfo.orderHash] = totalMakerFilledAmount;\n\n        emit LogStopLimitOrderFilled(\n            orderInfo.orderHash,\n            orderInfo.order.makerAccountOwner,\n            makerFillAmount,\n            totalMakerFilledAmount\n        );\n    }\n\n    /**\n     * Returns the current price of makerMarket divided by the current price of takerMarket. This\n     * value is multiplied by 10^18.\n     */\n    function getCurrentPrice(\n        uint256 makerMarket,\n        uint256 takerMarket\n    )\n        private\n        view\n        returns (uint256)\n    {\n        Monetary.Price memory takerPrice = SOLO_MARGIN.getMarketPrice(takerMarket);\n        Monetary.Price memory makerPrice = SOLO_MARGIN.getMarketPrice(makerMarket);\n        return takerPrice.value.mul(PRICE_BASE).div(makerPrice.value);\n    }\n\n    /**\n     * Parses the order, verifies that it is not expired or canceled, and verifies the signature.\n     */\n    function getOrderAndValidateSignature(\n        bytes memory data\n    )\n        private\n        view\n        returns (OrderInfo memory)\n    {\n        Require.that(\n            (\n                data.length == NUM_ORDER_BYTES ||\n                data.length == NUM_ORDER_BYTES + NUM_SIGNATURE_BYTES\n            ),\n            FILE,\n            \"Cannot parse order from data\"\n        );\n\n        OrderInfo memory orderInfo;\n        orderInfo.order = abi.decode(data, (Order));\n        orderInfo.orderHash = getOrderHash(orderInfo.order);\n\n        OrderStatus orderStatus = g_status[orderInfo.orderHash];\n\n        // verify valid signature or is pre-approved\n        if (orderStatus == OrderStatus.Null) {\n            bytes memory signature = parseSignature(data);\n            address signer = TypedSignature.recover(orderInfo.orderHash, signature);\n            Require.that(\n                orderInfo.order.makerAccountOwner == signer,\n                FILE,\n                \"Order invalid signature\",\n                orderInfo.orderHash\n            );\n        } else {\n            Require.that(\n                orderStatus != OrderStatus.Canceled,\n                FILE,\n                \"Order canceled\",\n                orderInfo.orderHash\n            );\n            assert(orderStatus == OrderStatus.Approved);\n        }\n\n        return orderInfo;\n    }\n\n    // ============ Private Parsing Functions ============\n\n    /**\n     * Returns the EIP712 hash of an order.\n     */\n    function getOrderHash(\n        Order memory order\n    )\n        private\n        view\n        returns (bytes32)\n    {\n        // compute the overall signed struct hash\n        /* solium-disable-next-line indentation */\n        bytes32 structHash = keccak256(abi.encode(\n            EIP712_ORDER_STRUCT_SCHEMA_HASH,\n            order\n        ));\n\n        // compute eip712 compliant hash\n        /* solium-disable-next-line indentation */\n        return keccak256(abi.encodePacked(\n            EIP191_HEADER,\n            EIP712_DOMAIN_HASH,\n            structHash\n        ));\n    }\n\n    /**\n     * Parses out a signature from call data.\n     */\n    function parseSignature(\n        bytes memory data\n    )\n        private\n        pure\n        returns (bytes memory)\n    {\n        Require.that(\n            data.length == NUM_ORDER_BYTES + NUM_SIGNATURE_BYTES,\n            FILE,\n            \"Cannot parse signature from data\"\n        );\n\n        bytes memory signature = new bytes(NUM_SIGNATURE_BYTES);\n\n        uint256 sigOffset = NUM_ORDER_BYTES;\n        /* solium-disable-next-line security/no-inline-assembly */\n        assembly {\n            let sigStart := add(data, sigOffset)\n            mstore(add(signature, 0x020), mload(add(sigStart, 0x20)))\n            mstore(add(signature, 0x040), mload(add(sigStart, 0x40)))\n            mstore(add(signature, 0x042), mload(add(sigStart, 0x42)))\n        }\n\n        return signature;\n    }\n}\n",
    "sourcePath": "/home/dydx/app/contracts/external/traders/StopLimitOrders.sol",
    "compiler": {
        "name": "solc",
        "version": "0.5.7+commit.6da8b019.Emscripten.clang"
    },
    "schemaVersion": "3.0.23",
    "updatedAt": "2022-11-11T03:47:08.306Z",
    "networkType": "ethereum",
    "devdoc": {
        "author": "dYdX * Allows for Stop-Limit Orders to be used with dYdX",
        "methods": {
            "approveOrder((uint256,uint256,uint256,uint256,address,uint256,address,uint256,uint256,bool,uint256,uint256))": {
                "params": {
                    "order": "The order to approve"
                }
            },
            "callFunction(address,(address,uint256),bytes)": {
                "params": {
                    "accountInfo": "The account from which the data is being sent",
                    "data": "Arbitrary data given by the sender"
                }
            },
            "cancelOrder((uint256,uint256,uint256,uint256,address,uint256,address,uint256,uint256,bool,uint256,uint256))": {
                "params": {
                    "order": "The order to cancel"
                }
            },
            "getTradeCost(uint256,uint256,(address,uint256),(address,uint256),(bool,uint128),(bool,uint128),(bool,uint256),bytes)": {
                "params": {
                    "data": "Arbitrary data passed in by the trader",
                    "inputMarketId": "The market for which the trader specified the original amount",
                    "inputWei": "The change in token amount for the makerAccount for the inputMarketId",
                    "makerAccount": "The account for which this contract is making trades",
                    "newInputPar": "The par balance of the makerAccount for inputMarketId post-trade",
                    "oldInputPar": "The par balance of the makerAccount for inputMarketId pre-trade",
                    "outputMarketId": "The market for which the trader wants the resulting amount specified",
                    "takerAccount": "The account requesting the trade"
                },
                "return": "The AssetAmount for the makerAccount for the outputMarketId"
            },
            "isOwner()": {
                "return": "true if `msg.sender` is the owner of the contract."
            },
            "owner()": {
                "return": "the address of the owner."
            },
            "renounceOwnership()": {
                "details": "Allows the current owner to relinquish control of the contract."
            },
            "transferOwnership(address)": {
                "details": "Allows the current owner to transfer control of the contract to a newOwner.",
                "params": {
                    "newOwner": "The address to transfer ownership to."
                }
            }
        },
        "title": "StopLimitOrders"
    },
    "userdoc": {
        "methods": {
            "approveOrder((uint256,uint256,uint256,uint256,address,uint256,address,uint256,uint256,bool,uint256,uint256))": {
                "notice": "Approves an order. Cannot already be approved or canceled."
            },
            "callFunction(address,(address,uint256),bytes)": {
                "notice": "Allows users to send this contract arbitrary data.     *  param  sender       (unused)"
            },
            "cancelOrder((uint256,uint256,uint256,uint256,address,uint256,address,uint256,uint256,bool,uint256,uint256))": {
                "notice": "Cancels an order. Cannot already be canceled."
            },
            "getOrderStates(bytes32[])": {
                "notice": "Returns the status and the filled amount (in makerAmount) of several orders."
            },
            "getTradeCost(uint256,uint256,(address,uint256),(address,uint256),(bool,uint128),(bool,uint128),(bool,uint256),bytes)": {
                "notice": "Allows traders to make trades approved by this smart contract. The active trader's account is the takerAccount and the passive account (for which this contract approves trades on-behalf-of) is the makerAccount."
            },
            "renounceOwnership()": {
                "notice": "Renouncing to ownership will leave the contract without an owner. It will not be possible to call the functions with the `onlyOwner` modifier anymore."
            },
            "shutDown()": {
                "notice": "The owner can shut down the exchange."
            },
            "startUp()": {
                "notice": "The owner can start back up the exchange."
            }
        }
    }
}