{
    "contractName": "TestSimpleCallee",
    "abi": [
        {
            "constant": true,
            "inputs": [],
            "name": "SOLO_MARGIN",
            "outputs": [
                {
                    "name": "",
                    "type": "address"
                }
            ],
            "payable": false,
            "stateMutability": "view",
            "type": "function"
        },
        {
            "inputs": [
                {
                    "name": "soloMargin",
                    "type": "address"
                }
            ],
            "payable": false,
            "stateMutability": "nonpayable",
            "type": "constructor"
        },
        {
            "anonymous": false,
            "inputs": [
                {
                    "indexed": true,
                    "name": "sender",
                    "type": "address"
                },
                {
                    "indexed": true,
                    "name": "accountOwner",
                    "type": "address"
                },
                {
                    "indexed": false,
                    "name": "accountNumber",
                    "type": "uint256"
                },
                {
                    "indexed": false,
                    "name": "data",
                    "type": "bytes"
                }
            ],
            "name": "Called",
            "type": "event"
        },
        {
            "constant": false,
            "inputs": [
                {
                    "name": "sender",
                    "type": "address"
                },
                {
                    "components": [
                        {
                            "name": "owner",
                            "type": "address"
                        },
                        {
                            "name": "number",
                            "type": "uint256"
                        }
                    ],
                    "name": "account",
                    "type": "tuple"
                },
                {
                    "name": "data",
                    "type": "bytes"
                }
            ],
            "name": "callFunction",
            "outputs": [],
            "payable": false,
            "stateMutability": "nonpayable",
            "type": "function"
        }
    ],
    "bytecode": "0x608060405234801561001057600080fd5b50604051602080610a6d833981018060405261002f9190810190610067565b60008054600160a060020a031916600160a060020a03929092169190911790556100aa565b6000610060825161008d565b9392505050565b60006020828403121561007957600080fd5b60006100858484610054565b949350505050565b60006100988261009e565b92915050565b600160a060020a031690565b6109b4806100b96000396000f3fe608060405234801561001057600080fd5b5060043610610052577c010000000000000000000000000000000000000000000000000000000060003504631b1fe68a81146100575780638b41871314610075575b600080fd5b61005f61008a565b60405161006c91906107d7565b60405180910390f35b610088610083366004610657565b6100a6565b005b60005473ffffffffffffffffffffffffffffffffffffffff1681565b600054339061010f9073ffffffffffffffffffffffffffffffffffffffff1682147f4f6e6c79536f6c6f0000000000000000000000000000000000000000000000007f4f6e6c7920536f6c6f2063616e2063616c6c2066756e6374696f6e000000000084610184565b826000015173ffffffffffffffffffffffffffffffffffffffff168473ffffffffffffffffffffffffffffffffffffffff167f879870a16ac2bddaa2e1116e5fe418c112bbd88b7ec25e3e990cc0f1443592ef8560200151856040516101769291906107fc565b60405180910390a350505050565b836102835761019283610289565b7f3a200000000000000000000000000000000000000000000000000000000000006101bc84610289565b7f203c0000000000000000000000000000000000000000000000000000000000006101e68561038a565b60405161021c9594939291907f3e0000000000000000000000000000000000000000000000000000000000000090602001610779565b604080517fffffffffffffffffffffffffffffffffffffffffffffffffffffffffffffffe0818403018152908290527f08c379a000000000000000000000000000000000000000000000000000000000825261027a916004016107eb565b60405180910390fd5b50505050565b6060808260405160200161029d9190610764565b604080517fffffffffffffffffffffffffffffffffffffffffffffffffffffffffffffffe0818403018152919052905060205b801561036d5781517fffffffffffffffffffffffffffffffffffffffffffffffffffffffffffffffff9091019082908290811061030957fe5b6020910101517f010000000000000000000000000000000000000000000000000000000000000090819004027fff0000000000000000000000000000000000000000000000000000000000000016156103685760010181529050610385565b6102d0565b5060408051600080825260208201909252905b509150505b919050565b60408051602a808252606082810190935273ffffffffffffffffffffffffffffffffffffffff841691839160208201818038833901905050905060307f010000000000000000000000000000000000000000000000000000000000000002816000815181106103f557fe5b60200101907effffffffffffffffffffffffffffffffffffffffffffffffffffffffffffff1916908160001a90535060787f0100000000000000000000000000000000000000000000000000000000000000028160018151811061045557fe5b60200101907effffffffffffffffffffffffffffffffffffffffffffffffffffffffffffff1916908160001a90535060005b601481101561038057600281026104a0600f851661053d565b8382602903815181106104af57fe5b60200101907effffffffffffffffffffffffffffffffffffffffffffffffffffffffffffff1916908160001a9053506010909304926104f0600f851661053d565b8382602803815181106104ff57fe5b60200101907effffffffffffffffffffffffffffffffffffffffffffffffffffffffffffff1916908160001a90535050601090920491600101610487565b6000600a82101561057457507f01000000000000000000000000000000000000000000000000000000000000006030820102610385565b506057017f01000000000000000000000000000000000000000000000000000000000000000290565b60006105a98235610904565b9392505050565b600082601f8301126105c157600080fd5b81356105d46105cf8261084b565b610824565b915080825260208301602083018583830111156105f057600080fd5b6105fb83828461091a565b50505092915050565b60006040828403121561061657600080fd5b6106206040610824565b9050600061062e848461059d565b825250602061063f8484830161064b565b60208301525092915050565b60006105a982356108e8565b60008060006080848603121561066c57600080fd5b6000610678868661059d565b935050602061068986828701610604565b925050606084013567ffffffffffffffff8111156106a657600080fd5b6106b2868287016105b0565b9150509250925092565b6106cd6106c88261089e565b6108e8565b82525050565b6106cd6106c8826108c3565b6106cd6106c8826108e8565b60006106f682610891565b6107008185610895565b9350610710818560208601610926565b61071981610952565b9093019392505050565b600061072e82610891565b6107388185610385565b9350610748818560208601610926565b9290920192915050565b6106cd8161090f565b6106cd816108e8565b600061077082846106df565b50602001919050565b60006107858289610723565b915061079182886106d3565b6002820191506107a18287610723565b91506107ad82866106d3565b6002820191506107bd8285610723565b91506107c982846106bc565b506001019695505050505050565b602081016107e58284610752565b92915050565b602080825281016105a981846106eb565b6040810161080a828561075b565b818103602083015261081c81846106eb565b949350505050565b60405181810167ffffffffffffffff8111828210171561084357600080fd5b604052919050565b600067ffffffffffffffff82111561086257600080fd5b506020601f919091017fffffffffffffffffffffffffffffffffffffffffffffffffffffffffffffffe0160190565b5190565b90815260200190565b7fff000000000000000000000000000000000000000000000000000000000000001690565b7fffff0000000000000000000000000000000000000000000000000000000000001690565b90565b73ffffffffffffffffffffffffffffffffffffffff1690565b60006107e5826108eb565b60006107e582610904565b82818337506000910152565b60005b83811015610941578181015183820152602001610929565b838111156102835750506000910152565b601f017fffffffffffffffffffffffffffffffffffffffffffffffffffffffffffffffe0169056fea265627a7a72305820320caa0027b8e2c8890874f6412dc67defcd69f0ec705dce7d42a9f28b9fa7fa6c6578706572696d656e74616cf50037",
    "source": "/*\n\n    Copyright 2019 dYdX Trading Inc.\n\n    Licensed under the Apache License, Version 2.0 (the \"License\");\n    you may not use this file except in compliance with the License.\n    You may obtain a copy of the License at\n\n    http://www.apache.org/licenses/LICENSE-2.0\n\n    Unless required by applicable law or agreed to in writing, software\n    distributed under the License is distributed on an \"AS IS\" BASIS,\n    WITHOUT WARRANTIES OR CONDITIONS OF ANY KIND, either express or implied.\n    See the License for the specific language governing permissions and\n    limitations under the License.\n\n*/\n\npragma solidity 0.5.7;\npragma experimental ABIEncoderV2;\n\nimport { OnlySolo } from \"../external/helpers/OnlySolo.sol\";\nimport { ICallee } from \"../protocol/interfaces/ICallee.sol\";\nimport { Account } from \"../protocol/lib/Account.sol\";\n\n\n/**\n * @title TestSimpleCallee\n * @author dYdX\n *\n * ICallee for testing any data being sent\n */\ncontract TestSimpleCallee is\n    ICallee,\n    OnlySolo\n{\n    // ============ Constants ============\n\n    bytes32 constant FILE = \"TestSimpleCallee\";\n\n    // ============ Events ============\n\n    event Called(\n        address indexed sender,\n        address indexed accountOwner,\n        uint256 accountNumber,\n        bytes data\n    );\n\n    // ============ Constructor ============\n\n    constructor(\n        address soloMargin\n    )\n        public\n        OnlySolo(soloMargin)\n    {}\n\n    // ============ ICallee Functions ============\n\n    function callFunction(\n        address sender,\n        Account.Info memory account,\n        bytes memory data\n    )\n        public\n        onlySolo(msg.sender)\n    {\n        emit Called(\n            sender,\n            account.owner,\n            account.number,\n            data\n        );\n    }\n}\n",
    "sourcePath": "/home/dydx/app/contracts/testing/TestSimpleCallee.sol",
    "compiler": {
        "name": "solc",
        "version": "0.5.7+commit.6da8b019.Emscripten.clang"
    },
    "schemaVersion": "3.0.23",
    "updatedAt": "2022-11-11T03:47:01.605Z",
    "networkType": "ethereum",
    "devdoc": {
        "author": "dYdX * ICallee for testing any data being sent",
        "methods": {},
        "title": "TestSimpleCallee"
    },
    "userdoc": {
        "methods": {}
    }
}