{
    "contractName": "TestDoubleExponentInterestSetter",
    "abi": [
        {
            "constant": true,
            "inputs": [],
            "name": "getMaxAPR",
            "outputs": [
                {
                    "name": "",
                    "type": "uint256"
                }
            ],
            "payable": false,
            "stateMutability": "view",
            "type": "function"
        },
        {
            "constant": true,
            "inputs": [],
            "name": "getCoefficients",
            "outputs": [
                {
                    "name": "",
                    "type": "uint256[]"
                }
            ],
            "payable": false,
            "stateMutability": "view",
            "type": "function"
        },
        {
            "constant": true,
            "inputs": [
                {
                    "name": "",
                    "type": "address"
                },
                {
                    "name": "borrowWei",
                    "type": "uint256"
                },
                {
                    "name": "supplyWei",
                    "type": "uint256"
                }
            ],
            "name": "getInterestRate",
            "outputs": [
                {
                    "components": [
                        {
                            "name": "value",
                            "type": "uint256"
                        }
                    ],
                    "name": "",
                    "type": "tuple"
                }
            ],
            "payable": false,
            "stateMutability": "view",
            "type": "function"
        },
        {
            "inputs": [
                {
                    "components": [
                        {
                            "name": "maxAPR",
                            "type": "uint128"
                        },
                        {
                            "name": "coefficients",
                            "type": "uint128"
                        }
                    ],
                    "name": "parameters",
                    "type": "tuple"
                }
            ],
            "payable": false,
            "stateMutability": "nonpayable",
            "type": "constructor"
        },
        {
            "constant": false,
            "inputs": [
                {
                    "components": [
                        {
                            "name": "maxAPR",
                            "type": "uint128"
                        },
                        {
                            "name": "coefficients",
                            "type": "uint128"
                        }
                    ],
                    "name": "parameters",
                    "type": "tuple"
                }
            ],
            "name": "setParameters",
            "outputs": [],
            "payable": false,
            "stateMutability": "nonpayable",
            "type": "function"
        },
        {
            "constant": false,
            "inputs": [
                {
                    "components": [
                        {
                            "name": "maxAPR",
                            "type": "uint128"
                        },
                        {
                            "name": "coefficients",
                            "type": "uint128"
                        }
                    ],
                    "name": "parameters",
                    "type": "tuple"
                }
            ],
            "name": "createNew",
            "outputs": [
                {
                    "name": "",
                    "type": "address"
                }
            ],
            "payable": false,
            "stateMutability": "nonpayable",
            "type": "function"
        }
    ],
    "bytecode": "0x608060405234801561001057600080fd5b50604051604080610f49833981018060405261002f9190810190610145565b602081015181906000906001608060020a03165b801561005d57610100810691909101906101009004610043565b50606481146100a1576040517f08c379a0000000000000000000000000000000000000000000000000000000008152600401610098906101a4565b60405180910390fd5b508051600080546020909301516001608060020a03908116700100000000000000000000000000000000029281166001608060020a031990941693909317909216179055506101f6565b6000604082840312156100fd57600080fd5b61010760406101ba565b905060006101158484610132565b825250602061012684848301610132565b60208301525092915050565b600061013e82516101ea565b9392505050565b60006040828403121561015757600080fd5b600061016384846100eb565b949350505050565b6000610178601c836101e1565b7f436f656666696369656e7473206d7573742073756d20746f2031303000000000815260200192915050565b602080825281016101b48161016b565b92915050565b60405181810167ffffffffffffffff811182821017156101d957600080fd5b604052919050565b90815260200190565b6001608060020a031690565b610d44806102056000396000f3fe608060405234801561001057600080fd5b5060043610610084576000357c010000000000000000000000000000000000000000000000000000000090048063afd4c8d61161006d578063afd4c8d6146100c7578063b3adafcf146100dc578063e8177dcf146100f157610084565b80631e68607a14610089578063a524d8fb146100a7575b600080fd5b610091610111565b60405161009e91906105ea565b60405180910390f35b6100ba6100b53660046104c4565b610129565b60405161009e91906105c0565b6100cf610165565b60405161009e91906105af565b6100ef6100ea3660046104c4565b6101f4565b005b6101046100ff366004610477565b61025a565b60405161009e91906105dc565b6000546fffffffffffffffffffffffffffffffff1690565b600081604051610138906103d4565b61014291906105ce565b604051809103906000f08015801561015e573d6000803e3d6000fd5b5092915050565b604080516010808252610220820190925260609182919060208201610200803883395050600080549293509170010000000000000000000000000000000090046fffffffffffffffffffffffffffffffff1690505b80156101ec5761010081068383815181106101d157fe5b602090810291909101015260019091019061010090046101ba565b508152905090565b8051600080546020909301516fffffffffffffffffffffffffffffffff908116700100000000000000000000000000000000029281167fffffffffffffffffffffffffffffffff0000000000000000000000000000000090941693909317909216179055565b6102626103e2565b8261027c575060408051602081019091526000815261039d565b6102846103f5565b50604080518082019091526000546fffffffffffffffffffffffffffffffff8082168084527001000000000000000000000000000000009092041660208301528385106102f05760405180602001604052806301e1338083816102e357fe5b048152509250505061039d565b60208201516101006fffffffffffffffffffffffffffffffff8216049060ff16670de0b6b3a7640000908102906000908790610332908a63ffffffff6103a416565b8161033957fe5b0490505b60ff8316801561035c57818102830192508381141561035c5750610376565b5061010090920491670de0b6b3a76400009080020461033d565b6040805160208101909152806b0a3098c68eb9427db8000000848702049052955050505050505b9392505050565b6000826103b3575060006103ce565b828202828482816103c057fe5b04146103cb57600080fd5b90505b92915050565b610691806200067a83390190565b6040518060200160405280600081525090565b604080518082019091526000808252602082015290565b600061039d8235610663565b60006040828403121561042a57600080fd5b61043460406105f8565b90506000610442848461045f565b82525060206104538484830161045f565b60208301525092915050565b600061039d8235610632565b600061039d8235610660565b60008060006060848603121561048c57600080fd5b6000610498868661040c565b93505060206104a98682870161046b565b92505060406104ba8682870161046b565b9150509250925092565b6000604082840312156104d657600080fd5b60006104e28484610418565b949350505050565b60006104f683836105a6565b505060200190565b600061050982610625565b6105138185610629565b935061051e8361061f565b60005b82811015610549576105348683516104ea565b955061053f8261061f565b9150600101610521565b5093949350505050565b61055c8161066e565b82525050565b80516040830190610573848261059d565b506020820151610586602085018261059d565b50505050565b8051602083019061058684826105a6565b61055c81610632565b61055c81610660565b6020808252810161039d81846104fe565b602081016103ce8284610553565b604081016103ce8284610562565b602081016103ce828461058c565b602081016103ce82846105a6565b60405181810167ffffffffffffffff8111828210171561061757600080fd5b604052919050565b60200190565b5190565b90815260200190565b6fffffffffffffffffffffffffffffffff1690565b73ffffffffffffffffffffffffffffffffffffffff1690565b90565b60006103ce82610647565b60006103ce8261066356fe608060405234801561001057600080fd5b50604051604080610691833981018060405261002f9190810190610142565b60208101516000906001608060020a03165b801561005b57610100810691909101906101009004610041565b506064811461009f576040517f08c379a0000000000000000000000000000000000000000000000000000000008152600401610096906101a1565b60405180910390fd5b508051600080546020909301516001608060020a03908116700100000000000000000000000000000000029281166001608060020a0319909416939093179092161790556101f3565b6000604082840312156100fa57600080fd5b61010460406101b7565b90506000610112848461012f565b82525060206101238484830161012f565b60208301525092915050565b600061013b82516101e7565b9392505050565b60006040828403121561015457600080fd5b600061016084846100e8565b949350505050565b6000610175601c836101de565b7f436f656666696369656e7473206d7573742073756d20746f2031303000000000815260200192915050565b602080825281016101b181610168565b92915050565b60405181810167ffffffffffffffff811182821017156101d657600080fd5b604052919050565b90815260200190565b6001608060020a031690565b61048f806102026000396000f3fe608060405234801561001057600080fd5b506004361061005d577c010000000000000000000000000000000000000000000000000000000060003504631e68607a8114610062578063afd4c8d614610080578063e8177dcf14610095575b600080fd5b61006a6100b5565b6040516100779190610413565b60405180910390f35b6100886100cd565b60405161007791906103f4565b6100a86100a3366004610318565b61015c565b6040516100779190610405565b6000546fffffffffffffffffffffffffffffffff1690565b604080516010808252610220820190925260609182919060208201610200803883395050600080549293509170010000000000000000000000000000000090046fffffffffffffffffffffffffffffffff1690505b801561015457610100810683838151811061013957fe5b60209081029190910101526001909101906101009004610122565b508152905090565b6101646102d6565b8261017e575060408051602081019091526000815261029f565b6101866102e9565b50604080518082019091526000546fffffffffffffffffffffffffffffffff8082168084527001000000000000000000000000000000009092041660208301528385106101f25760405180602001604052806301e1338083816101e557fe5b048152509250505061029f565b60208201516101006fffffffffffffffffffffffffffffffff8216049060ff16670de0b6b3a7640000908102906000908790610234908a63ffffffff6102a616565b8161023b57fe5b0490505b60ff8316801561025e57818102830192508381141561025e5750610278565b5061010090920491670de0b6b3a76400009080020461023f565b6040805160208101909152806b0a3098c68eb9427db8000000848702049052955050505050505b9392505050565b6000826102b5575060006102d0565b828202828482816102c257fe5b04146102cd57600080fd5b90505b92915050565b6040518060200160405280600081525090565b604080518082019091526000808252602082015290565b600061029f8235610437565b600061029f8235610434565b60008060006060848603121561032d57600080fd5b60006103398686610300565b935050602061034a8682870161030c565b925050604061035b8682870161030c565b9150509250925092565b600061037183836103e5565b505060200190565b600061038482610427565b61038e818561042b565b935061039983610421565b60005b828110156103c4576103af868351610365565b95506103ba82610421565b915060010161039c565b5093949350505050565b805160208301906103df84826103e5565b50505050565b6103ee81610434565b82525050565b6020808252810161029f8184610379565b602081016102d082846103ce565b602081016102d082846103e5565b60200190565b5190565b90815260200190565b90565b600073ffffffffffffffffffffffffffffffffffffffff82166102d056fea265627a7a723058209a4d99273682ab831438b54e78eddef8b845962a338680ff6fdc215c6fdacc006c6578706572696d656e74616cf50037a265627a7a7230582061c421bea89cdc7a362871aa85ec279ab7aaba6ca8dc958c6f5294b41691c6b46c6578706572696d656e74616cf50037",
    "source": "/*\n\n    Copyright 2019 dYdX Trading Inc.\n\n    Licensed under the Apache License, Version 2.0 (the \"License\");\n    you may not use this file except in compliance with the License.\n    You may obtain a copy of the License at\n\n    http://www.apache.org/licenses/LICENSE-2.0\n\n    Unless required by applicable law or agreed to in writing, software\n    distributed under the License is distributed on an \"AS IS\" BASIS,\n    WITHOUT WARRANTIES OR CONDITIONS OF ANY KIND, either express or implied.\n    See the License for the specific language governing permissions and\n    limitations under the License.\n\n*/\n\npragma solidity 0.5.7;\npragma experimental ABIEncoderV2;\n\nimport { DoubleExponentInterestSetter } from\n    \"../external/interestsetters/DoubleExponentInterestSetter.sol\";\n\n\n/**\n * @title TestDoubleExponentInterestSetter\n * @author dYdX\n *\n * DoubleExponentInterestSetter for testing\n */\ncontract TestDoubleExponentInterestSetter is\n    DoubleExponentInterestSetter\n{\n    constructor(\n        PolyStorage memory parameters\n    )\n        public\n        DoubleExponentInterestSetter(parameters)\n    {\n    }\n\n    function setParameters(\n        PolyStorage memory parameters\n    )\n        public\n    {\n        g_storage = parameters;\n    }\n\n    function createNew(\n        PolyStorage memory parameters\n    )\n        public\n        returns (DoubleExponentInterestSetter)\n    {\n        return new DoubleExponentInterestSetter(parameters);\n    }\n}\n",
    "sourcePath": "/home/dydx/app/contracts/testing/TestDoubleExponentInterestSetter.sol",
    "compiler": {
        "name": "solc",
        "version": "0.5.7+commit.6da8b019.Emscripten.clang"
    },
    "schemaVersion": "3.0.23",
    "updatedAt": "2022-11-11T03:47:01.617Z",
    "networkType": "ethereum",
    "devdoc": {
        "author": "dYdX * DoubleExponentInterestSetter for testing",
        "methods": {
            "getCoefficients()": {
                "return": "The coefficients"
            },
            "getInterestRate(address,uint256,uint256)": {
                "return": "The interest rate per second (times 10 ** 18)"
            },
            "getMaxAPR()": {
                "return": "The maximum APR"
            }
        },
        "title": "TestDoubleExponentInterestSetter"
    },
    "userdoc": {
        "methods": {
            "getCoefficients()": {
                "notice": "Get all of the coefficients of the interest calculation, starting from the coefficient for the first-order utilization variable."
            },
            "getInterestRate(address,uint256,uint256)": {
                "notice": "Get the interest rate given some borrowed and supplied amounts. The interest function is a polynomial function of the utilization (borrowWei / supplyWei) of the market.     *   - If borrowWei > supplyWei then the utilization is considered to be equal to 1.  - If both are zero, then the utilization is considered to be equal to 0."
            },
            "getMaxAPR()": {
                "notice": "Get the maximum APR that this interestSetter will return. The actual APY may be higher depending on how often the interest is compounded."
            }
        }
    }
}