{
    "contractName": "TestSoloMargin",
    "abi": [
        {
            "constant": false,
            "inputs": [
                {
                    "name": "marketId",
                    "type": "uint256"
                },
                {
                    "components": [
                        {
                            "name": "value",
                            "type": "uint256"
                        }
                    ],
                    "name": "spreadPremium",
                    "type": "tuple"
                }
            ],
            "name": "ownerSetSpreadPremium",
            "outputs": [],
            "payable": false,
            "stateMutability": "nonpayable",
            "type": "function"
        },
        {
            "constant": true,
            "inputs": [
                {
                    "name": "operator",
                    "type": "address"
                }
            ],
            "name": "getIsGlobalOperator",
            "outputs": [
                {
                    "name": "",
                    "type": "bool"
                }
            ],
            "payable": false,
            "stateMutability": "view",
            "type": "function"
        },
        {
            "constant": true,
            "inputs": [
                {
                    "name": "marketId",
                    "type": "uint256"
                }
            ],
            "name": "getMarketTokenAddress",
            "outputs": [
                {
                    "name": "",
                    "type": "address"
                }
            ],
            "payable": false,
            "stateMutability": "view",
            "type": "function"
        },
        {
            "constant": false,
            "inputs": [
                {
                    "name": "marketId",
                    "type": "uint256"
                },
                {
                    "name": "interestSetter",
                    "type": "address"
                }
            ],
            "name": "ownerSetInterestSetter",
            "outputs": [],
            "payable": false,
            "stateMutability": "nonpayable",
            "type": "function"
        },
        {
            "constant": true,
            "inputs": [
                {
                    "components": [
                        {
                            "name": "owner",
                            "type": "address"
                        },
                        {
                            "name": "number",
                            "type": "uint256"
                        }
                    ],
                    "name": "account",
                    "type": "tuple"
                }
            ],
            "name": "getAccountValues",
            "outputs": [
                {
                    "components": [
                        {
                            "name": "value",
                            "type": "uint256"
                        }
                    ],
                    "name": "",
                    "type": "tuple"
                },
                {
                    "components": [
                        {
                            "name": "value",
                            "type": "uint256"
                        }
                    ],
                    "name": "",
                    "type": "tuple"
                }
            ],
            "payable": false,
            "stateMutability": "view",
            "type": "function"
        },
        {
            "constant": true,
            "inputs": [
                {
                    "name": "marketId",
                    "type": "uint256"
                }
            ],
            "name": "getMarketPriceOracle",
            "outputs": [
                {
                    "name": "",
                    "type": "address"
                }
            ],
            "payable": false,
            "stateMutability": "view",
            "type": "function"
        },
        {
            "constant": true,
            "inputs": [
                {
                    "name": "marketId",
                    "type": "uint256"
                }
            ],
            "name": "getMarketInterestSetter",
            "outputs": [
                {
                    "name": "",
                    "type": "address"
                }
            ],
            "payable": false,
            "stateMutability": "view",
            "type": "function"
        },
        {
            "constant": true,
            "inputs": [
                {
                    "name": "marketId",
                    "type": "uint256"
                }
            ],
            "name": "getMarketSpreadPremium",
            "outputs": [
                {
                    "components": [
                        {
                            "name": "value",
                            "type": "uint256"
                        }
                    ],
                    "name": "",
                    "type": "tuple"
                }
            ],
            "payable": false,
            "stateMutability": "view",
            "type": "function"
        },
        {
            "constant": true,
            "inputs": [],
            "name": "getNumMarkets",
            "outputs": [
                {
                    "name": "",
                    "type": "uint256"
                }
            ],
            "payable": false,
            "stateMutability": "view",
            "type": "function"
        },
        {
            "constant": false,
            "inputs": [
                {
                    "name": "token",
                    "type": "address"
                },
                {
                    "name": "recipient",
                    "type": "address"
                }
            ],
            "name": "ownerWithdrawUnsupportedTokens",
            "outputs": [
                {
                    "name": "",
                    "type": "uint256"
                }
            ],
            "payable": false,
            "stateMutability": "nonpayable",
            "type": "function"
        },
        {
            "constant": false,
            "inputs": [
                {
                    "components": [
                        {
                            "name": "value",
                            "type": "uint256"
                        }
                    ],
                    "name": "minBorrowedValue",
                    "type": "tuple"
                }
            ],
            "name": "ownerSetMinBorrowedValue",
            "outputs": [],
            "payable": false,
            "stateMutability": "nonpayable",
            "type": "function"
        },
        {
            "constant": false,
            "inputs": [
                {
                    "components": [
                        {
                            "name": "value",
                            "type": "uint256"
                        }
                    ],
                    "name": "spread",
                    "type": "tuple"
                }
            ],
            "name": "ownerSetLiquidationSpread",
            "outputs": [],
            "payable": false,
            "stateMutability": "nonpayable",
            "type": "function"
        },
        {
            "constant": false,
            "inputs": [
                {
                    "components": [
                        {
                            "name": "value",
                            "type": "uint256"
                        }
                    ],
                    "name": "earningsRate",
                    "type": "tuple"
                }
            ],
            "name": "ownerSetEarningsRate",
            "outputs": [],
            "payable": false,
            "stateMutability": "nonpayable",
            "type": "function"
        },
        {
            "constant": true,
            "inputs": [
                {
                    "name": "owner",
                    "type": "address"
                },
                {
                    "name": "operator",
                    "type": "address"
                }
            ],
            "name": "getIsLocalOperator",
            "outputs": [
                {
                    "name": "",
                    "type": "bool"
                }
            ],
            "payable": false,
            "stateMutability": "view",
            "type": "function"
        },
        {
            "constant": true,
            "inputs": [
                {
                    "components": [
                        {
                            "name": "owner",
                            "type": "address"
                        },
                        {
                            "name": "number",
                            "type": "uint256"
                        }
                    ],
                    "name": "account",
                    "type": "tuple"
                },
                {
                    "name": "marketId",
                    "type": "uint256"
                }
            ],
            "name": "getAccountPar",
            "outputs": [
                {
                    "components": [
                        {
                            "name": "sign",
                            "type": "bool"
                        },
                        {
                            "name": "value",
                            "type": "uint128"
                        }
                    ],
                    "name": "",
                    "type": "tuple"
                }
            ],
            "payable": false,
            "stateMutability": "view",
            "type": "function"
        },
        {
            "constant": false,
            "inputs": [
                {
                    "name": "marketId",
                    "type": "uint256"
                },
                {
                    "components": [
                        {
                            "name": "value",
                            "type": "uint256"
                        }
                    ],
                    "name": "marginPremium",
                    "type": "tuple"
                }
            ],
            "name": "ownerSetMarginPremium",
            "outputs": [],
            "payable": false,
            "stateMutability": "nonpayable",
            "type": "function"
        },
        {
            "constant": true,
            "inputs": [],
            "name": "getMarginRatio",
            "outputs": [
                {
                    "components": [
                        {
                            "name": "value",
                            "type": "uint256"
                        }
                    ],
                    "name": "",
                    "type": "tuple"
                }
            ],
            "payable": false,
            "stateMutability": "view",
            "type": "function"
        },
        {
            "constant": true,
            "inputs": [
                {
                    "name": "marketId",
                    "type": "uint256"
                }
            ],
            "name": "getMarketCurrentIndex",
            "outputs": [
                {
                    "components": [
                        {
                            "name": "borrow",
                            "type": "uint96"
                        },
                        {
                            "name": "supply",
                            "type": "uint96"
                        },
                        {
                            "name": "lastUpdate",
                            "type": "uint32"
                        }
                    ],
                    "name": "",
                    "type": "tuple"
                }
            ],
            "payable": false,
            "stateMutability": "view",
            "type": "function"
        },
        {
            "constant": true,
            "inputs": [
                {
                    "name": "marketId",
                    "type": "uint256"
                }
            ],
            "name": "getMarketIsClosing",
            "outputs": [
                {
                    "name": "",
                    "type": "bool"
                }
            ],
            "payable": false,
            "stateMutability": "view",
            "type": "function"
        },
        {
            "constant": true,
            "inputs": [],
            "name": "getRiskParams",
            "outputs": [
                {
                    "components": [
                        {
                            "components": [
                                {
                                    "name": "value",
                                    "type": "uint256"
                                }
                            ],
                            "name": "marginRatio",
                            "type": "tuple"
                        },
                        {
                            "components": [
                                {
                                    "name": "value",
                                    "type": "uint256"
                                }
                            ],
                            "name": "liquidationSpread",
                            "type": "tuple"
                        },
                        {
                            "components": [
                                {
                                    "name": "value",
                                    "type": "uint256"
                                }
                            ],
                            "name": "earningsRate",
                            "type": "tuple"
                        },
                        {
                            "components": [
                                {
                                    "name": "value",
                                    "type": "uint256"
                                }
                            ],
                            "name": "minBorrowedValue",
                            "type": "tuple"
                        }
                    ],
                    "name": "",
                    "type": "tuple"
                }
            ],
            "payable": false,
            "stateMutability": "view",
            "type": "function"
        },
        {
            "constant": true,
            "inputs": [
                {
                    "components": [
                        {
                            "name": "owner",
                            "type": "address"
                        },
                        {
                            "name": "number",
                            "type": "uint256"
                        }
                    ],
                    "name": "account",
                    "type": "tuple"
                }
            ],
            "name": "getAccountBalances",
            "outputs": [
                {
                    "name": "",
                    "type": "address[]"
                },
                {
                    "components": [
                        {
                            "name": "sign",
                            "type": "bool"
                        },
                        {
                            "name": "value",
                            "type": "uint128"
                        }
                    ],
                    "name": "",
                    "type": "tuple[]"
                },
                {
                    "components": [
                        {
                            "name": "sign",
                            "type": "bool"
                        },
                        {
                            "name": "value",
                            "type": "uint256"
                        }
                    ],
                    "name": "",
                    "type": "tuple[]"
                }
            ],
            "payable": false,
            "stateMutability": "view",
            "type": "function"
        },
        {
            "constant": false,
            "inputs": [],
            "name": "renounceOwnership",
            "outputs": [],
            "payable": false,
            "stateMutability": "nonpayable",
            "type": "function"
        },
        {
            "constant": true,
            "inputs": [],
            "name": "getMinBorrowedValue",
            "outputs": [
                {
                    "components": [
                        {
                            "name": "value",
                            "type": "uint256"
                        }
                    ],
                    "name": "",
                    "type": "tuple"
                }
            ],
            "payable": false,
            "stateMutability": "view",
            "type": "function"
        },
        {
            "constant": false,
            "inputs": [
                {
                    "components": [
                        {
                            "name": "operator",
                            "type": "address"
                        },
                        {
                            "name": "trusted",
                            "type": "bool"
                        }
                    ],
                    "name": "args",
                    "type": "tuple[]"
                }
            ],
            "name": "setOperators",
            "outputs": [],
            "payable": false,
            "stateMutability": "nonpayable",
            "type": "function"
        },
        {
            "constant": true,
            "inputs": [
                {
                    "name": "marketId",
                    "type": "uint256"
                }
            ],
            "name": "getMarketPrice",
            "outputs": [
                {
                    "components": [
                        {
                            "name": "value",
                            "type": "uint256"
                        }
                    ],
                    "name": "",
                    "type": "tuple"
                }
            ],
            "payable": false,
            "stateMutability": "view",
            "type": "function"
        },
        {
            "constant": true,
            "inputs": [],
            "name": "owner",
            "outputs": [
                {
                    "name": "",
                    "type": "address"
                }
            ],
            "payable": false,
            "stateMutability": "view",
            "type": "function"
        },
        {
            "constant": true,
            "inputs": [],
            "name": "isOwner",
            "outputs": [
                {
                    "name": "",
                    "type": "bool"
                }
            ],
            "payable": false,
            "stateMutability": "view",
            "type": "function"
        },
        {
            "constant": false,
            "inputs": [
                {
                    "name": "marketId",
                    "type": "uint256"
                },
                {
                    "name": "recipient",
                    "type": "address"
                }
            ],
            "name": "ownerWithdrawExcessTokens",
            "outputs": [
                {
                    "name": "",
                    "type": "uint256"
                }
            ],
            "payable": false,
            "stateMutability": "nonpayable",
            "type": "function"
        },
        {
            "constant": false,
            "inputs": [
                {
                    "name": "token",
                    "type": "address"
                },
                {
                    "name": "priceOracle",
                    "type": "address"
                },
                {
                    "name": "interestSetter",
                    "type": "address"
                },
                {
                    "components": [
                        {
                            "name": "value",
                            "type": "uint256"
                        }
                    ],
                    "name": "marginPremium",
                    "type": "tuple"
                },
                {
                    "components": [
                        {
                            "name": "value",
                            "type": "uint256"
                        }
                    ],
                    "name": "spreadPremium",
                    "type": "tuple"
                }
            ],
            "name": "ownerAddMarket",
            "outputs": [],
            "payable": false,
            "stateMutability": "nonpayable",
            "type": "function"
        },
        {
            "constant": false,
            "inputs": [
                {
                    "components": [
                        {
                            "name": "owner",
                            "type": "address"
                        },
                        {
                            "name": "number",
                            "type": "uint256"
                        }
                    ],
                    "name": "accounts",
                    "type": "tuple[]"
                },
                {
                    "components": [
                        {
                            "name": "actionType",
                            "type": "uint8"
                        },
                        {
                            "name": "accountId",
                            "type": "uint256"
                        },
                        {
                            "components": [
                                {
                                    "name": "sign",
                                    "type": "bool"
                                },
                                {
                                    "name": "denomination",
                                    "type": "uint8"
                                },
                                {
                                    "name": "ref",
                                    "type": "uint8"
                                },
                                {
                                    "name": "value",
                                    "type": "uint256"
                                }
                            ],
                            "name": "amount",
                            "type": "tuple"
                        },
                        {
                            "name": "primaryMarketId",
                            "type": "uint256"
                        },
                        {
                            "name": "secondaryMarketId",
                            "type": "uint256"
                        },
                        {
                            "name": "otherAddress",
                            "type": "address"
                        },
                        {
                            "name": "otherAccountId",
                            "type": "uint256"
                        },
                        {
                            "name": "data",
                            "type": "bytes"
                        }
                    ],
                    "name": "actions",
                    "type": "tuple[]"
                }
            ],
            "name": "operate",
            "outputs": [],
            "payable": false,
            "stateMutability": "nonpayable",
            "type": "function"
        },
        {
            "constant": true,
            "inputs": [
                {
                    "name": "marketId",
                    "type": "uint256"
                }
            ],
            "name": "getMarketWithInfo",
            "outputs": [
                {
                    "components": [
                        {
                            "name": "token",
                            "type": "address"
                        },
                        {
                            "components": [
                                {
                                    "name": "borrow",
                                    "type": "uint128"
                                },
                                {
                                    "name": "supply",
                                    "type": "uint128"
                                }
                            ],
                            "name": "totalPar",
                            "type": "tuple"
                        },
                        {
                            "components": [
                                {
                                    "name": "borrow",
                                    "type": "uint96"
                                },
                                {
                                    "name": "supply",
                                    "type": "uint96"
                                },
                                {
                                    "name": "lastUpdate",
                                    "type": "uint32"
                                }
                            ],
                            "name": "index",
                            "type": "tuple"
                        },
                        {
                            "name": "priceOracle",
                            "type": "address"
                        },
                        {
                            "name": "interestSetter",
                            "type": "address"
                        },
                        {
                            "components": [
                                {
                                    "name": "value",
                                    "type": "uint256"
                                }
                            ],
                            "name": "marginPremium",
                            "type": "tuple"
                        },
                        {
                            "components": [
                                {
                                    "name": "value",
                                    "type": "uint256"
                                }
                            ],
                            "name": "spreadPremium",
                            "type": "tuple"
                        },
                        {
                            "name": "isClosing",
                            "type": "bool"
                        }
                    ],
                    "name": "",
                    "type": "tuple"
                },
                {
                    "components": [
                        {
                            "name": "borrow",
                            "type": "uint96"
                        },
                        {
                            "name": "supply",
                            "type": "uint96"
                        },
                        {
                            "name": "lastUpdate",
                            "type": "uint32"
                        }
                    ],
                    "name": "",
                    "type": "tuple"
                },
                {
                    "components": [
                        {
                            "name": "value",
                            "type": "uint256"
                        }
                    ],
                    "name": "",
                    "type": "tuple"
                },
                {
                    "components": [
                        {
                            "name": "value",
                            "type": "uint256"
                        }
                    ],
                    "name": "",
                    "type": "tuple"
                }
            ],
            "payable": false,
            "stateMutability": "view",
            "type": "function"
        },
        {
            "constant": false,
            "inputs": [
                {
                    "components": [
                        {
                            "name": "value",
                            "type": "uint256"
                        }
                    ],
                    "name": "ratio",
                    "type": "tuple"
                }
            ],
            "name": "ownerSetMarginRatio",
            "outputs": [],
            "payable": false,
            "stateMutability": "nonpayable",
            "type": "function"
        },
        {
            "constant": true,
            "inputs": [],
            "name": "getLiquidationSpread",
            "outputs": [
                {
                    "components": [
                        {
                            "name": "value",
                            "type": "uint256"
                        }
                    ],
                    "name": "",
                    "type": "tuple"
                }
            ],
            "payable": false,
            "stateMutability": "view",
            "type": "function"
        },
        {
            "constant": true,
            "inputs": [
                {
                    "components": [
                        {
                            "name": "owner",
                            "type": "address"
                        },
                        {
                            "name": "number",
                            "type": "uint256"
                        }
                    ],
                    "name": "account",
                    "type": "tuple"
                },
                {
                    "name": "marketId",
                    "type": "uint256"
                }
            ],
            "name": "getAccountWei",
            "outputs": [
                {
                    "components": [
                        {
                            "name": "sign",
                            "type": "bool"
                        },
                        {
                            "name": "value",
                            "type": "uint256"
                        }
                    ],
                    "name": "",
                    "type": "tuple"
                }
            ],
            "payable": false,
            "stateMutability": "view",
            "type": "function"
        },
        {
            "constant": true,
            "inputs": [
                {
                    "name": "marketId",
                    "type": "uint256"
                }
            ],
            "name": "getMarketTotalPar",
            "outputs": [
                {
                    "components": [
                        {
                            "name": "borrow",
                            "type": "uint128"
                        },
                        {
                            "name": "supply",
                            "type": "uint128"
                        }
                    ],
                    "name": "",
                    "type": "tuple"
                }
            ],
            "payable": false,
            "stateMutability": "view",
            "type": "function"
        },
        {
            "constant": true,
            "inputs": [
                {
                    "name": "heldMarketId",
                    "type": "uint256"
                },
                {
                    "name": "owedMarketId",
                    "type": "uint256"
                }
            ],
            "name": "getLiquidationSpreadForPair",
            "outputs": [
                {
                    "components": [
                        {
                            "name": "value",
                            "type": "uint256"
                        }
                    ],
                    "name": "",
                    "type": "tuple"
                }
            ],
            "payable": false,
            "stateMutability": "view",
            "type": "function"
        },
        {
            "constant": true,
            "inputs": [
                {
                    "name": "marketId",
                    "type": "uint256"
                }
            ],
            "name": "getNumExcessTokens",
            "outputs": [
                {
                    "components": [
                        {
                            "name": "sign",
                            "type": "bool"
                        },
                        {
                            "name": "value",
                            "type": "uint256"
                        }
                    ],
                    "name": "",
                    "type": "tuple"
                }
            ],
            "payable": false,
            "stateMutability": "view",
            "type": "function"
        },
        {
            "constant": true,
            "inputs": [
                {
                    "name": "marketId",
                    "type": "uint256"
                }
            ],
            "name": "getMarketCachedIndex",
            "outputs": [
                {
                    "components": [
                        {
                            "name": "borrow",
                            "type": "uint96"
                        },
                        {
                            "name": "supply",
                            "type": "uint96"
                        },
                        {
                            "name": "lastUpdate",
                            "type": "uint32"
                        }
                    ],
                    "name": "",
                    "type": "tuple"
                }
            ],
            "payable": false,
            "stateMutability": "view",
            "type": "function"
        },
        {
            "constant": true,
            "inputs": [
                {
                    "components": [
                        {
                            "name": "owner",
                            "type": "address"
                        },
                        {
                            "name": "number",
                            "type": "uint256"
                        }
                    ],
                    "name": "account",
                    "type": "tuple"
                }
            ],
            "name": "getAccountStatus",
            "outputs": [
                {
                    "name": "",
                    "type": "uint8"
                }
            ],
            "payable": false,
            "stateMutability": "view",
            "type": "function"
        },
        {
            "constant": true,
            "inputs": [],
            "name": "getEarningsRate",
            "outputs": [
                {
                    "components": [
                        {
                            "name": "value",
                            "type": "uint256"
                        }
                    ],
                    "name": "",
                    "type": "tuple"
                }
            ],
            "payable": false,
            "stateMutability": "view",
            "type": "function"
        },
        {
            "constant": false,
            "inputs": [
                {
                    "name": "marketId",
                    "type": "uint256"
                },
                {
                    "name": "priceOracle",
                    "type": "address"
                }
            ],
            "name": "ownerSetPriceOracle",
            "outputs": [],
            "payable": false,
            "stateMutability": "nonpayable",
            "type": "function"
        },
        {
            "constant": true,
            "inputs": [],
            "name": "getRiskLimits",
            "outputs": [
                {
                    "components": [
                        {
                            "name": "marginRatioMax",
                            "type": "uint64"
                        },
                        {
                            "name": "liquidationSpreadMax",
                            "type": "uint64"
                        },
                        {
                            "name": "earningsRateMax",
                            "type": "uint64"
                        },
                        {
                            "name": "marginPremiumMax",
                            "type": "uint64"
                        },
                        {
                            "name": "spreadPremiumMax",
                            "type": "uint64"
                        },
                        {
                            "name": "minBorrowedValueMax",
                            "type": "uint128"
                        }
                    ],
                    "name": "",
                    "type": "tuple"
                }
            ],
            "payable": false,
            "stateMutability": "view",
            "type": "function"
        },
        {
            "constant": true,
            "inputs": [
                {
                    "name": "marketId",
                    "type": "uint256"
                }
            ],
            "name": "getMarket",
            "outputs": [
                {
                    "components": [
                        {
                            "name": "token",
                            "type": "address"
                        },
                        {
                            "components": [
                                {
                                    "name": "borrow",
                                    "type": "uint128"
                                },
                                {
                                    "name": "supply",
                                    "type": "uint128"
                                }
                            ],
                            "name": "totalPar",
                            "type": "tuple"
                        },
                        {
                            "components": [
                                {
                                    "name": "borrow",
                                    "type": "uint96"
                                },
                                {
                                    "name": "supply",
                                    "type": "uint96"
                                },
                                {
                                    "name": "lastUpdate",
                                    "type": "uint32"
                                }
                            ],
                            "name": "index",
                            "type": "tuple"
                        },
                        {
                            "name": "priceOracle",
                            "type": "address"
                        },
                        {
                            "name": "interestSetter",
                            "type": "address"
                        },
                        {
                            "components": [
                                {
                                    "name": "value",
                                    "type": "uint256"
                                }
                            ],
                            "name": "marginPremium",
                            "type": "tuple"
                        },
                        {
                            "components": [
                                {
                                    "name": "value",
                                    "type": "uint256"
                                }
                            ],
                            "name": "spreadPremium",
                            "type": "tuple"
                        },
                        {
                            "name": "isClosing",
                            "type": "bool"
                        }
                    ],
                    "name": "",
                    "type": "tuple"
                }
            ],
            "payable": false,
            "stateMutability": "view",
            "type": "function"
        },
        {
            "constant": false,
            "inputs": [
                {
                    "name": "marketId",
                    "type": "uint256"
                },
                {
                    "name": "isClosing",
                    "type": "bool"
                }
            ],
            "name": "ownerSetIsClosing",
            "outputs": [],
            "payable": false,
            "stateMutability": "nonpayable",
            "type": "function"
        },
        {
            "constant": false,
            "inputs": [
                {
                    "name": "operator",
                    "type": "address"
                },
                {
                    "name": "approved",
                    "type": "bool"
                }
            ],
            "name": "ownerSetGlobalOperator",
            "outputs": [],
            "payable": false,
            "stateMutability": "nonpayable",
            "type": "function"
        },
        {
            "constant": false,
            "inputs": [
                {
                    "name": "newOwner",
                    "type": "address"
                }
            ],
            "name": "transferOwnership",
            "outputs": [],
            "payable": false,
            "stateMutability": "nonpayable",
            "type": "function"
        },
        {
            "constant": true,
            "inputs": [
                {
                    "components": [
                        {
                            "name": "owner",
                            "type": "address"
                        },
                        {
                            "name": "number",
                            "type": "uint256"
                        }
                    ],
                    "name": "account",
                    "type": "tuple"
                }
            ],
            "name": "getAdjustedAccountValues",
            "outputs": [
                {
                    "components": [
                        {
                            "name": "value",
                            "type": "uint256"
                        }
                    ],
                    "name": "",
                    "type": "tuple"
                },
                {
                    "components": [
                        {
                            "name": "value",
                            "type": "uint256"
                        }
                    ],
                    "name": "",
                    "type": "tuple"
                }
            ],
            "payable": false,
            "stateMutability": "view",
            "type": "function"
        },
        {
            "constant": true,
            "inputs": [
                {
                    "name": "marketId",
                    "type": "uint256"
                }
            ],
            "name": "getMarketMarginPremium",
            "outputs": [
                {
                    "components": [
                        {
                            "name": "value",
                            "type": "uint256"
                        }
                    ],
                    "name": "",
                    "type": "tuple"
                }
            ],
            "payable": false,
            "stateMutability": "view",
            "type": "function"
        },
        {
            "constant": true,
            "inputs": [
                {
                    "name": "marketId",
                    "type": "uint256"
                }
            ],
            "name": "getMarketInterestRate",
            "outputs": [
                {
                    "components": [
                        {
                            "name": "value",
                            "type": "uint256"
                        }
                    ],
                    "name": "",
                    "type": "tuple"
                }
            ],
            "payable": false,
            "stateMutability": "view",
            "type": "function"
        },
        {
            "inputs": [
                {
                    "components": [
                        {
                            "components": [
                                {
                                    "name": "value",
                                    "type": "uint256"
                                }
                            ],
                            "name": "marginRatio",
                            "type": "tuple"
                        },
                        {
                            "components": [
                                {
                                    "name": "value",
                                    "type": "uint256"
                                }
                            ],
                            "name": "liquidationSpread",
                            "type": "tuple"
                        },
                        {
                            "components": [
                                {
                                    "name": "value",
                                    "type": "uint256"
                                }
                            ],
                            "name": "earningsRate",
                            "type": "tuple"
                        },
                        {
                            "components": [
                                {
                                    "name": "value",
                                    "type": "uint256"
                                }
                            ],
                            "name": "minBorrowedValue",
                            "type": "tuple"
                        }
                    ],
                    "name": "rp",
                    "type": "tuple"
                },
                {
                    "components": [
                        {
                            "name": "marginRatioMax",
                            "type": "uint64"
                        },
                        {
                            "name": "liquidationSpreadMax",
                            "type": "uint64"
                        },
                        {
                            "name": "earningsRateMax",
                            "type": "uint64"
                        },
                        {
                            "name": "marginPremiumMax",
                            "type": "uint64"
                        },
                        {
                            "name": "spreadPremiumMax",
                            "type": "uint64"
                        },
                        {
                            "name": "minBorrowedValueMax",
                            "type": "uint128"
                        }
                    ],
                    "name": "rl",
                    "type": "tuple"
                }
            ],
            "payable": false,
            "stateMutability": "nonpayable",
            "type": "constructor"
        },
        {
            "anonymous": false,
            "inputs": [
                {
                    "indexed": true,
                    "name": "owner",
                    "type": "address"
                },
                {
                    "indexed": false,
                    "name": "operator",
                    "type": "address"
                },
                {
                    "indexed": false,
                    "name": "trusted",
                    "type": "bool"
                }
            ],
            "name": "LogOperatorSet",
            "type": "event"
        },
        {
            "anonymous": false,
            "inputs": [
                {
                    "indexed": true,
                    "name": "previousOwner",
                    "type": "address"
                },
                {
                    "indexed": true,
                    "name": "newOwner",
                    "type": "address"
                }
            ],
            "name": "OwnershipTransferred",
            "type": "event"
        },
        {
            "constant": false,
            "inputs": [
                {
                    "components": [
                        {
                            "name": "owner",
                            "type": "address"
                        },
                        {
                            "name": "number",
                            "type": "uint256"
                        }
                    ],
                    "name": "account",
                    "type": "tuple"
                },
                {
                    "name": "market",
                    "type": "uint256"
                },
                {
                    "components": [
                        {
                            "name": "sign",
                            "type": "bool"
                        },
                        {
                            "name": "value",
                            "type": "uint128"
                        }
                    ],
                    "name": "newPar",
                    "type": "tuple"
                }
            ],
            "name": "setAccountBalance",
            "outputs": [],
            "payable": false,
            "stateMutability": "nonpayable",
            "type": "function"
        },
        {
            "constant": false,
            "inputs": [
                {
                    "components": [
                        {
                            "name": "owner",
                            "type": "address"
                        },
                        {
                            "name": "number",
                            "type": "uint256"
                        }
                    ],
                    "name": "account",
                    "type": "tuple"
                },
                {
                    "name": "status",
                    "type": "uint8"
                }
            ],
            "name": "setAccountStatus",
            "outputs": [],
            "payable": false,
            "stateMutability": "nonpayable",
            "type": "function"
        },
        {
            "constant": false,
            "inputs": [
                {
                    "name": "market",
                    "type": "uint256"
                },
                {
                    "components": [
                        {
                            "name": "borrow",
                            "type": "uint96"
                        },
                        {
                            "name": "supply",
                            "type": "uint96"
                        },
                        {
                            "name": "lastUpdate",
                            "type": "uint32"
                        }
                    ],
                    "name": "index",
                    "type": "tuple"
                }
            ],
            "name": "setMarketIndex",
            "outputs": [],
            "payable": false,
            "stateMutability": "nonpayable",
            "type": "function"
        }
    ],
    "bytecode": "0x60806040527f4765747465727300000000000000000000000000000000000000000000000000600d553480156200003557600080fd5b506040516101408062004d3383398101806040526200005891908101906200033d565b600b8054600160a060020a03191633179081905560405183918391600160a060020a0391909116906000907f8be0079c531659141344cd1fd0a4f28419497f9722a3daafe3b4186f6b6457e0908290a36001600c5581515160055560208083015151600655604080840151516007556060938401515160085582516009805493850151928501519585015167ffffffffffffffff199485166001604060020a0393841617604060020a608060020a03191668010000000000000000948416850217608060020a60c060020a0319167001000000000000000000000000000000009784169790970296909617600160c060020a0316780100000000000000000000000000000000000000000000000096831696909602959095179094556080830151600a805460a09095015194909316941693909317604060020a60c060020a0319166001608060020a0390921690920217905550620003bf9050565b600060208284031215620001c757600080fd5b620001d360206200037d565b90506000620001e3848462000321565b82525092915050565b600060c08284031215620001ff57600080fd5b6200020b60c06200037d565b905060006200021b84846200032f565b82525060206200022e848483016200032f565b602083015250604062000244848285016200032f565b60408301525060606200025a848285016200032f565b606083015250608062000270848285016200032f565b60808301525060a062000286848285016200030c565b60a08301525092915050565b600060808284031215620002a557600080fd5b620002b160806200037d565b90506000620002c18484620001b4565b8252506020620002d484848301620001b4565b6020830152506040620002ea84828501620001b4565b60408301525060606200030084828501620001b4565b60608301525092915050565b60006200031a8251620003a4565b9392505050565b60006200031a8251620003b0565b60006200031a8251620003b3565b60008061014083850312156200035257600080fd5b600062000360858562000292565b92505060806200037385828601620001ec565b9150509250929050565b6040518181016001604060020a03811182821017156200039c57600080fd5b604052919050565b6001608060020a031690565b90565b6001604060020a031690565b61496480620003cf6000396000f3fe608060405234801561001057600080fd5b5060043610610369576000357c0100000000000000000000000000000000000000000000000000000000900480638da5cb5b116101da578063d96e406d11610116578063eb44fdd3116100bf578063f2fde38b11610099578063f2fde38b14610771578063f941605214610784578063fd04b60614610797578063fd47eda6146107aa57610369565b8063eb44fdd31461072b578063ef6957d01461074b578063f2901ae21461075e57610369565b8063e5520228116100f0578063e5520228146106fb578063e8e72f7514610703578063eb1c6e6b1461071657610369565b8063d96e406d146106b5578063deec053d146106c8578063e51bfcb4146106db57610369565b8063b548b89211610183578063c190c2ec1161015d578063c190c2ec1461064f578063cb04a34c1461066f578063d24c48bc1461068f578063d5ecf7c5146106a257610369565b8063b548b89214610611578063c0bb72b714610634578063c14609421461064757610369565b8063982f323c116101b4578063982f323c146105d8578063a67a6a45146105eb578063b42cbcd3146105fe57610369565b80638da5cb5b146105b55780638f32d59b146105bd5780638f6bc659146105c557610369565b80633a031bf0116102a957806369794795116102525780637e9eaf411161022c5780637e9eaf4114610574578063835666701461057c57806385b53fc81461058f5780638928378e146105a257610369565b806369794795146105355780636a8194e71461054a578063715018a61461056c57610369565b80634f3c1542116102835780634f3c1542146104fa57806356ea84b2146105025780635ac7d17c1461052257610369565b80633a031bf0146104b457806347d1b53c146104c75780634be87414146104e757610369565b8063197f0f05116103165780632a560845116102f05780632a560845146104685780632e822af31461047b5780633063bce21461048e578063387a498a146104a157610369565b8063197f0f05146104205780631a7777bb14610433578063295c39a51461045357610369565b8063121fb72f11610347578063121fb72f146103cc578063124f914c146103df578063133683641461040057610369565b8063042069d61461036e578063052f72d714610383578063062bd3e9146103ac575b600080fd5b61038161037c366004613ce6565b6107bd565b005b6103966103913660046139a4565b610871565b6040516103a39190614476565b60405180910390f35b6103bf6103ba366004613c3c565b61088b565b6040516103a391906143ec565b6103816103da366004613cb6565b6108a7565b6103f26103ed366004613b53565b610918565b6040516103a39291906146cc565b61041361040e366004613c3c565b61093c565b6040516103a39190614484565b61041361042e366004613c3c565b610973565b610446610441366004613c3c565b6109aa565b6040516103a391906144b1565b61045b6109e1565b6040516103a391906146e8565b61045b6104763660046139c2565b6109e7565b610381610489366004613b35565b610ac1565b61038161049c366004613b35565b610b72565b6103816104af366004613b35565b610be1565b6103966104c23660046139c2565b610c50565b6104da6104d5366004613ba1565b610c6c565b6040516103a39190614515565b6103816104f5366004613ce6565b610c8f565b610446610d00565b610515610510366004613c3c565b610d1c565b6040516103a391906144bf565b610396610530366004613c3c565b610d51565b61053d610d75565b6040516103a39190614531565b61055d610558366004613b53565b610dd1565b6040516103a39392919061443d565b610381610f3f565b610446610fbf565b61038161058a366004613b71565b610fdb565b61038161059d366004613b00565b611054565b6104466105b0366004613c3c565b611137565b6103bf611159565b610396611175565b61045b6105d3366004613c78565b611193565b6103816105e6366004613a2c565b611206565b6103816105f9366004613aa1565b6112c3565b61038161060c366004613d16565b611323565b61062461061f366004613c3c565b6114c8565b6040516103a394939291906144dc565b610381610642366004613b35565b611524565b610446611593565b61066261065d366004613ba1565b6115af565b6040516103a391906146da565b61068261067d366004613c3c565b6115ef565b6040516103a391906146be565b61044661069d366004613d46565b611611565b6106626106b0366004613c3c565b61163d565b6103816106c3366004613bd1565b61165f565b6105156106d6366004613c3c565b611994565b6106ee6106e9366004613b53565b6119b6565b6040516103a39190614492565b6104466119c8565b610381610711366004613cb6565b6119e4565b61071e611a55565b6040516103a39190614523565b61073e610739366004613c3c565b611af7565b6040516103a391906144cd565b610381610759366004613c97565b611c36565b61038161076c3660046139fc565b611ca7565b61038161077f3660046139a4565b611d18565b6103f2610792366004613b53565b611d35565b6104466107a5366004613c3c565b611d50565b6104466107b8366004613c3c565b611d87565b6107c5611175565b6107ce57600080fd5b600c8054600101908190556040517f8854ab3e00000000000000000000000000000000000000000000000000000000815273__AdminImpl_____________________________90638854ab3e9061082e9060009087908790600401614696565b60006040518083038186803b15801561084657600080fd5b505af415801561085a573d6000803e3d6000fd5b50505050600c54811461086c57600080fd5b505050565b6000610883818363ffffffff611dbc16565b90505b919050565b600061089682611deb565b61088360008363ffffffff611e1e16565b6108af611175565b6108b857600080fd5b600c8054600101908190556040517faa92e34800000000000000000000000000000000000000000000000000000000815273__AdminImpl_____________________________9063aa92e3489061082e906000908790879060040161466e565b61092061335e565b61092861335e565b610933836000611e4a565b91509150915091565b600061094782611deb565b5060009081526001602052604090206003015473ffffffffffffffffffffffffffffffffffffffff1690565b600061097e82611deb565b5060009081526001602052604090206004015473ffffffffffffffffffffffffffffffffffffffff1690565b6109b261335e565b6109bb82611deb565b506000908152600160209081526040918290208251918201909252600690910154815290565b60005490565b60006109f1611175565b6109fa57600080fd5b600c8054600101908190556040517fdd32998a00000000000000000000000000000000000000000000000000000000815273__AdminImpl_____________________________9063dd32998a90610a5a906000908890889060040161453f565b60206040518083038186803b158015610a7257600080fd5b505af4158015610a86573d6000803e3d6000fd5b505050506040513d601f19601f82011682018060405250610aaa9190810190613c5a565b9150600c548114610aba57600080fd5b5092915050565b610ac9611175565b610ad257600080fd5b600c8054600101908190556040517ff9cacc4c00000000000000000000000000000000000000000000000000000000815273__AdminImpl_____________________________9063f9cacc4c90610b3090600090869060040161461d565b60006040518083038186803b158015610b4857600080fd5b505af4158015610b5c573d6000803e3d6000fd5b50505050600c548114610b6e57600080fd5b5050565b610b7a611175565b610b8357600080fd5b600c8054600101908190556040517f0f44e6bc00000000000000000000000000000000000000000000000000000000815273__AdminImpl_____________________________90630f44e6bc90610b3090600090869060040161461d565b610be9611175565b610bf257600080fd5b600c8054600101908190556040517f311401d000000000000000000000000000000000000000000000000000000000815273__AdminImpl_____________________________9063311401d090610b3090600090869060040161461d565b6000610c6381848463ffffffff611ed616565b90505b92915050565b610c74613371565b610c7d82611deb565b610c636000848463ffffffff611f1616565b610c97611175565b610ca057600080fd5b600c8054600101908190556040517f7335079b00000000000000000000000000000000000000000000000000000000815273__AdminImpl_____________________________90637335079b9061082e9060009087908790600401614696565b610d0861335e565b506040805160208101909152600554815290565b610d24613388565b610d2d82611deb565b61088382610d4260008263ffffffff611f9216565b6000919063ffffffff61201616565b6000610d5c82611deb565b5060009081526001602052604090206007015460ff1690565b610d7d6133a8565b506040805160a0810182526005546080820190815281528151602081810184526006548252808301919091528251808201845260075481528284015282519081019092526008548252606081019190915290565b6060806060600080600001549050606081604051908082528060200260200182016040528015610e0b578160200160208202803883390190505b509050606082604051908082528060200260200182016040528015610e4a57816020015b610e37613371565b815260200190600190039081610e2f5790505b509050606083604051908082528060200260200182016040528015610e8957816020015b610e76613371565b815260200190600190039081610e6e5790505b50905060005b84811015610f3057610ea08161088b565b848281518110610eac57fe5b602002602001019073ffffffffffffffffffffffffffffffffffffffff16908173ffffffffffffffffffffffffffffffffffffffff1681525050610ef08982610c6c565b838281518110610efc57fe5b6020026020010181905250610f1189826115af565b828281518110610f1d57fe5b6020908102919091010152600101610e8f565b50919790965090945092505050565b610f47611175565b610f5057600080fd5b600b5460405160009173ffffffffffffffffffffffffffffffffffffffff16907f8be0079c531659141344cd1fd0a4f28419497f9722a3daafe3b4186f6b6457e0908390a3600b80547fffffffffffffffffffffffff0000000000000000000000000000000000000000169055565b610fc761335e565b506040805160208101909152600854815290565b815173ffffffffffffffffffffffffffffffffffffffff16600090815260026020818152604080842082870151855290915290912060019081018054849391927fffffffffffffffffffffffffffffffffffffffffffffffffffffffffffffff0090911691849081111561104b57fe5b02179055505050565b60005b8151811015610b6e57600082828151811061106e57fe5b6020026020010151600001519050600083838151811061108a57fe5b60209081029190910181015181015133600081815260038452604080822073ffffffffffffffffffffffffffffffffffffffff8816835290945283902080547fffffffffffffffffffffffffffffffffffffffffffffffffffffffffffffff001683151517905591519092507f4d7f317d2088d039c2a95a09fcbf9cc9191fad5905f883c937cc3d317c4a63279061112590859085906143fa565b60405180910390a25050600101611057565b61113f61335e565b61114882611deb565b61088360008363ffffffff61206e16565b600b5473ffffffffffffffffffffffffffffffffffffffff1690565b600b5473ffffffffffffffffffffffffffffffffffffffff16331490565b600061119d611175565b6111a657600080fd5b600c8054600101908190556040517fb25328e000000000000000000000000000000000000000000000000000000000815273__AdminImpl_____________________________9063b25328e090610a5a9060009088908890600401614638565b61120e611175565b61121757600080fd5b600c8054600101908190556040517f48d0648400000000000000000000000000000000000000000000000000000000815273__AdminImpl_____________________________906348d064849061127d906000908a908a908a908a908a9060040161458f565b60006040518083038186803b15801561129557600080fd5b505af41580156112a9573d6000803e3d6000fd5b50505050600c5481146112bb57600080fd5b505050505050565b600c8054600101908190556040517fbd76ecfd00000000000000000000000000000000000000000000000000000000815273__OperationImpl_________________________9063bd76ecfd9061082e90600090879087906004016145e9565b61132b613388565b5060008281526001602090815260409182902082516060810184526002909101546bffffffffffffffffffffffff80821683526c0100000000000000000000000082048116938301939093527801000000000000000000000000000000000000000000000000900463ffffffff16928101929092528251166113ba5780516bffffffffffffffffffffffff1682525b60208201516bffffffffffffffffffffffff166113ea576020808201516bffffffffffffffffffffffff16908301525b5060009182526001602090815260409283902082516002909101805492840151939094015163ffffffff167801000000000000000000000000000000000000000000000000027fffffffff00000000ffffffffffffffffffffffffffffffffffffffffffffffff6bffffffffffffffffffffffff9485166c01000000000000000000000000027fffffffffffffffff000000000000000000000000ffffffffffffffffffffffff959093167fffffffffffffffffffffffffffffffffffffffff00000000000000000000000090941693909317939093161716179055565b6114d06133e7565b6114d8613388565b6114e061335e565b6114e861335e565b6114f185611deb565b6114fa85611af7565b61150386610d1c565b61150c87611137565b61151588611d87565b93509350935093509193509193565b61152c611175565b61153557600080fd5b600c8054600101908190556040517f54dd351600000000000000000000000000000000000000000000000000000000815273__AdminImpl_____________________________906354dd351690610b3090600090869060040161461d565b61159b61335e565b506040805160208101909152600654815290565b6115b7613371565b6115c082611deb565b610c636115d56000858563ffffffff611f1616565b6115ea84610d4260008263ffffffff611f9216565b6121b7565b6115f7613371565b61160082611deb565b61088360008363ffffffff61226816565b61161961335e565b61162283611deb565b61162b82611deb565b610c636000848463ffffffff6122c816565b611645613371565b61164e82611deb565b61088360008363ffffffff61235e16565b611667613371565b50825173ffffffffffffffffffffffffffffffffffffffff166000908152600260209081526040808320828701518452825280832085845282529182902082518084019093525460ff81161515835261010090046fffffffffffffffffffffffffffffffff16908201526116d9613371565b506000838152600160208181526040928390208351808501909452909101546fffffffffffffffffffffffffffffffff808216845270010000000000000000000000000000000090910416908201528151156117925761177661177183602001516fffffffffffffffffffffffffffffffff1683602001516fffffffffffffffffffffffffffffffff1661242490919063ffffffff16565b612439565b6fffffffffffffffffffffffffffffffff1660208201526117d7565b602082015181516117c291611771916fffffffffffffffffffffffffffffffff908116911663ffffffff61242416565b6fffffffffffffffffffffffffffffffff1681525b82511561183c5761182061177184602001516fffffffffffffffffffffffffffffffff1683602001516fffffffffffffffffffffffffffffffff1661249b90919063ffffffff16565b6fffffffffffffffffffffffffffffffff166020820152611881565b6020830151815161186c91611771916fffffffffffffffffffffffffffffffff908116911663ffffffff61249b16565b6fffffffffffffffffffffffffffffffff1681525b6000848152600160208181526040808420855193018054958301516fffffffffffffffffffffffffffffffff908116700100000000000000000000000000000000029481167fffffffffffffffffffffffffffffffff0000000000000000000000000000000090971696909617861693909317909255875173ffffffffffffffffffffffffffffffffffffffff1683526002815281832097810151835296875280822095825294865293909320825181549390950151909316610100027fffffffffffffffffffffffffffffff00000000000000000000000000000000ff9415157fffffffffffffffffffffffffffffffffffffffffffffffffffffffffffffff00909316929092179390931617905550565b61199c613388565b6119a582611deb565b61088360008363ffffffff611f9216565b6000610883818363ffffffff6124ad16565b6119d061335e565b506040805160208101909152600754815290565b6119ec611175565b6119f557600080fd5b600c8054600101908190556040517f8c5dabd100000000000000000000000000000000000000000000000000000000815273__AdminImpl_____________________________90638c5dabd19061082e906000908790879060040161466e565b611a5d61345a565b506040805160c08101825260095467ffffffffffffffff808216835268010000000000000000808304821660208501527001000000000000000000000000000000008304821694840194909452780100000000000000000000000000000000000000000000000090910481166060830152600a549081166080830152919091046fffffffffffffffffffffffffffffffff1660a082015290565b611aff6133e7565b611b0882611deb565b50600090815260016020818152604092839020835161010081018552815473ffffffffffffffffffffffffffffffffffffffff908116825285518087018752948301546fffffffffffffffffffffffffffffffff808216875270010000000000000000000000000000000090910416858501528184019490945284516060808201875260028401546bffffffffffffffffffffffff80821684526c01000000000000000000000000820416838701527801000000000000000000000000000000000000000000000000900463ffffffff168288015282870191909152600383015485169082015260048201549093166080840152835180830185526005820154815260a084015283519182019093526006830154815260c082015260079091015460ff16151560e082015290565b611c3e611175565b611c4757600080fd5b600c8054600101908190556040517f10c87b0600000000000000000000000000000000000000000000000000000000815273__AdminImpl_____________________________906310c87b069061082e9060009087908790600401614653565b611caf611175565b611cb857600080fd5b600c8054600101908190556040517fe80f802400000000000000000000000000000000000000000000000000000000815273__AdminImpl_____________________________9063e80f80249061082e9060009087908790600401614567565b611d20611175565b611d2957600080fd5b611d32816124ef565b50565b611d3d61335e565b611d4561335e565b610933836001611e4a565b611d5861335e565b611d6182611deb565b506000908152600160209081526040918290208251918201909252600590910154815290565b611d8f61335e565b611d9882611deb565b61088382611dad60008263ffffffff611f9216565b6000919063ffffffff61259d16565b73ffffffffffffffffffffffffffffffffffffffff166000908152600491909101602052604090205460ff1690565b611d3260008001548210600d547f4d61726b6574204f4f42000000000000000000000000000000000000000000006126c4565b6000908152600191909101602052604090205473ffffffffffffffffffffffffffffffffffffffff1690565b611e5261335e565b611e5a61335e565b600054611e6561348f565b611e6e82612775565b905060005b82811015611eb557611e95611e906000898463ffffffff611f1616565b6127cb565b611ead57611eab8260008363ffffffff6127e516565b505b600101611e73565b50611ec9600087838863ffffffff6128bf16565b9350935050509250929050565b73ffffffffffffffffffffffffffffffffffffffff808316600090815260038501602090815260408083209385168352929052205460ff165b9392505050565b611f1e613371565b50815173ffffffffffffffffffffffffffffffffffffffff1660009081526002840160209081526040808320828601518452825280832084845282529182902082518084019093525460ff8116151583526fffffffffffffffffffffffffffffffff61010090910416908201529392505050565b611f9a613388565b506000908152600191909101602090815260409182902082516060810184526002909101546bffffffffffffffffffffffff80821683526c0100000000000000000000000082041692820192909252780100000000000000000000000000000000000000000000000090910463ffffffff169181019190915290565b61201e613388565b61202661335e565b61203785858563ffffffff61259d16565b9050612065838261204e888863ffffffff61226816565b604080516020810190915260078a01548152612a12565b95945050505050565b61207661335e565b600082815260018401602052604090206003015473ffffffffffffffffffffffffffffffffffffffff166120a861335e565b73ffffffffffffffffffffffffffffffffffffffff82166341976e096120d4878763ffffffff611e1e16565b6040518263ffffffff167c010000000000000000000000000000000000000000000000000000000002815260040161210c91906143ec565b60206040518083038186803b15801561212457600080fd5b505afa158015612138573d6000803e3d6000fd5b505050506040513d601f19601f8201168201806040525061215c9190810190613c1e565b80519091506121af9015157f53746f72616765000000000000000000000000000000000000000000000000007f50726963652063616e6e6f74206265207a65726f00000000000000000000000087612b7c565b949350505050565b6121bf613371565b602083015183516fffffffffffffffffffffffffffffffff909116901561222b576040805180820190915260018152602084810151908201906122209084906bffffffffffffffffffffffff16670de0b6b3a764000063ffffffff612c1a16565b815250915050610c66565b6040805180820190915260008152835160208201906122209084906bffffffffffffffffffffffff16670de0b6b3a764000063ffffffff612c3c16565b612270613371565b506000818152600180840160209081526040928390208351808501909452909101546fffffffffffffffffffffffffffffffff8082168452700100000000000000000000000000000000909104169082015292915050565b6122d061335e565b6006808501546000858152600187016020908152604091829020825191820190925292015482529061230c90829061230790612c89565b612cc0565b905061234781612307876001016000878152602001908152602001600020600601604051806020016040529081600082015481525050612c89565b604080516020810190915290815295945050505050565b612366613371565b61236e613388565b61237e848463ffffffff611f9216565b9050612388613371565b612398858563ffffffff61226816565b905060006123ac868663ffffffff611e1e16565b90506123b6613371565b60405180604001604052806001151581526020016123d48430612cd9565b905290506123e0613371565b6123e8613371565b6123f28587612d7e565b90925090506124178261240b858463ffffffff612e2616565b9063ffffffff612e2616565b9998505050505050505050565b60008282111561243357600080fd5b50900390565b6000816108836fffffffffffffffffffffffffffffffff821682147f4d617468000000000000000000000000000000000000000000000000000000007f556e73616665206361737420746f2075696e74313238000000000000000000006126c4565b600082820183811015610c6357600080fd5b805173ffffffffffffffffffffffffffffffffffffffff1660009081526002929092016020908152604080842092820151845291905290206001015460ff1690565b73ffffffffffffffffffffffffffffffffffffffff811661250f57600080fd5b600b5460405173ffffffffffffffffffffffffffffffffffffffff8084169216907f8be0079c531659141344cd1fd0a4f28419497f9722a3daafe3b4186f6b6457e090600090a3600b80547fffffffffffffffffffffffff00000000000000000000000000000000000000001673ffffffffffffffffffffffffffffffffffffffff92909216919091179055565b6125a561335e565b6125ad613371565b6125bd858563ffffffff61226816565b90506125c7613371565b6125cf613371565b6125d98386612d7e565b915091506125e561335e565b600087815260018901602052604090206004015473ffffffffffffffffffffffffffffffffffffffff1663e8177dcf6126248a8a63ffffffff611e1e16565b846020015186602001516040518463ffffffff167c010000000000000000000000000000000000000000000000000000000002815260040161266893929190614415565b60206040518083038186803b15801561268057600080fd5b505afa158015612694573d6000803e3d6000fd5b505050506040513d601f19601f820116820180604052506126b89190810190613c1e565b98975050505050505050565b8261086c576126d282612e40565b7f3a200000000000000000000000000000000000000000000000000000000000006126fc83612e40565b60405160200161270e93929190614366565b604080517fffffffffffffffffffffffffffffffffffffffffffffffffffffffffffffffe0818403018152908290527f08c379a000000000000000000000000000000000000000000000000000000000825261276c916004016144a0565b60405180910390fd5b61277d61348f565b6040518060200160405280836040519080825280602002602001820160405280156127c257816020015b6127af6134a2565b8152602001906001900390816127a75790505b50905292915050565b602001516fffffffffffffffffffffffffffffffff161590565b60006127f7848363ffffffff612f3b16565b1561280457506000611f0f565b612814838363ffffffff61206e16565b845180518490811061282257fe5b602090810291909101810151604090810192909252600084815260018601909152206007015460ff16156128b55760018460000151838151811061286257fe5b60209081029190910101519015159052612882838363ffffffff61226816565b51845180518490811061289157fe5b6020908102919091018101516fffffffffffffffffffffffffffffffff9092169101525b5060019392505050565b6128c761335e565b6128cf61335e565b6128d761335e565b6128df61335e565b60006128ea87612f69565b905060005b81811015612a0357612907888263ffffffff612f3b16565b612910576129fb565b612918613371565b6129298b8b8463ffffffff612f6e16565b905061293481612fdd565b1561293f57506129fb565b60006129666129548b8563ffffffff612fe516565b5160208401519063ffffffff61300f16565b905061297061335e565b612978613036565b905089156129b057600084815260018e016020908152604091829020825191820190925260059091015481526129ad90612c89565b90505b8251156129d9576129d26129c48383613058565b88519063ffffffff61249b16565b87526129f7565b6129f46129e68383612cc0565b87519063ffffffff61249b16565b86525b5050505b6001016128ef565b50919890975095505050505050565b612a1a613388565b612a22613371565b612a2a613371565b612a348588612d7e565b915091506000612a42613071565b90506000612a7a612a6c8a6040015163ffffffff168463ffffffff1661242490919063ffffffff16565b89519063ffffffff61300f16565b90506000612a8785612fdd565b15612a9457506000612ac6565b612a9e8288612cc0565b9050846020015184602001511015612ac657612ac38185602001518760200151612c1a565b90505b81811115612ad057fe5b60408051606081019091528a518190612b1990612b14906bffffffffffffffffffffffff16612b088188670de0b6b3a7640000612c1a565b9063ffffffff61249b16565b613081565b6bffffffffffffffffffffffff908116825260208d810151920191612b5091612b149116612b088187670de0b6b3a7640000612c1a565b6bffffffffffffffffffffffff1681526020018463ffffffff1681525095505050505050949350505050565b83612c1457612b8a83612e40565b7f3a20000000000000000000000000000000000000000000000000000000000000612bb484612e40565b7f203c000000000000000000000000000000000000000000000000000000000000612bde856130df565b60405161270e9594939291907f3e000000000000000000000000000000000000000000000000000000000000009060200161438e565b50505050565b60006121af82612c30868663ffffffff61300f16565b9063ffffffff61320d16565b6000831580612c49575082155b15612c6057612c5960008361320d565b9050611f0f565b6121af6001612b0884612c3083612c7d8a8a63ffffffff61300f16565b9063ffffffff61242416565b612c9161335e565b604080516020810190915282518190612cb890670de0b6b3a764000063ffffffff61249b16565b905292915050565b6000610c63838360000151670de0b6b3a7640000612c1a565b6040517f70a0823100000000000000000000000000000000000000000000000000000000815260009073ffffffffffffffffffffffffffffffffffffffff8416906370a0823190612d2e9085906004016143ec565b60206040518083038186803b158015612d4657600080fd5b505afa158015612d5a573d6000803e3d6000fd5b505050506040513d601f19601f82011682018060405250610c639190810190613c5a565b612d86613371565b612d8e613371565b612d96613371565b5060408051808201909152600181526020858101516fffffffffffffffffffffffffffffffff1690820152612dc9613371565b50604080518082019091526000815285516fffffffffffffffffffffffffffffffff166020820152612df9613371565b612e0383876121b7565b9050612e0d613371565b612e1783886121b7565b91989197509095505050505050565b612e2e613371565b610c6383612e3b8461322f565b613256565b60608082604051602001612e549190614351565b604080517fffffffffffffffffffffffffffffffffffffffffffffffffffffffffffffffe0818403018152919052905060205b8015612f245781517fffffffffffffffffffffffffffffffffffffffffffffffffffffffffffffffff90910190829082908110612ec057fe5b6020910101517f010000000000000000000000000000000000000000000000000000000000000090819004027fff000000000000000000000000000000000000000000000000000000000000001615612f1f5760010181529050610886565b612e87565b505060408051600081526020810190915292915050565b600082600001518281518110612f4d57fe5b6020026020010151604001516000015160001415905092915050565b515190565b612f76613371565b612f7e613371565b612f8f85858563ffffffff611f1616565b9050612f9a816127cb565b15612faf57612fa76132e8565b915050611f0f565b612fb7613388565b612fc7868563ffffffff611f9216565b9050612fd382826121b7565b9695505050505050565b602001511590565b612fed61335e565b8251805183908110612ffb57fe5b602002602001015160400151905092915050565b60008261301e57506000610c66565b8282028284828161302b57fe5b0414610c6357600080fd5b61303e61335e565b506040805160208101909152670de0b6b3a7640000815290565b6000610c6383670de0b6b3a76400008460000151612c1a565b600061307c42613308565b905090565b6000816108836bffffffffffffffffffffffff821682147f4d617468000000000000000000000000000000000000000000000000000000007f556e73616665206361737420746f2075696e74393600000000000000000000006126c4565b606081613120575060408051808201909152600181527f30000000000000000000000000000000000000000000000000000000000000006020820152610886565b8160005b811561313857600101600a82049150613124565b6060816040519080825280601f01601f191660200182016040528015613165576020820181803883390190505b508593509050815b8015613204577fffffffffffffffffffffffffffffffffffffffffffffffffffffffffffffffff01600a84066030017f0100000000000000000000000000000000000000000000000000000000000000028282815181106131ca57fe5b60200101907effffffffffffffffffffffffffffffffffffffffffffffffffffffffffffff1916908160001a905350600a8404935061316d565b50949350505050565b600080821161321b57600080fd5b600082848161322657fe5b04949350505050565b613237613371565b5060408051808201909152815115815260208083015190820152919050565b61325e613371565b613266613371565b8251845115159015151415613299578351151581526020808501519084015161328f919061249b565b6020820152610c63565b82602001518460200151106132c2578351151581526020808501519084015161328f9190612424565b825115158152602080840151908501516132dc9190612424565b60208201529392505050565b6132f0613371565b50604080518082019091526000808252602082015290565b60008161088363ffffffff821682147f4d617468000000000000000000000000000000000000000000000000000000007f556e73616665206361737420746f2075696e74333200000000000000000000006126c4565b6040518060200160405280600081525090565b604080518082019091526000808252602082015290565b604080516060810182526000808252602082018190529181019190915290565b60405180608001604052806133bb61335e565b81526020016133c861335e565b81526020016133d561335e565b81526020016133e261335e565b905290565b604051806101600160405280600073ffffffffffffffffffffffffffffffffffffffff168152602001613418613371565b8152602001613425613388565b8152600060208201819052604082015260600161344061335e565b815260200161344d61335e565b8152600060209091015290565b6040805160c081018252600080825260208201819052918101829052606081018290526080810182905260a081019190915290565b6040518060200160405280606081525090565b60408051606081018252600080825260208201529081016133e261335e565b6000610c638235614797565b600082601f8301126134de57600080fd5b81356134f16134ec8261471d565b6146f6565b81815260209384019390925082018360005b8381101561352f578135860161351988826136a8565b8452506020928301929190910190600101613503565b5050505092915050565b600082601f83011261354a57600080fd5b81356135586134ec8261471d565b9150818183526020840193506020810190508385604084028201111561357d57600080fd5b60005b8381101561352f57816135938882613881565b84525060209092019160409190910190600101613580565b600082601f8301126135bc57600080fd5b81356135ca6134ec8261471d565b915081818352602084019350602081019050838560408402820111156135ef57600080fd5b60005b8381101561352f578161360588826138c8565b845250602090920191604091909101906001016135f2565b6000610c6382356147a2565b600082601f83011261363a57600080fd5b81356136486134ec8261473e565b9150808252602083016020830185838301111561366457600080fd5b61366f8382846148ca565b50505092915050565b6000610c638235614871565b6000610c63823561487c565b6000610c63823561488b565b6000610c63823561489a565b600061016082840312156136bb57600080fd5b6136c66101006146f6565b905060006136d48484613684565b82525060206136e584848301613974565b60208301525060406136f984828501613784565b60408301525060c061370d84828501613974565b60608301525060e061372184828501613974565b608083015250610100613736848285016134c1565b60a08301525061012061374b84828501613974565b60c08301525061014082013567ffffffffffffffff81111561376c57600080fd5b61377884828501613629565b60e08301525092915050565b60006080828403121561379657600080fd5b6137a060806146f6565b905060006137ae848461361d565b82525060206137bf84848301613690565b60208301525060406137d384828501613690565b60408301525060606137e784828501613974565b60608301525092915050565b60006020828403121561380557600080fd5b61380f60206146f6565b9050600061381d8484613974565b82525092915050565b60006060828403121561383857600080fd5b61384260606146f6565b905060006138508484613998565b825250602061386184848301613998565b60208301525060406138758482850161398c565b60408301525092915050565b60006040828403121561389357600080fd5b61389d60406146f6565b905060006138ab84846134c1565b82525060206138bc84848301613974565b60208301525092915050565b6000604082840312156138da57600080fd5b6138e460406146f6565b905060006138f284846134c1565b82525060206138bc8484830161361d565b60006040828403121561391557600080fd5b61391f60406146f6565b9050600061392d848461361d565b82525060206138bc84848301613968565b60006020828403121561395057600080fd5b61395a60206146f6565b9050600061381d8484613980565b6000610c63823561481c565b6000610c6382356147f1565b6000610c6382516147f1565b6000610c63823561484a565b6000610c638235614860565b6000602082840312156139b657600080fd5b60006121af84846134c1565b600080604083850312156139d557600080fd5b60006139e185856134c1565b92505060206139f2858286016134c1565b9150509250929050565b60008060408385031215613a0f57600080fd5b6000613a1b85856134c1565b92505060206139f28582860161361d565b600080600080600060a08688031215613a4457600080fd5b6000613a5088886134c1565b9550506020613a6188828901613678565b9450506040613a7288828901613678565b9350506060613a83888289016137f3565b9250506080613a94888289016137f3565b9150509295509295909350565b60008060408385031215613ab457600080fd5b823567ffffffffffffffff811115613acb57600080fd5b613ad785828601613539565b925050602083013567ffffffffffffffff811115613af457600080fd5b6139f2858286016134cd565b600060208284031215613b1257600080fd5b813567ffffffffffffffff811115613b2957600080fd5b6121af848285016135ab565b600060208284031215613b4757600080fd5b60006121af84846137f3565b600060408284031215613b6557600080fd5b60006121af8484613881565b60008060608385031215613b8457600080fd5b6000613b908585613881565b92505060406139f28582860161369c565b60008060608385031215613bb457600080fd5b6000613bc08585613881565b92505060406139f285828601613974565b600080600060a08486031215613be657600080fd5b6000613bf28686613881565b9350506040613c0386828701613974565b9250506060613c1486828701613903565b9150509250925092565b600060208284031215613c3057600080fd5b60006121af848461393e565b600060208284031215613c4e57600080fd5b60006121af8484613974565b600060208284031215613c6c57600080fd5b60006121af8484613980565b60008060408385031215613c8b57600080fd5b60006139e18585613974565b60008060408385031215613caa57600080fd5b6000613a1b8585613974565b60008060408385031215613cc957600080fd5b6000613cd58585613974565b92505060206139f285828601613678565b60008060408385031215613cf957600080fd5b6000613d058585613974565b92505060206139f2858286016137f3565b60008060808385031215613d2957600080fd5b6000613d358585613974565b92505060206139f285828601613826565b60008060408385031215613d5957600080fd5b6000613d658585613974565b92505060206139f285828601613974565b6000613d828383613dc2565b505060200190565b6000610c63838361402e565b6000613da28383614162565b505060400190565b6000613da28383614220565b6000613da28383614313565b613dcb81614797565b82525050565b6000613ddc8261478a565b613de6818561478e565b9350613df183614784565b60005b82811015613e1c57613e07868351613d76565b9550613e1282614784565b9150600101613df4565b5093949350505050565b6000613e318261478a565b613e3b818561478e565b935083602082028501613e4d85614784565b60005b84811015613e84578383038852613e68838351613d8a565b9250613e7382614784565b602098909801979150600101613e50565b50909695505050505050565b6000613e9b8261478a565b613ea5818561478e565b9350613eb083614784565b60005b82811015613e1c57613ec6868351613d96565b9550613ed182614784565b9150600101613eb3565b6000613ee68261478a565b613ef0818561478e565b9350613efb83614784565b60005b82811015613e1c57613f11868351613daa565b9550613f1c82614784565b9150600101613efe565b6000613f318261478a565b613f3b818561478e565b9350613f4683614784565b60005b82811015613e1c57613f5c868351613db6565b9550613f6782614784565b9150600101613f49565b613dcb816147a2565b613dcb613f86826147a7565b6147f1565b613dcb613f86826147cc565b613dcb613f86826147f1565b6000613fae8261478a565b613fb88185610886565b9350613fc88185602086016148d6565b9290920192915050565b6000613fdd8261478a565b613fe7818561478e565b9350613ff78185602086016148d6565b61400081614902565b9093019392505050565b613dcb81614871565b613dcb816148a9565b613dcb816148b4565b613dcb816148bf565b80516000906101608401906140438582614013565b506020830151614056602086018261432d565b50604083015161406960408601826140d0565b50606083015161407c60c086018261432d565b50608083015161408f60e086018261432d565b5060a08301516140a3610100860182613dc2565b5060c08301516140b761012086018261432d565b5060e08301518482036101408601526120658282613fd2565b805160808301906140e18482613f71565b5060208201516140f4602085018261401c565b506040820151614107604085018261401c565b506060820151612c14606085018261432d565b80516020830190612c14848261432d565b8051606083019061413c8482614348565b50602082015161414f6020850182614348565b506040820151612c146040850182614336565b805160408301906141738482613dc2565b506020820151612c14602085018261432d565b80516101608301906141988482613dc2565b5060208201516141ab6020850182614302565b5060408201516141be606085018261412b565b5060608201516141d160c085018261400a565b5060808201516141e460e085018261400a565b5060a08201516141f861010085018261411a565b5060c082015161420c61012085018261411a565b5060e0820151612c14610140850182613f71565b805160408301906142318482613f71565b506020820151612c146020850182614324565b805160c0830190614255848261433f565b506020820151614268602085018261433f565b50604082015161427b604085018261433f565b50606082015161428e606085018261433f565b5060808201516142a1608085018261433f565b5060a0820151612c1460a0850182614324565b805160808301906142c5848261411a565b5060208201516142d8602085018261411a565b5060408201516142eb604085018261411a565b506060820151612c14606085018261411a565b9052565b805160408301906142318482614324565b805160408301906141738482613f71565b613dcb8161481c565b613dcb816147f1565b613dcb8161484a565b613dcb81614853565b613dcb81614860565b600061435d8284613f97565b50602001919050565b60006143728286613fa3565b915061437e8285613f8b565b6002820191506120658284613fa3565b600061439a8289613fa3565b91506143a68288613f8b565b6002820191506143b68287613fa3565b91506143c28286613f8b565b6002820191506143d28285613fa3565b91506143de8284613f7a565b506001019695505050505050565b60208101610c668284613dc2565b604081016144088285613dc2565b611f0f6020830184613f71565b606081016144238286613dc2565b614430602083018561432d565b6121af604083018461432d565b6060808252810161444e8186613dd1565b905081810360208301526144628185613edb565b905081810360408301526120658184613f26565b60208101610c668284613f71565b60208101610c66828461400a565b60208101610c668284614025565b60208082528101610c638184613fd2565b60208101610c66828461411a565b60608101610c66828461412b565b6101608101610c668284614186565b61020081016144eb8287614186565b6144f961016083018661412b565b6145076101c083018561411a565b6120656101e083018461411a565b60408101610c668284614220565b60c08101610c668284614244565b60808101610c6682846142b4565b6060810161454d82866142fe565b61455a6020830185613dc2565b6121af6040830184613dc2565b6060810161457582866142fe565b6145826020830185613dc2565b6121af6040830184613f71565b60c0810161459d82896142fe565b6145aa6020830188613dc2565b6145b7604083018761400a565b6145c4606083018661400a565b6145d1608083018561411a565b6145de60a083018461411a565b979650505050505050565b606081016145f782866142fe565b81810360208301526146098185613e90565b905081810360408301526120658184613e26565b6040810161462b82856142fe565b611f0f602083018461411a565b6060810161464682866142fe565b61455a602083018561432d565b6060810161466182866142fe565b614582602083018561432d565b6060810161467c82866142fe565b614689602083018561432d565b6121af604083018461400a565b606081016146a482866142fe565b6146b1602083018561432d565b6121af604083018461411a565b60408101610c668284614302565b6040810161462b828561411a565b60408101610c668284614313565b60208101610c66828461432d565b60405181810167ffffffffffffffff8111828210171561471557600080fd5b604052919050565b600067ffffffffffffffff82111561473457600080fd5b5060209081020190565b600067ffffffffffffffff82111561475557600080fd5b506020601f919091017fffffffffffffffffffffffffffffffffffffffffffffffffffffffffffffffe0160190565b60200190565b5190565b90815260200190565b600061088382614831565b151590565b7fff000000000000000000000000000000000000000000000000000000000000001690565b7fffff0000000000000000000000000000000000000000000000000000000000001690565b90565b60006009821061480057fe5b5090565b60006002821061480057fe5b60006003821061480057fe5b6fffffffffffffffffffffffffffffffff1690565b73ffffffffffffffffffffffffffffffffffffffff1690565b63ffffffff1690565b67ffffffffffffffff1690565b6bffffffffffffffffffffffff1690565b600061088382614797565b60006009821061480057600080fd5b60006002821061480057600080fd5b60006003821061480057600080fd5b6000610883826147f4565b600061088382614804565b600061088382614810565b82818337506000910152565b60005b838110156148f15781810151838201526020016148d9565b83811115612c145750506000910152565b601f017fffffffffffffffffffffffffffffffffffffffffffffffffffffffffffffffe0169056fea265627a7a72305820e924db173c9a974c78fee5158ae611ba1f7a318456ce25308a691c1e237d48276c6578706572696d656e74616cf50037",
    "source": "/*\n\n    Copyright 2019 dYdX Trading Inc.\n\n    Licensed under the Apache License, Version 2.0 (the \"License\");\n    you may not use this file except in compliance with the License.\n    You may obtain a copy of the License at\n\n    http://www.apache.org/licenses/LICENSE-2.0\n\n    Unless required by applicable law or agreed to in writing, software\n    distributed under the License is distributed on an \"AS IS\" BASIS,\n    WITHOUT WARRANTIES OR CONDITIONS OF ANY KIND, either express or implied.\n    See the License for the specific language governing permissions and\n    limitations under the License.\n\n*/\n\npragma solidity 0.5.7;\npragma experimental ABIEncoderV2;\n\nimport { SafeMath } from \"openzeppelin-solidity/contracts/math/SafeMath.sol\";\nimport { SoloMargin } from \"../protocol/SoloMargin.sol\";\nimport { Account } from \"../protocol/lib/Account.sol\";\nimport { Interest } from \"../protocol/lib/Interest.sol\";\nimport { Math } from \"../protocol/lib/Math.sol\";\nimport { Storage } from \"../protocol/lib/Storage.sol\";\nimport { Types } from \"../protocol/lib/Types.sol\";\n\n\ncontract TestSoloMargin is\n    SoloMargin\n{\n    using Math for uint256;\n    using SafeMath for uint256;\n\n    // ============ Constructor ============\n\n    constructor (\n        Storage.RiskParams memory rp,\n        Storage.RiskLimits memory rl\n    )\n        public\n        SoloMargin(rp, rl)\n    {}\n\n    // ============ Testing Functions ============\n\n    function setAccountBalance(\n        Account.Info memory account,\n        uint256 market,\n        Types.Par memory newPar\n    )\n        public\n    {\n        Types.Par memory oldPar = g_state.accounts[account.owner][account.number].balances[market];\n        Types.TotalPar memory totalPar = g_state.markets[market].totalPar;\n\n        // roll-back oldPar\n        if (oldPar.sign) {\n            totalPar.supply = uint256(totalPar.supply).sub(oldPar.value).to128();\n        } else {\n            totalPar.borrow = uint256(totalPar.borrow).sub(oldPar.value).to128();\n        }\n\n        // roll-forward newPar\n        if (newPar.sign) {\n            totalPar.supply = uint256(totalPar.supply).add(newPar.value).to128();\n        } else {\n            totalPar.borrow = uint256(totalPar.borrow).add(newPar.value).to128();\n        }\n\n        g_state.markets[market].totalPar = totalPar;\n        g_state.accounts[account.owner][account.number].balances[market] = newPar;\n    }\n\n    function setAccountStatus(\n        Account.Info memory account,\n        Account.Status status\n    )\n        public\n    {\n        g_state.accounts[account.owner][account.number].status = status;\n    }\n\n    function setMarketIndex(\n        uint256 market,\n        Interest.Index memory index\n    )\n        public\n    {\n        Interest.Index memory oldIndex = g_state.markets[market].index;\n\n        if (index.borrow == 0) {\n            index.borrow = oldIndex.borrow;\n        }\n        if (index.supply == 0) {\n            index.supply = oldIndex.supply;\n        }\n\n        g_state.markets[market].index = index;\n    }\n}\n",
    "sourcePath": "/home/dydx/app/contracts/testing/TestSoloMargin.sol",
    "compiler": {
        "name": "solc",
        "version": "0.5.7+commit.6da8b019.Emscripten.clang"
    },
    "schemaVersion": "3.0.23",
    "updatedAt": "2022-11-11T03:47:04.718Z",
    "networkType": "ethereum",
    "devdoc": {
        "methods": {
            "getAccountBalances((address,uint256))": {
                "params": {
                    "account": "The account to query"
                },
                "return": "The following values:                  - The ERC20 token address for each market                  - The account's principal value for each market                  - The account's (supplied or borrowed) number of tokens for each market"
            },
            "getAccountPar((address,uint256),uint256)": {
                "params": {
                    "account": "The account to query",
                    "marketId": "The market to query"
                },
                "return": "The principal value"
            },
            "getAccountStatus((address,uint256))": {
                "params": {
                    "account": "The account to query"
                },
                "return": "The account's status"
            },
            "getAccountValues((address,uint256))": {
                "params": {
                    "account": "The account to query"
                },
                "return": "The following values:                  - The supplied value of the account                  - The borrowed value of the account"
            },
            "getAccountWei((address,uint256),uint256)": {
                "params": {
                    "account": "The account to query",
                    "marketId": "The market to query"
                },
                "return": "The token amount"
            },
            "getAdjustedAccountValues((address,uint256))": {
                "params": {
                    "account": "The account to query"
                },
                "return": "The following values:                  - The supplied value of the account (adjusted for marginPremium)                  - The borrowed value of the account (adjusted for marginPremium)"
            },
            "getEarningsRate()": {
                "return": "The global earnings rate"
            },
            "getIsGlobalOperator(address)": {
                "params": {
                    "operator": "The address to query"
                },
                "return": "True if operator is a global operator"
            },
            "getIsLocalOperator(address,address)": {
                "params": {
                    "operator": "The possible operator",
                    "owner": "The owner of the accounts"
                },
                "return": "True if operator is approved for owner's accounts"
            },
            "getLiquidationSpread()": {
                "return": "The global liquidation spread"
            },
            "getLiquidationSpreadForPair(uint256,uint256)": {
                "params": {
                    "heldMarketId": "The market for which the account has collateral",
                    "owedMarketId": "The market for which the account has borrowed tokens"
                },
                "return": "The adjusted liquidation spread"
            },
            "getMarginRatio()": {
                "return": "The global margin-ratio"
            },
            "getMarket(uint256)": {
                "params": {
                    "marketId": "The market to query"
                },
                "return": "A Storage.Market struct with the current state of the market"
            },
            "getMarketCachedIndex(uint256)": {
                "params": {
                    "marketId": "The market to query"
                },
                "return": "The most recent index"
            },
            "getMarketCurrentIndex(uint256)": {
                "params": {
                    "marketId": "The market to query"
                },
                "return": "The estimated current index"
            },
            "getMarketInterestRate(uint256)": {
                "params": {
                    "marketId": "The market to query"
                },
                "return": "The current interest rate"
            },
            "getMarketInterestSetter(uint256)": {
                "params": {
                    "marketId": "The market to query"
                },
                "return": "The interest-setter address"
            },
            "getMarketIsClosing(uint256)": {
                "params": {
                    "marketId": "The market to query"
                },
                "return": "True if the market is closing"
            },
            "getMarketMarginPremium(uint256)": {
                "params": {
                    "marketId": "The market to query"
                },
                "return": "The market's margin premium"
            },
            "getMarketPrice(uint256)": {
                "params": {
                    "marketId": "The market to query"
                },
                "return": "The price of each atomic unit of the token"
            },
            "getMarketPriceOracle(uint256)": {
                "params": {
                    "marketId": "The market to query"
                },
                "return": "The price oracle address"
            },
            "getMarketSpreadPremium(uint256)": {
                "params": {
                    "marketId": "The market to query"
                },
                "return": "The market's spread premium"
            },
            "getMarketTokenAddress(uint256)": {
                "params": {
                    "marketId": "The market to query"
                },
                "return": "The token address"
            },
            "getMarketTotalPar(uint256)": {
                "params": {
                    "marketId": "The market to query"
                },
                "return": "The total principal amounts"
            },
            "getMarketWithInfo(uint256)": {
                "params": {
                    "marketId": "The market to query"
                },
                "return": "A tuple containing the values:                   - A Storage.Market struct with the current state of the market                   - The current estimated interest index                   - The current token price                   - The current market interest rate"
            },
            "getMinBorrowedValue()": {
                "return": "The global minimum borrow value"
            },
            "getNumExcessTokens(uint256)": {
                "params": {
                    "marketId": "The market to query"
                },
                "return": "The number of excess tokens"
            },
            "getNumMarkets()": {
                "return": "The number of markets"
            },
            "getRiskLimits()": {
                "return": "All global risk parameter limnits"
            },
            "getRiskParams()": {
                "return": "All global risk parameters"
            },
            "isOwner()": {
                "return": "true if `msg.sender` is the owner of the contract."
            },
            "operate((address,uint256)[],(uint8,uint256,(bool,uint8,uint8,uint256),uint256,uint256,address,uint256,bytes)[])": {
                "params": {
                    "accounts": "A list of all accounts that will be used in this operation. Cannot contain                  duplicates. In each action, the relevant account will be referred-to by its                  index in the list.",
                    "actions": "An ordered list of all actions that will be taken in this operation. The                  actions will be processed in order."
                }
            },
            "owner()": {
                "return": "the address of the owner."
            },
            "renounceOwnership()": {
                "details": "Allows the current owner to relinquish control of the contract."
            },
            "setOperators((address,bool)[])": {
                "params": {
                    "args": "A list of OperatorArgs which have an address and a boolean. The boolean value              denotes whether to approve (true) or revoke approval (false) for that address."
                }
            },
            "transferOwnership(address)": {
                "details": "Allows the current owner to transfer control of the contract to a newOwner.",
                "params": {
                    "newOwner": "The address to transfer ownership to."
                }
            }
        }
    },
    "userdoc": {
        "methods": {
            "getAccountBalances((address,uint256))": {
                "notice": "Get an account's summary for each market."
            },
            "getAccountPar((address,uint256),uint256)": {
                "notice": "Get the principal value for a particular account and market."
            },
            "getAccountStatus((address,uint256))": {
                "notice": "Get the status of an account (Normal, Liquidating, or Vaporizing)."
            },
            "getAccountValues((address,uint256))": {
                "notice": "Get the total supplied and total borrowed value of an account."
            },
            "getAccountWei((address,uint256),uint256)": {
                "notice": "Get the token balance for a particular account and market."
            },
            "getAdjustedAccountValues((address,uint256))": {
                "notice": "Get the total supplied and total borrowed values of an account adjusted by the marginPremium of each market. Supplied values are divided by (1 + marginPremium) for each market and borrowed values are multiplied by (1 + marginPremium) for each market. Comparing these adjusted values gives the margin-ratio of the account which will be compared to the global margin-ratio when determining if the account can be liquidated."
            },
            "getEarningsRate()": {
                "notice": "Get the global earnings-rate variable that determines what percentage of the interest paid by borrowers gets passed-on to suppliers."
            },
            "getIsGlobalOperator(address)": {
                "notice": "Return true if a particular address is approved as a global operator. Such an address can act on any account as if it were the operator's own."
            },
            "getIsLocalOperator(address,address)": {
                "notice": "Return true if a particular address is approved as an operator for an owner's accounts. Approved operators can act on the accounts of the owner as if it were the operator's own."
            },
            "getLiquidationSpread()": {
                "notice": "Get the global liquidation spread. This is the spread between oracle prices that incentivizes the liquidation of risky positions."
            },
            "getLiquidationSpreadForPair(uint256,uint256)": {
                "notice": "Get the adjusted liquidation spread for some market pair. This is equal to the global liquidation spread multiplied by (1 + spreadPremium) for each of the two markets."
            },
            "getMarginRatio()": {
                "notice": "Get the global minimum margin-ratio that every position must maintain to prevent being liquidated."
            },
            "getMarket(uint256)": {
                "notice": "Get basic information about a particular market."
            },
            "getMarketCachedIndex(uint256)": {
                "notice": "Get the most recently cached interest index for a market."
            },
            "getMarketCurrentIndex(uint256)": {
                "notice": "Get the interest index for a market if it were to be updated right now."
            },
            "getMarketInterestRate(uint256)": {
                "notice": "Get the current borrower interest rate for a market."
            },
            "getMarketInterestSetter(uint256)": {
                "notice": "Get the interest-setter address for a market."
            },
            "getMarketIsClosing(uint256)": {
                "notice": "Return true if a particular market is in closing mode. Additional borrows cannot be taken from a market that is closing."
            },
            "getMarketMarginPremium(uint256)": {
                "notice": "Get the margin premium for a market. A margin premium makes it so that any positions that include the market require a higher collateralization to avoid being liquidated."
            },
            "getMarketPrice(uint256)": {
                "notice": "Get the price of the token for a market."
            },
            "getMarketPriceOracle(uint256)": {
                "notice": "Get the price oracle address for a market."
            },
            "getMarketSpreadPremium(uint256)": {
                "notice": "Get the spread premium for a market. A spread premium makes it so that any liquidations that include the market have a higher spread than the global default."
            },
            "getMarketTokenAddress(uint256)": {
                "notice": "Get the ERC20 token address for a market."
            },
            "getMarketTotalPar(uint256)": {
                "notice": "Get the total principal amounts (borrowed and supplied) for a market."
            },
            "getMarketWithInfo(uint256)": {
                "notice": "Get comprehensive information about a particular market."
            },
            "getMinBorrowedValue()": {
                "notice": "Get the global minimum-borrow value which is the minimum value of any new borrow on Solo."
            },
            "getNumExcessTokens(uint256)": {
                "notice": "Get the number of excess tokens for a market. The number of excess tokens is calculated by taking the current number of tokens held in Solo, adding the number of tokens owed to Solo by borrowers, and subtracting the number of tokens owed to suppliers by Solo."
            },
            "getNumMarkets()": {
                "notice": "Get the total number of markets."
            },
            "getRiskLimits()": {
                "notice": "Get all risk parameter limits in a single struct. These are the maximum limits at which the risk parameters can be set by the admin of Solo."
            },
            "getRiskParams()": {
                "notice": "Get all risk parameters in a single struct."
            },
            "operate((address,uint256)[],(uint8,uint256,(bool,uint8,uint8,uint256),uint256,uint256,address,uint256,bytes)[])": {
                "notice": "The main entry-point to Solo that allows users and contracts to manage accounts. Take one or more actions on one or more accounts. The msg.sender must be the owner or operator of all accounts except for those being liquidated, vaporized, or traded with. One call to operate() is considered a singular \"operation\". Account collateralization is ensured only after the completion of the entire operation."
            },
            "ownerAddMarket(address,address,address,(uint256),(uint256))": {
                "notice": "Add a new market to Solo. Must be for a previously-unsupported ERC20 token."
            },
            "ownerSetEarningsRate((uint256))": {
                "notice": "Set the global earnings-rate variable that determines what percentage of the interest paid by borrowers gets passed-on to suppliers."
            },
            "ownerSetGlobalOperator(address,bool)": {
                "notice": "Approve (or disapprove) an address that is permissioned to be an operator for all accounts in Solo. Intended only to approve smart-contracts."
            },
            "ownerSetInterestSetter(uint256,address)": {
                "notice": "Set the interest-setter for a market."
            },
            "ownerSetIsClosing(uint256,bool)": {
                "notice": "Set (or unset) the status of a market to \"closing\". The borrowedValue of a market cannot increase while its status is \"closing\"."
            },
            "ownerSetLiquidationSpread((uint256))": {
                "notice": "Set the global liquidation spread. This is the spread between oracle prices that incentivizes the liquidation of risky positions."
            },
            "ownerSetMarginPremium(uint256,(uint256))": {
                "notice": "Set a premium on the minimum margin-ratio for a market. This makes it so that any positions that include this market require a higher collateralization to avoid being liquidated."
            },
            "ownerSetMarginRatio((uint256))": {
                "notice": "Set the global minimum margin-ratio that every position must maintain to prevent being liquidated."
            },
            "ownerSetMinBorrowedValue((uint256))": {
                "notice": "Set the global minimum-borrow value which is the minimum value of any new borrow on Solo."
            },
            "ownerSetPriceOracle(uint256,address)": {
                "notice": "Set the price oracle for a market."
            },
            "ownerSetSpreadPremium(uint256,(uint256))": {
                "notice": "Set a premium on the liquidation spread for a market. This makes it so that any liquidations that include this market have a higher spread than the global default."
            },
            "ownerWithdrawExcessTokens(uint256,address)": {
                "notice": "Withdraw an ERC20 token for which there is an associated market. Only excess tokens can be withdrawn. The number of excess tokens is calculated by taking the current number of tokens held in Solo, adding the number of tokens owed to Solo by borrowers, and subtracting the number of tokens owed to suppliers by Solo."
            },
            "ownerWithdrawUnsupportedTokens(address,address)": {
                "notice": "Withdraw an ERC20 token for which there is no associated market."
            },
            "renounceOwnership()": {
                "notice": "Renouncing to ownership will leave the contract without an owner. It will not be possible to call the functions with the `onlyOwner` modifier anymore."
            },
            "setOperators((address,bool)[])": {
                "notice": "Approves/disapproves any number of operators. An operator is an external address that has the same permissions to manipulate an account as the owner of the account. Operators are simply addresses and therefore may either be externally-owned Ethereum accounts OR smart contracts.     * Operators are also able to act as AutoTrader contracts on behalf of the account owner if the operator is a smart contract and implements the IAutoTrader interface."
            }
        }
    }
}