{
    "contractName": "TestCallee",
    "abi": [
        {
            "constant": true,
            "inputs": [],
            "name": "SOLO_MARGIN",
            "outputs": [
                {
                    "name": "",
                    "type": "address"
                }
            ],
            "payable": false,
            "stateMutability": "view",
            "type": "function"
        },
        {
            "constant": true,
            "inputs": [
                {
                    "name": "",
                    "type": "address"
                },
                {
                    "name": "",
                    "type": "uint256"
                }
            ],
            "name": "accountData",
            "outputs": [
                {
                    "name": "",
                    "type": "uint256"
                }
            ],
            "payable": false,
            "stateMutability": "view",
            "type": "function"
        },
        {
            "constant": true,
            "inputs": [
                {
                    "name": "",
                    "type": "address"
                }
            ],
            "name": "senderData",
            "outputs": [
                {
                    "name": "",
                    "type": "uint256"
                }
            ],
            "payable": false,
            "stateMutability": "view",
            "type": "function"
        },
        {
            "inputs": [
                {
                    "name": "soloMargin",
                    "type": "address"
                }
            ],
            "payable": false,
            "stateMutability": "nonpayable",
            "type": "constructor"
        },
        {
            "anonymous": false,
            "inputs": [
                {
                    "indexed": true,
                    "name": "sender",
                    "type": "address"
                },
                {
                    "indexed": true,
                    "name": "accountOwner",
                    "type": "address"
                },
                {
                    "indexed": false,
                    "name": "accountNumber",
                    "type": "uint256"
                },
                {
                    "indexed": false,
                    "name": "accountData",
                    "type": "uint256"
                },
                {
                    "indexed": false,
                    "name": "senderData",
                    "type": "uint256"
                }
            ],
            "name": "Called",
            "type": "event"
        },
        {
            "constant": false,
            "inputs": [
                {
                    "name": "sender",
                    "type": "address"
                },
                {
                    "components": [
                        {
                            "name": "owner",
                            "type": "address"
                        },
                        {
                            "name": "number",
                            "type": "uint256"
                        }
                    ],
                    "name": "account",
                    "type": "tuple"
                },
                {
                    "name": "data",
                    "type": "bytes"
                }
            ],
            "name": "callFunction",
            "outputs": [],
            "payable": false,
            "stateMutability": "nonpayable",
            "type": "function"
        }
    ],
    "bytecode": "0x608060405234801561001057600080fd5b50604051602080610c92833981018060405261002f9190810190610067565b60008054600160a060020a031916600160a060020a03929092169190911790556100aa565b6000610060825161008d565b9392505050565b60006020828403121561007957600080fd5b60006100858484610054565b949350505050565b60006100988261009e565b92915050565b600160a060020a031690565b610bd9806100b96000396000f3fe608060405234801561001057600080fd5b5060043610610068577c010000000000000000000000000000000000000000000000000000000060003504631b1fe68a811461006d5780632137c0e51461008b5780638b418713146100ab578063b33b9cc0146100c0575b600080fd5b6100756100d3565b60405161008291906109ee565b60405180910390f35b61009e610099366004610868565b6100ef565b6040516100829190610a13565b6100be6100b9366004610803565b61010c565b005b61009e6100ce3660046107dd565b610246565b60005473ffffffffffffffffffffffffffffffffffffffff1681565b600160209081526000928352604080842090915290825290205481565b60005433906101759073ffffffffffffffffffffffffffffffffffffffff1682147f4f6e6c79536f6c6f0000000000000000000000000000000000000000000000007f4f6e6c7920536f6c6f2063616e2063616c6c2066756e6374696f6e000000000084610258565b6000806101818461035d565b91509150846000015173ffffffffffffffffffffffffffffffffffffffff168673ffffffffffffffffffffffffffffffffffffffff167f4c3c182d38f9efecd4bc09ba9ff16cf39e0b4c71b7f0286d0306f9ef91a5a6a8876020015185856040516101ee93929190610a21565b60405180910390a3845173ffffffffffffffffffffffffffffffffffffffff90811660009081526001602090815260408083209882015183529781528782209490945596168652600290915292909320919091555050565b60026020526000908152604090205481565b8361035757610266836103c0565b7f3a20000000000000000000000000000000000000000000000000000000000000610290846103c0565b7f203c0000000000000000000000000000000000000000000000000000000000006102ba856104c1565b6040516102f09594939291907f3e0000000000000000000000000000000000000000000000000000000000000090602001610990565b604080517fffffffffffffffffffffffffffffffffffffffffffffffffffffffffffffffe0818403018152908290527f08c379a000000000000000000000000000000000000000000000000000000000825261034e91600401610a02565b60405180910390fd5b50505050565b6000806103af83516040147f5465737443616c6c6565000000000000000000000000000000000000000000007f43616c6c206461746120696e76616c6964206c656e6774680000000000000000610674565b505060208101516040820151915091565b606080826040516020016103d4919061094a565b604080517fffffffffffffffffffffffffffffffffffffffffffffffffffffffffffffffe0818403018152919052905060205b80156104a45781517fffffffffffffffffffffffffffffffffffffffffffffffffffffffffffffffff9091019082908290811061044057fe5b6020910101517f010000000000000000000000000000000000000000000000000000000000000090819004027fff00000000000000000000000000000000000000000000000000000000000000161561049f57600101815290506104bc565b610407565b5060408051600080825260208201909252905b509150505b919050565b60408051602a808252606082810190935273ffffffffffffffffffffffffffffffffffffffff841691839160208201818038833901905050905060307f0100000000000000000000000000000000000000000000000000000000000000028160008151811061052c57fe5b60200101907effffffffffffffffffffffffffffffffffffffffffffffffffffffffffffff1916908160001a90535060787f0100000000000000000000000000000000000000000000000000000000000000028160018151811061058c57fe5b60200101907effffffffffffffffffffffffffffffffffffffffffffffffffffffffffffff1916908160001a90535060005b60148110156104b757600281026105d7600f85166106c3565b8382602903815181106105e657fe5b60200101907effffffffffffffffffffffffffffffffffffffffffffffffffffffffffffff1916908160001a905350601090930492610627600f85166106c3565b83826028038151811061063657fe5b60200101907effffffffffffffffffffffffffffffffffffffffffffffffffffffffffffff1916908160001a905350506010909204916001016105be565b826106be57610682826103c0565b7f3a200000000000000000000000000000000000000000000000000000000000006106ac836103c0565b6040516020016102f09392919061095f565b505050565b6000600a8210156106fa57507f010000000000000000000000000000000000000000000000000000000000000060308201026104bc565b506057017f01000000000000000000000000000000000000000000000000000000000000000290565b600061072f8235610b29565b9392505050565b600082601f83011261074757600080fd5b813561075a61075582610a70565b610a49565b9150808252602083016020830185838301111561077657600080fd5b610781838284610b3f565b50505092915050565b60006040828403121561079c57600080fd5b6107a66040610a49565b905060006107b48484610723565b82525060206107c5848483016107d1565b60208301525092915050565b600061072f8235610b0d565b6000602082840312156107ef57600080fd5b60006107fb8484610723565b949350505050565b60008060006080848603121561081857600080fd5b60006108248686610723565b93505060206108358682870161078a565b925050606084013567ffffffffffffffff81111561085257600080fd5b61085e86828701610736565b9150509250925092565b6000806040838503121561087b57600080fd5b60006108878585610723565b9250506020610898858286016107d1565b9150509250929050565b6108b36108ae82610ac3565b610b0d565b82525050565b6108b36108ae82610ae8565b6108b36108ae82610b0d565b60006108dc82610ab6565b6108e681856104bc565b93506108f6818560208601610b4b565b9290920192915050565b6108b381610b34565b600061091482610ab6565b61091e8185610aba565b935061092e818560208601610b4b565b61093781610b77565b9093019392505050565b6108b381610b0d565b600061095682846108c5565b50602001919050565b600061096b82866108d1565b915061097782856108b9565b60028201915061098782846108d1565b95945050505050565b600061099c82896108d1565b91506109a882886108b9565b6002820191506109b882876108d1565b91506109c482866108b9565b6002820191506109d482856108d1565b91506109e082846108a2565b506001019695505050505050565b602081016109fc8284610900565b92915050565b6020808252810161072f8184610909565b602081016109fc8284610941565b60608101610a2f8286610941565b610a3c6020830185610941565b6107fb6040830184610941565b60405181810167ffffffffffffffff81118282101715610a6857600080fd5b604052919050565b600067ffffffffffffffff821115610a8757600080fd5b506020601f919091017fffffffffffffffffffffffffffffffffffffffffffffffffffffffffffffffe0160190565b5190565b90815260200190565b7fff000000000000000000000000000000000000000000000000000000000000001690565b7fffff0000000000000000000000000000000000000000000000000000000000001690565b90565b73ffffffffffffffffffffffffffffffffffffffff1690565b60006109fc82610b10565b60006109fc82610b29565b82818337506000910152565b60005b83811015610b66578181015183820152602001610b4e565b838111156103575750506000910152565b601f017fffffffffffffffffffffffffffffffffffffffffffffffffffffffffffffffe0169056fea265627a7a7230582093fb1c3fe70c1b302c87897a4a82d1e19c31fde76219ba5716763a55192febab6c6578706572696d656e74616cf50037",
    "source": "/*\n\n    Copyright 2019 dYdX Trading Inc.\n\n    Licensed under the Apache License, Version 2.0 (the \"License\");\n    you may not use this file except in compliance with the License.\n    You may obtain a copy of the License at\n\n    http://www.apache.org/licenses/LICENSE-2.0\n\n    Unless required by applicable law or agreed to in writing, software\n    distributed under the License is distributed on an \"AS IS\" BASIS,\n    WITHOUT WARRANTIES OR CONDITIONS OF ANY KIND, either express or implied.\n    See the License for the specific language governing permissions and\n    limitations under the License.\n\n*/\n\npragma solidity 0.5.7;\npragma experimental ABIEncoderV2;\n\nimport { OnlySolo } from \"../external/helpers/OnlySolo.sol\";\nimport { ICallee } from \"../protocol/interfaces/ICallee.sol\";\nimport { IAutoTrader } from \"../protocol/interfaces/IAutoTrader.sol\";\nimport { Account } from \"../protocol/lib/Account.sol\";\nimport { Require } from \"../protocol/lib/Require.sol\";\n\n\n/**\n * @title TestCallee\n * @author dYdX\n *\n * ICallee for testing\n */\ncontract TestCallee is\n    ICallee,\n    OnlySolo\n{\n    // ============ Constants ============\n\n    bytes32 constant FILE = \"TestCallee\";\n\n    // ============ Events ============\n\n    event Called(\n        address indexed sender,\n        address indexed accountOwner,\n        uint256 accountNumber,\n        uint256 accountData,\n        uint256 senderData\n    );\n\n    // ============ Storage ============\n\n    // owner => number => data\n    mapping (address => mapping (uint256 => uint256)) public accountData;\n\n    // sender => data\n    mapping (address => uint256) public senderData;\n\n    // ============ Constructor ============\n\n    constructor(\n        address soloMargin\n    )\n        public\n        OnlySolo(soloMargin)\n    {}\n\n    // ============ ICallee Functions ============\n\n    function callFunction(\n        address sender,\n        Account.Info memory account,\n        bytes memory data\n    )\n        public\n        onlySolo(msg.sender)\n    {\n        (\n            uint256 aData,\n            uint256 sData\n        ) = parseData(data);\n\n        emit Called(\n            sender,\n            account.owner,\n            account.number,\n            aData,\n            sData\n        );\n\n        accountData[account.owner][account.number] = aData;\n        senderData[sender] = sData;\n    }\n\n    // ============ Private Functions ============\n\n    function parseData(\n        bytes memory data\n    )\n        private\n        pure\n        returns (\n            uint256,\n            uint256\n        )\n    {\n        Require.that(\n            data.length == 64,\n            FILE,\n            \"Call data invalid length\"\n        );\n\n        uint256 aData;\n        uint256 sData;\n\n        /* solium-disable-next-line security/no-inline-assembly */\n        assembly {\n            aData := mload(add(data, 32))\n            sData := mload(add(data, 64))\n        }\n\n        return (\n            aData,\n            sData\n        );\n    }\n}\n",
    "sourcePath": "/home/dydx/app/contracts/testing/TestCallee.sol",
    "compiler": {
        "name": "solc",
        "version": "0.5.7+commit.6da8b019.Emscripten.clang"
    },
    "schemaVersion": "3.0.23",
    "updatedAt": "2022-11-11T03:47:01.601Z",
    "networkType": "ethereum",
    "devdoc": {
        "author": "dYdX * ICallee for testing",
        "methods": {},
        "title": "TestCallee"
    },
    "userdoc": {
        "methods": {}
    }
}