{
    "contractName": "TestToken",
    "abi": [
        {
            "anonymous": false,
            "inputs": [
                {
                    "indexed": false,
                    "name": "token",
                    "type": "address"
                },
                {
                    "indexed": false,
                    "name": "from",
                    "type": "address"
                },
                {
                    "indexed": false,
                    "name": "to",
                    "type": "address"
                },
                {
                    "indexed": false,
                    "name": "value",
                    "type": "uint256"
                }
            ],
            "name": "Transfer",
            "type": "event"
        },
        {
            "anonymous": false,
            "inputs": [
                {
                    "indexed": false,
                    "name": "token",
                    "type": "address"
                },
                {
                    "indexed": false,
                    "name": "owner",
                    "type": "address"
                },
                {
                    "indexed": false,
                    "name": "spender",
                    "type": "address"
                },
                {
                    "indexed": false,
                    "name": "value",
                    "type": "uint256"
                }
            ],
            "name": "Approval",
            "type": "event"
        },
        {
            "anonymous": false,
            "inputs": [
                {
                    "indexed": false,
                    "name": "token",
                    "type": "address"
                },
                {
                    "indexed": false,
                    "name": "owner",
                    "type": "address"
                },
                {
                    "indexed": false,
                    "name": "value",
                    "type": "uint256"
                }
            ],
            "name": "Issue",
            "type": "event"
        },
        {
            "constant": false,
            "inputs": [
                {
                    "name": "amount",
                    "type": "uint256"
                }
            ],
            "name": "issue",
            "outputs": [],
            "payable": false,
            "stateMutability": "nonpayable",
            "type": "function"
        },
        {
            "constant": false,
            "inputs": [
                {
                    "name": "who",
                    "type": "address"
                },
                {
                    "name": "amount",
                    "type": "uint256"
                }
            ],
            "name": "issueTo",
            "outputs": [],
            "payable": false,
            "stateMutability": "nonpayable",
            "type": "function"
        },
        {
            "constant": true,
            "inputs": [],
            "name": "totalSupply",
            "outputs": [
                {
                    "name": "",
                    "type": "uint256"
                }
            ],
            "payable": false,
            "stateMutability": "view",
            "type": "function"
        },
        {
            "constant": true,
            "inputs": [
                {
                    "name": "who",
                    "type": "address"
                }
            ],
            "name": "balanceOf",
            "outputs": [
                {
                    "name": "",
                    "type": "uint256"
                }
            ],
            "payable": false,
            "stateMutability": "view",
            "type": "function"
        },
        {
            "constant": true,
            "inputs": [
                {
                    "name": "owner",
                    "type": "address"
                },
                {
                    "name": "spender",
                    "type": "address"
                }
            ],
            "name": "allowance",
            "outputs": [
                {
                    "name": "",
                    "type": "uint256"
                }
            ],
            "payable": false,
            "stateMutability": "view",
            "type": "function"
        },
        {
            "constant": true,
            "inputs": [],
            "name": "symbol",
            "outputs": [
                {
                    "name": "",
                    "type": "string"
                }
            ],
            "payable": false,
            "stateMutability": "pure",
            "type": "function"
        },
        {
            "constant": true,
            "inputs": [],
            "name": "name",
            "outputs": [
                {
                    "name": "",
                    "type": "string"
                }
            ],
            "payable": false,
            "stateMutability": "pure",
            "type": "function"
        },
        {
            "constant": true,
            "inputs": [],
            "name": "decimals",
            "outputs": [
                {
                    "name": "",
                    "type": "uint8"
                }
            ],
            "payable": false,
            "stateMutability": "pure",
            "type": "function"
        },
        {
            "constant": false,
            "inputs": [
                {
                    "name": "to",
                    "type": "address"
                },
                {
                    "name": "value",
                    "type": "uint256"
                }
            ],
            "name": "transfer",
            "outputs": [
                {
                    "name": "",
                    "type": "bool"
                }
            ],
            "payable": false,
            "stateMutability": "nonpayable",
            "type": "function"
        },
        {
            "constant": false,
            "inputs": [
                {
                    "name": "from",
                    "type": "address"
                },
                {
                    "name": "to",
                    "type": "address"
                },
                {
                    "name": "value",
                    "type": "uint256"
                }
            ],
            "name": "transferFrom",
            "outputs": [
                {
                    "name": "",
                    "type": "bool"
                }
            ],
            "payable": false,
            "stateMutability": "nonpayable",
            "type": "function"
        },
        {
            "constant": false,
            "inputs": [
                {
                    "name": "spender",
                    "type": "address"
                },
                {
                    "name": "value",
                    "type": "uint256"
                }
            ],
            "name": "approve",
            "outputs": [
                {
                    "name": "",
                    "type": "bool"
                }
            ],
            "payable": false,
            "stateMutability": "nonpayable",
            "type": "function"
        }
    ],
    "bytecode": "0x608060405234801561001057600080fd5b506109c3806100206000396000f3fe608060405234801561001057600080fd5b50600436106100e6576000357c010000000000000000000000000000000000000000000000000000000090048063313ce5671161009e578063a9059cbb11610078578063a9059cbb14610196578063cc872b66146101a9578063dd62ed3e146101bc576100e6565b8063313ce5671461016657806370a082311461017b57806395d89b411461018e576100e6565b80631207f0c1116100cf5780631207f0c11461012957806318160ddd1461013e57806323b872dd14610153576100e6565b806306fdde03146100eb578063095ea7b314610109575b600080fd5b6100f36101cf565b60405161010091906108b4565b60405180910390f35b61011c61011736600461076c565b610206565b60405161010091906108a6565b61013c61013736600461076c565b610280565b005b610146610334565b60405161010091906108c5565b61011c61016136600461071f565b61033a565b61016e6104eb565b60405161010091906108d3565b6101466101893660046106bf565b6104f0565b6100f3610518565b61011c6101a436600461076c565b61054f565b61013c6101b736600461079c565b61063b565b6101466101ca3660046106e5565b610648565b60408051808201909152600a81527f5465737420546f6b656e00000000000000000000000000000000000000000000602082015290565b33600081815260026020908152604080832073ffffffffffffffffffffffffffffffffffffffff871684529091528082208490555190917fa0175360a15bca328baf7ea85c7b784d58b222a50d0ce760b10dba336d226a619161026e91309187908790610825565b60405180910390a15060015b92915050565b600054610293908263ffffffff61068016565b600090815573ffffffffffffffffffffffffffffffffffffffff83168152600160205260409020546102cb908263ffffffff61068016565b73ffffffffffffffffffffffffffffffffffffffff83166000908152600160205260409081902091909155517f4b2682685b046a3dae8e75ff49b82fa703e366056a43c6a791411011134f4f5d906103289030908590859061087e565b60405180910390a15050565b60005490565b73ffffffffffffffffffffffffffffffffffffffff8316600090815260016020526040812054821180159061039f575073ffffffffffffffffffffffffffffffffffffffff841660009081526002602090815260408083203384529091529020548211155b156104e05773ffffffffffffffffffffffffffffffffffffffff83166000908152600160205260409020546103da908363ffffffff61068016565b73ffffffffffffffffffffffffffffffffffffffff808516600090815260016020526040808220939093559086168152205461041c908363ffffffff61069216565b73ffffffffffffffffffffffffffffffffffffffff85166000908152600160209081526040808320939093556002815282822033835290522054610466908363ffffffff61069216565b73ffffffffffffffffffffffffffffffffffffffff851660009081526002602090815260408083203384529091529081902091909155517fd1398bee19313d6bf672ccb116e51f4a1a947e91c757907f51fbb5b5e56c698f906104d0903090879087908790610863565b60405180910390a15060016104e4565b5060005b9392505050565b601290565b73ffffffffffffffffffffffffffffffffffffffff1660009081526001602052604090205490565b60408051808201909152600481527f5445535400000000000000000000000000000000000000000000000000000000602082015290565b3360009081526001602052604081205482116106335733600090815260016020526040902054610585908363ffffffff61069216565b336000908152600160205260408082209290925573ffffffffffffffffffffffffffffffffffffffff8516815220546105c4908363ffffffff61068016565b73ffffffffffffffffffffffffffffffffffffffff84166000908152600160205260409081902091909155517fd1398bee19313d6bf672ccb116e51f4a1a947e91c757907f51fbb5b5e56c698f90610623903090339087908790610825565b60405180910390a150600161027a565b50600061027a565b6106453382610280565b50565b73ffffffffffffffffffffffffffffffffffffffff918216600090815260026020908152604080832093909416825291909152205490565b6000828201838110156104e457600080fd5b6000828211156106a157600080fd5b50900390565b60006104e482356108ee565b60006104e48235610917565b6000602082840312156106d157600080fd5b60006106dd84846106a7565b949350505050565b600080604083850312156106f857600080fd5b600061070485856106a7565b9250506020610715858286016106a7565b9150509250929050565b60008060006060848603121561073457600080fd5b600061074086866106a7565b9350506020610751868287016106a7565b9250506040610762868287016106b3565b9150509250925092565b6000806040838503121561077f57600080fd5b600061078b85856106a7565b9250506020610715858286016106b3565b6000602082840312156107ae57600080fd5b60006106dd84846106b3565b6107c381610920565b82525050565b6107c3816108ee565b6107c3816108f9565b60006107e6826108e1565b6107f081856108e5565b9350610800818560208601610931565b61080981610961565b9093019392505050565b6107c381610917565b6107c38161091a565b6080810161083382876107c9565b61084060208301866107ba565b61084d60408301856107c9565b61085a6060830184610813565b95945050505050565b6080810161087182876107c9565b61084060208301866107c9565b6060810161088c82866107c9565b61089960208301856107c9565b6106dd6040830184610813565b6020810161027a82846107d2565b602080825281016104e481846107db565b6020810161027a8284610813565b6020810161027a828461081c565b5190565b90815260200190565b600061027a826108fe565b151590565b73ffffffffffffffffffffffffffffffffffffffff1690565b90565b60ff1690565b600061027a82600061027a826108ee565b60005b8381101561094c578181015183820152602001610934565b8381111561095b576000848401525b50505050565b601f017fffffffffffffffffffffffffffffffffffffffffffffffffffffffffffffffe0169056fea265627a7a72305820724ded55f89faa7d8a9ac44fc90af3d09c942f151718148707541c807dabe9376c6578706572696d656e74616cf50037",
    "source": "/*\n\n    Copyright 2019 dYdX Trading Inc.\n\n    Licensed under the Apache License, Version 2.0 (the \"License\");\n    you may not use this file except in compliance with the License.\n    You may obtain a copy of the License at\n\n    http://www.apache.org/licenses/LICENSE-2.0\n\n    Unless required by applicable law or agreed to in writing, software\n    distributed under the License is distributed on an \"AS IS\" BASIS,\n    WITHOUT WARRANTIES OR CONDITIONS OF ANY KIND, either express or implied.\n    See the License for the specific language governing permissions and\n    limitations under the License.\n\n*/\n\npragma solidity 0.5.7;\npragma experimental ABIEncoderV2;\n\nimport { SafeMath } from \"openzeppelin-solidity/contracts/math/SafeMath.sol\";\n\n\ncontract TestToken {\n    using SafeMath for uint256;\n\n    uint256 supply;\n    mapping (address => uint256) balances;\n    mapping (address => mapping (address => uint256)) allowed;\n\n    event Transfer(address token, address from, address to, uint256 value);\n    event Approval(address token, address owner, address spender, uint256 value);\n    event Issue(address token, address owner, uint256 value);\n\n    // Allow anyone to get new token\n    function issue(uint256 amount) public {\n        issueTo(msg.sender, amount);\n    }\n\n    function issueTo(address who, uint256 amount) public {\n        supply = supply.add(amount);\n        balances[who] = balances[who].add(amount);\n        emit Issue(address(this), who, amount);\n    }\n\n    function totalSupply() public view returns (uint256) {\n        return supply;\n    }\n\n    function balanceOf(address who) public view returns (uint256) {\n        return balances[who];\n    }\n\n    function allowance(address owner, address spender) public view returns (uint256) {\n        return allowed[owner][spender];\n    }\n\n    function symbol() public pure returns (string memory) {\n        return \"TEST\";\n    }\n\n    function name() public pure returns (string memory) {\n        return \"Test Token\";\n    }\n\n    function decimals() public pure returns (uint8) {\n        return 18;\n    }\n\n    function transfer(address to, uint256 value) public returns (bool) {\n        if (balances[msg.sender] >= value) {\n            balances[msg.sender] = balances[msg.sender].sub(value);\n            balances[to] = balances[to].add(value);\n            emit Transfer(\n                address(this),\n                msg.sender,\n                to,\n                value\n            );\n            return true;\n        } else {\n            return false;\n        }\n    }\n\n    function transferFrom(address from, address to, uint256 value) public returns (bool) {\n        if (balances[from] >= value && allowed[from][msg.sender] >= value) {\n            balances[to] = balances[to].add(value);\n            balances[from] = balances[from].sub(value);\n            allowed[from][msg.sender] = allowed[from][msg.sender].sub(value);\n            emit Transfer(\n                address(this),\n                from,\n                to,\n                value\n            );\n            return true;\n        } else {\n            return false;\n        }\n    }\n\n    function approve(address spender, uint256 value) public returns (bool) {\n        allowed[msg.sender][spender] = value;\n        emit Approval(\n            address(this),\n            msg.sender,\n            spender,\n            value\n        );\n        return true;\n    }\n}\n",
    "sourcePath": "/home/dydx/app/contracts/testing/TestToken.sol",
    "compiler": {
        "name": "solc",
        "version": "0.5.7+commit.6da8b019.Emscripten.clang"
    },
    "schemaVersion": "3.0.23",
    "updatedAt": "2022-11-11T03:37:23.917Z",
    "devdoc": {
        "methods": {}
    },
    "userdoc": {
        "methods": {}
    }
}