{
    "contractName": "TestInterestSetter",
    "abi": [
        {
            "constant": true,
            "inputs": [
                {
                    "name": "",
                    "type": "address"
                }
            ],
            "name": "g_interestRates",
            "outputs": [
                {
                    "name": "value",
                    "type": "uint256"
                }
            ],
            "payable": false,
            "stateMutability": "view",
            "type": "function"
        },
        {
            "constant": false,
            "inputs": [
                {
                    "name": "token",
                    "type": "address"
                },
                {
                    "components": [
                        {
                            "name": "value",
                            "type": "uint256"
                        }
                    ],
                    "name": "rate",
                    "type": "tuple"
                }
            ],
            "name": "setInterestRate",
            "outputs": [],
            "payable": false,
            "stateMutability": "nonpayable",
            "type": "function"
        },
        {
            "constant": true,
            "inputs": [
                {
                    "name": "token",
                    "type": "address"
                },
                {
                    "name": "",
                    "type": "uint256"
                },
                {
                    "name": "",
                    "type": "uint256"
                }
            ],
            "name": "getInterestRate",
            "outputs": [
                {
                    "components": [
                        {
                            "name": "value",
                            "type": "uint256"
                        }
                    ],
                    "name": "",
                    "type": "tuple"
                }
            ],
            "payable": false,
            "stateMutability": "view",
            "type": "function"
        }
    ],
    "bytecode": "0x608060405234801561001057600080fd5b5061031a806100206000396000f3fe608060405234801561001057600080fd5b506004361061005d577c0100000000000000000000000000000000000000000000000000000000600035046301fb557c81146100625780638f8da8891461008b578063e8177dcf146100a0575b600080fd5b6100756100703660046101a3565b6100c0565b604051610082919061028a565b60405180910390f35b61009e6100993660046101c9565b6100d2565b005b6100b36100ae366004610203565b6100fe565b6040516100829190610276565b60006020819052908152604090205481565b73ffffffffffffffffffffffffffffffffffffffff909116600090815260208190526040902090519055565b61010661013e565b50505073ffffffffffffffffffffffffffffffffffffffff166000908152602081815260409182902082519182019092529054815290565b6040518060200160405280600081525090565b600061015d82356102c2565b9392505050565b60006020828403121561017657600080fd5b6101806020610298565b9050600061018e8484610197565b82525092915050565b600061015d82356102bf565b6000602082840312156101b557600080fd5b60006101c18484610151565b949350505050565b600080604083850312156101dc57600080fd5b60006101e88585610151565b92505060206101f985828601610164565b9150509250929050565b60008060006060848603121561021857600080fd5b60006102248686610151565b935050602061023586828701610197565b925050604061024686828701610197565b9150509250925092565b805160208301906102618482610267565b50505050565b610270816102bf565b82525050565b602081016102848284610250565b92915050565b602081016102848284610267565b60405181810167ffffffffffffffff811182821017156102b757600080fd5b604052919050565b90565b600073ffffffffffffffffffffffffffffffffffffffff821661028456fea265627a7a723058209a268f5351f9edf6331f61fc161b71c04435ab93bf6b7f4a1d2adcf7539590df6c6578706572696d656e74616cf50037",
    "source": "/*\n\n    Copyright 2019 dYdX Trading Inc.\n\n    Licensed under the Apache License, Version 2.0 (the \"License\");\n    you may not use this file except in compliance with the License.\n    You may obtain a copy of the License at\n\n    http://www.apache.org/licenses/LICENSE-2.0\n\n    Unless required by applicable law or agreed to in writing, software\n    distributed under the License is distributed on an \"AS IS\" BASIS,\n    WITHOUT WARRANTIES OR CONDITIONS OF ANY KIND, either express or implied.\n    See the License for the specific language governing permissions and\n    limitations under the License.\n\n*/\n\npragma solidity 0.5.7;\npragma experimental ABIEncoderV2;\n\nimport { SafeMath } from \"openzeppelin-solidity/contracts/math/SafeMath.sol\";\nimport { IInterestSetter } from \"../protocol/interfaces/IInterestSetter.sol\";\nimport { Interest } from \"../protocol/lib/Interest.sol\";\n\n\n/**\n * @title TestInterestSetter\n * @author dYdX\n *\n * Interest setter used for testing that always returns a constant interest rate\n */\ncontract TestInterestSetter is\n    IInterestSetter\n{\n    mapping (address => Interest.Rate) public g_interestRates;\n\n    function setInterestRate(\n        address token,\n        Interest.Rate memory rate\n    )\n        public\n    {\n        g_interestRates[token] = rate;\n    }\n\n    function getInterestRate(\n        address token,\n        uint256 /* borrowWei */,\n        uint256 /* supplyWei */\n    )\n        public\n        view\n        returns (Interest.Rate memory)\n    {\n        return g_interestRates[token];\n    }\n}\n",
    "sourcePath": "/home/dydx/app/contracts/testing/TestInterestSetter.sol",
    "compiler": {
        "name": "solc",
        "version": "0.5.7+commit.6da8b019.Emscripten.clang"
    },
    "schemaVersion": "3.0.23",
    "updatedAt": "2022-11-11T03:47:01.614Z",
    "networkType": "ethereum",
    "devdoc": {
        "author": "dYdX * Interest setter used for testing that always returns a constant interest rate",
        "methods": {},
        "title": "TestInterestSetter"
    },
    "userdoc": {
        "methods": {}
    }
}