{
    "contractName": "TestPolynomialInterestSetter",
    "abi": [
        {
            "constant": true,
            "inputs": [],
            "name": "getMaxAPR",
            "outputs": [
                {
                    "name": "",
                    "type": "uint256"
                }
            ],
            "payable": false,
            "stateMutability": "view",
            "type": "function"
        },
        {
            "constant": true,
            "inputs": [],
            "name": "getCoefficients",
            "outputs": [
                {
                    "name": "",
                    "type": "uint256[]"
                }
            ],
            "payable": false,
            "stateMutability": "view",
            "type": "function"
        },
        {
            "constant": true,
            "inputs": [
                {
                    "name": "",
                    "type": "address"
                },
                {
                    "name": "borrowWei",
                    "type": "uint256"
                },
                {
                    "name": "supplyWei",
                    "type": "uint256"
                }
            ],
            "name": "getInterestRate",
            "outputs": [
                {
                    "components": [
                        {
                            "name": "value",
                            "type": "uint256"
                        }
                    ],
                    "name": "",
                    "type": "tuple"
                }
            ],
            "payable": false,
            "stateMutability": "view",
            "type": "function"
        },
        {
            "inputs": [
                {
                    "components": [
                        {
                            "name": "maxAPR",
                            "type": "uint128"
                        },
                        {
                            "name": "coefficients",
                            "type": "uint128"
                        }
                    ],
                    "name": "parameters",
                    "type": "tuple"
                }
            ],
            "payable": false,
            "stateMutability": "nonpayable",
            "type": "constructor"
        },
        {
            "constant": false,
            "inputs": [
                {
                    "components": [
                        {
                            "name": "maxAPR",
                            "type": "uint128"
                        },
                        {
                            "name": "coefficients",
                            "type": "uint128"
                        }
                    ],
                    "name": "parameters",
                    "type": "tuple"
                }
            ],
            "name": "setParameters",
            "outputs": [],
            "payable": false,
            "stateMutability": "nonpayable",
            "type": "function"
        },
        {
            "constant": false,
            "inputs": [
                {
                    "components": [
                        {
                            "name": "maxAPR",
                            "type": "uint128"
                        },
                        {
                            "name": "coefficients",
                            "type": "uint128"
                        }
                    ],
                    "name": "parameters",
                    "type": "tuple"
                }
            ],
            "name": "createNew",
            "outputs": [
                {
                    "name": "",
                    "type": "address"
                }
            ],
            "payable": false,
            "stateMutability": "nonpayable",
            "type": "function"
        }
    ],
    "bytecode": "0x608060405234801561001057600080fd5b50604051604080610f11833981018060405261002f9190810190610145565b602081015181906000906001608060020a03165b801561005d57610100810691909101906101009004610043565b50606481146100a1576040517f08c379a0000000000000000000000000000000000000000000000000000000008152600401610098906101a4565b60405180910390fd5b508051600080546020909301516001608060020a03908116700100000000000000000000000000000000029281166001608060020a031990941693909317909216179055506101f6565b6000604082840312156100fd57600080fd5b61010760406101ba565b905060006101158484610132565b825250602061012684848301610132565b60208301525092915050565b600061013e82516101ea565b9392505050565b60006040828403121561015757600080fd5b600061016384846100eb565b949350505050565b6000610178601c836101e1565b7f436f656666696369656e7473206d7573742073756d20746f2031303000000000815260200192915050565b602080825281016101b48161016b565b92915050565b60405181810167ffffffffffffffff811182821017156101d957600080fd5b604052919050565b90815260200190565b6001608060020a031690565b610d0c806102056000396000f3fe608060405234801561001057600080fd5b5060043610610084576000357c010000000000000000000000000000000000000000000000000000000090048063afd4c8d61161006d578063afd4c8d6146100c7578063b3adafcf146100dc578063e8177dcf146100f157610084565b80631e68607a14610089578063a524d8fb146100a7575b600080fd5b610091610111565b60405161009e91906105ce565b60405180910390f35b6100ba6100b53660046104a8565b610129565b60405161009e91906105a4565b6100cf610165565b60405161009e9190610593565b6100ef6100ea3660046104a8565b6101f4565b005b6101046100ff36600461045b565b61025a565b60405161009e91906105c0565b6000546fffffffffffffffffffffffffffffffff1690565b600081604051610138906103b8565b61014291906105b2565b604051809103906000f08015801561015e573d6000803e3d6000fd5b5092915050565b604080516010808252610220820190925260609182919060208201610200803883395050600080549293509170010000000000000000000000000000000090046fffffffffffffffffffffffffffffffff1690505b80156101ec5761010081068383815181106101d157fe5b602090810291909101015260019091019061010090046101ba565b508152905090565b8051600080546020909301516fffffffffffffffffffffffffffffffff908116700100000000000000000000000000000000029281167fffffffffffffffffffffffffffffffff0000000000000000000000000000000090941693909317909216179055565b6102626103c6565b8261027c5750604080516020810190915260008152610381565b6102846103d9565b50604080518082019091526000546fffffffffffffffffffffffffffffffff8082168084527001000000000000000000000000000000009092041660208301528385106102f05760405180602001604052806301e1338083816102e357fe5b0481525092505050610381565b6020820151600090670de0b6b3a7640000906fffffffffffffffffffffffffffffffff165b60ff81168015610334578281028401935081811415610334575061035a565b87610345848b63ffffffff61038816565b8161034c57fe5b049250506101009004610315565b6040805160208101909152806b0a3098c68eb9427db8000000858702049052955050505050505b9392505050565b600082610397575060006103b2565b828202828482816103a457fe5b04146103af57600080fd5b90505b92915050565b610675806200065e83390190565b6040518060200160405280600081525090565b604080518082019091526000808252602082015290565b60006103818235610647565b60006040828403121561040e57600080fd5b61041860406105dc565b905060006104268484610443565b825250602061043784848301610443565b60208301525092915050565b60006103818235610616565b60006103818235610644565b60008060006060848603121561047057600080fd5b600061047c86866103f0565b935050602061048d8682870161044f565b925050604061049e8682870161044f565b9150509250925092565b6000604082840312156104ba57600080fd5b60006104c684846103fc565b949350505050565b60006104da838361058a565b505060200190565b60006104ed82610609565b6104f7818561060d565b935061050283610603565b60005b8281101561052d576105188683516104ce565b955061052382610603565b9150600101610505565b5093949350505050565b61054081610652565b82525050565b805160408301906105578482610581565b50602082015161056a6020850182610581565b50505050565b8051602083019061056a848261058a565b61054081610616565b61054081610644565b6020808252810161038181846104e2565b602081016103b28284610537565b604081016103b28284610546565b602081016103b28284610570565b602081016103b2828461058a565b60405181810167ffffffffffffffff811182821017156105fb57600080fd5b604052919050565b60200190565b5190565b90815260200190565b6fffffffffffffffffffffffffffffffff1690565b73ffffffffffffffffffffffffffffffffffffffff1690565b90565b60006103b28261062b565b60006103b28261064756fe608060405234801561001057600080fd5b50604051604080610675833981018060405261002f9190810190610142565b60208101516000906001608060020a03165b801561005b57610100810691909101906101009004610041565b506064811461009f576040517f08c379a0000000000000000000000000000000000000000000000000000000008152600401610096906101a1565b60405180910390fd5b508051600080546020909301516001608060020a03908116700100000000000000000000000000000000029281166001608060020a0319909416939093179092161790556101f3565b6000604082840312156100fa57600080fd5b61010460406101b7565b90506000610112848461012f565b82525060206101238484830161012f565b60208301525092915050565b600061013b82516101e7565b9392505050565b60006040828403121561015457600080fd5b600061016084846100e8565b949350505050565b6000610175601c836101de565b7f436f656666696369656e7473206d7573742073756d20746f2031303000000000815260200192915050565b602080825281016101b181610168565b92915050565b60405181810167ffffffffffffffff811182821017156101d657600080fd5b604052919050565b90815260200190565b6001608060020a031690565b610473806102026000396000f3fe608060405234801561001057600080fd5b506004361061005d577c010000000000000000000000000000000000000000000000000000000060003504631e68607a8114610062578063afd4c8d614610080578063e8177dcf14610095575b600080fd5b61006a6100b5565b60405161007791906103f7565b60405180910390f35b6100886100cd565b60405161007791906103d8565b6100a86100a33660046102fc565b61015c565b60405161007791906103e9565b6000546fffffffffffffffffffffffffffffffff1690565b604080516010808252610220820190925260609182919060208201610200803883395050600080549293509170010000000000000000000000000000000090046fffffffffffffffffffffffffffffffff1690505b801561015457610100810683838151811061013957fe5b60209081029190910101526001909101906101009004610122565b508152905090565b6101646102ba565b8261017e5750604080516020810190915260008152610283565b6101866102cd565b50604080518082019091526000546fffffffffffffffffffffffffffffffff8082168084527001000000000000000000000000000000009092041660208301528385106101f25760405180602001604052806301e1338083816101e557fe5b0481525092505050610283565b6020820151600090670de0b6b3a7640000906fffffffffffffffffffffffffffffffff165b60ff81168015610236578281028401935081811415610236575061025c565b87610247848b63ffffffff61028a16565b8161024e57fe5b049250506101009004610217565b6040805160208101909152806b0a3098c68eb9427db8000000858702049052955050505050505b9392505050565b600082610299575060006102b4565b828202828482816102a657fe5b04146102b157600080fd5b90505b92915050565b6040518060200160405280600081525090565b604080518082019091526000808252602082015290565b6000610283823561041b565b60006102838235610418565b60008060006060848603121561031157600080fd5b600061031d86866102e4565b935050602061032e868287016102f0565b925050604061033f868287016102f0565b9150509250925092565b600061035583836103c9565b505060200190565b60006103688261040b565b610372818561040f565b935061037d83610405565b60005b828110156103a857610393868351610349565b955061039e82610405565b9150600101610380565b5093949350505050565b805160208301906103c384826103c9565b50505050565b6103d281610418565b82525050565b60208082528101610283818461035d565b602081016102b482846103b2565b602081016102b482846103c9565b60200190565b5190565b90815260200190565b90565b600073ffffffffffffffffffffffffffffffffffffffff82166102b456fea265627a7a7230582060f25067c223fac0fb677ff3e329b344b6a2456520e93cb12cd4ead04457215f6c6578706572696d656e74616cf50037a265627a7a723058200c6281783e8fbda39a0a9c724b5ea85b6b4ba513b12b551161c80ecf5e438c826c6578706572696d656e74616cf50037",
    "source": "/*\n\n    Copyright 2019 dYdX Trading Inc.\n\n    Licensed under the Apache License, Version 2.0 (the \"License\");\n    you may not use this file except in compliance with the License.\n    You may obtain a copy of the License at\n\n    http://www.apache.org/licenses/LICENSE-2.0\n\n    Unless required by applicable law or agreed to in writing, software\n    distributed under the License is distributed on an \"AS IS\" BASIS,\n    WITHOUT WARRANTIES OR CONDITIONS OF ANY KIND, either express or implied.\n    See the License for the specific language governing permissions and\n    limitations under the License.\n\n*/\n\npragma solidity 0.5.7;\npragma experimental ABIEncoderV2;\n\nimport { PolynomialInterestSetter } from \"../external/interestsetters/PolynomialInterestSetter.sol\";\n\n\n/**\n * @title TestPolynomialInterestSetter\n * @author dYdX\n *\n * PolynomialInterestSetter for testing\n */\ncontract TestPolynomialInterestSetter is\n    PolynomialInterestSetter\n{\n    constructor(\n        PolyStorage memory parameters\n    )\n        public\n        PolynomialInterestSetter(parameters)\n    {\n    }\n\n    function setParameters(\n        PolyStorage memory parameters\n    )\n        public\n    {\n        g_storage = parameters;\n    }\n\n    function createNew(\n        PolyStorage memory parameters\n    )\n        public\n        returns (PolynomialInterestSetter)\n    {\n        return new PolynomialInterestSetter(parameters);\n    }\n}\n",
    "sourcePath": "/home/dydx/app/contracts/testing/TestPolynomialInterestSetter.sol",
    "compiler": {
        "name": "solc",
        "version": "0.5.7+commit.6da8b019.Emscripten.clang"
    },
    "schemaVersion": "3.0.23",
    "updatedAt": "2022-11-11T03:47:01.616Z",
    "networkType": "ethereum",
    "devdoc": {
        "author": "dYdX * PolynomialInterestSetter for testing",
        "methods": {
            "getCoefficients()": {
                "return": "The coefficients"
            },
            "getInterestRate(address,uint256,uint256)": {
                "return": "The interest rate per second (times 10 ** 18)"
            },
            "getMaxAPR()": {
                "return": "The maximum APR"
            }
        },
        "title": "TestPolynomialInterestSetter"
    },
    "userdoc": {
        "methods": {
            "getCoefficients()": {
                "notice": "Get all of the coefficients of the interest calculation, starting from the coefficient for the first-order utilization variable."
            },
            "getInterestRate(address,uint256,uint256)": {
                "notice": "Get the interest rate given some borrowed and supplied amounts. The interest function is a polynomial function of the utilization (borrowWei / supplyWei) of the market.     *   - If borrowWei > supplyWei then the utilization is considered to be equal to 1.  - If both are zero, then the utilization is considered to be equal to 0."
            },
            "getMaxAPR()": {
                "notice": "Get the maximum APR that this interestSetter will return. The actual APY may be higher depending on how often the interest is compounded."
            }
        }
    }
}