{
    "contractName": "UsdcPriceOracle",
    "abi": [
        {
            "constant": true,
            "inputs": [],
            "name": "ONE_DOLLAR",
            "outputs": [
                {
                    "name": "",
                    "type": "uint256"
                }
            ],
            "payable": false,
            "stateMutability": "view",
            "type": "function"
        },
        {
            "constant": true,
            "inputs": [
                {
                    "name": "",
                    "type": "address"
                }
            ],
            "name": "getPrice",
            "outputs": [
                {
                    "components": [
                        {
                            "name": "value",
                            "type": "uint256"
                        }
                    ],
                    "name": "",
                    "type": "tuple"
                }
            ],
            "payable": false,
            "stateMutability": "view",
            "type": "function"
        }
    ],
    "bytecode": "0x608060405234801561001057600080fd5b506101bf806100206000396000f3fe608060405234801561001057600080fd5b5060043610610052577c0100000000000000000000000000000000000000000000000000000000600035046341976e098114610057578063572ca9e714610080575b600080fd5b61006a6100653660046100f6565b610095565b6040516100779190610142565b60405180910390f35b6100886100bd565b6040516100779190610156565b61009d6100d0565b505060408051602081019091526c0c9f2c9cd04674edea40000000815290565b6ec097ce7bc90715b34b9f100000000081565b6040518060200160405280600081525090565b60006100ef8235610167565b9392505050565b60006020828403121561010857600080fd5b600061011484846100e3565b949350505050565b8051602083019061012d8482610133565b50505050565b61013c81610164565b82525050565b60208101610150828461011c565b92915050565b602081016101508284610133565b90565b600073ffffffffffffffffffffffffffffffffffffffff821661015056fea265627a7a72305820b7daf43f83890db21f33cec9aa55673864c917f8399f574cd3ea5304ef01beff6c6578706572696d656e74616cf50037",
    "source": "/*\n\n    Copyright 2019 dYdX Trading Inc.\n\n    Licensed under the Apache License, Version 2.0 (the \"License\");\n    you may not use this file except in compliance with the License.\n    You may obtain a copy of the License at\n\n    http://www.apache.org/licenses/LICENSE-2.0\n\n    Unless required by applicable law or agreed to in writing, software\n    distributed under the License is distributed on an \"AS IS\" BASIS,\n    WITHOUT WARRANTIES OR CONDITIONS OF ANY KIND, either express or implied.\n    See the License for the specific language governing permissions and\n    limitations under the License.\n\n*/\n\npragma solidity 0.5.7;\npragma experimental ABIEncoderV2;\n\nimport { IPriceOracle } from \"../../protocol/interfaces/IPriceOracle.sol\";\nimport { Monetary } from \"../../protocol/lib/Monetary.sol\";\n\n\n/**\n * @title UsdcPriceOracle\n * @author dYdX\n *\n * PriceOracle that returns the price of USDC in USD\n */\ncontract UsdcPriceOracle is\n    IPriceOracle\n{\n    // ============ Constants ============\n\n    uint256 constant DECIMALS = 6;\n\n    uint256 constant EXPECTED_PRICE = ONE_DOLLAR / (10 ** DECIMALS);\n\n    // ============ IPriceOracle Functions =============\n\n    function getPrice(\n        address /* token */\n    )\n        public\n        view\n        returns (Monetary.Price memory)\n    {\n        return Monetary.Price({ value: EXPECTED_PRICE });\n    }\n}\n",
    "sourcePath": "/home/dydx/app/contracts/external/oracles/UsdcPriceOracle.sol",
    "compiler": {
        "name": "solc",
        "version": "0.5.7+commit.6da8b019.Emscripten.clang"
    },
    "schemaVersion": "3.0.23",
    "updatedAt": "2022-11-11T03:47:04.751Z",
    "networkType": "ethereum",
    "devdoc": {
        "author": "dYdX * PriceOracle that returns the price of USDC in USD",
        "methods": {},
        "title": "UsdcPriceOracle"
    },
    "userdoc": {
        "methods": {}
    }
}